:1000000010C01FC01EC01DC01CC01BC01AC019C01C
:1000100018C017C016C015C014C013C012C0F3C05A
:1000200041C111241FBECFE5D1E0DEBFCDBF10E03E
:10003000A0E6B0E001C01D92AB38B107E1F702D0F5
:1000400049C2DECFDF93CF930F92CDB7DEB778945E
:10005000AAE3B0E0EAE3F0E0808181608C93ABE357
:10006000B0E0EBE3F0E080818E7F8C9387E58983BD
:10007000898125D091D08823E9F373D0882341F07A
:10008000ABE3B0E0EBE3F0E0808181608C93F2CFF2
:10009000ABE3B0E0EBE3F0E080818E7F8C93EACFBE
:1000A000DF93CF93CDB7DEB7109274001092730038
:1000B0001092860010928500CF91DF910895DF9312
:1000C000CF930F92CDB7DEB78983EADF8981809322
:1000D0006000AAE3B0E0EAE3F0E0808180658C9301
:1000E000ABE3B0E0EBE3F0E0808180618C93ABE3C5
:1000F000B0E0EBE3F0E0808180648C93AAE3B0E0B1
:10010000EAE3F0E080818F7B8C93EDE2F0E088EA17
:100110008083EEE2F0E080EF80830F90CF91DF915B
:100120000895DF93CF9300D0CDB7DEB78A83809157
:1001300085008F5F8F7089839091860089818917F0
:10014000D9F38981882F90E0FC01EB58FF4F8A8119
:1001500080838981809385000F900F90CF91DF91EC
:100160000895DF93CF93CDB7DEB790917300809160
:1001700074009817D1F3809174008F5F8F70809313
:10018000740080917400882F90E0FC01ED59FF4FBE
:100190008081CF91DF910895DF93CF930F92CDB7F8
:1001A000DEB790917300809174001982981711F056
:1001B00081E0898389810F90CF91DF910895DF934A
:1001C000CF9300D0CDB7DEB79A83898389819A8196
:1001D00090938800809387000F900F90CF91DF91CC
:1001E0000895DF93CF9300D0CDB7DEB79A8389838C
:1001F00089819A8190938A00809389000F900F9053
:10020000CF91DF9108951F920F920FB60F92112494
:100210008F939F93AF93BF93EF93FF93DF93CF930E
:10022000CDB7DEB71092620010926100AAE3B0E091
:10023000EAE3F0E080818F7B8C93E9E3F0E080815A
:10024000882F90E080719070009749F0E9E3F0E02A
:100250008081882F90E080749070009771F3E9E3BB
:10026000F0E08081882F90E080749070009729F4EE
:10027000EDE2F0E088EF808304C0EDE2F0E088EA90
:100280008083EEE2F0E080EF8083CF91DF91FF91F9
:10029000EF91BF91AF919F918F910F900FBE0F90F3
:1002A0001F9018951F920F920FB60F9211242F9343
:1002B0008F939F93AF93BF93EF93FF93DF93CF936E
:1002C00000D0CDB7DEB780916100909162009A8333
:1002D000898389819A818230910509F49FC089813F
:1002E0009A818330910558F489819A810097D1F0E1
:1002F00089819A818130910509F45EC0DBC08981D2
:100300009A818430910509F49EC089819A81843054
:10031000910508F443C089819A818530910509F4DB
:10032000A4C0C8C0EFE2F0E08081882349F0EFE28A
:10033000F0E08081982F969580916000981729F5BC
:10034000EFE2F0E08081882F90E081709070882348
:1003500039F081E090E0909362008093610006C0E4
:1003600084E090E09093620080936100EFE2F0E01F
:100370001082AAE3B0E0EAE3F0E0808180648C932D
:10038000EEE2F0E08EE7808395C0EDE2F0E088EAEF
:100390008083EEE2F0E080E780838CC0EFE2F0E063
:1003A0008081882349F0EDE2F0E088EA8083EEE284
:1003B000F0E080E780837EC0909185008091860088
:1003C000981719F1809186008F5F8F708093860057
:1003D000AFE2B0E080918600882F90E0FC01EB58FE
:1003E000FF4F80818C9382E090E090936200809335
:1003F0006100AAE3B0E0EAE3F0E0808180648C93DE
:10040000EEE2F0E080E7808355C0EDE2F0E088EABC
:100410008083EEE2F0E080E780834CC083E090E0F0
:100420009093620080936100AAE3B0E0EAE3F0E019
:1004300080818F7B8C93EFE2F0E01082EEE2F0E0BF
:100440008EE7808337C085E090E0909362008093D0
:100450006100AAE3B0E0EAE3F0E080818F7B8C9357
:10046000EEE2F0E080E7808325C0809173008F5F2B
:100470008F708093730080917300882F90E0EFE27B
:10048000F0E02081FC01ED59FF4F208384E090E0F3
:100490009093620080936100EFE2F0E01082AAE3A3
:1004A000B0E0EAE3F0E0808180648C93EEE2F0E07B
:1004B0008EE780830F900F90CF91DF91FF91EF91A6
:1004C000BF91AF919F918F912F910F900FBE0F9081
:0804D0001F901895F894FFCF6E
:00000001FF
