:1000000010C02AC029C028C027C026C025C024C0CF
:1000100023C022C021C020C01FC01EC01DC005C2F9
:1000200053C211241FBECFE5D1E0DEBFCDBF10E02B
:10003000A0E6B0E0E0EAF7E002C005900D92A83635
:10004000B107D9F710E0A8E6B0E001C01D92AC39C5
:10005000B107E1F7B6D0A2C3D3CF0F931F93DF93BD
:10006000CF9300D0CDB7DEB789836A83898185308D
:1000700091F480919500909196009C0130708A8156
:10008000882F90E0982F8827822B932B90939600AF
:10009000809395004AC08981863081F480919500D3
:1000A000909196009C0120708A81882F90E0822B8D
:1000B000932B909396008093950037C0898184306C
:1000C00099F48A81882341F0AAE3B0E0EAE3F0E002
:1000D000808180628C9329C0AAE3B0E0EAE3F0E07B
:1000E00080818F7D8C9321C08981833099F48A81AE
:1000F000882341F0ABE3B0E0EBE3F0E08081877F61
:100100008C9313C0ABE3B0E0EBE3F0E08081886058
:100110008C930BC08981833040F48981882F90E0D3
:10012000FC01E956FF4F8A81808304E410E080914E
:100130009500909196009C0140E050E080E291EAA9
:10014000A7E0B0E0BC01CD01ECD2DA01C901019712
:10015000F80191838083A8E4B0E0E4E4F0E08081DA
:1001600091819695879511969C938E930F900F9001
:10017000CF91DF911F910F910895DF93CF930F924D
:10018000CDB7DEB719820DC08981882F90E0FC01C0
:10019000E05AFF4F90818981692F5FDF89818F5FEE
:1001A00089838981873080F30F90CF91DF91089503
:1001B000DF93CF93CDB7DEB710929B00CF91DF9145
:1001C00008951F93DF93CF93CDB7DEB7AAE3B0E0D6
:1001D000EAE3F0E080818F608C93EFE4F0E082E26C
:1001E0008083EEE4F0E082E3808387E578D088EDD9
:1001F00090E0F7D07894C1DF9091970080919A00B9
:10020000891740F0ABE3B0E0EBE3F0E080818E7F54
:100210008C9307C0ABE3B0E0EBE3F0E0808181605A
:100220008C939091980080919A00891740F0ABE3ED
:10023000B0E0EBE3F0E080818D7F8C9307C0ABE30F
:10024000B0E0EBE3F0E0808182608C9390919900C4
:1002500080919A00891740F0ABE3B0E0EBE3F0E067
:1002600080818B7F8C9307C0ABE3B0E0EBE3F0E0E1
:10027000808184608C93A2D08823E1F080919B00E0
:10028000882321F480D0809394000FC08091940043
:10029000873058F480919400182F8F5F80939400DA
:1002A00072D0982F812F692FD8DE80919B008F5FAD
:1002B00080939B0080919A008F5F80939A009CCFDF
:1002C000DF93CF93CDB7DEB710927D0010927C0004
:1002D00010928F0010928E00CF91DF910895DF93DE
:1002E000CF930F92CDB7DEB78983EADF8981809300
:1002F000680010926B00AAE3B0E0EAE3F0E08081CE
:1003000080658C93ABE3B0E0EBE3F0E0808180614B
:100310008C93ABE3B0E0EBE3F0E0808180648C93FE
:10032000AAE3B0E0EAE3F0E080818F7B8C93EDE21A
:10033000F0E088EA8083EEE2F0E080EF80830F90C7
:10034000CF91DF910895DF93CF9300D0CDB7DEB783
:100350008A8380918E008F5F8F70898390918F0048
:1003600089818917D9F38981882F90E0FC01E258AF
:10037000FF4F8A818083898180938E000F900F9038
:10038000CF91DF910895DF93CF93CDB7DEB79091F2
:100390007C0080917D009817D1F380917D008F5F64
:1003A0008F7080937D0080917D00882F90E0FC010C
:1003B000E459FF4F8081CF91DF910895DF93CF9370
:1003C0000F92CDB7DEB790917C0080917D001982AD
:1003D000981711F081E0898389810F90CF91DF9187
:1003E0000895DF93CF9300D0CDB7DEB79A8389838A
:1003F00089819A8190939100809390000F900F9043
:10040000CF91DF910895DF93CF9300D0CDB7DEB7C2
:100410009A83898389819A81909393008093920033
:100420000F900F90CF91DF9108951F920F920FB60A
:100430000F9211248F939F93AF93BF93EF93FF93EA
:10044000DF93CF93CDB7DEB710926A0010926900A8
:10045000AAE3B0E0EAE3F0E080818F7B8C93E9E3EC
:10046000F0E08081882F90E080719070009749F0D3
:10047000E9E3F0E08081882F90E08074907000972D
:1004800071F3E9E3F0E08081882F90E08074907050
:10049000009729F4EDE2F0E088EF808304C0EDE2FC
:1004A000F0E088EA8083EEE2F0E080EF8083CF9195
:1004B000DF91FF91EF91BF91AF919F918F910F903D
:1004C0000FBE0F901F9018951F920F920FB60F92AC
:1004D00011242F933F934F935F936F937F938F9349
:1004E0009F93AF93BF93EF93FF93DF93CF9300D08E
:1004F000CDB7DEB78091690090916A009A838983B5
:1005000089819A818230910509F4AAC089819A81F2
:100510008330910558F489819A810097D1F08981BF
:100520009A818130910509F469C0E6C089819A8178
:100530008430910509F4A9C089819A81843091059C
:1005400008F44EC089819A818530910509F4AFC0C5
:10055000D3C0EFE2F0E08081882349F0EFE2F0E0E1
:100560008081982F969580916800981781F58091E9
:10057000900090919100009729F0E0919000F09107
:1005800091000995EFE2F0E08081882F90E0817082
:100590009070882339F081E090E090936A00809316
:1005A000690006C084E090E090936A00809369003F
:1005B000EFE2F0E01082AAE3B0E0EAE3F0E080814D
:1005C00080648C93EEE2F0E08EE7808395C0EDE2EC
:1005D000F0E088EA8083EEE2F0E080E780838CC080
:1005E000EFE2F0E08081882349F0EDE2F0E088EA74
:1005F0008083EEE2F0E080E780837EC090918E0001
:1006000080918F00981719F180918F008F5F8F7004
:1006100080938F00AFE2B0E080918F00882F90E050
:10062000FC01E258FF4F80818C9382E090E0909330
:100630006A0080936900AAE3B0E0EAE3F0E0808119
:1006400080648C93EEE2F0E080E7808355C0EDE2B9
:10065000F0E088EA8083EEE2F0E080E780834CC03F
:1006600083E090E090936A0080936900AAE3B0E091
:10067000EAE3F0E080818F7B8C93EFE2F0E0108280
:10068000EEE2F0E08EE7808337C085E090E0909363
:100690006A0080936900AAE3B0E0EAE3F0E08081B9
:1006A0008F7B8C93EEE2F0E080E7808325C0809121
:1006B0007C008F5F8F7080937C0080917C00882FFE
:1006C00090E0EFE2F0E02081FC01E459FF4F20834D
:1006D00084E090E090936A0080936900EFE2F0E09C
:1006E0001082AAE3B0E0EAE3F0E0808180648C93BA
:1006F000EEE2F0E08EE780830F900F90CF91DF91D4
:10070000FF91EF91BF91AF919F918F917F916F91E9
:100710005F914F913F912F910F900FBE0F901F90BF
:10072000189597FB092E05260ED057FD04D014D03E
:100730000AD0001C38F450954095309521953F4FD4
:100740004F4F5F4F0895F6F790958095709561959E
:100750007F4F8F4F9F4F0895A1E21A2EAA1BBB1BFC
:10076000FD010DC0AA1FBB1FEE1FFF1FA217B3077D
:10077000E407F50720F0A21BB30BE40BF50B661F93
:10078000771F881F991F1A9469F760957095809557
:1007900090959B01AC01BD01CF010895F894FFCF66
:0807A000000000000006E0006B
:00000001FF
