:1000000010C02AC029C028C027C026C025C024C0CF
:1000100023C022C021C020C01FC01EC01DC003C2FB
:1000200073C211241FBECFE5D1E0DEBFCDBF10E00B
:10003000A0E6B0E0E6EBF7E002C005900D92A8362E
:10004000B107D9F710E0A8E6B0E001C01D92AB39C6
:10005000B107E1F7B6D0ADC3D3CF0F931F93DF93B2
:10006000CF9300D0CDB7DEB789836A83898185308D
:1000700091F480919400909195009C0130708A8158
:10008000882F90E0982F8827822B932B90939500B0
:10009000809394004AC08981863081F480919400D5
:1000A000909195009C0120708A81882F90E0822B8E
:1000B000932B909395008093940037C0898184306E
:1000C00099F48A81882341F0AAE3B0E0EAE3F0E002
:1000D000808180628C9329C0AAE3B0E0EAE3F0E07B
:1000E00080818F7D8C9321C08981833099F48A81AE
:1000F000882341F0ABE3B0E0EBE3F0E08081877F61
:100100008C9313C0ABE3B0E0EBE3F0E08081886058
:100110008C930BC08981833040F48981882F90E0D3
:10012000FC01EA56FF4F8A81808304E410E080914D
:100130009400909195009C0140E050E080E291EAAB
:10014000A7E0B0E0BC01CD01F7D2DA01C901019707
:10015000F80191838083A8E4B0E0E4E4F0E08081DA
:1001600091819695879511969C938E930F900F9001
:10017000CF91DF911F910F910895DF93CF930F924D
:10018000CDB7DEB719820DC08981882F90E0FC01C0
:10019000E05AFF4F90818981692F5FDF89818F5FEE
:1001A00089838981873080F30F90CF91DF91089503
:1001B000DF93CF93CDB7DEB710929A00CF91DF9146
:1001C00008951F93DF93CF93CDB7DEB7AAE3B0E0D6
:1001D000EAE3F0E080818F608C93EFE4F0E082E26C
:1001E0008083EEE4F0E082E38083789487E577D043
:1001F00088ED90E0F4D0C1DF909196008091990055
:10020000891740F0ABE3B0E0EBE3F0E080818E7F54
:100210008C9307C0ABE3B0E0EBE3F0E0808181605A
:100220008C939091970080919900891740F0ABE3EF
:10023000B0E0EBE3F0E080818D7F8C9307C0ABE30F
:10024000B0E0EBE3F0E0808182608C9390919800C5
:1002500080919900891740F0ABE3B0E0EBE3F0E068
:1002600080818B7F8C9307C0ABE3B0E0EBE3F0E0E1
:10027000808184608C93A0D08823E1F080919A00E3
:10028000882321F47ED0809393000FC08091930047
:10029000873058F480919300182F8F5F80939300DC
:1002A00070D0982F812F692FD8DE80919A008F5FB0
:1002B00080939A00809199008F5F809399009CCFE2
:1002C000DF93CF93CDB7DEB710927C0010927B0006
:1002D00010928E0010928D00CF91DF910895DF93E0
:1002E000CF930F92CDB7DEB78983EADF8981809300
:1002F0006800AAE3B0E0EAE3F0E0808180658C93D7
:10030000ABE3B0E0EBE3F0E0808180618C93ABE3A2
:10031000B0E0EBE3F0E0808180648C93AAE3B0E08E
:10032000EAE3F0E080818F7B8C93EDE2F0E088EAF5
:100330008083EEE2F0E080EF80830F90CF91DF9139
:100340000895DF93CF9300D0CDB7DEB78A83809135
:100350008D008F5F8F70898390918E0089818917BE
:10036000D9F38981882F90E0FC01E358FF4F8A81FF
:100370008083898180938D000F900F90CF91DF91C2
:100380000895DF93CF93CDB7DEB790917B00809136
:100390007C009817D1F380917C008F5F8F708093E1
:1003A0007C0080917C00882F90E0FC01E559FF4F94
:1003B0008081CF91DF910895DF93CF930F92CDB7D6
:1003C000DEB790917B0080917C001982981711F024
:1003D00081E0898389810F90CF91DF910895DF9328
:1003E000CF9300D0CDB7DEB79A83898389819A8174
:1003F0009093900080938F000F900F90CF91DF919A
:100400000895DF93CF9300D0CDB7DEB79A83898369
:1004100089819A8190939200809391000F900F9020
:10042000CF91DF9108951F920F920FB60F92112472
:100430002F933F934F935F936F937F938F939F93EC
:10044000AF93BF93EF93FF93DF93CF93CDB7DEB717
:1004500010926A0010926900AAE3B0E0EAE3F0E0CB
:1004600080818F7B8C93E9E3F0E08081882F90E09E
:1004700080719070009749F0E9E3F0E08081882F67
:1004800090E080749070009771F3E9E3F0E0808170
:10049000882F90E080749070009781F480918F0095
:1004A00090919000009729F0E0918F00F0919000DA
:1004B0000995EDE2F0E088EF80830FC08091910014
:1004C00090919200009729F0E0919100F0919200B4
:1004D0000995EDE2F0E088EA8083EEE2F0E080EF5B
:1004E0008083CF91DF91FF91EF91BF91AF919F9169
:1004F0008F917F916F915F914F913F912F910F90CD
:100500000FBE0F901F9018951F920F920FB60F926B
:1005100011242F938F939F93AF93BF93EF93FF93E8
:10052000DF93CF9300D0CDB7DEB780916900909173
:100530006A009A83898389819A818230910509F4BE
:100540009FC089819A818330910558F489819A816D
:100550000097D1F089819A818130910509F45EC0BC
:10056000DBC089819A818430910509F49EC089811C
:100570009A818430910508F443C089819A8185303D
:10058000910509F4A4C0C8C0EFE2F0E0808188239F
:1005900049F0EFE2F0E08081982F96958091680015
:1005A000981729F5EFE2F0E08081882F90E08170C4
:1005B0009070882339F081E090E090936A008093F6
:1005C000690006C084E090E090936A00809369001F
:1005D000EFE2F0E01082AAE3B0E0EAE3F0E080812D
:1005E00080648C93EEE2F0E08EE7808395C0EDE2CC
:1005F000F0E088EA8083EEE2F0E080E780838CC060
:10060000EFE2F0E08081882349F0EDE2F0E088EA53
:100610008083EEE2F0E080E780837EC090918D00E1
:1006200080918E00981719F180918E008F5F8F70E6
:1006300080938E00AFE2B0E080918E00882F90E032
:10064000FC01E358FF4F80818C9382E090E090930F
:100650006A0080936900AAE3B0E0EAE3F0E08081F9
:1006600080648C93EEE2F0E080E7808355C0EDE299
:10067000F0E088EA8083EEE2F0E080E780834CC01F
:1006800083E090E090936A0080936900AAE3B0E071
:10069000EAE3F0E080818F7B8C93EFE2F0E0108260
:1006A000EEE2F0E08EE7808337C085E090E0909343
:1006B0006A0080936900AAE3B0E0EAE3F0E0808199
:1006C0008F7B8C93EEE2F0E080E7808325C0809101
:1006D0007B008F5F8F7080937B0080917B00882FE1
:1006E00090E0EFE2F0E02081FC01E559FF4F20832C
:1006F00084E090E090936A0080936900EFE2F0E07C
:100700001082AAE3B0E0EAE3F0E0808180648C9399
:10071000EEE2F0E08EE780830F900F90CF91DF91B3
:10072000FF91EF91BF91AF919F918F912F910F907A
:100730000FBE0F901F90189597FB092E05260ED01F
:1007400057FD04D014D00AD0001C38F450954095C1
:10075000309521953F4F4F4F5F4F0895F6F7909595
:100760008095709561957F4F8F4F9F4F0895A1E2BF
:100770001A2EAA1BBB1BFD010DC0AA1FBB1FEE1F1B
:10078000FF1FA217B307E407F50720F0A21BB30B66
:10079000E40BF50B661F771F881F991F1A9469F7E2
:1007A00060957095809590959B01AC01BD01CF013E
:0607B0000895F894FFCF4C
:0807B600000000000006E00055
:00000001FF
