:10000000BEC00000D9C00000D7C00000D5C00000AD
:10001000D3C00000D1C00000CFC00000CDC00000A0
:10002000CBC00000C9C00000CFC30000C5C00000A5
:10003000C3C00000C1C00000BFC00000BDC00000C0
:10004000BBC00000B9C00000B7C00000B5C00000D0
:10005000B3C00000B1C00000AFC00000ADC00000E0
:10006000ABC00000A9C00000A7C00000A5C00000F0
:10007000A3C00000A1C000009FC000009DC0000000
:100080009BC0000099C0000097C0000095C0000010
:1000900093C0000091C000000600FF0901A1010902
:1000A00002150025FF750895088102090315002532
:1000B000FF750895089102C01201100100000008A8
:1000C000EB034E2001000102DC010902660003017E
:1000D00000C0FA080B00020202010009040000013E
:1000E0000202010005240010010424020605240672
:1000F0000001070581030800FF09040100020A004E
:10010000000007050302100001070582021000012C
:10011000090402000203000000092111010001226C
:1001200020000705810308000107050203080001FC
:100130000403090418034A006500660066002000F5
:1001400052006F00770062006500720067000000D7
:100150003A034B006500790067006C006F00760081
:100160006500200049006E007000750074002000DA
:1001700044006500760069006300650000001124FA
:100180001FBECFEFD0E2DEBFCDBF11E0A0E0B1E0F7
:10019000E2E5F0E100E00BBF02C007900D92AC3148
:1001A000B107D9F711E0ACE1B1E001C01D92A6336F
:1001B000B107E1F7C5D14BC723CF81B38F71806CF5
:1001C00081BB089581B38F71806681BB0895AC01B6
:1001D00020E030E0F901EF5DFE4FDA01A20FB31F1E
:1001E0008C9180832F5F3F4F2830310599F7089518
:1001F000AC0120E030E0FA01E20FF31FD901AF5D5E
:10020000BE4F8C9180832F5F3F4F2830310599F787
:1002100008950F931F93DF93CF93CDB7DEB7289741
:100220000FB6F894DEBF0FBECDBF80912D01843094
:1002300091F582E08093E9008091E80082FF14C08C
:100240008091E80085FF0BC08E010F5F1F4FC80132
:1002500068E070E040E050E006D6C801B8DF809169
:10026000E8008B778093E80081E08093E90080913B
:10027000E80080FF10C08E010F5F1F4FC801B8DF7C
:10028000C80168E070E040E050E03FD68091E800AF
:100290008E778093E80028960FB6F894DEBF0FBEE5
:1002A000CDBFCF91DF911F910F91089580912D01C6
:1002B000843009F059C060911C0170911D0180913A
:1002C0001E0190911F0120E137E240E050E082D60C
:1002D0009B01AC01211531054105510549F01092F2
:1002E0002001285E33404040504091F55E9830C078
:1002F00080912001882361F580911501909116016C
:10030000A0911701B09118010097A105B10501F165
:100310005E9A81E08093200182E08093E90080E092
:1003200091E064E170E040E050E0EFD52091F20010
:100330003091F3008091E8008E778093E8002031BF
:10034000310531F4B0D18091E8008E778093E800D8
:1003500083E08093E9008091E80082FF05C08091EE
:10036000E8008B778093E80008950F931F93DF9345
:10037000CF93CDB7DEB728970FB6F894DEBF0FBE88
:10038000CDBF80912F01803209F44EC0813230F40C
:10039000813051F0893009F063C019C0813281F198
:1003A000823209F05DC052C080912E01813A09F07D
:1003B00057C08E010F5F1F4FC8011ADF8091E80000
:1003C000877F8093E800C80168E070E026C08091D4
:1003D0002E01813209F044C08091E800877F80932C
:1003E000E8008E010F5F1F4FC80168E070E099D4EC
:1003F0008091E8008E778093E800C801E8DE30C085
:1004000080912E01813A61F58091E800877F809389
:10041000E80085E191E067E070E025D48091E80094
:100420008B778093E8001CC080912E018132C1F44B
:100430008091E800877F8093E80085E191E067E0A4
:1004400070E06FD48091E8008E77EBCF80912E0121
:10045000813231F48091E800877F8093E80002D1F7
:1004600028960FB6F894DEBF0FBECDBFCF91DF91B7
:100470001F910F910895EF92FF920F931F9381E0C8
:1004800061EC42E0BAD0082F82E061E842E1B5D0E9
:10049000E82E83E060E842E1B0D010E0FF240E21B6
:1004A0001F210170107090E008231923109215018C
:1004B00010921601109217011092180181E061EC60
:1004C00042E09BD020E030E0012B11F021E030E051
:1004D000082F10E00223132382E060EC42E08DD06D
:1004E00020E030E0012B11F021E030E090E0282303
:1004F0003923232B11F490E201C090E481B38F7172
:10050000982B91BB1F910F91FF90EF90089584B7A6
:10051000877F84BF88E10FB6F894809360001092C3
:1005200060000FBEE1E6F0E080E8808381E0808338
:10053000569A80B3806E80BB81B38F7181BB2EC110
:10054000E6DF81B38F71806681BB7894AFDE61DEB8
:100550002ED580911C0190911D01A0911E01B0919A
:100560001F010196A11DB11D80931C0190931D01D7
:10057000A0931E01B0931F01E9CFDA019330B1F0CF
:10058000943028F4913041F0923079F50AC09132DC
:1005900011F1923251F524C0E8EBF0E022E130E0B5
:1005A00028C0EAECF0E026E630E023C0813049F0D4
:1005B000813018F08230C9F40AC0E0E3F1E08491A0
:1005C00003C0E4E3F1E08491282F30E012C0E0E5BD
:1005D000F1E08491F9CFE9E1F1E029E030E009C0F0
:1005E000E8E9F0E020E230E004C0E0E0F0E020E004
:1005F00030E0ED93FC93C9010895382F282F2CC0CB
:100600002093E900231721F4762F942F50E006C0A1
:100610007091EC009091ED005091F00091FF1BC0A3
:100620008091EB008E7F8093EB008091ED008270D3
:100630008093ED008091EB0081608093EB007093DC
:10064000EC009093ED005093F0008091EE0087FD58
:1006500002C080E008952F5F273090F23093E900C8
:1006600081E0089580912E0188239CF404C080913C
:100670002D018823B9F08091E80082FFF8CF8091A6
:10068000E8008B778093E800089580912D018823FE
:1006900049F08091E80080FFF8CF8091E8008E77E4
:1006A0008093E80008954091E4005091E50024E62D
:1006B0008091EC0080FF05C08091E80080FF05C0BC
:1006C00022C08091E80082FD1EC080912D01882308
:1006D00011F482E00895853011F483E0089580914B
:1006E000EB0085FF02C081E008958091E4009091C5
:1006F000E50084179507E1F2222311F484E00895C0
:100700002150AC01D5CF80E00895EF92FF920F9376
:100710001F934DD054D008ED10E0F8018081982F40
:100720009F7790838068808380818F7D8083E7EDD1
:10073000F0E080818068808319BC10922D011092B6
:100740002B0110922A011092290180EEE82EF12C43
:10075000F70180818B7F8083F801808181608083B5
:1007600080E060E042E049DFE1EEF0E080818E7FF2
:100770008083E2EEF0E08081816080838081886008
:100780008083F70180818E7F8083F8018081806182
:1007900080831F910F91FF90EF900895E7EDF0E0B7
:1007A00080818160808381E080932C01AECFE8ED71
:1007B000F0E080818C7F80831092E2000895109297
:1007C000DA001092E10008951F920F920FB60F9277
:1007D0000BB60F9211242F933F934F935F936F9318
:1007E0007F938F939F93AF93BF93EF93FF938091EA
:1007F000E10082FF0AC08091E20082FF06C0809182
:10080000E1008B7F8093E1002DD28091DA0080FFA0
:100810001EC08091D80080FF1AC08091DA008E7FC0
:100820008093DA008091D90080FF0DC084E189BDFA
:1008300089B5826089BD09B400FEFDCF81E0809357
:100840002D01BBDC04C019BC10922D01BBDC8091D2
:10085000E10080FF18C08091E20080FF14C0809109
:10086000E2008E7F8093E2008091E20080618093BD
:10087000E2008091D80080628093D80019BC85E0A6
:1008800080932D01EFD18091E10084FF2EC08091F3
:10089000E20084FF2AC084E189BD89B5826089BDF8
:1008A00009B400FEFDCF8091D8008F7D8093D800E1
:1008B0008091E1008F7E8093E1008091E2008F7E45
:1008C0008093E2008091E20081608093E200809159
:1008D0002B01882331F48091E30087FD02C081E081
:1008E00001C084E080932D01BDD18091E10083FFA0
:1008F00022C08091E20083FF1EC08091E100877FCB
:100900008093E10082E080932D0110922B01809171
:10091000E1008E7F8093E1008091E2008E7F8093E2
:10092000E2008091E20080618093E20080E060E07C
:1009300042E063DE97D1FF91EF91BF91AF919F911C
:100940008F917F916F915F914F913F912F910F9078
:100950000BBE0F900FBE0F901F9018950F931F9313
:10096000DF93CF93CDB7DEB7AC970FB6F894DEBF69
:100970000FBECDBF8091F10080932E018091F100D8
:1009800080932F018091F1009091F100E0E3F1E07C
:1009900080933001909331018091F1009091F100AA
:1009A0008093320193838091F1009091F1008093C4
:1009B00034019583DADC8091E80083FF3AC18091AD
:1009C0002E0130912F01353009F487C0363040F4C4
:1009D0003130C9F1313070F0333009F02AC133C001
:1009E000383009F4F8C0393009F407C1363009F05D
:1009F00020C199C0803821F0823809F01AC108C09E
:100A00009091290180912A01882399F0926011C068
:100A10008091320187708093E9008091EB0090E033
:100A200025E0969587952A95E1F7982F9170109279
:100A3000E9008091E800877F8093E8009093F100BF
:100A40001092F100D3C0882319F0823009F0F1C070
:100A500090E08F719070009721F0029709F0E9C043
:100A60000CC080913001813009F0E3C010922A015E
:100A7000333069F580932A012AC0809130018823A0
:100A800031F520913201277009F4D3C02093E90099
:100A90008091EB0080FF1BC0333021F48091EB008C
:100AA000806213C08091EB0080618093EB0081E055
:100AB00090E002C0880F991F2A95E2F78093EA0020
:100AC0001092EA008091EB0088608093EB00109216
:100AD000E9008091E800877F8CC0882309F0A9C0D5
:100AE000109130011F770FB7F8948091E800877F4D
:100AF0008093E800B7DD8091E80080FFFCCF809113
:100B0000E3008078812B8093E3008091E30080688C
:100B10008093E300112311F482E001C083E080930D
:100B20002D010FBF86C08058823008F082C08091AE
:100B300030019091310123E08C3D920709F033C0E0
:100B400083E08C838AE28B837FB7F894DE0115966D
:100B50006EE040E050E011E2E62FF0E01093570025
:100B6000849140FF03C082958F706F5F8F70282F34
:100B700030E08A3018F0C901C79602C0C901C0969A
:100B80008D939D934F5F5F4F4431510529F77FBF90
:100B90008091E800877F8093E800CE0103966AE2A7
:100BA00070E061D012C060913201AE014F5F5F4FC3
:100BB000E4DCBC01009709F43CC08091E800877F29
:100BC0008093E80089819A81EDD08091E8008B774D
:100BD0008093E8002EC0803861F58091E800877F1F
:100BE0008093E80080912B018093F1008091E800D0
:100BF0008E778093E80036DD1CC08823D1F4909175
:100C000030019230B0F48091E800877F8093E80053
:100C100090932B0127DD80912B01882331F4809163
:100C2000E30087FD02C081E001C084E080932D01D4
:100C300022DC8091E80083FF0AC08091EB00806293
:100C40008093EB008091E800877F8093E800AC966A
:100C50000FB6F894DEBF0FBECDBFCF91DF911F91CD
:100C60000F91089508959C014091340150913501F0
:100C70004617570718F4F90190E03DC0611571055A
:100C800011F0AB01F8CF8091E8008E778093E800F7
:100C900040E050E0F0CF80912D018823F1F18530C4
:100CA000F1F18091E80083FF02C081E00895809116
:100CB000E80082FD2CC08091E80080FF1CC02091DC
:100CC000F2003091F30007C081918093F100415010
:100CD00050402F5F3F4F4115510519F02830310525
:100CE00098F390E02830310509F491E08091E80014
:100CF0008E778093E8004115510569F6992359F6DE
:100D000006C080912D01882341F0853041F080910B
:100D1000E80082FFF6CF80E0089582E0089583E046
:100D200008959C016115710529F48091E8008B7785
:100D30008093E800F90122C080912D01882371F190
:100D4000853071F18091E80083FF02C081E0089551
:100D50008091E80082FFF0CF06C08091F10081937E
:100D60006150704031F08091F2009091F300892B36
:100D7000A1F78091E8008B778093E80061157105F9
:100D8000D9F606C080912D01882341F0853041F0CD
:100D90008091E80080FFF6CF80E0089582E008951A
:100DA00083E008959C01409134015091350146172C
:100DB000570718F4F90190E040C06115710511F072
:100DC000AB01F8CF8091E8008E778093E80040E097
:100DD00050E0F0CF80912D01882309F440C0853088
:100DE00009F43FC08091E80083FF02C081E00895CC
:100DF0008091E80082FD2DC08091E80080FF1DC039
:100E00002091F2003091F30008C084918093F100AA
:100E10003196415050402F5F3F4F4115510519F019
:100E20002830310590F390E02830310509F491E045
:100E30008091E8008E778093E8004115510551F6C6
:100E4000992341F606C080912D01882341F0853019
:100E500041F08091E80082FFF6CF80E0089582E0C3
:100E6000089583E00895BF92CF92DF92EF92FF92B0
:100E70000F931F93CF93DF93182F092F7B016A01E4
:100E800012DCB82E8823B1F5812F902F9C01E90147
:100E9000C114D10439F0F60180819181E81AF90A70
:100EA000C80FD91F00E010E022C08091E80085FD46
:100EB00016C08091E8008B778093E800C114D104BC
:100EC00049F0F60180819181800F911F9183808389
:100ED00085E011C06CD0E7DB882349F00CC080911D
:100EE000F10089930894E108F1080F5F1F4FE114A6
:100EF000F104D9F68B2DDF91CF911F910F91FF90C7
:100F0000EF90DF90CF90BF900895BF92CF92DF9285
:100F1000EF92FF920F931F93CF93DF93182F092F18
:100F20007B016A01C0DBB82E8823B1F5812F902F99
:100F30009C01E901C114D10439F0F601808191814D
:100F4000E81AF90AC80FD91F00E010E022C080910A
:100F5000E80085FD16C08091E8008E778093E80058
:100F6000C114D10449F0F60180819181800F911F55
:100F70009183808385E011C01AD095DB882349F0E6
:100F80000CC089918093F1000894E108F1080F5F8B
:100F90001F4FE114F104D9F68B2DDF91CF911F91F2
:100FA0000F91FF90EF90DF90CF90BF9008951F9327
:100FB00080912D01882361F01091E9001092E900E1
:100FC0008091E80083FF01C0C9DC17701093E9002D
:100FD0001F91089597FB092E05260ED057FD04D0CA
:100FE00014D00AD0001C38F45095409530952195C6
:100FF0003F4F4F4F5F4F0895F6F79095809570954E
:1010000061957F4F8F4F9F4F0895A1E21A2EAA1B23
:10101000BB1BFD010DC0AA1FBB1FEE1FFF1FA217A8
:10102000B307E407F50720F0A21BB30BE40BF50BA5
:10103000661F771F881F991F1A9469F7609570952E
:10104000809590959B01AC01BD01CF010895F89466
:02105000FFCFD0
:10105200546573742073657269616C206F75747066
:0C10620075740D0A00000000000000087A
:00000001FF
