:100000001CC1000037C1000035C1000033C1000031
:1000100031C100002FC100002DC100002BC1000024
:1000200029C1000027C1000073C4000023C10000E3
:1000300021C100001FC100001DC100001BC1000044
:1000400019C1000017C1000015C1000013C1000054
:1000500011C100000FC100000DC100000BC1000064
:1000600009C1000007C1000005C1000003C1000074
:1000700001C10000FFC00000FDC00000FBC0000087
:10008000F9C00000F7C00000F5C00000F3C0000098
:10009000F1C00000EFC0000005010902A101090143
:1000A000A100050919012903150025019503750112
:1000B000810295017505810105010930093115FF9E
:1000C000250135FF4501950275088106C0C005016F
:1000D0000906A101050719E029E7150025017501A9
:1000E0009508810295017508810105081901290506
:1000F000950575019102950175039101150025651E
:10010000050719002965950675088100C0050109D4
:1001100004A1010901A10009300931159C256435AC
:10012000FF4501950275088102C0050919012902E0
:100130001500250175019502810275069501810161
:10014000C01201100100000008EB034E2001000165
:1001500002DC0109029800050100C0FA080B000248
:10016000020201000904000001020201000524004E
:100170001001042402060524060001070581030876
:1001800000FF09040100020A000000070503021035
:1001900000010705820210000109040200020301A8
:1001A0000100092111010001223F00070584030815
:1001B000000107050503080001090403000103010C
:1001C00002000921110100012236000705860308FB
:1001D00000010904040001030000000921110100CD
:1001E00001223400070587030800010403090418ED
:1001F000034A00650066006600200052006F007729
:1002000000620065007200670000003A034B006561
:1002100000790067006C006F0076006500200049DF
:10022000006E0070007500740020004400650076C8
:100230000069006300650000000011241FBECFEFBD
:10024000D0E2DEBFCDBF11E0A0E0B1E0EAE8F0E12E
:1002500000E00BBF02C007900D92AC31B107D9F797
:1002600011E0ACE1B1E001C01D92A833B107E1F7A4
:10027000FED109C7C5CE81B38F71806C81BB089553
:1002800081B38F71806681BB0895282F81FD02C0E4
:1002900090E401C090EC22FD906481B38F71982BA3
:1002A00091BB089580912F01843009F04FC05E9A70
:1002B00088EE93E028EC30E0F9013197F1F70197EF
:1002C000D9F780911C01882359F5809115019091EF
:1002D0001601A0911701B09118010097A105B10571
:1002E000F9F081E080931C0182E08093E90080E0D6
:1002F00091E064E170E040E050E059D62091F200D6
:100300003091F3008091E8008E778093E8002031EF
:10031000310531F46CD28091E8008E778093E8004B
:1003200083E08093E9008091E80082FF05C080911E
:10033000E8008B778093E8005E9884EC99E028ECE5
:1003400030E0F9013197F1F70197D9F708950F934C
:100350001F9380912F018430C9F487E08093E900D6
:100360008091E80080FF12C008E211E0C80163E05C
:1003700070E040E050E01BD68091E8008E778093DB
:10038000E80083E0F80111928A95E9F71F910F9137
:1003900008950F931F9380912F018430C9F486E054
:1003A0008093E9008091E80085FF12C005E211E02A
:1003B000C80163E070E040E050E0F9D58091E800CA
:1003C0008E778093E80083E0F80111928A95E9F72F
:1003D0001F910F9108950F931F9380912F018430E7
:1003E00039F58093E9008091E80085FF12C00DE1A6
:1003F00011E0C80168E070E040E050E0D8D580919D
:10040000E8008E778093E80088E0F80111928A95E1
:10041000E9F785E08093E9008091E80085FF08C056
:100420008091F10032DF8091E8008B778093E800C3
:100430001F910F9108951F93CF93DF938091310106
:10044000803209F471C0813230F4813059F0893042
:1004500009F088C038C0813209F454C0823209F0F2
:1004600081C076C080913001813A09F07BC08091D3
:10047000E800877F8093E8008091340190913501F6
:100480008230910521F4CDE1D1E018E00CC0833039
:10049000910519F4C5E2D1E005C0049709F062C0E6
:1004A000C8E2D1E013E0CE01612F70E080D48091EA
:1004B000E8008B778093E800CE0160E070E0412F88
:1004C00050E0DAD54FC080913001813209F04AC046
:1004D0008091E800877F8093E80005C080912F011C
:1004E000882309F43FC08091E80082FFF7CF109184
:1004F000F1008091E8008B778093E80057D1812F3D
:10050000C4DE30C080913001813A61F58091E8000D
:10051000877F8093E80085E191E067E070E047D451
:100520008091E8008B7711C0809130018132D1F445
:100530008091E800877F8093E80085E191E067E0A3
:1005400070E093D48091E8008E778093E8000AC031
:1005500080913001813231F48091E800877F80936F
:10056000E80024D1DF91CF911F910895EF92FF927F
:100570000F931F9381E061EC42E0E3D0082F82E00B
:1005800061E842E1DED0E82E83E060E842E1D9D0C4
:1005900010E0FF240E211F210170107090E008234D
:1005A000192384E061EC42E0CCD020E030E0012B64
:1005B00011F021E030E0082F10E00223132385E042
:1005C00060EC42E0BED020E030E0012B11F021E0F1
:1005D00030E0082F10E00223132386E061EC42E0B4
:1005E000B0D020E030E0012B11F021E030E0082F06
:1005F00010E00223132387E061EC42E0A2D01092C6
:10060000150110921601109217011092180120E0A6
:1006100030E0012B11F021E030E090E02823392375
:10062000232B11F490E201C090E481B38F71982BD9
:1006300091BB1F910F91FF90EF90089584B7877F32
:1006400084BF88E10FB6F894809360001092600038
:100650000FBEE1E6F0E080E8808381E08083569A77
:1006600080B3806E80BB81B38F7181BB3BC1E6DFFD
:1006700081B38F71806681BB7894ADDE8ADE67DEE0
:1006800011DEE7D4FACFDA019330C1F0943030F4C0
:10069000913051F0923009F04CC00BC0913219F1F9
:1006A000923209F046C030C0E1E4F1E022E130E0EE
:1006B00044C0E3E5F1E028E930E03FC0813049F093
:1006C000813018F08230A9F508C0EBEEF1E084919A
:1006D00007C0EFEEF1E0849103C0EBE0F2E084911B
:1006E000282F30E02AC0623019F4E2EAF1E009C0B4
:1006F000633019F4E2ECF1E004C06430D1F4EBEDC6
:10070000F1E029E030E019C0623029F4EEECF0E0CD
:100710002FE330E012C0633029F4E8E9F0E026E38B
:1007200030E00BC0643029F4EDE0F1E024E330E088
:1007300004C0E0E0F0E020E030E0ED93FC93C9017C
:100740000895382F282F2CC02093E900231721F477
:10075000762F942F50E006C07091EC009091ED0040
:100760005091F00091FF1BC08091EB008E7F809331
:10077000EB008091ED0082708093ED008091EB00A2
:1007800081608093EB007093EC009093ED005093A8
:10079000F0008091EE0087FD02C080E008952F5F99
:1007A000273090F23093E90081E008958091300184
:1007B00088239CF404C080912F018823B9F0809194
:1007C000E80082FFF8CF8091E8008B778093E80003
:1007D000089580912F01882349F08091E80080FFDF
:1007E000F8CF8091E8008E778093E80008954091DB
:1007F000E4005091E50024E68091EC0080FF05C004
:100800008091E80080FF05C022C08091E80082FD51
:100810001EC080912F01882311F482E00895853055
:1008200011F483E008958091EB0085FF02C081E020
:1008300008958091E4009091E50084179507E1F216
:10084000222311F484E008952150AC01D5CF80E03B
:100850000895EF92FF920F931F934DD054D008ED5F
:1008600010E0F8018081982F9F77908380688083C3
:1008700080818F7D8083E7EDF0E0808180688083D8
:1008800019BC10922F0110922D0110922C01109280
:100890002B0180EEE82EF12CF70180818B7F808385
:1008A000F80180818160808380E060E042E049DF80
:1008B000E1EEF0E080818E7F8083E2EEF0E08081E7
:1008C00081608083808188608083F70180818E7F52
:1008D0008083F8018081806180831F910F91FF9058
:1008E000EF900895E7EDF0E080818160808381E002
:1008F00080932E01AECFE8EDF0E080818C7F808385
:100900001092E20008951092DA001092E10008952A
:100910001F920F920FB60F920BB60F9211242F93C6
:100920003F934F935F936F937F938F939F93AF9377
:10093000BF93EF93FF938091E10082FF0AC0809103
:10094000E20082FF06C08091E1008B7F8093E1008E
:100950002DD28091DA0080FF1EC08091D80080FFE8
:100960001AC08091DA008E7F8093DA008091D900DE
:1009700080FF0DC084E189BD89B5826089BD09B45D
:1009800000FEFDCF81E080932F0175DC04C019BC0F
:1009900010922F0175DC8091E10080FF18C08091DA
:1009A000E20080FF14C08091E2008E7F8093E2001D
:1009B0008091E20080618093E2008091D8008062A3
:1009C0008093D80019BC85E080932F01EFD18091EE
:1009D000E10084FF2EC08091E20084FF2AC084E100
:1009E00089BD89B5826089BD09B400FEFDCF8091C3
:1009F000D8008F7D8093D8008091E1008F7E809316
:100A0000E1008091E2008F7E8093E2008091E2001D
:100A100081608093E20080912D01882331F48091E0
:100A2000E30087FD02C081E001C084E080932F01D4
:100A3000BDD18091E10083FF22C08091E20083FF5D
:100A40001EC08091E100877F8093E10082E0809367
:100A50002F0110922D018091E1008E7F8093E100A3
:100A60008091E2008E7F8093E2008091E2008061BD
:100A70008093E20080E060E042E063DE97D1FF9186
:100A8000EF91BF91AF919F918F917F916F915F9106
:100A90004F913F912F910F900BBE0F900FBE0F9073
:100AA0001F9018950F931F93DF93CF93CDB7DEB7A9
:100AB000AC970FB6F894DEBF0FBECDBF8091F100AA
:100AC000809330018091F100809331018091F10099
:100AD0009091F100E2E3F1E08093320190933301D1
:100AE0008091F1009091F100809334019383809183
:100AF000F1009091F1008093360195839CDC809108
:100B0000E80083FF3AC180913001309131013530E6
:100B100009F487C0363040F43130C9F1313070F01B
:100B2000333009F02AC133C0383009F4F8C0393005
:100B300009F407C1363009F020C199C0803821F08E
:100B4000823809F01AC108C090912B0180912C01C4
:100B5000882399F0926011C080913401877080934E
:100B6000E9008091EB0090E025E0969587952A9525
:100B7000E1F7982F91701092E9008091E800877F4B
:100B80008093E8009093F1001092F100D3C0882385
:100B900019F0823009F0F1C090E08F7190700097E9
:100BA00021F0029709F0E9C00CC080913201813038
:100BB00009F0E3C010922C01333069F580932C01C9
:100BC0002AC080913201882331F5209134012770A9
:100BD00009F4D3C02093E9008091EB0080FF1BC093
:100BE000333021F48091EB00806213C08091EB00E0
:100BF00080618093EB0081E090E002C0880F991F34
:100C00002A95E2F78093EA001092EA008091EB00C7
:100C100088608093EB001092E9008091E800877F64
:100C20008CC0882309F0A9C0109132011F770FB73B
:100C3000F8948091E800877F8093E800B7DD809189
:100C4000E80080FFFCCF8091E3008078812B8093C7
:100C5000E3008091E30080688093E300112311F4A6
:100C600082E001C083E080932F010FBF86C08058CF
:100C7000823008F082C0809132019091330123E0EC
:100C80008C3D920709F033C083E08C838AE28B832A
:100C90007FB7F894DE0115966EE040E050E011E277
:100CA000E62FF0E010935700849140FF03C0829537
:100CB0008F706F5F8F70282F30E08A3018F0C90175
:100CC000C79602C0C901C0968D939D934F5F5F4F39
:100CD0004431510529F77FBF8091E800877F8093D9
:100CE000E800CE0103966AE270E061D012C0609124
:100CF0003401AE014F5F5F4FC6DCBC01009709F4C1
:100D00003CC08091E800877F8093E80089819A81C8
:100D1000EDD08091E8008B778093E8002EC080387A
:100D200061F58091E800877F8093E80080912D0134
:100D30008093F1008091E8008E778093E80036DDA3
:100D40001CC08823D1F4909132019230B0F480918C
:100D5000E800877F8093E80090932D0127DD809144
:100D60002D01882331F48091E30087FD02C081E0EA
:100D700001C084E080932F01F9DB8091E80083FFBC
:100D80000AC08091EB0080628093EB008091E800C4
:100D9000877F8093E800AC960FB6F894DEBF0FBE55
:100DA000CDBFCF91DF911F910F91089508959C01C0
:100DB00040913601509137014617570718F4F90151
:100DC00090E03DC06115710511F0AB01F8CF809145
:100DD000E8008E778093E80040E050E0F0CF80910B
:100DE0002F018823F1F18530F1F18091E80083FF34
:100DF00002C081E008958091E80082FD2CC08091BE
:100E0000E80080FF1CC02091F2003091F30007C081
:100E100081918093F100415050402F5F3F4F411529
:100E2000510519F02830310598F390E0283031054C
:100E300009F491E08091E8008E778093E8004115F5
:100E4000510569F6992359F606C080912F01882330
:100E500041F0853041F08091E80082FFF6CF80E0DC
:100E6000089582E0089583E008959C01611571055D
:100E700029F48091E8008B778093E800F90122C083
:100E800080912F01882371F1853071F18091E80004
:100E900083FF02C081E008958091E80082FFF0CFD7
:100EA00006C08091F10081936150704031F08091D3
:100EB000F2009091F300892BA1F78091E8008B77E5
:100EC0008093E80061157105D9F606C080912F0165
:100ED000882341F0853041F08091E80080FFF6CF13
:100EE00080E0089582E0089583E008959C01409198
:100EF0003601509137014617570718F4F90190E071
:100F000040C06115710511F0AB01F8CF8091E80088
:100F10008E778093E80040E050E0F0CF80912F0181
:100F2000882309F440C0853009F43FC08091E8006F
:100F300083FF02C081E008958091E80082FD2DC00A
:100F40008091E80080FF1DC02091F2003091F300F5
:100F500008C084918093F1003196415050402F5F3A
:100F60003F4F4115510519F02830310590F390E0BD
:100F70002830310509F491E08091E8008E77809364
:100F8000E8004115510551F6992341F606C08091BC
:100F90002F01882341F0853041F08091E80082FFE5
:100FA000F6CF80E0089582E0089583E00895BF922F
:100FB000CF92DF92EF92FF920F931F93CF93DF9325
:100FC000182F092F7B016A0112DCB82E8823B1F596
:100FD000812F902F9C01E901C114D10439F0F60151
:100FE00080819181E81AF90AC80FD91F00E010E04A
:100FF00022C08091E80085FD16C08091E8008E77C0
:101000008093E800C114D10449F0F60180819181F8
:10101000800F911F9183808385E011C01AD0E7DB98
:10102000882349F00CC089918093F1000894E1086D
:10103000F1080F5F1F4FE114F104D9F68B2DDF91FA
:10104000CF911F910F91FF90EF90DF90CF90BF90C5
:1010500008951F9380912F01882361F01091E9007A
:101060001092E9008091E80083FF01C01BDD17703A
:101070001093E9001F910895DC0101C06D93415068
:0A1080005040E0F70895F894FFCF08
:10108A00546573742073657269616C206F7574702E
:0C109A0075740D0A000000000000000842
:00000001FF
