:100000008CC10000B4C10000B2C10000B0C100004A
:10001000AEC10000ACC10000AAC10000A8C1000030
:10002000A6C10000A4C100000C941037A0C10000BC
:100030009EC100009CC100009AC1000098C1000050
:1000400096C1000094C1000092C1000090C1000060
:100050008EC100008CC100008AC100000C94E53400
:1000600086C1000084C1000082C1000080C1000080
:100070007EC100007CC100007AC1000078C1000090
:1000800076C1000074C1000072C1000070C10000A0
:100090006EC100006CC10000084AD73B3BCE016E28
:1000A00084BCBFFDC12F3D6C74319ABD56833DDACF
:1000B0003D00C77F11BED9E4BB4C3E916BAAAABEDE
:1000C000000000803F07634236B79BD8A71A396803
:1000D0005618AEBAAB558C1D3CB7CC5763BD6DED11
:1000E000FD753EF6177231BF000000803F0800002A
:1000F00000BE922449123EABAAAA2ABECDCCCC4C5B
:100100003E00000080BEABAAAAAA3E00000000BFCD
:10011000000000803F0000000000084178D3BB438E
:1001200087D1133D190E3CC3BD4282AD2B3E68EC16
:100130008276BED98FE1A93E4C80EFFFBE01C4FF9D
:100140007F3F000000000005010902A101850109AF
:1001500001A1000509190129031500250195037561
:1001600001810295017505810105010930093109F7
:100170003815F6250A35F6450A950375088106C037
:10018000C005010906A1018502050719E029E71547
:100190000025017501950881029501750881010509
:1001A00008190129059505750191029501750391BD
:1001B0000115002565050719002965950675088153
:1001C00000C005010904A10185030901A10009304E
:1001D0000931159C256435FF45019502750881029A
:1001E000C005091901290215002501750195028133
:1001F00002750695018101C012011001000000087E
:10020000EB034E2001000102DC010902660003013C
:1002100002C0FA080B0002020201020904000001F8
:10022000020201030524001001042402060524062D
:100230000001070581030800FF09040100020A000C
:1002400000030705030210000107058202100001E8
:100250000904020002030101040921110100012225
:10026000B100070584030900010705050309000122
:10027000040309041A034A006500660066002000B2
:1002800052006F0077006200650072006700000096
:100290002C034B006500790067006C006F0076004E
:1002A0006500200049006E00700075007400200099
:1002B00044006500760069006300650000002A03C1
:1002C0004B006500790067006C006F0076006500E8
:1002D0002000530065007200690061006C0020007E
:1002E00050006F007200740000002C034B0065008A
:1002F000790067006C006F007600650020004900FF
:100300006E007000750074002000440065007600E7
:100310006900630065000000E90111241FBECFEFF2
:10032000D0E2DEBFCDBF14E0A0E0B1E0E4E9FEE73B
:1003300000E00BBF02C007900D92AC36B107D9F7B1
:1003400017E0ACE6B4E001C01D92A33FB107E1F7AE
:1003500013E0CAE1D3E004C02297FE010E94443FAB
:10036000C831D107C9F70E94E6260C94483F48CE11
:10037000AC01E0919B06F0919C06E617F70714F498
:1003800020E00DC020E0E61BF70BEE0FFF1FE95742
:10039000F94F808191818417950709F421E0822F1C
:1003A000089581B38F71806C81BB089581B38F7183
:1003B000806681BB08950895282F81FD02C090E4D6
:1003C00001C090EC22FD906481B38F71982B91BB9A
:1003D00008958BEB94E00E94462A8BE995E00C94FB
:1003E000AA2F0F931F938091EA07843091F585E03F
:1003F0008093E9008091E80082FF11C08091E800BD
:1004000085FF08C08EE794E069E070E040E050E0CE
:100410000E94DA388091E8008B778093E80084E0CE
:100420008093E9008091E80080FF13C005E714E0A5
:10043000C80169E070E040E050E00E942C3989E09A
:10044000F80111928A95E9F78091E8008E77809300
:10045000E8001F910F910895CF93DF938091EA07F1
:10046000843009F089C08FB7F8942091C506309187
:10047000C6068FBF2115310509F448C08091540488
:1004800090915504A0915604B09157040097A1058E
:10049000B10509F43BC082E08093E900A901ACEB0F
:1004A000B6E0B9016F507040ED01EA81FB813191F6
:1004B000FB83EA838E819F81E817F90721F48C8101
:1004C0009D819B838A832FB7F89489859A850197AC
:1004D0009A8789872FBF3093F1004617570719F085
:1004E0004150504009F72091F2003091F300809183
:1004F000E8008E778093E8002031310539F40E94BE
:100500007F368091E8008E778093E80083E08093C7
:10051000E9008091E80082FF2FC06091F2007091A5
:10052000F30040E0A7ECB6E01DC08091F100ED01C2
:10053000E881F981808388819981019699838883F4
:100540002E813F818217930721F48C819D819983AD
:1005500088832FB7F89489859A8501969A87898729
:100560002FBF4F5F842F90E086179707F0F280919E
:10057000E8008B778093E800DF91CF9108950F9387
:100580001F938091EC07803209F44DC0813230F422
:10059000813051F0893009F05FC01DC0813281F196
:1005A000823209F059C04DC08091EB07813A09F0C1
:1005B00053C08091E800877F8093E80005E714E04E
:1005C000C80169E070E00E94DA3789E0F801119211
:1005D0008A95E9F724C08091EB078132E9F5809193
:1005E000E800877F8093E8008EE794E069E070E0A0
:1005F0000E9438388091E8008E778093E8002CC004
:100600008091EB07813A41F58091E800877F8093E4
:10061000E80084E594E067E070E00E94DA378091BA
:10062000E8008B77EACF8091EB078132A9F48091C3
:10063000E800877F8093E80084E594E067E070E05D
:10064000D7CF8091EB07813239F48091E800877F22
:100650008093E8000E945E361F910F910895BF922B
:10066000CF92DF92EF92FF920F931F9381E061ECA4
:1006700042E00E942936082F82E061E842E10E94B0
:100680002936C82E83E060E842E10E942936E82E30
:10069000109254041092550410925604109257046C
:1006A00084E061EC42E10E942936B82E85E060ECDE
:1006B00042E10E942936682F10E0DD240C211D2123
:1006C00001701070FF240E211F2140E050E0012B2B
:1006D00011F041E050E08B2D90E04823592320E0B9
:1006E00030E0452B11F021E030E0862F90E0282308
:1006F0003923232B11F490E201C090E481B38F7170
:10070000982B91BB1F910F91FF90EF90DF90CF90AE
:10071000BF90089584B7877F84BF88E10FB6F894AF
:1007200080936000109260000FBEE1E6F0E080E888
:10073000808382E08083569A80B3806E80BB81B3D1
:100740008F7181BB0C94FA360F931F93982F162F3D
:10075000042F8F3F21F08BE2692F0E94EF271F3F6C
:1007600021F08CE2612F0E94EF270F3F21F08DE2F4
:10077000602F0E94EF271F910F910895CF93DF9371
:10078000EC0184ED97E060E071E00E944D2784ED7C
:1007900097E0BE010E945927209719F41092B904DE
:1007A00004C0219711F41092BA04DF91CF910895FB
:1007B000CF93DF93EC0184ED97E063E171E00E9459
:1007C0004D2784ED97E0BE010E945927209721F420
:1007D00082E08093B90405C0219719F482E08093E8
:1007E000BA04DF91CF910895CF92DF92EF92FF92FA
:1007F0000F931F938C016B0194EDE92E97E0F92E76
:10080000C70165E271E00E944D27C701B8010E944F
:100810004F27C70167E371E00E944D27C701B6016A
:100820000E9459271F910F91FF90EF90DF90CF907A
:1008300008950F931F93CF93DF93EC018B0184ED09
:1008400097E069E371E00E944D2784ED97E0BE01D7
:100850000E944F2784ED97E067E371E00E944D27E7
:1008600084ED97E0B8010E945927C230D10509F103
:10087000C330D10534F4209769F0C130D10531F58A
:1008800018C0C430D105A9F0C430D1055CF025975B
:10089000E9F414C010927506109274068FEF6FEF92
:1008A00040E013C083E090E0909375068093740657
:1008B00009C0D0937506C093740604C010927506E3
:1008C000109274068FEF6FEF41E03EDFDF91CF9122
:1008D0001F910F9108950F931F93CF93DF93EC0116
:1008E0008B0184ED97E06BE471E00E944D2784ED6D
:1008F00097E0BE010E944F2784ED97E067E371E027
:100900000E944D2784ED97E0B8010E945927C2301C
:10091000D10501F1C330D10534F4209769F0C1301D
:10092000D10529F517C0C430D105A1F0C430D105D7
:1009300054F02597E1F413C01092730610927206DA
:100940008FEF60E012C083E090E090937306809395
:10095000720609C0D0937306C093720604C0109249
:100960007306109272068FEF61E04FEFEDDEDF91BC
:10097000CF911F910F9108950F931F93CF93DF9302
:10098000EC018B0184ED97E06EE571E00E944D274C
:1009900084ED97E0BE010E944F2784ED97E067E366
:1009A00071E00E944D2784ED97E0B8010E9459271D
:1009B000C230D105F9F0C330D10534F4209769F085
:1009C000C130D10521F516C0C430D10599F0C4302D
:1009D000D1054CF02597D9F412C0109271061092EF
:1009E000700680E011C083E090E0909371068093E0
:1009F000700609C0D0937106C093700604C01092AF
:100A000071061092700681E06FEF4FEF9DDEDF916F
:100A1000CF911F910F910895CF92DF92EF92FF92A5
:100A20000F931F93CF93DF936C01EB017A0184ED59
:100A300097E06FE671E00E944D2784ED97E0B601E4
:100A40000E944F2784ED97E067E371E00E944D27F5
:100A500084ED97E0BE010E944F2784ED97E067E3A5
:100A600071E00E944D2784ED97E0B7010E9459275D
:100A7000209721F48AE20E94022A22C0C430D105C4
:100A800019F404E610E007C0239719F409E110E017
:100A900002C008EE13E0C0E0D0E00FC01C161D0637
:100AA00034F460E570E080E090E00E946D358AE209
:100AB000B601A8010E94012A2196CE15DF0574F324
:100AC000DF91CF911F910F91FF90EF90DF90CF902A
:100AD0000895CF93DF93EC0184ED97E06EE771E02A
:100AE0000E944D2784ED97E0BE010E945927609136
:100AF000770670917806CE0186239723181619067B
:100B000074F46C1B7D0B70937806609377068DED03
:100B100097E00E9476278DED97E00E94032ADF91EF
:100B2000CF910895049719F488E090E0D2CF08950A
:100B3000EF92FF920F931F937C0104ED17E0C80121
:100B400063E971E00E944D27C801B7010E9459274F
:100B500060917706709178066E297F2970937806E8
:100B6000609377060DED17E0C8010E947627C80153
:100B70000E94032A1F910F91FF90EF9008958230F9
:100B8000910571F18330910534F4009759F0019784
:100B900009F05FC016C083309105B1F1049709F0E8
:100BA00058C048C080ED97E063E070E041E050E05D
:100BB00033DF80E090E060E070E0DEDE85E090E032
:100BC00031C080ED97E063E070E042E050E024DF68
:100BD00080E090E060E070E0CFDE80E090E00EC06A
:100BE00080ED97E063E070E043E050E015DF80E0E7
:100BF00090E060E070E0C0DE85E090E060E070E0F2
:100C00006ADE85E090E013C080ED97E063E070E07D
:100C100044E050E001DF85E090E060E070E0ACDEB1
:100C200080E090E060E070E056DE80E090E060E020
:100C300070E0FFCD80E496E064E070E041E050E0D9
:100C4000EBDE83E090E060E070E045DE88E090E07D
:100C50006FCF089584ED97E06AEA71E00E9457270C
:100C6000E0919B06F0919C061E161F0664F43197D6
:100C7000F0939C06E0939B06EE0FFF1FE957F94F98
:100C8000808191814FDF80919B0690919C06892BFA
:100C900051F4109288061092870681E090E09093BC
:100CA0009C0680939B06E0919B06F0919C06EE0FBC
:100CB000FF1FEB57F94F8081918161CFCF93DF9375
:100CC000EC0184ED97E06BEB71E00E944D2784ED21
:100CD00097E0BE010E94592780919B0690919C0647
:100CE0008A30910574F4FC01EE0FFF1FE957F94FAC
:100CF000D183C083019690939C0680939B06CE017E
:100D00003EDFDF91CF9108950F931F93CF93DF9331
:100D10008C0184ED97E06EEC71E00E944D2784ED2C
:100D200097E0B8010E94592720919B0630919C06BC
:100D3000E7E8F6E0C0E0D0E001C02196C217D30793
:100D400034F48191919180179107B9F713C0C801CC
:100D5000B5DF1DC082819381819391932F5F3F4FB7
:100D600024173507BCF34150504050939C064093E4
:100D70009B060DC0C801D6DE40919B0650919C0693
:100D80009E01FE01EE0FFF1FE957F94FE7CFDF91FC
:100D9000CF911F910F910895CF93DF93EC0184EDD4
:100DA00097E063EE71E00E944D2784ED97E0BE016D
:100DB0000E94592710C0EE0FFF1FEB57F94F80819B
:100DC0009181B0DE80919B0690919C060197909353
:100DD0009C0680939B06E0919B06F0919C061E1654
:100DE0001F064CF381E090E090939C0680939B0655
:100DF000D0938806C0938706CE01C1DEDF91CF91E4
:100E0000089584ED97E040E056E960E070E00E94CC
:100E10004C2784ED97E065EF71E00E9457278BE245
:100E200061E00E94F8288CE261E00E94F8288DE2DF
:100E300061E00E94F82881E061E041E085DC64E641
:100E400070E080E090E00E946D3580E060E040E07E
:100E50007BDC86E061E00E94F82886E060E00E948A
:100E6000EF2710927606109290041092910410923F
:100E700092041092930428C0FC01EE0FFF1FE2536E
:100E8000FD4F808160E00E94F828E0919004F0918D
:100E90009104EE0FFF1FE253FD4F808161E00E943D
:100EA000EF278091900490919104A0919204B091C9
:100EB00093040196A11DB11D809390049093910419
:100EC000A0939204B0939304809190049091910424
:100ED000A0919204B091930482329105A105B105CD
:100EE0005CF21092BB068BEB94E00E94162F8BEB0A
:100EF00094E040E050E068EC72E40E94E72C10922D
:100F0000D6041092D5041092D4041092D3041092F7
:100F1000D2041092D1041092F1041092F2041092B3
:100F2000F3041092F4041092ED041092EE04109267
:100F3000EF041092F0041092E9041092EA04109267
:100F4000EB041092EC041092840510928305109229
:100F50008205109281051092800510927F051092F3
:100F6000C1041092C2041092C3041092C4041092DF
:100F7000CA041092C90410929A0510927805109232
:100F800077051092760510927505109274051092EF
:100F9000730510927E0510927D0510927C051092CB
:100FA0007B0510927A05109279058BE995E068E649
:100FB00070E00E94D2341092C9051092C8051092B8
:100FC000C7051092C6051092C5051092C40510926F
:100FD000B4051092B5051092B6051092B70510929F
:100FE000BD051092BC0510926F0610926506109216
:100FF00064061092630610926206109261061092C7
:10100000600610926B0610926A06109269061092A2
:10101000680610926706109266061092A30410925A
:10102000A2041092A1041092A00410929F041092A6
:101030009E0410929B0410929A04109299041092AC
:10104000980410929704109296041092A50410929E
:10105000A40410929D0410929C0489E261E00E9415
:10106000F82889E260E00E94EF2764E670E080E003
:1010700090E00E946D3589E261E00E94EF278AE2EC
:1010800060EE76E049E150E00E94012A64E670E0FB
:1010900080E090E00E946D358AE260EE76E049E102
:1010A00050E00E94012A80E090E076DE0E9439350F
:1010B00060938C0470938D0480938E0490938F04BE
:1010C0000895EF92FF920F931F937C0104ED17E0B8
:1010D000C80164E172E00E944D27C801B7010E9477
:1010E0005927C70125DD65E070E080E090E00E94AF
:1010F0006D35C701EEDC1F910F91FF90EF900895C1
:10110000CF93DF93EC0184ED97E06CE272E00E94F4
:101110004D2784ED97E0BE010E9459278091770604
:10112000909178068C239D23181619061CF4CE0185
:10113000D0DC02C0CE01FCDCDF91CF910895CF93CB
:10114000DF93EC0184ED97E065E472E00E944D27A7
:1011500084ED97E0BE010E945927E9E7F6E020E020
:1011600030E007C02F5F3F4F32962630310509F43B
:101170004AC0808191818C179D07A1F7F901EE0F7C
:10118000FF1FE758F94F118210822230310501F11B
:10119000233031053CF42115310571F02130310542
:1011A00071F510C024303105F9F024303105B4F068
:1011B0002530310521F51EC08DED97E060E00E94DD
:1011C00079271DC08DED97E060E00E947C2717C055
:1011D0008DED97E060E00E947F2711C08DED97E0D4
:1011E00060E00E9482270BC08DED97E060E00E94D6
:1011F000852705C08DED97E060E00E9488278DED82
:1012000097E00E94032ADF91CF9108950F931F93D7
:10121000182F092F84ED97E065E572E00E944D27B5
:1012200084ED97E0612F702F0E945927E9E7F6E0DF
:1012300020E030E007C02F5F3F4F32962630310567
:1012400009F449C080819181892BA9F7F901EE0F3A
:10125000FF1FE758F94F108301832230310501F158
:10126000233031053CF42115310571F02130310571
:1012700071F510C024303105F9F024303105B4F097
:101280002530310521F51EC08DED97E0612F0E94BC
:1012900079271DC08DED97E0612F0E947C2717C034
:1012A0008DED97E0612F0E947F2711C08DED97E0B3
:1012B000612F0E9482270BC08DED97E0612F0E9465
:1012C000852705C08DED97E0612F0E9488278DED61
:1012D00097E00E94032A1F910F910895EF92FF92C9
:1012E0000F931F937C0104ED17E0C80167E672E0DD
:1012F0000E944D27C801B7010E945927C70186DF08
:1013000065E070E080E090E00E946D35C70117DF76
:101310001F910F91FF90EF900895CF93DF93EC0111
:1013200084ED97E06AE772E00E944D2784ED97E034
:10133000BE010E9459272091850630918606CE0174
:101340008223932318161906A4F42C1B3D0B30930B
:1013500086062093850660E020FD61E0369527959E
:10136000422F417036952795217085ED97E00E94B8
:10137000202ADF91CF9108954F925F926F927F92D2
:101380008F929F92AF92BF92CF92DF92EF92FF9295
:101390000F931F93DF93CF93CDB7DEB7CC54D040DC
:1013A0000FB6F894DEBF0FBECDBF6B017C014901C3
:1013B0005A0160919B0670919C06980140E050E0B4
:1013C000D701C60182709070A070B07089839A8333
:1013D000AB83BC83D701C60188709070A070B070D9
:1013E0008D839E83AF83B887D701C60180719070CB
:1013F000A070B07089879A87AB87BC87D701C60178
:1014000080729070A070B0708D879E87AF87B88B08
:10141000D701C60180749070A070B070898B9A8BD0
:10142000AB8BBC8BD701C60180709170A070B0707F
:101430008D8B9E8BAF8BB88FD701C6018070927059
:10144000A070B070898F9A8FAB8FBC8FD701C60107
:1014500080709870A070B0708D8F9E8FAF8FB8A382
:10146000D701C60180709072A070B07089A39AA352
:10147000ABA3BCA3D701C60180709074A070B070FC
:101480008DA39EA3AFA3B8A7D701C60180709070AB
:10149000A170B07089A79AA7ABA7BCA7D701C60156
:1014A00080709070A270B0708DA79EA7AFA7B8ABE8
:1014B000D701C60180709070A071B07089AB9AABF3
:1014C000ABABBCABD701C60180709070A072B0709E
:1014D0008DAB9EABAFABB8AFD701C601807090703B
:1014E000A074B07089AF9AAFABAFBCAFD701C601E3
:1014F00080709070A078B07021968CAF9DAFAEAF29
:10150000BFAF2197D701C60180709070A070B170F5
:1015100025968CAF9DAFAEAFBFAF2597D701C60163
:1015200080709070A070B47029968CAF9DAFAEAFF4
:10153000BFAF2997D701C60180709070A070B071BD
:101540002D968CAF9DAFAEAFBFAF2D97412C512CD8
:10155000612CF0E47F2E4C205D206E207F208FEFE9
:101560009FE7289F8001299F100D389F100D11249F
:10157000060F171F000F111F0957194F89819A81F4
:10158000AB81BC810097A105B10599F16217730782
:1015900014F40C94CA15F801E40FF51F0190F081C2
:1015A000E02D309771F487E390E098DE82E090E0E0
:1015B00090DA84E090E08DDA81E090E08ADA0C94B1
:1015C000CA15E130F10539F0E230F10521F0339729
:1015D00011F00C948B1589E290E080DE82E090E0BF
:1015E00078DA84E090E075DA81E090E072DA0C94C9
:1015F000CA158D819E81AF81B8850097A105B1057F
:1016000009F4B2C0D701C60188709072A070B070A2
:1016100088509042A040B04099F56217730714F4C7
:101620000C94CA15F801E40FF51F0190F081E02D2C
:10163000309731F0E230F10519F0E330F10571F443
:1016400088E290E04BDE82E090E043DA84E090E0D4
:1016500040DA81E090E03DDA0C94CA15319711F040
:101660000C948B1588E590E039DE82E090E031DA69
:1016700084E090E02EDA81E090E02BDA0C94CA1539
:1016800087FC02C00C94A1156217730714F40C9424
:10169000CA15F801E40FF51F0190F081E02D309795
:1016A00041F0E130F10529F0E230F10511F0339716
:1016B00071F48BE290E012DE82E090E00ADA84E0DE
:1016C00090E007DA81E090E004DA0C94CA15F801A2
:1016D000E40FF51F0190F081E02D309771F486E161
:1016E00090E0FCDD82E090E0F4D984E090E0F1D974
:1016F00081E090E0EED90C94CA15E130F10589F44F
:1017000082E090E015DA80E290E0E8DD82E090E0AF
:10171000E0D984E090E0DDD981E090E0DAD90C9462
:10172000CA15E230F10571F483E390E0D7DD82E081
:1017300090E0CFD984E090E0CCD981E090E0C9D9A5
:101740000C94CA15339711F00C948B1583E490E038
:10175000C5DD82E090E0BDD984E090E0BAD981E0B7
:1017600090E0B7D90C94CA1589859A85AB85BC855C
:101770000097A105B10509F452C06217730714F46C
:101780000C94CA15F801E40FF51F0190F081E02DCB
:10179000309771F486E090E0A1DD82E090E099D985
:1017A00084E090E096D981E090E093D90C94CA153A
:1017B000E130F10571F487E290E090DD82E090E0A5
:1017C00088D984E090E085D981E090E082D90C94BA
:1017D000CA15E230F10589F482E090E0A9D983E3EB
:1017E00090E07CDD82E090E074D984E090E071D9F3
:1017F00081E090E06ED90C94CA15339711F00C94E7
:101800008B1584E490E06ADD82E090E062D984E0A8
:1018100090E05FD981E090E05CD90C94CA158D8589
:101820009E85AF85B8890097A105B10509F455C01B
:101830006217730714F40C94CA15F801E40FF51F2E
:101840000190F081E02D309771F483E190E046DD66
:1018500082E090E03ED984E090E03BD981E090E0E6
:1018600038D90C94CA15E130F10589F482E090E092
:101870005FD985E290E032DD82E090E02AD984E011
:1018800090E027D981E090E024D90C94CA15E23089
:10189000F10589F482E090E04BD985E390E01EDD0C
:1018A00082E090E016D984E090E013D981E090E0E6
:1018B00010D90C94CA15339711F00C948B1585E44C
:1018C00090E00CDD82E090E004D984E090E001D962
:1018D00081E090E0FED80C94CA1589899A89AB8979
:1018E000BC890097A105B10509F452C062177307BE
:1018F00014F40C94CA15F801E40FF51F0190F0815F
:10190000E02D309771F48FE090E0E8DC82E090E029
:10191000E0D884E090E0DDD881E090E0DAD80C9463
:10192000CA15E130F10571F485E290E0D7DC82E080
:1019300090E0CFD884E090E0CCD881E090E0C9D8A6
:101940000C94CA15E230F10589F482E090E0F0D8F9
:1019500087E390E0C3DC82E090E0BBD884E090E0D5
:10196000B8D881E090E0B5D80C94CA15339711F03F
:101970000C948B1581E490E0B1DC82E090E0A9D872
:1019800084E090E0A6D881E090E0A3D80C94CA153A
:10199000C7FE3EC06217730714F40C94CA15F80111
:1019A000E40FF51F0190F081E02D309771F484E190
:1019B00090E094DC82E090E08CD884E090E089D8DC
:1019C00081E090E086D80C94CA15E130F10571F4FD
:1019D00083E690E083DC82E090E07BD884E090E0D6
:1019E00078D881E090E075D80C94CA15329711F040
:1019F0000C948B1585E390E071DC82E090E069D86F
:101A000084E090E066D881E090E063D80C94CA1539
:101A10008D899E89AF89B88D0097A105B10509F41C
:101A200041C06217730714F40C94CA15F801E40F4F
:101A3000F51F0190F081E02D309771F48CE190E07A
:101A40004DDC82E090E045D884E090E042D881E02F
:101A500090E03FD80C94CA15E230F10589F482E099
:101A600090E066D88DE290E039DC82E090E031D8F9
:101A700084E090E02ED881E090E02BD80C94CA1539
:101A8000339711F00C948B1589E490E027DC82E009
:101A900090E01FD884E090E01CD881E090E019D855
:101AA0000C94CA15898D9A8DAB8DBC8D0097A105BC
:101AB000B10509F449C06217730714F40C94CA15F0
:101AC000F801E40FF51F0190F081E02D309789F4C3
:101AD0008BE190E003DC82E090E00E94690584E005
:101AE00090E00E94690581E090E00E9469050C94F5
:101AF000CA15E230F105A1F482E090E019D881E343
:101B000090E0ECDB82E090E00E94690584E090E0E8
:101B10000E94690581E090E00E9469050C94CA1555
:101B2000339709F0F8C786E490E0D8DB82E090E0D4
:101B30000E94690584E090E00E94690581E090E0E0
:101B40000E9469050C94CA158D8D9E8DAF8DB8A12C
:101B50000097A105B105B9F16217730714F40C944D
:101B6000CA15F801E40FF51F0190F081E02D3097C0
:101B700089F486E390E0B2DB82E090E00E946905A0
:101B800084E090E00E94690581E090E00E94690590
:101B90000C94CA15E130F10531F0E230F10519F08D
:101BA000339709F0B8C78CE490E098DB82E090E0CE
:101BB0000E94690584E090E00E94690581E090E060
:101BC0000E946905E7C789A19AA1ABA1BCA10097B2
:101BD000A105B10509F499C0D701C60180709072C2
:101BE000A074B07080509042A044B040A9F5621734
:101BF00073070CF4CFC7F801E40FF51F0190F081D3
:101C0000E02D309781F48AE290E068DB82E090E09A
:101C10000E94690584E090E00E94690581E090E0FF
:101C20000E946905B7C7E130F10531F0E230F105F6
:101C300019F0339709F06FC78CE290E04FDB82E038
:101C400090E00E94690584E090E00E94690581E0CF
:101C500090E00E9469059EC7621773070CF49AC74B
:101C6000F801E40FF51F0190F081E02D309781F429
:101C700087E190E033DB82E090E00E94690584E038
:101C800090E00E94690581E090E00E94690582C7AA
:101C9000E130F10581F484E290E020DB82E090E025
:101CA0000E94690584E090E00E94690581E090E06F
:101CB0000E9469056FC7E230F105A1F482E090E06F
:101CC0000E94980586E390E009DB82E090E00E94A4
:101CD000690584E090E00E94690581E090E00E943F
:101CE000690558C7339709F016C780E490E0F6DA23
:101CF00082E090E00E94690584E090E00E9469051E
:101D000081E090E00E94690545C78DA19EA1AFA129
:101D1000B8A50097A105B10509F455C0621773076E
:101D20000CF438C7F801E40FF51F0190F081E02DA5
:101D3000309781F48AE090E0D1DA82E090E00E946E
:101D4000690584E090E00E94690581E090E00E94CE
:101D5000690520C7E130F10581F486E290E0BEDA42
:101D600082E090E00E94690584E090E00E946905AD
:101D700081E090E00E9469050DC7E230F10581F431
:101D800088E390E0ABDA82E090E00E94690584E0AD
:101D900090E00E94690581E090E00E946905FAC622
:101DA000339709F0B8C682E490E098DA82E090E0D8
:101DB0000E94690584E090E00E94690581E090E05E
:101DC0000E946905E7C6C60180709078892B09F4E6
:101DD00042C0621773070CF4DDC6F801E40FF51F6B
:101DE0000190F081E02D309781F48AE190E076DA7D
:101DF00082E090E00E94690584E090E00E9469051D
:101E000081E090E00E946905C5C6E130F10581F4EA
:101E100087E690E063DA82E090E00E94690584E062
:101E200090E00E94690581E090E00E946905B2C6D9
:101E3000329709F070C68FE290E050DA82E090E0CD
:101E40000E94690584E090E00E94690581E090E0CD
:101E50000E9469059FC689A59AA5ABA5BCA5009758
:101E6000A105B10509F446C0621773070CF492C6C8
:101E7000F801E40FF51F0190F081E02D309781F417
:101E80008EE090E02BDA82E090E00E94690584E029
:101E900090E00E94690581E090E00E9469057AC6A1
:101EA000E130F105A1F482E090E00E94980583E220
:101EB00090E014DA82E090E00E94690584E090E00E
:101EC0000E94690581E090E00E94690563C632972F
:101ED00009F021C680E390E001DA82E090E00E9400
:101EE000690584E090E00E94690581E090E00E942D
:101EF000690550C68DA59EA5AFA5B8A90097A105F7
:101F0000B10509F446C0621773070CF443C6F80123
:101F1000E40FF51F0190F081E02D309781F48DE101
:101F200090E0DCD982E090E00E94690584E090E0D6
:101F30000E94690581E090E00E9469052BC6E130AE
:101F4000F105A1F482E090E00E94980582E290E021
:101F5000C5D982E090E00E94690584E090E00E948B
:101F6000690581E090E00E94690514C6329709F086
:101F7000D2C581E390E0B2D982E090E00E94690589
:101F800084E090E00E94690581E090E00E9469058C
:101F900001C689A99AA9ABA9BCA90097A105B10559
:101FA00009F4D5C5621773070CF4D1C5F801E40F25
:101FB000F51F80819181892B09F0C9C589E190E0E5
:101FC0008DD982E090E00E94690584E090E00E9453
:101FD000690581E090E00E946905DCC5621773071E
:101FE0000CF4BEC5F801E40FF51F0190F081E02D5F
:101FF000309749F0E130F10531F0E230F10519F0A8
:10200000339709F0ADC581E090E00E94BE03C2C5E0
:1020100087FE35C0621773070CF4BCC5F801E40FE6
:10202000F51F0190F081E02D309781F48CE290E073
:1020300055D982E090E00E94690584E090E00E941A
:10204000690581E090E00E946905A4C5E130F105D1
:1020500031F0E230F10519F0339709F05CC58AE2FE
:1020600090E03CD982E090E00E94690584E090E035
:102070000E94690581E090E00E9469058BC56217A6
:1020800073070CF487C5F801E40FF51F0190F08188
:10209000E02D309781F48BE090E020D982E090E051
:1020A0000E94690584E090E00E94690581E090E06B
:1020B0000E9469056FC5E130F10581F481E290E08D
:1020C0000DD982E090E00E94690584E090E00E94D2
:1020D000690581E090E00E9469055CC5E230F10588
:1020E000A1F482E090E00E94980586E290E0F6D8A4
:1020F00082E090E00E94690584E090E00E9469051A
:1021000081E090E00E94690545C5339709F003C559
:102110008DE390E0E3D882E090E00E94690584E0DE
:1021200090E00E94690581E090E00E94690532C557
:1021300021968CAD9DADAEADBFAD21970097A105A9
:10214000B10509F459C0621773070CF423C5F801EF
:10215000E40FF51F0190F081E02D309781F480E1CC
:1021600090E0BCD882E090E00E94690584E090E0B5
:102170000E94690581E090E00E9469050BC5E1308D
:10218000F10581F482E290E0A9D882E090E00E941B
:10219000690584E090E00E94690581E090E00E947A
:1021A0006905F8C4E230F105A1F482E090E00E94F4
:1021B000980587E290E092D882E090E00E9469055D
:1021C00084E090E00E94690581E090E00E9469054A
:1021D000E1C4339709F09FC48EE390E07FD882E09A
:1021E00090E00E94690584E090E00E94690581E02A
:1021F00090E00E946905CEC425968CAD9DADAEAD34
:10220000BFAD25970097A105B10509F459C0621724
:1022100073070CF4BFC4F801E40FF51F0190F081BF
:10222000E02D309781F485E090E058D882E090E08E
:102230000E94690584E090E00E94690581E090E0D9
:102240000E946905A7C4E130F10581F483E290E0C2
:1022500045D882E090E00E94690584E090E00E9409
:10226000690581E090E00E94690594C4E230F105BF
:10227000A1F482E090E00E94980588E390E02ED8D7
:1022800082E090E00E94690584E090E00E94690588
:1022900081E090E00E9469057DC4339709F03BC45A
:1022A0008FE390E01BD882E090E00E94690584E013
:1022B00090E00E94690581E090E00E9469056AC48F
:1022C00029968CAD9DADAEADBFAD29970097A10508
:1022D000B10509F45DC0621773070CF45BC4F80123
:1022E000E40FF51F0190F081E02D309789F482E131
:1022F00090E00E946E0982E090E00E94690584E00F
:1023000090E00E94690581E090E00E94690542C466
:10231000E130F10589F485E590E00E946E0982E0E4
:1023200090E00E94690584E090E00E94690581E0E8
:1023300090E00E9469052EC4E230F105A9F482E024
:1023400090E00E9498058FE290E00E946E0982E082
:1023500090E00E94690584E090E00E94690581E0B8
:1023600090E00E94690516C4339709F0D4C38FE743
:1023700090E00E946E0982E090E00E94690584E08E
:1023800090E00E94690581E090E00E94690502C426
:102390002D968CAD9DADAEADBFAD2D970097A1052F
:1023A000B10509F449C0621773070CF4F3C3F801CF
:1023B000E40FF51F0190F081E02D309789F488E15A
:1023C00090E00E946E0982E090E00E94690584E03E
:1023D00090E00E94690581E090E00E946905DAC3FF
:1023E000E130F10589F484E590E00E946E0982E015
:1023F00090E00E94690584E090E00E94690581E018
:1024000090E00E946905C6C3329709F084C382E058
:1024100090E00E94980580E390E00E946E0982E0BF
:1024200090E00E94690584E090E00E94690581E0E7
:1024300090E00E946905AEC3411451046104710427
:10244000A9F1621773070CF4A5C3F801E40FF51F97
:102450000190F081E02D309789F487E090E00E94B0
:102460006E0982E090E00E94690584E090E00E949D
:10247000690581E090E00E9469058CC3329709F0FC
:102480004AC382E090E00E9498058EE190E00E94AD
:102490006E0982E090E00E94690584E090E00E946D
:1024A000690581E090E00E94690574C384FE62C3FF
:1024B000621773070CF45EC3F801E40FF51F808107
:1024C0009181892B09F056C38DE090E00E946E093E
:1024D00082E090E00E94690584E090E00E94690536
:1024E00081E090E00E94690555C3621773070CF400
:1024F00043C3F801E40FF51F0190F081E02D309700
:1025000049F0E130F10531F0E230F10519F033978F
:1025100009F032C380E090E00E94BE033BC3621723
:1025200073070CF437C3F801E40FF51F0190F08135
:10253000E02D309789F484E090E00E946E0982E0FB
:1025400090E00E94690584E090E00E94690581E0C6
:1025500090E00E9469051EC3E130F10589F487E52A
:1025600090E00E946E0982E090E00E94690584E09C
:1025700090E00E94690581E090E00E9469050AC32D
:10258000329709F0C8C282E090E00E94980584E387
:1025900090E00E946E0982E090E00E94690584E06C
:1025A00090E00E94690581E090E00E946905F2C216
:1025B00087FE59C0621773070CF4ECC2F801E40FF0
:1025C000F51F0190F081E02D309789F485E190E0CE
:1025D0000E946E0982E090E00E94690584E090E02C
:1025E0000E94690581E090E00E946905D3C2E13054
:1025F000F10589F48EE190E00E946E0982E090E09E
:102600000E94690584E090E00E94690581E090E005
:102610000E946905BFC2E230F10589F487E390E0CA
:102620000E946E0982E090E00E94690584E090E0DB
:102630000E94690581E090E00E946905ABC2339772
:1026400009F069C28AE390E00E946E0982E090E09E
:102650000E94690584E090E00E94690581E090E0B5
:102660000E94690597C290FE59C0621773070CF467
:1026700091C2F801E40FF51F0190F081E02D309731
:1026800089F481E190E00E946E0982E090E00E946E
:10269000690584E090E00E94690581E090E00E9475
:1026A000690578C2E130F10589F48FE190E00E947C
:1026B0006E0982E090E00E94690584E090E00E944B
:1026C000690581E090E00E94690564C2E230F1058D
:1026D00089F486E390E00E946E0982E090E00E9417
:1026E000690584E090E00E94690581E090E00E9425
:1026F000690550C2339709F00EC28BE390E00E9447
:102700006E0982E090E00E94690584E090E00E94FA
:10271000690581E090E00E9469053CC291FE5DC0C0
:10272000621773070CF436C2F801E40FF51F01902D
:10273000F081E02D309789F489E090E00E946E09E5
:1027400082E090E00E94690584E090E00E946905C3
:1027500081E090E00E9469051DC2E130F10589F435
:1027600080E290E00E946E0982E090E00E9469059C
:1027700084E090E00E94690581E090E00E94690594
:1027800009C2E230F105A9F482E090E00E949805C8
:102790008FE190E00E946E0982E090E00E9469055E
:1027A00084E090E00E94690581E090E00E94690564
:1027B000F1C1339709F0AFC18CE390E00E946E093C
:1027C00082E090E00E94690584E090E00E94690543
:1027D00081E090E00E946905DDC194FE4DC0621762
:1027E00073070CF4D7C1F801E40FF51F0190F081D5
:1027F000E02D309789F488E090E00E946E0982E035
:1028000090E00E94690584E090E00E94690581E003
:1028100090E00E946905BEC1E130F10589F486E5CA
:1028200090E00E946E0982E090E00E94690584E0D9
:1028300090E00E94690581E090E00E946905AAC1CC
:10284000E230F10589F484E390E00E946E0982E0B1
:1028500090E00E94690584E090E00E94690581E0B3
:1028600090E00E94690596C1339709F054C188E051
:1028700090E00E9461088EC196FE49C062177307FE
:102880000CF488C1F801E40FF51F0190F081E02DF0
:10289000309789F48CE090E00E946E0982E090E02D
:1028A0000E94690584E090E00E94690581E090E063
:1028B0000E9469056FC1E230F105A9F482E090E061
:1028C0000E94980584E290E00E946E0982E090E008
:1028D0000E94690584E090E00E94690581E090E033
:1028E0000E94690557C1339709F015C185E690E04C
:1028F0000E946E0982E090E00E94690584E090E009
:102900000E94690581E090E00E94690543C1C4010D
:1029100080709078892BF9F0621773070CF43AC134
:10292000F801E40FF51F0190F081E02D309731F0B0
:10293000E130F10519F0E230F10529F483E090E08F
:102940000E94CC0627C1339709F0E5C080E090E0F3
:102950000E94CC061FC1A0FE1FC0621773070CF4B3
:1029600019C1F801E40FF51F0190F081E02D3097B7
:1029700031F0E130F10519F0E330F10529F482E09E
:1029800090E00E94CC0606C1329709F0C4C080E0F6
:1029900090E00E94CC06FEC0A1FE1FC06217730724
:1029A0000CF4F8C0F801E40FF51F0190F081E02D60
:1029B000309731F0E230F10519F0E330F10529F4F8
:1029C00081E090E00E94CC06E5C0319709F0A3C0F9
:1029D00080E090E00E94CC06DDC0A2FED0C062176D
:1029E00073070CF4CCC0F801E40FF51F0190F081DF
:1029F000E02D309709F4CEC0E130F10509F4CAC0EA
:102A0000E230F10509F4C6C0339709F4C3C0B7C07A
:102A1000621773070CF4B5C0F801E40FF51F0190BD
:102A2000F081E02D309709F4B5C0E130F10509F4EB
:102A3000B1C0E230F10509F4ADC0339709F4AAC082
:102A4000A0C0621773070CF49EC0F801E40FF51FD5
:102A50000190F081E02D309709F49CC0E130F10540
:102A600009F498C0E230F10509F494C0339709F4F1
:102A700091C089C0621773070CF487C0F801E40F96
:102A8000F51F0190F081E02D309749F0E130F1051C
:102A900031F0E230F10519F0339709F076C084E0A7
:102AA00090E00E948D0976C0621773070CF46FC026
:102AB000F801E40FF51F0190F081E02D309749F007
:102AC000E130F10531F0E230F10519F0339709F00A
:102AD0005EC082E090E00E948D095CC062177307BF
:102AE0000CF458C0F801E40FF51F0190F081E02DBF
:102AF000309741F0E130F10529F0E230F10511F0B5
:102B0000339749F481E090E00E948D0943C0621739
:102B100073070CF43FC0F801E40FF51F8081918129
:102B20000497C1F52F5F3F4F621773079CF1425026
:102B30005040329780819181892B11F40C94BE0A08
:102B400029C06217730714F00C94670B23C08DA97A
:102B50009EA9AFA9B8AD0097A105B10509F03ECA7D
:102B600089AD9AADABADBCAD0097A105B10509F03B
:102B70004FCADECA85FCB9CC86FCD1CC19CDA3FCEA
:102B800047CFA4FC5ECFB0FC75CFB1FC8DCFB2FEB9
:102B9000BECFA4CFC45BDF4F0FB6F894DEBF0FBE2D
:102BA000CDBFCF91DF911F910F91FF90EF90DF90FC
:102BB000CF90BF90AF909F908F907F906F905F90DD
:102BC0004F9008950F931F938C0184ED97E06CE86C
:102BD00072E00E944D2784ED97E0B8010E945927CA
:102BE0002091850630918606202B312B3093860666
:102BF0002093850660E020FD61E036952795422F01
:102C0000417036952795217085ED97E00E94202A26
:102C10001F910F9108952F923F924F925F926F9262
:102C20007F928F929F92AF92BF92CF92DF92EF925C
:102C3000FF920F931F93DF93CF93CDB7DEB76297C9
:102C40000FB6F894DEBF0FBECDBF6B017C01609163
:102C50009B0670919C067A8B698BC8018095909534
:102C6000860F971F880F991F8957994F988B8F87C9
:102C7000601B710B660F771F6957794F7E876D87D1
:102C80002B013B014B015B011B0160E070E080E226
:102C900090E0C622D722E822F922DA01C901807227
:102CA0009070A070B07089839A83AB83BC83CA0193
:102CB000B90160707070807091706D837E838F83B6
:102CC0009887DA01C90180709070A070B27089870E
:102CD0009A87AB87BC872070307040705470C114E5
:102CE000D104E104F10409F4A2C0A989BA89A017AA
:102CF000B1070CF49CC0F30180819181009749F0E9
:102D00008130910531F08230910519F0039709F077
:102D10008EC081E090E016C069897A8960177107DA
:102D20000CF48EC0D4018D919C91009749F08130B4
:102D3000910531F08230910519F0039709F080C0B8
:102D400080E090E00E94D8039AC0E989FA89E017F0
:102D5000F1070CF47FC0AD85BE858D919C910097E5
:102D600049F08130910531F08230910519F00397D7
:102D700009F070C084E090E02CC0E989FA89E0177E
:102D8000F1070CF470C0D5018D919C91009749F02A
:102D90008130910531F08230910519F0039709F0E7
:102DA00062C082E090E015C0E989FA89E017F10776
:102DB0000CF465C0D1018D919C91009741F0813058
:102DC000910529F08230910511F0039721F481E0FB
:102DD00090E0F8DE54C0F20180819181049709F0FF
:102DE0004EC00F5F1F4F69897A89601771070CF415
:102DF00046C0AF85B8898D919C9111971297B88B79
:102E0000AF87EEEFFFEF4E0E5F1E6E0E7F1E8E0E33
:102E10009F1E6D857E85625070407E876D87AE0EE9
:102E2000BF1E2E0E3F1E892B09F459CF28C0898161
:102E30009A81AB81BC810097A105B10509F06CCFE7
:102E40006D817E818F819885611571058105910560
:102E500009F07BCF89859A85AB85BC850097A10554
:102E6000B10509F08ACF211531054105510509F059
:102E70009BCFA989BA89A017B1070CF0ACCF629695
:102E80000FB6F894DEBF0FBECDBFCF91DF911F917B
:102E90000F91FF90EF90DF90CF90BF90AF909F90F9
:102EA0008F907F906F905F904F903F902F900895FC
:102EB0002F923F924F925F926F927F928F929F924A
:102EC000AF92BF92CF92DF92EF92FF920F931F9338
:102ED000DF93CF93CDB7DEB728970FB6F894DEBF58
:102EE0000FBECDBF109294041092950460912204FD
:102EF0007091230480918804909189040E94DE3EA1
:102F0000892B11F00C942A238091B904882329F489
:102F10008091BA04882309F459C78091D70490910D
:102F2000D8049093DE048093DD048091D9049091BD
:102F3000DA049093E0048093DF048091DB049091A5
:102F4000DC049093E2048093E1048091D104909199
:102F5000D2049093D8048093D7048091D3049091A5
:102F6000D4049093DA048093D9048091D50490918D
:102F7000D6049093DC048093DB048091B70488230B
:102F800059F48BEB94E06BEC74E04DEC54E02FECD7
:102F900034E00E94D82E78C0813049F48BEB94E065
:102FA0006BEC74E04FEC54E02DEC34E060C0823008
:102FB00009F455C08430B1F48BEB94E06DEC74E00F
:102FC0004BEC54E02FEC34E00E94D82E8091CD04DD
:102FD0009091CE04909581959F4F9093CE048093CD
:102FE000CD0452C08330B1F48BEB94E06FEC74E00D
:102FF0004BEC54E02DEC34E00E94D82E8091CB04B1
:103000009091CC04909581959F4F9093CC048093A0
:10301000CB042FC0853049F48BEB94E06DEC74E069
:103020004FEC54E02BEC34E00AC08630B1F48BEB6B
:1030300094E06FEC74E04BEC54E02DEC34E00E9433
:10304000D82E8091CD049091CE04909581959F4F7C
:103050009093CE048093CD040CC08730A9F48BEB01
:1030600094E06FEC74E04DEC54E02BEC34E00E9403
:10307000D82E8091CF049091D004909581959F4F48
:103080009093D0048093CF048091C1049091C204A6
:10309000A091C304B091C4040097A105B10529F41F
:1030A00021E030E040E050E010C00E9447359B0135
:1030B000AC018091C1049091C204A091C304B0916D
:1030C000C404281B390B4A0B5B0B2093C5043093B7
:1030D000C6044093C7045093C8040E9447356093C8
:1030E000C1047093C2048093C3049093C40460919C
:1030F000CB047091CC042091040430910504620F3C
:10310000731FE090CD04F090CE042091060430911E
:103110000704E20EF31EA090CF04B090D0042091DB
:10312000080430910904A20EB31E882777FD80950C
:10313000982F0E943E3C20910A0430910B0440914C
:103140000C0450910D040E94F63C0E940B3C3B0184
:103150004C017093CC046093CB040027F7FC0095DE
:10316000102FC801B7010E943E3C20910E043091FF
:103170000F0440911004509111040E94F63C0E94EB
:103180000B3C1B012C017093CE046093CD04CC2426
:10319000B7FCC094DC2CC601B5010E943E3C2091D6
:1031A00012043091130440911404509115040E94AC
:1031B000F63C0E940B3C4B015C017093D004609381
:1031C000CF040091D7041091D804B801882777FD67
:1031D0008095982F0E943E3C6B017C01601A710A19
:1031E000B301882777FD8095982F0E943E3C20915F
:1031F00024043091250440912604509127040E9414
:10320000F63C9B01AC01C701B6010E94173B0E942E
:103210000B3C7093D2046093D1040091D9041091B7
:10322000DA04B801882777FD8095982F0E943E3CEC
:103230006B017C01201A310AB101882777FD809546
:10324000982F0E943E3C2091240430912504409107
:103250002604509127040E94F63C9B01AC01C70153
:10326000B6010E94173B0E940B3C7093D4046093FC
:10327000D3040091DB041091DC04B801882777FDAA
:103280008095982F0E943E3C6B017C019401201B8D
:10329000310BB901882777FD8095982F0E943E3C1D
:1032A0002091240430912504409126045091270454
:1032B0000E94F63C9B01AC01C701B6010E94173B7E
:1032C0000E940B3C7093D6046093D50480912C042B
:1032D000882309F4B0C081E090E0A0E0B0E08093E2
:1032E000900490939104A0939204B09393043DC0F2
:1032F000B301882777FD8095982F6C0D7D1D8E1D5D
:103300009F1D0E94133FDC01CB01880F991FFC0118
:10331000E550FB4F20813181020F131F1093D2041F
:103320000093D104FC01ED5DFA4F20813181A20EA2
:10333000B31EB092D404A092D304855B9A4FDC01F3
:103340008D919C91480E591E5092D6044092D504FE
:103350000894C11CD11CE11CF11CC0929004D092B5
:103360009104E0929204F0929304C0909004D09063
:103370009104E0909204F090930490902C04292DF5
:1033800030E040E050E00091D1041091D204A090D0
:10339000D304B090D4044090D5045090D6046090EB
:1033A000C9047090CA04C216D306E406F5060CF4EC
:1033B0009FCFC801692D70E00E94DE3E9B01709393
:1033C000D2046093D104C501692D70E00E94DE3EF5
:1033D0008B017093D4046093D304C201692D70E013
:1033E0000E94DE3E7B017093D6046093D504C30136
:1033F000692D70E00E94DE3EFC01EE0FFF1FE550DC
:10340000FB4F31832083C301692D70E00E94DE3EB3
:10341000FC01EE0FFF1FED5DFA4F11830083C30126
:10342000692D70E00E94DE3EFC01EE0FFF1FE55BA0
:10343000FA4FF182E0824091D7045091D804609114
:10344000D1047091D2048091E3049091E404860F3A
:10345000971F2091DD043091DE04820F931F841B9F
:10346000950B841B950B9093E4048093E3044091A7
:10347000D9045091DA048091D3049091D40420911E
:10348000E5043091E604820F931F2091DF04309110
:10349000E004820F931F841B950B841B950B909364
:1034A000E6048093E5044091DB045091DC048091B4
:1034B000D5049091D6042091E7043091E804820F5E
:1034C000931F2091E1043091E204820F931F841B2B
:1034D000950B841B950B9093E8048093E7048091EF
:1034E000AE049091AF04892B09F45DC0209173055F
:1034F00030917405CB01261737070CF4C90190935E
:10350000740580937305209175053091760580913F
:10351000D3049091D404281739070CF4C90190936F
:103520007605809375052091770530917805809117
:10353000D5049091D604281739070CF4C90190934B
:103540007805809377052091790530917A058091EF
:10355000D1049091D204821793070CF4C90190937F
:103560007A058093790520917B0530917C058091C7
:10357000D3049091D404821793070CF4C90190935B
:103580007C0580937B0520917D0530917E0580919F
:10359000D5049091D604821793070CF4C901909337
:1035A0007E0580937D058091850590918605909399
:1035B0008C0580938B058091870590918805909369
:1035C0008E0580938D058091890590918A05909351
:1035D000900580938F0580917F0590918005909351
:1035E0008605809385058091810590918205909351
:1035F0008805809387058091830590918405909339
:103600008A05809389056091D1047091D20488273E
:1036100077FD8095982F0E943E3C20E030E040E806
:103620005BE30E94F63C7B018C016091D3047091B6
:10363000D404882777FD8095982F0E943E3C20E097
:1036400030E040E85BE30E94F63C5B016C01609176
:10365000D5047091D604882777FD8095982F0E9415
:103660003E3C20E030E040E85BE30E94F63C1B017A
:103670002C01C601B501A60195010E94F63C6983A3
:103680007A838B839C83C201B101A20191010E94C4
:10369000F63C6D837E838F83988769817A818B81E5
:1036A0009C812D813E814F8158850E94173B0E944D
:1036B000A93D9B01AC01C801B7010E94A33B0E9438
:1036C0007B3B21EE3EE245E652E40E94F63C0E943E
:1036D0000B3C3B014C017093800560937F05C80152
:1036E000B701A80197010E94F63C7B018C012D8156
:1036F0003E814F8158850E94173B0E94A93D9B0146
:10370000AC01C601B5010E94A33B0E947B3B21EEA8
:103710003EE245E652E40E94F63C0E940B3C709368
:10372000820560938105C801B70129813A814B81E7
:103730005C810E94173B0E94A93D9B01AC01C20124
:10374000B1010E94A33B0E947B3B21EE3EE245E695
:1037500052E40E94F63C0E940B3CAB01709384053E
:10376000609383052091810530918205C30177FE26
:1037700003C0909581959F4F8B35910544F437FF99
:1037800003C0309521953F4F2B35310534F04C5413
:103790005F4F50938405409383058091C9049091B5
:1037A000CA0401969093CA048093C9048091CA0503
:1037B0009091CB059093D1058093D0058091CC0555
:1037C0009091CD059093D3058093D2058091CE053D
:1037D0009091CF059093D5058093D4058091C40531
:1037E0009091C5059093CB058093CA058091C6053D
:1037F0009091C7059093CD058093CC058091C80525
:103800009091C9059093CF058093CE0580912D04AA
:10381000882359F48BE995E06EEB75E040EC55E0B8
:1038200022EC35E00E943B3178C0813049F48BE9CD
:1038300095E06EEB75E042EC55E020EC35E060C0C1
:10384000823009F455C08430B1F48BE995E060EC26
:1038500075E04EEB55E022EC35E00E943B31809163
:10386000C0059091C105909581959F4F9093C1059A
:103870008093C00552C08330B1F48BE995E062ECCF
:1038800075E04EEB55E020EC35E00E943B31809135
:10389000BE059091BF05909581959F4F9093BF0570
:1038A0008093BE052FC0853049F48BE995E060EC2C
:1038B00075E042EC55E02EEB35E00AC08630B1F4FD
:1038C0008BE995E062EC75E04EEB55E020EC35E0DD
:1038D0000E943B318091C0059091C10590958195E2
:1038E0009F4F9093C1058093C0050CC08730A9F409
:1038F0008BE995E062EC75E040EC55E02EEB35E0AD
:103900000E943B318091C2059091C30590958195AD
:103910009F4F9093C3058093C2058091B405909109
:10392000B505A091B605B091B7050097A105B10501
:1039300029F421E030E040E050E010C00E9447351B
:103940009B01AC018091B4059091B505A091B6059D
:10395000B091B705281B390B4A0B5B0B2093B805B8
:103960003093B9054093BA055093BB050E94473583
:103970006093B4057093B5058093B6059093B70531
:103980006091BE057091BF052091B0043091B104E3
:10399000620F731FE090C005F090C1052091B20442
:1039A0003091B304E20EF31EA090C205B090C3059F
:1039B0002091B4043091B504A20EB31E882777FD80
:1039C0008095982F0E943E3C209116043091170458
:1039D00040911804509119040E94F63C20E030E018
:1039E00040E751E40E94A33B0E940B3C3B014C0189
:1039F0007093BF056093BE050027F7FC0095102F5C
:103A0000C801B7010E943E3C20911A0430911B046A
:103A100040911C0450911D040E94F63C20E030E0CF
:103A200040E751E40E94A33B0E940B3C1B012C0188
:103A30007093C1056093C005CC24B7FCC094DC2C06
:103A4000C601B5010E943E3C20911E0430911F0426
:103A500040912004509121040E94F63C20E030E087
:103A600040E751E40E94A33B0E940B3C4B015C01E8
:103A70007093C3056093C2050091CA051091CB05F0
:103A8000B801882777FD8095982F0E943E3C6B01F6
:103A90007C01601A710AB301882777FD8095982F01
:103AA0000E943E3C209128043091290440912A0430
:103AB00050912B040E94F63C9B01AC01C701B6015A
:103AC0000E94173B0E940B3C7093C5056093C40590
:103AD0000091CC051091CD05B801882777FD809520
:103AE000982F0E943E3C6B017C01201A310AB101E3
:103AF000882777FD8095982F0E943E3C20912804CE
:103B00003091290440912A0450912B040E94F63CE4
:103B10009B01AC01C701B6010E94173B0E940B3C00
:103B20007093C7056093C6050091CE051091CF052F
:103B3000B801882777FD8095982F0E943E3C6B0145
:103B40007C019401201B310BB901882777FD8095FA
:103B5000982F0E943E3C20912804309129044091E6
:103B60002A0450912B040E94F63C9B01AC01C70132
:103B7000B6010E94173B0E940B3C7093C9056093ED
:103B8000C8058091B604882309F4B0C081E090E0B4
:103B9000A0E0B0E08093900490939104A0939204ED
:103BA000B09393043DC0B401882777FD8095982F8A
:103BB0006E0D7F1D801F911F0E94133FDC01CB0102
:103BC000880F991FFC01E851FA4F20813181420E84
:103BD000531E5092C5054092C405FC01E05FF94FA9
:103BE00020813181C20ED31ED092C705C092C60576
:103BF000885C994FFC0180819181680E791E7092DA
:103C0000C9056092C8050894E11CF11C011D111D35
:103C1000E0929004F0929104009392041093930424
:103C2000E0909004F090910400919204109193041C
:103C3000B090B6042B2D30E040E050E04090C40539
:103C40005090C505C090C605D090C7056090C805C6
:103C50007090C9058090BC059090BD05E216F306F2
:103C6000040715070CF49FCFC2016B2D70E00E9472
:103C7000DE3E9B017093C5056093C405C6016B2DA4
:103C800070E00E94DE3E8B017093C7056093C6050D
:103C9000C3016B2D70E00E94DE3E7B017093C9056D
:103CA0006093C805C4016B2D70E00E94DE3EFC01EC
:103CB000EE0FFF1FE851FA4F31832083C4016B2DB3
:103CC00070E00E94DE3EFC01EE0FFF1FE05FF94F47
:103CD00011830083C4016B2D70E00E94DE3EFC0165
:103CE000EE0FFF1FE85CF94FF182E0828091AE0495
:103CF0009091AF04892B09F460C020916006309147
:103D000061068091C4059091C505281739070CF408
:103D1000C9019093610680936006209162063091FC
:103D200063068091C6059091C705281739070CF4E2
:103D3000C9019093630680936206209164063091D6
:103D400065068091C8059091C905281739070CF4BC
:103D5000C9019093650680936406209166063091B0
:103D600067068091C4059091C505821793070CF4EE
:103D7000C90190936706809366062091680630918A
:103D800069068091C6059091C705821793070CF4C8
:103D9000C901909369068093680620916A06309164
:103DA0006B068091C8059091C905821793070CF4A2
:103DB000C90190936B0680936A068091BC0590912F
:103DC000BD0501969093BD058093BC059090B90404
:103DD000F2E09F1609F49BC0F91528F021E0921635
:103DE00009F037C209C033E0931609F409C184E031
:103DF000981609F02EC296C18091970500917F0513
:103E0000109180056090810570908205882309F4E7
:103E10006BC0609196047091970470939F046093B7
:103E20009E04E0909804F0909904F092A104E0922E
:103E3000A004882777FD8095982F0E943E3C5B0167
:103E40006C018091910590919205081B190BB801A6
:103E5000882777FD8095982F0E943E3C2091300462
:103E60003091310440913204509133040E94A33BBD
:103E70009B01AC01C601B5010E94163B0E940B3CA0
:103E800070939704609396040027F7FC0095102F19
:103E9000C801B7010E943E3C7B018C0180919305D3
:103EA00090919405681A790AB301882777FD809567
:103EB000982F0E943E3C209134043091350440916B
:103EC0003604509137040E94A33B9B01AC01C8010A
:103ED000B7010E94163B0E940B3C709399046093BB
:103EE000980490929404B5C11093920500939105A3
:103EF000709294056092930580918305909184055A
:103F0000909396058093950590929705A2C1C090D5
:103F10009604D0909704D0929F04C0929E04809102
:103F20009804909199049093A1048093A004209107
:103F3000C4053091C50537FF13C066277727621B7C
:103F4000730B882777FD8095982F0E943E3C0E9436
:103F5000A93D7B018C0117FB109517F910950BC03B
:103F6000B901882777FD8095982F0E943E3C0E94DA
:103F7000A93D7B018C01B601882777FD8095982F9C
:103F80000E943E3CA80197010E94173B0E940B3CF7
:103F90007093970460939604C0909804D09099040D
:103FA0002091C6053091C70537FF13C066277727D4
:103FB000621B730B882777FD8095982F0E943E3CEB
:103FC0000E94A93D7B018C0117FB109517F91095F4
:103FD0000BC0B901882777FD8095982F0E943E3C41
:103FE0000E94A93D7B018C01B601882777FD809551
:103FF000982F0E943E3CA80197010E94173B73C076
:10400000809197050091D1041091D2044090D5047D
:104010005090D604882309F46DC060919604709185
:10402000970470939F0460939E04E0909804F0902E
:104030009904F092A104E092A004882777FD80956E
:10404000982F0E943E3C5B016C018091F504909199
:10405000F604081B190BB801882777FD8095982F67
:104060000E943E3C20914004309141044091420422
:10407000509143040E94A33B9B01AC01C601B501D2
:104080000E94163B0E940B3C709397046093960429
:104090000027F7FC0095102FC801B7010E943E3C95
:1040A0007B018C01A0E0BFEF4A0E5B1E8091F904FA
:1040B0009091FA04481A590AB201882777FD809531
:1040C000982F0E943E3C2091440430914504409139
:1040D0004604509147040E94A33B9B01AC01C801D8
:1040E000B7010E94163B0E940B3C709399046093A9
:1040F0009804ACC01093F6040093F5048091D304A7
:104100009091D4049093F8048093F704E0E0FFEFDB
:104110004E0E5F1E5092FA044092F90481E08093A3
:10412000970597C0609196047091970470939F04CF
:1041300060939E04E0909804F0909904F092A1049A
:10414000E092A004A0909A04B0909B04B092A304C3
:10415000A092A204882777FD8095982F0E943E3C6C
:104160003B014C016091E3047091E404882777FDE2
:104170008095982F0E943E3C20914804309149043C
:1041800040914A0450914B040E94A33B9B01AC0117
:10419000C401B3010E94163B0E940B3C709397042C
:1041A000609396040027F7FC0095102FC801B70113
:1041B0000E943E3C7B018C016091E7047091E80411
:1041C000882777FD8095982F0E943E3C20914C04D3
:1041D00030914D0440914E0450914F040E94A33BF6
:1041E0009B01AC01C801B7010E94163B0E940B3C29
:1041F0007093990460939804CC24B7FCC094DC2C91
:10420000C601B5010E943E3C7B018C016091E50432
:104210007091E604882777FD8095982F0E943E3C98
:104220002091500430915104409152045091530414
:104230000E94A33B9B01AC01C801B7010E94163B41
:104240000E940B3C70939B0460939A0481E08093DE
:1042500094049090BA04F2E09F1609F493C023E00E
:10426000921609F4D0C031E0931609F060C1809134
:10427000970500917F0510918005609081057090F1
:104280008205882309F46BC06091960470919704AD
:1042900070939F0460939E04E0909804F0909904BA
:1042A000F092A104E092A004882777FD8095982FD2
:1042B0000E943E3C5B016C018091910590919205BA
:1042C000081B190BB801882777FD8095982F0E944D
:1042D0003E3C2091300430913104409132045091A1
:1042E00033040E94A33B9B01AC01C601B5010E94AF
:1042F000163B0E940B3C7093970460939604002732
:10430000F7FC0095102FC801B7010E943E3C7B01CD
:104310008C018091930590919405681A790AB301F4
:10432000882777FD8095982F0E943E3C2091340489
:104330003091350440913604509137040E94A33BDC
:104340009B01AC01C801B7010E94163B0E940B3CC7
:10435000709399046093980490929504E8C0109328
:104360009205009391057092940560929305809157
:10437000830590918405909396058093950590927E
:104380009705D5C0C0909C04D0909D04D092A50400
:10439000C092A4048091C4059091C50597FF13C0F5
:1043A00062EE7FEF0E94DE3E882777FD8095982F92
:1043B0000E943E3C0E94A93D7B018C0117FB109599
:1043C00017F910950EC06EE170E00E94DE3E88275E
:1043D00077FD8095982F0E943E3C0E94A93D7B016D
:1043E0008C01B601882777FD8095982F0E943E3C6E
:1043F000A80197010E94163B0E940B3C70939D04FC
:1044000060939C0479C0809197050091D10410912C
:10441000D2044090D5045090D604882309F470C08B
:10442000609196047091970470939F0460939E042A
:10443000E0909804F0909904F092A104E092A00416
:10444000882777FD8095982F0E943E3C5B016C0188
:104450008091F5049091F604081B190BB801882788
:1044600077FD8095982F0E943E3C2091400430912A
:10447000410440914204509143040E94A33B9B019C
:10448000AC01C601B5010E94163B0E940B3C709323
:104490009704609396040027F7FC0095102FC8013D
:1044A000B7010E943E3C7B018C0180E09FEF480EEB
:1044B000591E8091F9049091FA04481A590AB201E0
:1044C000882777FD8095982F0E943E3C20914404D8
:1044D0003091450440914604509147040E94A33B0B
:1044E0009B01AC01C801B7010E94163B0E940B3C26
:1044F000709399046093980481E08093950417C0A9
:104500001093F6040093F5048091D3049091D404A1
:104510009093F8048093F704A0E0BFEF4A0E5B1E6F
:104520005092FA044092F90481E0809397054091FB
:1045300096045091970480919E0490919F04481B8B
:10454000590B5093A7044093A6048091980490912E
:1045500099042091A0043091A104821B930B9093A5
:10456000A9048093A80480919A0490919B042091BF
:10457000A2043091A304821B930B9093AB0480930D
:10458000AA0480912E04813041F488279927841B46
:10459000950B9093A7048093A60480912F048130FB
:1045A00059F48091A8049091A904909581959F4F0A
:1045B0009093A9048093A8048091B804813059F4A1
:1045C0008091AA049091AB04909581959F4F909310
:1045D000AB048093AA0480919404882349F18091CC
:1045E000B904882329F16091A6047091A70461158C
:1045F000710561F48091A8049091A904892B31F48C
:104600008091AA049091AB04892B91F02091AA0487
:104610003091AB041216130634F485ED97E0409107
:10462000A80421D705C085ED97E04091A8042BD7B9
:1046300080919504882371F08091BA04882351F009
:104640006091AC047091AD046115710519F085EDB0
:1046500097E0E6D61092A3061092A4061092A50643
:104660001092A6061092A7061092A8061092A9060C
:104670001092AA061092A206109290041092910431
:10468000109292041092930411E0C12ED12CE12CCF
:10469000F12C85C0FC01EE0FFF1FEE0FFF1FDF01A5
:1046A000AC5EBC4F0C91EE5EFC4F1081812F61E03F
:1046B0009FD5812F60E093D48091900490919104D4
:1046C000A0919204B09193048097A105B1052CF5B7
:1046D000802F2AD4892B09F049C0A70196010090A8
:1046E000900404C0220F331F441F551F0A94D2F7B1
:1046F0008091A3069091A406A091A506B091A6066C
:10470000822B932BA42BB52B8093A3069093A40606
:10471000A093A506B093A60629C0802F05D4892BA7
:1047200029F5209190043091910420523040D70116
:10473000C60104C0880F991FAA1FBB1F2A95D2F774
:104740009C01AD018091A7069091A806A091A906B1
:10475000B091AA06822B932BA42BB52B8093A7068E
:104760009093A806A093A906B093AA06812F60E0B3
:104770003FD5812F61E033D48091900490919104D2
:10478000A0919204B09193040196A11DB11D809354
:10479000900490939104A0939204B0939304809119
:1047A000900490919104A0919204B09193048C3361
:1047B0009105A105B1050CF46DCFE090AB06F0902A
:1047C000AC060091AD061091AE068091A3069091C3
:1047D000A406A091A506B091A606E816F9060A0758
:1047E0001B07A9F42091AF063091B0064091B106A5
:1047F0005091B2068091A7069091A806A091A906B3
:10480000B091AA06281739074A075B0759F00E949A
:10481000393560939D0670939E0680939F06909312
:10482000A00617C18091B3069091B406A091B50679
:10483000B091B606E816F9060A071B0771F48091D5
:10484000B7069091B806A091B906B091BA0628179C
:1048500039074A075B0709F4FCC00E9439352091EB
:104860009D0630919E0640919F065091A006621BC6
:10487000730B840B950B209102043091030440E0EC
:1048800050E0621773078407950708F4E2C084EDCF
:1048900097E060EA72E001D31092900410929104C4
:1048A000109292041092930438C080329105A105B1
:1048B000B1054CF44091A3065091A4066091A50661
:1048C0007091A60609C080974091A7065091A8064E
:1048D0006091A9067091AA0604C0769567955795D0
:1048E00047958A95D2F7417050706070707084ED72
:1048F00097E0D6D28091900490919104A091920477
:10490000B09193040196A11DB11D809390049093E2
:104910009104A0939204B093930480919004909199
:104920009104A0919204B09193048C339105A10558
:10493000B1050CF4BACF84ED97E067EA72E0ADD22E
:104940006090AB067090AC068090AD069090AE067D
:10495000A090B306B090B406C090B506D090B6064D
:10496000A614B704C804D904A8F0E090AF06F090EC
:10497000B0060091B1061091B2062091B7063091B1
:10498000B8064091B9065091BA062E153F0540076A
:104990005107C0F481E08093A1066091AB0670914D
:1049A000AC068091AD069091AE062091AF06309195
:1049B000B0064091B1065091B20601E010E00E94AD
:1049C0000B1627C08091A106882319F16A147B0475
:1049D0008C049D0428F0E216F30604071507C8F4BA
:1049E0001092A10681E08093A2066091B3067091B7
:1049F000B4068091B5069091B6062091B706309125
:104A0000B8064091B9065091BA0601E010E00E9444
:104A1000BC098091AB069091AC06A091AD06B09117
:104A2000AE068093B3069093B406A093B506B093F8
:104A3000B6068091AF069091B006A091B106B091F4
:104A4000B2068093B7069093B806A093B906B093C8
:104A5000BA068091A3069091A406A091A506B091F4
:104A6000A6068093AB069093AC06A093AD06B093D8
:104A7000AE068091A7069091A806A091A906B091D4
:104A8000AA068093AF069093B006A093B106B093A8
:104A9000B20620918804309189042F5F3F4F3093F4
:104AA000890420938804E0917006F0917106E1304A
:104AB000F10589F4C90164EF71E00E94DE3E892BA3
:104AC00051F440E0C90168EE73E00E94DE3E845F6D
:104AD0009140D4F538C0E230F10589F4C90164E6AB
:104AE00070E00E94DE3E892B51F440E0C90168EE7F
:104AF00073E00E94DE3E8436910534F524C0E33035
:104B0000F10581F4C90162E370E00E94DE3E892B69
:104B100049F440E0C90164E670E00E94DE3EC297BD
:104B20009CF411C03497A9F4C9016AE070E00E94B6
:104B3000DE3E892B71F440E0C90164E670E00E941A
:104B4000DE3E0A970CF441E0842F6FEF4FEF0E9496
:104B5000A403209172063091730621303105A9F427
:104B6000E0918804F0918904CF0164EF71E00E9424
:104B7000DE3E892B51F420E0CF0168EE73E00E9405
:104B8000DE3E845F914084F52EC023303105A9F4C8
:104B9000E0918804F0918904CF0164E670E00E94FE
:104BA000DE3E892B51F420E0CF0168EE73E00E94D5
:104BB000DE3E84369105C4F416C022303105B9F4C6
:104BC000E0918804F0918904CF0162E370E00E94D3
:104BD000DE3E892B61F420E0CF0164E670E00E94A4
:104BE000DE3EC2970CF421E08FEF622F19C0243013
:104BF0003105C9F42091880430918904C9016AE023
:104C000070E00E94DE3E892B71F440E0C90164E649
:104C100070E00E94DE3E0A970CF441E08FEF642FB3
:104C20004FEF0E94A4032091740630917506213045
:104C30003105B1F4E0918804F0918904CF0164EF6B
:104C400071E00E94DE3E892B59F440E0CF0168EE0E
:104C500073E00E94DE3E845F91400CF047C045C087
:104C600022303105A9F4E0918804F0918904CF0144
:104C700064E670E00E94DE3E892B51F440E0CF01F3
:104C800068EE73E00E94DE3E843691057CF52DC00F
:104C900023303105A1F4E0918804F0918904CF011B
:104CA00062E370E00E94DE3E892B49F440E0CF01D0
:104CB00064E670E00E94DE3EC297C4F416C0243061
:104CC0003105C1F42091880430918904C9016AE05A
:104CD00070E00E94DE3E892B69F440E0C90164E681
:104CE00070E00E94DE3E0A970CF441E08FEF6FEF18
:104CF0000E94A4038091880490918904885E934067
:104D000009F04BC0109289041092880480918A04A3
:104D100090918B04019690938B0480938A0490E089
:104D200080917606882309F491E090937606992382
:104D300019F086E061E002C086E060E050D184EDC9
:104D400097E069EA72E0A9D00E943935AB01BC0155
:104D500080918C0490918D04A0918E04B0918F0469
:104D6000481B590B6A0B7B0B84ED97E099D084EDBF
:104D700097E067E371E091D060918A0470918B04B1
:104D800084ED97E096D00E94393560938C0470933F
:104D90008D0480938E0490938F0428960FB6F89418
:104DA000DEBF0FBECDBFCF91DF911F910F91FF905E
:104DB000EF90DF90CF90BF90AF909F908F907F90BB
:104DC0006F905F904F903F902F900895E7ECF6E042
:104DD0002FB7F89482ED96E091838083938382834A
:104DE0009583848382E597E09783868380E8808734
:104DF000128611862FBFECEBF6E02FB7F89482E510
:104E000097E091838083938382839583848382ED6B
:104E100097E09783868380E88087128611862FBF6C
:104E20000E948A030E9491350E9401070E94581730
:104E30008091D207882319F40E942C0202C010929C
:104E4000D2078091D307882319F40E94F10102C090
:104E50001092D3070E94033BE9CFEF92FF920F938A
:104E60001F937C0104ED17E0C80169EB72E015D0D7
:104E7000C801B7011ED0C7010E94E21565E070E0CD
:104E800080E090E00E946D35C7010E948D091F915E
:104E90000F91FF90EF900895089508950895089553
:104EA000089508950895089508950895089508951A
:104EB000089508950895089508950895089508950A
:104EC00008950895089508950895089508950895FA
:104ED00008950895089508950895089508950895EA
:104EE000089508950895089508950895FC01608334
:104EF0000895FC0162830895FC0163830895FC0119
:104F000064830895FC0165830895FC016683089518
:104F1000FC0167830895089508950895089580E039
:104F20000895089580E00895982F883060F489B13D
:104F300041E050E002C0440F551F9A95E2F790E01F
:104F4000482359234AC08850823028F42CB1892F35
:104F500090E0089738C0892F8A50883028F426B10D
:104F6000892F90E00A972FC0892F8251823028F430
:104F70002CB1892F90E00C9726C0892F845188305E
:104F800028F423B1892F90E044971DC0892F8C51BC
:104F9000883028F420B1892F90E04C9714C0892FD5
:104FA0008452823028F42CB1892F90E080970BC076
:104FB000892F8652883018F040E050E00EC02FB1A3
:104FC000892F90E0869741E050E002C0440F551FC2
:104FD0008A95E2F730E042235323CA010895382F1F
:104FE000662309F086C0883060F42BB181E090E040
:104FF00002C0880F991F3A95E2F7809582238BB9FA
:1050000008958850823030F44EB1232F30E028507C
:1050100030404FC0832F8A50883080F448B1232F0E
:1050200030E02A50304081E090E002C0880F991FA4
:105030002A95E2F78095842388B90895832F8251B9
:10504000823030F44EB1232F30E02C50304031C04C
:10505000832F8451883080F445B1232F30E02451D0
:10506000304081E090E002C0880F991F2A95E2F756
:105070008095842385B90895832F8C51883080F4DE
:1050800042B1232F30E02C51304081E090E002C04B
:10509000880F991F2A95E2F78095842382B9089595
:1050A000832F8452823080F44EB1232F30E020527F
:1050B000304081E090E002C0880F991F2A95E2F706
:1050C000809584238EB90895832F8652883008F006
:1050D0008EC041B3232F30E02652304081E090E073
:1050E00002C0880F991F2A95E2F78095842381BB1F
:1050F0000895883058F42BB181E090E002C0880F09
:10510000991F3A95E2F7282B2BB9089588508230E1
:1051100030F44EB1232F30E0285030404CC0832F64
:105120008A50883078F448B1232F30E02A5030403C
:1051300081E090E002C0880F991F2A95E2F7482B82
:1051400048B90895832F8251823030F44EB1232F15
:1051500030E02C5030402FC0832F8451883078F4B9
:1051600045B1232F30E02451304081E090E002C06F
:10517000880F991F2A95E2F7482B45B90895832F88
:105180008C51883078F442B1232F30E02C513040DC
:1051900081E090E002C0880F991F2A95E2F7482B22
:1051A00042B90895832F8452823078F44EB1232F70
:1051B00030E02052304081E090E002C0880F991F1B
:1051C0002A95E2F7482B4EB90895832F86528830EE
:1051D00070F441B3232F30E02652304081E090E05C
:1051E00002C0880F991F2A95E2F7482B41BB08950A
:1051F000382F662309F086C0883060F42AB181E038
:1052000090E002C0880F991F3A95E2F780958223BB
:105210008AB908958850823030F44DB1232F30E0A0
:10522000285030404FC0832F8A50883080F447B1D7
:10523000232F30E02A50304081E090E002C0880FF8
:10524000991F2A95E2F78095842387B90895832FC3
:105250008251823030F44DB1232F30E02C50304059
:1052600031C0832F8451883080F444B1232F30E043
:105270002451304081E090E002C0880F991F2A95A8
:10528000E2F78095842384B90895832F8C51883068
:1052900080F441B1232F30E02C51304081E090E088
:1052A00002C0880F991F2A95E2F78095842381B95F
:1052B0000895832F8452823080F44DB1232F30E043
:1052C0002052304081E090E002C0880F991F2A955B
:1052D000E2F7809584238DB90895832F8652883014
:1052E00008F08EC040B3232F30E02652304081E0DA
:1052F00090E002C0880F991F2A95E2F780958423D9
:1053000080BB0895883058F42AB181E090E002C053
:10531000880F991F3A95E2F7282B2AB908958850EB
:10532000823030F44DB1232F30E0285030404CC053
:10533000832F8A50883078F447B1232F30E02A50E9
:10534000304081E090E002C0880F991F2A95E2F773
:10535000482B47B90895832F8251823030F44DB1E4
:10536000232F30E02C5030402FC0832F84518830C1
:1053700078F444B1232F30E02451304081E090E0B4
:1053800002C0880F991F2A95E2F7482B44B9089567
:10539000832F8C51883078F441B1232F30E02C5189
:1053A000304081E090E002C0880F991F2A95E2F713
:1053B000482B41B90895832F8452823078F44DB13F
:1053C000232F30E02052304081E090E002C0880F6F
:1053D000991F2A95E2F7482B4DB90895832F8652DD
:1053E000883070F440B3232F30E02652304081E003
:1053F00090E002C0880F991F2A95E2F7482B40BB26
:1054000008950895089522E020937504A6E7B4E076
:10541000FC0188E001900D928150E1F70C94F101BC
:10542000FC0181E080937504118212826383A6E7F8
:10543000B4E088E001900D928150E1F70C94F10105
:10544000FC0181E080937504440F420F660F660FE4
:10545000460F4083A6E7B4E088E001900D928150AA
:10546000E1F70C94F101FC0181E080937504618304
:1054700042832383A6E7B4E088E001900D92815037
:10548000E1F70C94F10120E0EECF08950895EF923A
:10549000FF920F931F93F42EE22E05EE17E0C80142
:1054A0003BDDC8016F2D3ADDC8016E2D37DDC80127
:1054B00034DD1F910F91FF90EF9008956F3F7105BC
:1054C0001CF02FEF30E005C09B0177FF02C020E009
:1054D00030E063E570E049E2DACF6F3F71051CF020
:1054E0002FEF30E005C09B0177FF02C020E030E0E5
:1054F00063E570E048E2CBCF6F3F71051CF02FEF02
:1055000030E005C09B0177FF02C020E030E063E59A
:1055100070E046E2BCCF6F3F71051CF02FEF30E02A
:1055200005C09B0177FF02C020E030E063E570E03A
:1055300045E2ADCF6F3F71051CF02FEF30E005C0A5
:105540009B0177FF02C020E030E063E570E044E2B9
:105550009ECF6F3F71051CF02FEF30E005C09B011F
:1055600077FF02C020E030E063E570E043E28FCFD8
:10557000262F63E570E042E28ACF6F3F71051CF091
:105580002FEF30E005C09B0177FF02C020E030E044
:1055900063E570E041E27BCFEF92FF920F931F93A0
:1055A0008C01362FF42EE22E63E570E04EE1232FBE
:1055B0006EDFC80163E570E04FE12F2D68DFC801A1
:1055C00063E570E040E22E2D62DF1F910F91FF90A6
:1055D000EF9008956F3F71051CF02FEF30E005C08C
:1055E0009B0177FF02C020E030E063E570E04DE111
:1055F0004ECFAF92BF92DF92EF92FF920F931F9325
:10560000CF93DF937B01D42E590185EE97E084DCA4
:1056100085EE97E06D2D82DC85EE97E07EDC85EEF1
:1056200097E0B70179DC85EE97E0B701A50179DC59
:10563000E80104C085EE97E072DC899385EE97E07F
:1056400071DC8823B9F785EE97E067DCDF91CF91B5
:105650001F910F91FF90EF90DF90BF90AF90089552
:105660009F92AF92BF92CF92DF92EF92FF920F93F1
:105670001F93DF93CF930F92CDB7DEB75C0184ED1C
:1056800097E06BE574E009DCC50163E570E040E09C
:1056900021E030E07E010894E11CF11C8701A9DFC4
:1056A00084ED97E0698142E050E0FDDB84ED97E016
:1056B00062E674E0F2DB8DE1C82ED12C9E2CEF2C3B
:1056C00084ED97E065E674E0E8DB84ED97E0B601F1
:1056D00040E150E0E9DB84ED97E068E674E0DDDB73
:1056E000C50163E570E04C2D21E030E0092D1E2D51
:1056F00080DF84ED97E0698142E050E0D4DB84ED07
:1057000097E062E674E0C9DB0894C11CD11C8AE30F
:10571000C816D104A9F60F90CF91DF911F910F9178
:10572000FF90EF90DF90CF90BF90AF909F90089543
:10573000FF920F931F93DF93CF930F92CDB7DEB7F6
:10574000262FF42E63E570E0422F21E030E08E0139
:105750000F5F1F4F4EDF898190E002C095958795BE
:10576000FA94E2F781700F90CF91DF911F910F9122
:10577000FF900895462F6EE250E0DACF462F6FE299
:1057800050E0D6CF462F60E350E0D2CF6CE244E049
:1057900050E0CECF6BE243E050E0CACF6BE240E096
:1057A00050E0C6CF6BE241E050E0C2CF6BE242E096
:1057B00050E0BECF6BE244E050E0BACF6BE245E090
:1057C00050E0B6CF6BE246E050E0B2CF6AE240E094
:1057D00050E0AECF6AE241E050E0AACF6AE242E098
:1057E00050E0A6CF6AE243E050E0A2CF67E243E098
:1057F00050E09ECF67E247E050E09ACF67E240E09A
:1058000050E096CF67E241E050E092CF67E242E09D
:1058100050E08ECF67E244E050E08ACF67E245E097
:1058200050E086CF67E246E050E082CF61E342E09D
:1058300050E07ECF61E343E050E07ACF61E345E0A2
:1058400050E076CF61E346E050E072CF61E347E09D
:1058500050E06ECFBF92CF92DF92EF92FF920F9304
:105860001F93DF93CF930F92CDB7DEB76C01B62EA7
:10587000E42EF22E63E570E04B2D21E030E08E0146
:105880000F5F1F4FB6DE2981FF2049F081E090E0D5
:1058900002C0880F991FEA94E2F7282B09C081E023
:1058A00090E002C0880F991FEA94E2F780952823C0
:1058B0002983C60163E570E04B2D2981E8DD0F9057
:1058C000CF91DF911F910F91FF90EF90DF90CF90DC
:1058D000BF900895362F242F6EE2432F50E0BACFA9
:1058E000362F242F6FE2432F50E0B4CF262F6CE2E7
:1058F00044E050E0AFCF262F6AE240E050E0AACF6C
:10590000262F6AE241E050E0A5CF262F6AE242E06E
:1059100050E0A0CF262F6AE243E050E09BCF262F35
:1059200067E243E050E096CF262F67E247E050E081
:1059300091CF262F67E240E050E08CCF262F67E220
:1059400041E050E087CF262F67E242E050E082CF6F
:10595000262F67E244E050E07DCF262F67E245E046
:1059600050E078CF262F67E246E050E073CF262F35
:1059700061E342E050E06ECF262F61E343E050E068
:1059800069CF262F61E345E050E064CF262F61E325
:1059900046E050E05FCF262F61E347E050E05ACF6A
:1059A0000F931F93DF93CF930F92CDB7DEB763E5CD
:1059B00070E040E321E030E08E010F5F1F4F19DE01
:1059C00089810F90CF91DF911F910F910895CF9210
:1059D000DF92EF92FF920F931F93DF93CF930F927B
:1059E000CDB7DEB76C01CB01BA0120E030E048EC66
:1059F00050E40E94A33B0E940B3CEE24FF2403C012
:105A00000894E11CF11C7595679561157105C1F746
:105A10008AE0E816F104A4F4C60163E570E04CE204
:105A200021E030E08E010F5F1F4FE3DD2E2D2A5F56
:105A30008981807F282BC60163E570E04CE227DD79
:105A40000F90CF91DF911F910F91FF90EF90DF901A
:105A5000CF9008950F931F93DF93CF930F92CDB7FD
:105A6000DEB763E570E04CE221E030E08E010F5FCD
:105A70001F4FBFDD69816F7070E0665070408827EE
:105A800077FD8095982F0E943E3C9B01AC0160E021
:105A900070E080E090E40E94593D9B01AC01CA0196
:105AA000B90120E030E048EC50E40E94F63C0F9051
:105AB000CF91DF911F910F9108950F931F93DF9363
:105AC000CF930F92CDB7DEB763E570E049E221E0F6
:105AD00030E08E010F5F1F4F8CDD898190E00F90C9
