:10000000BAC10000E2C10000E0C10000DEC1000092
:10001000DCC10000DAC10000D8C10000D6C1000078
:10002000D4C10000D2C100000C948D3BCEC10000B1
:10003000CCC100000C94E627C8C10000C6C1000076
:10004000C4C10000C2C10000C0C10000BEC10000A8
:10005000BCC10000BAC10000B8C100000C946239F4
:10006000B4C10000B2C10000B0C10000AEC10000C8
:10007000ACC10000AAC10000A8C10000A6C10000D8
:10008000A4C10000A2C10000A0C100009EC10000E8
:100090009CC100009AC10000084AD73B3BCE016ECC
:1000A00084BCBFFDC12F3D6C74319ABD56833DDACF
:1000B0003D00C77F11BED9E4BB4C3E916BAAAABEDE
:1000C000000000803F07634236B79BD8A71A396803
:1000D0005618AEBAAB558C1D3CB7CC5763BD6DED11
:1000E000FD753EF6177231BF000000803F0800002A
:1000F00000BE922449123EABAAAA2ABECDCCCC4C5B
:100100003E00000080BEABAAAAAA3E00000000BFCD
:10011000000000803F0000000000084178D3BB438E
:1001200087D1133D190E3CC3BD4282AD2B3E68EC16
:100130008276BED98FE1A93E4C80EFFFBE01C4FF9D
:100140007F3F000000000000000000240027002A7C
:100150000000000000250028002B00000000002304
:10016000002600290004040404040404040202021A
:1001700002020203030303030301020408102040E8
:100180008001020408102001020408102000000071
:100190000700020100000304060000000000000048
:1001A0000005010902A10185010901A10005091944
:1001B000012903150025019503750181029501753B
:1001C000058101050109300931093815F6250A357F
:1001D000F6450A950375088106C0C005010906A108
:1001E000018502050719E029E7150025017501952C
:1001F00008810295017508810105081901290595F5
:10020000057501910295017503910115002565059C
:100210000719002965950675088100C005010904C4
:10022000A10185030901A10009300931159C25644C
:1002300035FF4501950275088102C005091901299C
:10024000021500250175019502810275069501814F
:1002500001C01201100100000008EB034E20010054
:100260000102DC0109026600030102C0FA080B006A
:100270000202020102090400000102020103052436
:10028000001001042402060524060001070581036D
:100290000800FF09040100020A0000030705030229
:1002A0001000010705820210000109040200020388
:1002B00001010409211101000122B1000705840395
:1002C00009000107050503090001040309041A03D5
:1002D0004A00650066006600200052006F0077004B
:1002E000620065007200670000002C034B0065008F
:1002F000790067006C006F007600650020004900FF
:100300006E007000750074002000440065007600E7
:1003100069006300650000002A034B006500790056
:1003200067006C006F0076006500200053006500D8
:100330007200690061006C00200050006F007200C4
:10034000740000002C034B006500790067006C000E
:100350006F0076006500200049006E007000750097
:1003600074002000440065007600690063006500A9
:1003700000000200170211241FBECFEFD0E2DEBF43
:10038000CDBF14E0A0E0B1E0E4EDF8E800E00BBF81
:1003900002C007900D92AC36B107D9F719E0ACE670
:1003A000B4E001C01D92AE32B107E1F713E0C6E739
:1003B000D3E004C02297FE010E94E043C437D10776
:1003C000C9F70E9447270C9468441ACEAC01E0910B
:1003D000B308F091B408E617F70714F420E00DC055
:1003E00020E0E61BF70BEE0FFF1FE156F74F808171
:1003F00091818417950709F421E0822F089581B334
:100400008F71806C81BB089581B38F71806681BBD1
:1004100008950895282F81FD02C090E401C090EC5A
:1004200022FD906481B38F71982B91BB089583ED69
:1004300096E00E94C52E83EB97E00C9427340F932F
:100440001F9380912509843091F585E08093E90020
:100450008091E80082FF11C08091E80085FF08C00C
:100460008EE794E069E070E040E050E00E94573D84
:100470008091E8008B778093E80084E08093E90026
:100480008091E80080FF13C005E714E0C80169E02F
:1004900070E040E050E00E94A93D89E0F80111922F
:1004A0008A95E9F78091E8008E778093E8001F91A4
:1004B0000F910895CF93DF9380912509843009F03F
:1004C00089C08FB7F89420919B0530919C058FBF10
:1004D0002115310509F448C08091CE029091CF02D8
:1004E000A091D002B091D1020097A105B10509F405
:1004F0003BC082E08093E900A901A2E9B5E0B9011F
:100500006F507040ED01EA81FB813191FB83EA83FA
:100510008E819F81E817F90721F48C819D819B834F
:100520008A832FB7F89489859A8501979A87898756
:100530002FBF3093F1004617570719F04150504034
:1005400009F72091F2003091F3008091E8008E7756
:100550008093E8002031310539F40E94FC3A809103
:10056000E8008E778093E80083E08093E900809133
:10057000E80082FF2FC06091F2007091F30040E02C
:10058000A7E8B4E01DC08091F100ED01E881F98198
:100590008083888199810196998388832E813F8108
:1005A0008217930721F48C819D81998388832FB7CB
:1005B000F89489859A8501969A8789872FBF4F5F1E
:1005C000842F90E086179707F0F28091E8008B77F0
:1005D0008093E800DF91CF9108950F931F9380914E
:1005E0002709803209F44DC0813230F4813051F056
:1005F000893009F05FC01DC0813281F1823209F07B
:1006000059C04DC080912609813A09F053C08091AC
:10061000E800877F8093E80005E714E0C80169E0FF
:1006200070E00E94573C89E0F80111928A95E9F741
:1006300024C0809126098132E9F58091E800877F06
:100640008093E8008EE794E069E070E00E94B53C9A
:100650008091E8008E778093E8002CC08091260975
:10066000813A41F58091E800877F8093E8008EEC25
:1006700092E067E070E00E94573C8091E8008B7741
:10068000EACF809126098132A9F48091E800877F22
:100690008093E8008EEC92E067E070E0D7CF809125
:1006A0002609813239F48091E800877F8093E80041
:1006B0000E94DB3A1F910F910895BF92CF92DF9273
:1006C000EF92FF920F931F9381E061EC42E00E9452
:1006D000A63A082F82E061E842E10E94A63AC82EBD
:1006E00083E060E842E10E94A63AE82E1092CE0232
:1006F0001092CF021092D0021092D10284E061ECED
:1007000042E10E94A63AB82E85E060EC42E10E94E8
:10071000A63A682F10E0DD240C211D210170107015
:10072000FF240E211F2140E050E0012B11F041E099
:1007300050E08B2D90E04823592320E030E0452BFA
:1007400011F021E030E0862F90E028233923232B7D
:1007500011F490E201C090E481B38F71982B91BBAA
:100760001F910F91FF90EF90DF90CF90BF90089571
:1007700081E885BF20E825BF84B7877F84BF88E1F3
:100780000FB6F89480936000109260000FBE83E073
:1007900084BD85BD91E09093800082E080938100CC
:1007A0009093B0008093B10090939000809391005B
:1007B00010927E00E1E6F0E020839083569A80B3A9
:1007C000806E80BB81B38F7181BB0E94773B789430
:1007D00008950F931F93982F162F042F8F3F21F00A
:1007E0008BE2692F0E94582B1F3F21F08CE2612F72
:1007F0000E94582B0F3F21F08DE2602F0E94582B52
:100800001F910F910895CF93DF93EC0180EF98E053
:1008100060E071E00E94472E80EF98E0BE010E94E8
:10082000452E209719F41092D10604C0219711F497
:100830001092D206DF91CF910895CF93DF93EC0110
:1008400080EF98E063E171E00E94472E80EF98E02E
:10085000BE010E94452E209721F482E08093D106AC
:1008600005C0219719F482E08093D206DF91CF91E1
:100870000895CF92DF92EF92FF920F931F938C0116
:100880006B0190EFE92E98E0F92EC70165E271E067
:100890000E94472EC701B8010E94C22EC70167E31C
:1008A00071E00E94472EC701B6010E94452E1F919C
:1008B0000F91FF90EF90DF90CF9008950F931F93CB
:1008C000CF93DF93EC018B0180EF98E069E371E057
:1008D0000E94472E80EF98E0BE010E94C22E80EF5A
:1008E00098E067E371E00E94472E80EF98E0B8013E
:1008F0000E94452EC230D10509F1C330D10534F430
:10090000209769F0C130D10531F518C0C430D10548
:10091000A9F0C430D1055CF02597E9F414C0109219
:100920008D0810928C088FEF6FEF40E013C083E0CA
:1009300090E090938D0880938C0809C0D0938D0827
:10094000C0938C0804C010928D0810928C088FEF11
:100950006FEF41E03EDFDF91CF911F910F9108953E
:100960000F931F93CF93DF93EC018B0180EF98E0FF
:100970006BE471E00E94472E80EF98E0BE010E9478
:10098000C22E80EF98E067E371E00E94472E80EF6F
:1009900098E0B8010E94452EC230D10501F1C33064
:1009A000D10534F4209769F0C130D10529F517C07D
:1009B000C430D105A1F0C430D10554F02597E1F43D
:1009C00013C010928B0810928A088FEF60E012C05B
:1009D00083E090E090938B0880938A0809C0D093BD
:1009E0008B08C0938A0804C010928B0810928A0862
:1009F0008FEF61E04FEFEDDEDF91CF911F910F910F
:100A000008950F931F93CF93DF93EC018B0180EF39
:100A100098E06EE571E00E94472E80EF98E0BE01FD
:100A20000E94C22E80EF98E067E371E00E94472E9B
:100A300080EF98E0B8010E94452EC230D105F9F050
:100A4000C330D10534F4209769F0C130D10521F5C8
:100A500016C0C430D10599F0C430D1054CF02597AB
:100A6000D9F412C0109289081092880880E011C051
:100A700083E090E0909389088093880809C0D09320
:100A80008908C093880804C01092890810928808C9
:100A900081E06FEF4FEF9DDEDF91CF911F910F91BE
:100AA0000895AF92BF92CF92DF92EF92FF920F9391
:100AB0001F93CF93DF935C01EB016A0180EF98E015
:100AC0006FE671E00E94472E80EF98E0B5010E942A
:100AD000C22E80EF98E067E371E00E94472E80EF1E
:100AE00098E0BE010E94C22E80EF98E067E371E0BB
:100AF0000E94472E80EF98E0B6010E94452E209775
:100B000021F48AE20E94D12728C0C430D10519F40B
:100B100084E690E007C0239719F489E190E002C0D1
:100B200088EE93E0C0E0D0E07C010027F7FC009560
:100B3000102F10C01C161D0634F460E570E080E034
:100B400090E00E94EA398AE2B501A80197010E946B
:100B500045282196CC15DD056CF3DF91CF911F91CF
:100B60000F91FF90EF90DF90CF90BF90AF900895DE
:100B7000CF93DF93EC0180EF98E06EE771E00E9485
:100B8000472E80EF98E0BE010E94452E60918F08AD
:100B900070919008CE01862397231816190674F4D5
:100BA0006C1B7D0B7093900860938F0888E199E02F
:100BB0000E94DF2A88E199E00E946A2DDF91CF919F
:100BC0000895049719F488E090E0D2CF0895EF9249
:100BD000FF920F931F937C0100EF18E0C80163E9B7
:100BE00071E00E94472EC801B7010E94452E609116
:100BF0008F08709190086E297F29709390086093F8
:100C00008F0808E119E0C8010E94DF2AC8010E948C
:100C10006A2D1F910F91FF90EF90089582309105FA
:100C200071F18330910534F4009759F0019709F080
:100C30005FC016C083309105B1F1049709F058C028
:100C400048C080ED97E063E070E041E050E029DFCC
:100C500080E090E060E070E0D4DE85E090E031C0BC
:100C600080ED97E063E070E042E050E01ADF80E062
:100C700090E060E070E0C5DE80E090E00EC080EDC6
:100C800097E063E070E043E050E00BDF80E090E04D
:100C900060E070E0B6DE85E090E060E070E060DE8D
:100CA00085E090E013C080ED97E063E070E044E001
:100CB00050E0F7DE85E090E060E070E0A2DE80E0EA
:100CC00090E060E070E04CDE80E090E060E070E09A
:100CD000F5CD80E496E064E070E041E050E0E1DED4
:100CE00083E090E060E070E03BDE88E090E06FCF72
:100CF000089580EF98E06AEA71E00E94C62DE091C5
:100D0000B308F091B4081E161F0664F43197F093EF
:100D1000B408E093B308EE0FFF1FE156F74F808150
:100D200091814FDF8091B3089091B408892B51F4E1
:100D30001092A00810929F0881E090E09093B40870
:100D40008093B308E091B308F091B408EE0FFF1F51
:100D5000E356F74F8081918161CFCF93DF93EC0110
:100D600080EF98E06BEB71E00E94472E80EF98E0F7
:100D7000BE010E94452E8091B3089091B4088A303C
:100D8000910574F4FC01EE0FFF1FE156F74FD1837C
:100D9000C08301969093B4088093B308CE013EDFE0
:100DA000DF91CF9108950F931F93CF93DF938C0121
:100DB00080EF98E06EEC71E00E94472E80EF98E0A3
:100DC000B8010E94452E2091B3083091B408EFE994
:100DD000F8E0C0E0D0E001C02196C217D30734F498
:100DE0008191919180179107B9F713C0C801B5DFC0
:100DF0001DC082819381819391932F5F3F4F241770
:100E00003507BCF3415050405093B4084093B308A9
:100E10000DC0C801D6DE4091B3085091B4089E01C0
:100E2000FE01EE0FFF1FE156F74FE7CFDF91CF91A5
:100E30001F910F910895CF93DF93EC0180EF98E01D
:100E400063EE71E00E94472E80EF98E0BE010E94A1
:100E5000452E10C0EE0FFF1FE356F74F80819181A2
:100E6000B0DE8091B3089091B40801979093B408D4
:100E70008093B308E091B308F091B4081E161F06E2
:100E80004CF381E090E09093B4088093B308D09342
:100E9000A008C0939F08CE01C1DEDF91CF910895D5
:100EA00080EF98E040E056E960E070E00E94C92AD7
:100EB00080EF98E065EF71E00E94C62D8BE261E063
:100EC0000E94612C8CE261E00E94612C8DE261E065
:100ED0000E94612C81E061E041E07BDC64E670E02F
:100EE00080E090E00E94EA3980E060E040E071DC60
:100EF00086E061E00E94612C86E060E00E94582B51
:100F000010928E081092A8061092A9061092AA06B6
:100F10001092AB0628C0FC01EE0FFF1FEB52FD4FF5
:100F2000808160E00E94612CE091A806F091A90602
:100F3000EE0FFF1FEB52FD4F808161E00E94582BA6
:100F40008091A8069091A906A091AA06B091AB063F
:100F50000196A11DB11D8093A8069093A906A093A8
:100F6000AA06B093AB068091A8069091A906A0911D
:100F7000AA06B091AB0682329105A105B1055CF2DB
:100F80001092D30883ED96E00E94923383ED96E0B1
:100F900040E050E068EC72E40E9463311092EE068B
:100FA0001092ED061092EC061092EB061092EA06F3
:100FB0001092E9061092090710920A0710920B0787
:100FC00010920C071092050710920607109207075F
:100FD000109208071092010710920207109203075F
:100FE0001092040710929C0710929B0710929A0788
:100FF0001092990710929807109297071092D906AD
:101000001092DA061092DB061092DC061092E206CD
:101010001092E1061092B2071092900710928F077B
:1010200010928E0710928D0710928C0710928B07EA
:1010300010929607109295071092940710929307BA
:10104000109292071092910783EB97E068E670E0A8
:101050000E944F391092E1071092E0071092DF07CB
:101060001092DE071092DD071092DC071092CC0779
:101070001092CD071092CE071092CF071092D5078D
:101080001092D4071092870810927D0810927C0865
:1010900010927B0810927A081092790810927808C2
:1010A0001092830810928208109281081092800892
:1010B00010927F0810927E081092BB061092BA061A
:1010C0001092B9061092B8061092B7061092B606A2
:1010D0001092B3061092B2061092B1061092B006AA
:1010E0001092AF061092AE061092BD061092BC068A
:1010F0001092B5061092B40689E261E00E94612C5C
:1011000089E260E00E94582B64E670E080E090E0A5
:101110000E94EA3989E261E00E94582B8AE260EE7F
:1011200076E024E630E040E050E00E94452864E6A6
:1011300070E080E090E00E94EA398AE260EE76E0BA
:1011400024E630E040E050E00E94452864E670E08C
:1011500080E090E00E94EA3980E090E06CDE0E943E
:10116000B6396093A4067093A5068093A606909363
:10117000A7060895EF92FF920F931F937C0100EF53
:1011800018E0C80164E172E00E94472EC801B7016F
:101190000E94452EC7011BDD65E070E080E090E015
:1011A0000E94EA39C701E4DC1F910F91FF90EF9094
:1011B0000895CF93DF93EC0180EF98E06CE272E04A
:1011C0000E94472E80EF98E0BE010E94452E80913C
:1011D0008F08909190088C239D23181619061CF4F3
:1011E000CE01C6DC02C0CE01F2DCDF91CF910895C2
:1011F000CF93DF93EC0180EF98E065E472E00E940A
:10120000472E80EF98E0BE010E94452EE1E9F8E00C
:1012100020E030E007C02F5F3F4F32962630310587
:1012200009F44AC0808191818C179D07A1F7F901CB
:10123000EE0FFF1FEF56F74F11821082223031055B
:1012400001F1233031053CF42115310571F02130D5
:10125000310571F510C024303105F9F02430310525
:10126000B4F02530310521F51EC088E199E060E039
:101270000E94E22A1DC088E199E060E00E94E52A10
:1012800017C088E199E060E00E94E82A11C088E177
:1012900099E060E00E94EB2A0BC088E199E060E0F1
:1012A0000E94EE2A05C088E199E060E00E94F12AE0
:1012B00088E199E00E946A2DDF91CF9108950F9304
:1012C0001F93182F092F80EF98E065E572E00E94C8
:1012D000472E80EF98E0612F702F0E94452EE1E9A4
:1012E000F8E020E030E007C02F5F3F4F3296263015
:1012F000310509F449C080819181892BA9F7F90151
:10130000EE0FFF1FEF56F74F108301832230310598
:1013100001F1233031053CF42115310571F0213004
:10132000310571F510C024303105F9F02430310554
:10133000B4F02530310521F51EC088E199E0612F18
:101340000E94E22A1DC088E199E0612F0E94E52AEF
:1013500017C088E199E0612F0E94E82A11C088E156
:1013600099E0612F0E94EB2A0BC088E199E0612F80
:101370000E94EE2A05C088E199E0612F0E94F12ABF
:1013800088E199E00E946A2D1F910F910895EF92D4
:10139000FF920F931F937C0100EF18E0C80167E6EE
:1013A00072E00E94472EC801B7010E94452EC70176
:1013B00086DF65E070E080E090E00E94EA39C701D6
:1013C00017DF1F910F91FF90EF900895CF93DF9358
:1013D000EC0180EF98E06AE772E00E94472E80EF10
:1013E00098E0BE010E94452E20919D0830919E08F4
:1013F000CE018223932318161906A4F42C1B3D0B4F
:1014000030939E0820939D0860E020FD61E03695B2
:101410002795422F417036952795217080E199E0FC
:101420000E94872DDF91CF9108954F925F926F9226
:101430007F928F929F92AF92BF92CF92DF92EF9264
:10144000FF920F931F93DF93CF93CDB7DEB7CC54AA
:10145000D0400FB6F894DEBF0FBECDBF6B017C014C
:1014600049015A016091B3087091B408980140E0B5
:1014700050E0D701C60182709070A070B07089836F
:101480009A83AB83BC83D701C60188709070A0702B
:10149000B0708D839E83AF83B887D701C6018071FA
:1014A0009070A070B07089879A87AB87BC87D7018E
:1014B000C60180729070A070B0708D879E87AF87D4
:1014C000B88BD701C60180749070A070B070898B02
:1014D0009A8BAB8BBC8BD701C60180709170A070CA
:1014E000B0708D8B9E8BAF8BB88FD701C60180708B
:1014F0009270A070B070898F9A8FAB8FBC8FD7011C
:10150000C60180709870A070B0708D8F9E8FAF8F65
:10151000B8A3D701C60180709072A070B07089A383
:101520009AA3ABA3BCA3D701C60180709074A0702E
:10153000B0708DA39EA3AFA3B8A7D701C6018070DA
:101540009070A170B07089A79AA7ABA7BCA7D7016C
:10155000C60180709070A270B0708DA79EA7AFA7D3
:10156000B8ABD701C60180709070A071B07089AB24
:101570009AABABABBCABD701C60180709070A072C8
:10158000B0708DAB9EABAFABB8AFD701C60180706A
:101590009070A074B07089AF9AAFABAFBCAFD701F9
:1015A000C60180709070A078B07021968CAF9DAF0E
:1015B000AEAFBFAF2197D701C60180709070A07009
:1015C000B17025968CAF9DAFAEAFBFAF2597D70159
:1015D000C60180709070A070B47029968CAF9DAFDA
:1015E000AEAFBFAF2997D701C60180709070A070D1
:1015F000B0712D968CAF9DAFAEAFBFAF2D97412C84
:10160000512C612CF0E47F2E4C205D206E207F2039
:101610008FEF9FE7289F8001299F100D389F100DA5
:101620001124060F171F000F111F0156174F898134
:101630009A81AB81BC810097A105B10599F1621730
:10164000730714F40C942316F801E40FF51F0190AE
:10165000F081E02D309771F487E390E098DE82E02E
:1016600090E086DA84E090E083DA81E090E080DA4E
:101670000C942316E130F10539F0E230F10521F048
:10168000339711F00C94E41589E290E080DE82E05B
:1016900090E06EDA84E090E06BDA81E090E068DA66
:1016A0000C9423168D819E81AF81B8850097A1058A
:1016B000B10509F4B2C0D701C60188709072A0705C
:1016C000B07088509042A040B04099F562177307FF
:1016D00014F40C942316F801E40FF51F0190F08127
:1016E000E02D309731F0E230F10519F0E330F105EB
:1016F00071F488E290E04BDE82E090E039DA84E039
:1017000090E036DA81E090E033DA0C9423163197DA
:1017100011F00C94E41588E590E039DE82E090E069
:1017200027DA84E090E024DA81E090E021DA0C947A
:10173000231687FC02C00C94FA156217730714F481
:101740000C942316F801E40FF51F0190F081E02DB1
:10175000309741F0E130F10529F0E230F10511F068
:10176000339771F48BE290E012DE82E090E000DAD1
:1017700084E090E0FDD981E090E0FAD90C94231642
:10178000F801E40FF51F0190F081E02D309771F41E
:1017900086E190E0FCDD82E090E0EAD984E090E030
:1017A000E7D981E090E0E4D90C942316E130F1050B
:1017B00089F482E090E00BDA80E290E0E8DD82E0FC
:1017C00090E0D6D984E090E0D3D981E090E0D0D900
:1017D0000C942316E230F10571F483E390E0D7DD39
:1017E00082E090E0C5D984E090E0C2D981E090E049
:1017F000BFD90C942316339711F00C94E41583E4AD
:1018000090E0C5DD82E090E0B3D984E090E0B0D90B
:1018100081E090E0ADD90C94231689859A85AB853B
:10182000BC850097A105B10509F452C06217730782
:1018300014F40C942316F801E40FF51F0190F081C5
:10184000E02D309771F486E090E0A1DD82E090E039
:101850008FD984E090E08CD981E090E089D90C9414
:101860002316E130F10571F487E290E090DD82E02B
:1018700090E07ED984E090E07BD981E090E078D957
:101880000C942316E230F10589F482E090E09FD9B0
:1018900083E390E07CDD82E090E06AD984E090E030
:1018A00067D981E090E064D90C942316339711F046
:1018B0000C94E41584E490E06ADD82E090E058D96D
:1018C00084E090E055D981E090E052D90C94231641
:1018D0008D859E85AF85B8890097A105B10509F46E
:1018E00055C06217730714F40C942316F801E40F23
:1018F000F51F0190F081E02D309771F483E190E0C5
:1019000046DD82E090E034D984E090E031D981E096
:1019100090E02ED90C942316E130F10589F482E091
:1019200090E055D985E290E032DD82E090E020D968
:1019300084E090E01DD981E090E01AD90C94231640
:10194000E230F10589F482E090E041D985E390E04E
:101950001EDD82E090E00CD984E090E009D981E0BE
:1019600090E006D90C942316339711F00C94E415EB
:1019700085E490E00CDD82E090E0FAD884E090E02D
:10198000F7D881E090E0F4D80C94231689899A89DD
:10199000AB89BC890097A105B10509F452C0621753
:1019A000730714F40C942316F801E40FF51F01904B
:1019B000F081E02D309771F48FE090E0E8DC82E078
:1019C00090E0D6D884E090E0D3D881E090E0D0D801
:1019D0000C942316E130F10571F485E290E0D7DC38
:1019E00082E090E0C5D884E090E0C2D881E090E049
:1019F000BFD80C942316E230F10589F482E090E020
:101A0000E6D887E390E0C3DC82E090E0B1D884E0E0
:101A100090E0AED881E090E0ABD80C9423163397D9
:101A200011F00C94E41581E490E0B1DC82E090E0E8
:101A30009FD884E090E09CD881E090E099D80C9405
:101A40002316C7FE3EC06217730714F40C942316C6
:101A5000F801E40FF51F0190F081E02D309771F44B
:101A600084E190E094DC82E090E082D884E090E031
:101A70007FD881E090E07CD80C942316E130F1050A
:101A800071F483E690E083DC82E090E071D884E03A
:101A900090E06ED881E090E06BD80C9423163297DA
:101AA00011F00C94E41585E390E071DC82E090E0A5
:101AB0005FD884E090E05CD881E090E059D80C9445
:101AC00023168D899E89AF89B88D0097A105B10530
:101AD00009F441C06217730714F40C942316F8013B
:101AE000E40FF51F0190F081E02D309771F48CE147
:101AF00090E04DDC82E090E03BD884E090E038D884
:101B000081E090E035D80C942316E230F10589F499
:101B100082E090E05CD88DE290E039DC82E090E0F9
:101B200027D884E090E024D881E090E021D80C947C
:101B30002316339711F00C94E41589E490E027DC28
:101B400082E090E015D884E090E012D881E090E047
:101B50000FD80C942316898D9A8DAB8DBC8D009770
:101B6000A105B10509F449C06217730714F40C9478
:101B70002316F801E40FF51F0190F081E02D309756
:101B800089F48BE190E003DC82E090E00E94B805EC
:101B900084E090E00E94B80581E090E00E94B805E2
:101BA0000C942316E230F105A1F482E090E00FD806
:101BB00081E390E0ECDB82E090E00E94B80584E0F5
:101BC00090E00E94B80581E090E00E94B8050C9476
:101BD0002316339709F0F8C786E490E0D8DB82E05B
:101BE00090E00E94B80584E090E00E94B80581E092
:101BF00090E00E94B8050C9423168D8D9E8DAF8DBC
:101C0000B8A10097A105B105B9F16217730714F4E3
:101C10000C942316F801E40FF51F0190F081E02DDC
:101C2000309789F486E390E0B2DB82E090E00E9496
:101C3000B80584E090E00E94B80581E090E00E9441
:101C4000B8050C942316E130F10531F0E230F105CE
:101C500019F0339709F0B8C78CE490E098DB82E084
:101C600090E00E94B80584E090E00E94B80581E011
:101C700090E00E94B805E7C789A19AA1ABA1BCA1D9
:101C80000097A105B10509F499C0D701C60180707C
:101C90009072A074B07080509042A044B040A9F5FA
:101CA000621773070CF4CFC7F801E40FF51F01901A
:101CB000F081E02D309781F48AE290E068DB82E0E9
:101CC00090E00E94B80584E090E00E94B80581E0B1
:101CD00090E00E94B805B7C7E130F10531F0E2307D
:101CE000F10519F0339709F06FC78CE290E04FDBF4
:101CF00082E090E00E94B80584E090E00E94B80580
:101D000081E090E00E94B8059EC7621773070CF44B
:101D10009AC7F801E40FF51F0190F081E02D30978C
:101D200081F487E190E033DB82E090E00E94B80527
:101D300084E090E00E94B80581E090E00E94B80540
:101D400082C7E130F10581F484E290E020DB82E09B
:101D500090E00E94B80584E090E00E94B80581E020
:101D600090E00E94B8056FC7E230F105A1F482E06F
:101D700090E00E94E70586E390E009DB82E090E0D6
:101D80000E94B80584E090E00E94B80581E090E0F0
:101D90000E94B80558C7339709F016C780E490E051
:101DA000F6DA82E090E00E94B80584E090E00E94BC
:101DB000B80581E090E00E94B80545C78DA19EA1BD
:101DC000AFA1B8A50097A105B10509F455C06217E8
:101DD00073070CF438C7F801E40FF51F0190F08188
:101DE000E02D309781F48AE090E0D1DA82E090E053
:101DF0000E94B80584E090E00E94B80581E090E080
:101E00000E94B80520C7E130F10581F486E290E038
:101E1000BEDA82E090E00E94B80584E090E00E9483
:101E2000B80581E090E00E94B8050DC7E230F105E9
:101E300081F488E390E0ABDA82E090E00E94B8059C
:101E400084E090E00E94B80581E090E00E94B8052F
:101E5000FAC6339709F0B8C682E490E098DA82E0D7
:101E600090E00E94B80584E090E00E94B80581E00F
:101E700090E00E94B805E7C6C60180709078892B73
:101E800009F442C0621773070CF4DDC6F801E40FD1
:101E9000F51F0190F081E02D309781F48AE190E008
:101EA00076DA82E090E00E94B80584E090E00E943B
:101EB000B80581E090E00E94B805C5C6E130F105A3
:101EC00081F487E690E063DA82E090E00E94B80552
:101ED00084E090E00E94B80581E090E00E94B8059F
:101EE000B2C6329709F070C68FE290E050DA82E015
:101EF00090E00E94B80584E090E00E94B80581E07F
:101F000090E00E94B8059FC689A59AA5ABA5BCA57F
:101F10000097A105B10509F446C0621773070CF4D8
:101F200092C6F801E40FF51F0190F081E02D309783
:101F300081F48EE090E02BDA82E090E00E94B80518
:101F400084E090E00E94B80581E090E00E94B8052E
:101F50007AC6E130F105A1F482E090E00E94E70545
:101F600083E290E014DA82E090E00E94B80584E019
:101F700090E00E94B80581E090E00E94B80563C639
:101F8000329709F021C680E390E001DA82E090E028
:101F90000E94B80584E090E00E94B80581E090E0DE
:101FA0000E94B80550C68DA59EA5AFA5B8A90097FB
:101FB000A105B10509F446C0621773070CF443C6C6
:101FC000F801E40FF51F0190F081E02D309781F4C6
:101FD0008DE190E0DCD982E090E00E94B80584E0D9
:101FE00090E00E94B80581E090E00E94B8052BC601
:101FF000E130F105A1F482E090E00E94E70582E281
:1020000090E0C5D982E090E00E94B80584E090E0BD
:102010000E94B80581E090E00E94B80514C632978E
:1020200009F0D2C581E390E0B2D982E090E00E944D
:10203000B80584E090E00E94B80581E090E00E943D
:10204000B80501C689A99AA9ABA9BCA90097A105A1
:10205000B10509F4D5C5621773070CF4D1C5F801B1
:10206000E40FF51F80819181892B09F0C9C589E1B1
:1020700090E08DD982E090E00E94B80584E090E085
:102080000E94B80581E090E00E94B805DCC56217A7
:1020900073070CF4BEC5F801E40FF51F0190F08141
:1020A000E02D309749F0E130F10531F0E230F105F3
:1020B00019F0339709F0ADC581E090E00E94030468
:1020C000C2C587FE35C0621773070CF4BCC5F801A2
:1020D000E40FF51F0190F081E02D309781F48CE240
:1020E00090E055D982E090E00E94B80584E090E04D
:1020F0000E94B80581E090E00E94B805A4C5E130D7
:10210000F10531F0E230F10519F0339709F05CC5C3
:102110008AE290E03CD982E090E00E94B80584E039
:1021200090E00E94B80581E090E00E94B8058BC560
:10213000621773070CF487C5F801E40FF51F0190CF
:10214000F081E02D309781F48BE090E020D982E09F
:1021500090E00E94B80584E090E00E94B80581E01C
:1021600090E00E94B8056FC5E130F10581F481E28D
:1021700090E00DD982E090E00E94B80584E090E004
:102180000E94B80581E090E00E94B8055CC5E2308D
:10219000F105A1F482E090E00E94E70586E290E07C
:1021A000F6D882E090E00E94B80584E090E00E94BA
:1021B000B80581E090E00E94B80545C5339709F065
:1021C00003C58DE390E0E3D882E090E00E94B8057B
:1021D00084E090E00E94B80581E090E00E94B8059C
:1021E00032C521968CAD9DADAEADBFAD21970097A8
:1021F000A105B10509F459C0621773070CF423C592
:10220000F801E40FF51F0190F081E02D309781F483
:1022100080E190E0BCD882E090E00E94B80584E0C4
:1022200090E00E94B80581E090E00E94B8050BC5DF
:10223000E130F10581F482E290E0A9D882E090E0FB
:102240000E94B80584E090E00E94B80581E090E02B
:102250000E94B805F8C4E230F105A1F482E090E0F4
:102260000E94E70587E290E092D882E090E00E9429
:10227000B80584E090E00E94B80581E090E00E94FB
:10228000B805E1C4339709F09FC48EE390E07FD88E
:1022900082E090E00E94B80584E090E00E94B805DA
:1022A00081E090E00E94B805CEC425968CAD9DAD2E
:1022B000AEADBFAD25970097A105B10509F459C092
:1022C000621773070CF4BFC4F801E40FF51F019007
:1022D000F081E02D309781F485E090E058D882E0DD
:1022E00090E00E94B80584E090E00E94B80581E08B
:1022F00090E00E94B805A7C4E130F10581F483E2C3
:1023000090E045D882E090E00E94B80584E090E03B
:102310000E94B80581E090E00E94B80594C4E230C4
:10232000F105A1F482E090E00E94E70588E390E0E7
:102330002ED882E090E00E94B80584E090E00E94F0
:10234000B80581E090E00E94B8057DC4339709F09C
:102350003BC48FE390E01BD882E090E00E94B80578
:1023600084E090E00E94B80581E090E00E94B8050A
:102370006AC429968CAD9DADAEADBFAD29970097CF
:10238000A105B10509F45DC0621773070CF45BC4C5
:10239000F801E40FF51F0190F081E02D309789F4EA
:1023A00082E190E00E94C70982E090E00E94B805B7
:1023B00084E090E00E94B80581E090E00E94B805BA
:1023C00042C4E130F10589F485E590E00E94C70937
:1023D00082E090E00E94B80584E090E00E94B80599
:1023E00081E090E00E94B8052EC4E230F105A9F426
:1023F00082E090E00E94E7058FE290E00E94C7092A
:1024000082E090E00E94B80584E090E00E94B80568
:1024100081E090E00E94B80516C4339709F0D4C358
:102420008FE790E00E94C70982E090E00E94B80523
:1024300084E090E00E94B80581E090E00E94B80539
:1024400002C42D968CAD9DADAEADBFAD2D9700975E
:10245000A105B10509F449C0621773070CF4F3C371
:10246000F801E40FF51F0190F081E02D309789F419
:1024700088E190E00E94C70982E090E00E94B805E0
:1024800084E090E00E94B80581E090E00E94B805E9
:10249000DAC3E130F10589F484E590E00E94C709D0
:1024A00082E090E00E94B80584E090E00E94B805C8
:1024B00081E090E00E94B805C6C3329709F084C35A
:1024C00082E090E00E94E70580E390E00E94C70967
:1024D00082E090E00E94B80584E090E00E94B80598
:1024E00081E090E00E94B805AEC34114510461043C
:1024F0007104A9F1621773070CF4A5C3F801E40F86
:10250000F51F0190F081E02D309789F487E090E08D
:102510000E94C70982E090E00E94B80584E090E044
:102520000E94B80581E090E00E94B8058CC3329704
:1025300009F04AC382E090E00E94E7058EE190E056
:102540000E94C70982E090E00E94B80584E090E014
:102550000E94B80581E090E00E94B80574C384FE33
:1025600062C3621773070CF45EC3F801E40FF51F32
:1025700080819181892B09F056C38DE090E00E9403
:10258000C70982E090E00E94B80584E090E00E94D4
:10259000B80581E090E00E94B80555C36217730743
:1025A0000CF443C3F801E40FF51F0190F081E02D16
:1025B000309749F0E130F10531F0E230F10519F0E2
:1025C000339709F032C380E090E00E9403043BC3DC
:1025D000621773070CF437C3F801E40FF51F01907D
:1025E000F081E02D309789F484E090E00E94C709E3
:1025F00082E090E00E94B80584E090E00E94B80577
:1026000081E090E00E94B8051EC3E130F10589F435
:1026100087E590E00E94C70982E090E00E94B8053B
:1026200084E090E00E94B80581E090E00E94B80547
:102630000AC3329709F0C8C282E090E00E94E70521
:1026400084E390E00E94C70982E090E00E94B80510
:1026500084E090E00E94B80581E090E00E94B80517
:10266000F2C287FE59C0621773070CF4ECC2F8017E
:10267000E40FF51F0190F081E02D309789F485E19A
:1026800090E00E94C70982E090E00E94B80584E0D3
:1026900090E00E94B80581E090E00E94B805D3C2A6
:1026A000E130F10589F48EE190E00E94C70982E0F3
:1026B00090E00E94B80584E090E00E94B80581E0B7
:1026C00090E00E94B805BFC2E230F10589F487E3CB
:1026D00090E00E94C70982E090E00E94B80584E083
:1026E00090E00E94B80581E090E00E94B805ABC27E
:1026F000339709F069C28AE390E00E94C70982E03B
:1027000090E00E94B80584E090E00E94B80581E066
:1027100090E00E94B80597C290FE59C062177307F7
:102720000CF491C2F801E40FF51F0190F081E02D47
:10273000309789F481E190E00E94C70982E090E03F
:102740000E94B80584E090E00E94B80581E090E026
:102750000E94B80578C2E130F10589F48FE190E07C
:102760000E94C70982E090E00E94B80584E090E0F2
:102770000E94B80581E090E00E94B80564C2E23092
:10278000F10589F486E390E00E94C70982E090E0B9
:102790000E94B80584E090E00E94B80581E090E0D6
:1027A0000E94B80550C2339709F00EC28BE390E047
:1027B0000E94C70982E090E00E94B80584E090E0A2
:1027C0000E94B80581E090E00E94B8053CC291FEED
:1027D0005DC0621773070CF436C2F801E40FF51FF1
:1027E0000190F081E02D309789F489E090E00E941B
:1027F000C70982E090E00E94B80584E090E00E9462
:10280000B80581E090E00E94B8051DC2E130F105F5
:1028100089F480E290E00E94C70982E090E00E9483
:10282000B80584E090E00E94B80581E090E00E9445
:10283000B80509C2E230F105A9F482E090E00E94F7
:10284000E7058FE190E00E94C70982E090E00E94D6
:10285000B80584E090E00E94B80581E090E00E9415
:10286000B805F1C1339709F0AFC18CE390E00E9445
:10287000C70982E090E00E94B80584E090E00E94E1
:10288000B80581E090E00E94B805DDC194FE4DC01E
:10289000621773070CF4D7C1F801E40FF51F01901C
:1028A000F081E02D309789F488E090E00E94C7091C
:1028B00082E090E00E94B80584E090E00E94B805B4
:1028C00081E090E00E94B805BEC1E130F10589F4D5
:1028D00086E590E00E94C70982E090E00E94B8057A
:1028E00084E090E00E94B80581E090E00E94B80585
:1028F000AAC1E230F10589F484E390E00E94C7099F
:1029000082E090E00E94B80584E090E00E94B80563
:1029100081E090E00E94B80596C1339709F054C158
:1029200088E090E00E94BA088EC196FE49C0621706
:1029300073070CF488C1F801E40FF51F0190F081D2
:10294000E02D309789F48CE090E00E94C70982E086
:1029500090E00E94B80584E090E00E94B80581E014
:1029600090E00E94B8056FC1E230F105A9F482E061
:1029700090E00E94E70584E290E00E94C70982E0AF
:1029800090E00E94B80584E090E00E94B80581E0E4
:1029900090E00E94B80557C1339709F015C185E64C
:1029A00090E00E94C70982E090E00E94B80584E0B0
:1029B00090E00E94B80581E090E00E94B80543C114
:1029C000C40180709078892BF9F0621773070CF4BA
:1029D0003AC1F801E40FF51F0190F081E02D309726
:1029E00031F0E130F10519F0E230F10529F483E02E
:1029F00090E00E941B0727C1339709F0E5C080E0F3
:102A000090E00E941B071FC1A0FE1FC06217730742
:102A10000CF419C1F801E40FF51F0190F081E02DCD
:102A2000309731F0E130F10519F0E330F10529F488
:102A300082E090E00E941B0706C1329709F0C4C0F3
:102A400080E090E00E941B07FEC0A1FE1FC062173D
:102A500073070CF4F8C0F801E40FF51F0190F08142
:102A6000E02D309731F0E230F10519F0E330F10557
:102A700029F481E090E00E941B07E5C0319709F03E
:102A8000A3C080E090E00E941B07DDC0A2FED0C082
:102A9000621773070CF4CCC0F801E40FF51F019026
:102AA000F081E02D309709F4CEC0E130F10509F452
:102AB000CAC0E230F10509F4C6C0339709F4C3C0B7
:102AC000B7C0621773070CF4B5C0F801E40FF51F27
:102AD0000190F081E02D309709F4B5C0E130F105A7
:102AE00009F4B1C0E230F10509F4ADC0339709F43F
:102AF000AAC0A0C0621773070CF49EC0F801E40FCF
:102B0000F51F0190F081E02D309709F49CC0E13071
:102B1000F10509F498C0E230F10509F494C0339747
:102B200009F491C089C0621773070CF487C0F801DB
:102B3000E40FF51F0190F081E02D309749F0E1306E
:102B4000F10531F0E230F10519F0339709F076C064
:102B500084E090E00E94E60976C0621773070CF4E7
:102B60006FC0F801E40FF51F0190F081E02D309760
:102B700049F0E130F10531F0E230F10519F0339719
:102B800009F05EC082E090E00E94E6095CC0621736
:102B900073070CF458C0F801E40FF51F0190F081A1
:102BA000E02D309741F0E130F10529F0E230F105F8
:102BB00011F0339749F481E090E00E94E60943C0A8
:102BC000621773070CF43FC0F801E40FF51F808112
:102BD00091810497C1F52F5F3F4F621773079CF1F6
:102BE00042505040329780819181892B11F40C948E
:102BF000170B29C06217730714F00C94C00B23C085
:102C00008DA99EA9AFA9B8AD0097A105B10509F09E
:102C10003ECA89AD9AADABADBCAD0097A105B1057B
:102C200009F04FCADECA85FCB9CC86FCD1CC19CDDF
:102C3000A3FC47CFA4FC5ECFB0FC75CFB1FC8DCF19
:102C4000B2FEBECFA4CFC45BDF4F0FB6F894DEBF99
:102C50000FBECDBFCF91DF911F910F91FF90EF90ED
:102C6000DF90CF90BF90AF909F908F907F906F90AC
:102C70005F904F9008950F931F938C0180EF98E021
:102C80006CE872E00E94472E80EF98E0B8010E9445
:102C9000452E20919D0830919E08202B312B30939A
:102CA0009E0820939D0860E020FD61E03695279501
:102CB000422F417036952795217080E199E00E945E
:102CC000872D1F910F9108952F923F924F925F92FF
:102CD0006F927F928F929F92AF92BF92CF92DF922C
:102CE000EF92FF920F931F93DF93CF93CDB7DEB791
:102CF00062970FB6F894DEBF0FBECDBF6B017C01AB
:102D00006091B3087091B4087A8B698BC801809583
:102D10009095860F971F880F991F8156974F988B14
:102D20008F87601B710B660F771F6156774F7E8709
:102D30006D872B013B014B015B011B0160E070E0E3
:102D400080E290E0C622D722E822F922DA01C90106
:102D500080729070A070B07089839A83AB83BC83BB
:102D6000CA01B90160707070807091706D837E834C
:102D70008F839887DA01C90180709070A070B2705B
:102D800089879A87AB87BC872070307040705470F9
:102D9000C114D104E104F10409F4A2C0A989BA89DB
:102DA000A017B1070CF49CC0F301808191810097BA
:102DB00049F08130910531F08230910519F0039787
:102DC00009F08EC081E090E016C069897A896017A9
:102DD00071070CF48EC0D4018D919C91009749F03D
:102DE0008130910531F08230910519F0039709F097
:102DF00080C080E090E00E941D049AC0E989FA89B1
:102E0000E017F1070CF47FC0AD85BE858D919C91D4
:102E1000009749F08130910531F08230910519F029
:102E2000039709F070C084E090E02CC0E989FA892A
:102E3000E017F1070CF470C0D5018D919C910097BB
:102E400049F08130910531F08230910519F00397F6
:102E500009F062C082E090E015C0E989FA89E017C4
:102E6000F1070CF465C0D1018D919C91009741F060
:102E70008130910529F08230910511F0039721F4FA
:102E800081E090E0F8DE54C0F201808191810497E6
:102E900009F04EC00F5F1F4F69897A89601771076B
:102EA0000CF446C0AF85B8898D919C91119712970B
:102EB000B88BAF87EEEFFFEF4E0E5F1E6E0E7F1EDC
:102EC0008E0E9F1E6D857E85625070407E876D8759
:102ED000AE0EBF1E2E0E3F1E892B09F459CF28C0FF
:102EE00089819A81AB81BC810097A105B10509F068
:102EF0006CCF6D817E818F8198856115710581050B
:102F0000910509F07BCF89859A85AB85BC850097B3
:102F1000A105B10509F08ACF2115310541055105FB
:102F200009F09BCFA989BA89A017B1070CF0ACCFE3
:102F300062960FB6F894DEBF0FBECDBFCF91DF9182
:102F40001F910F91FF90EF90DF90CF90BF90AF90C7
:102F50009F908F907F906F905F904F903F902F90B9
:102F600008952F923F924F925F926F927F928F922D
:102F70009F92AF92BF92CF92DF92EF92FF920F9308
:102F80001F93DF93CF93CDB7DEB728970FB6F89492
:102F9000DEBF0FBECDBF1092AC061092AD066091A1
:102FA000290470912A048091A0069091A1060E94A4
:102FB0007A43892B11F00C9486238091D1068823C3
:102FC00029F48091D206882309F459C78091EF062D
:102FD0009091F0069093F6068093F5068091F106A5
:102FE0009091F2069093F8068093F7068091F3068D
:102FF0009091F4069093FA068093F9068091E90681
:103000009091EA069093F0068093EF068091EB068C
:103010009091EC069093F2068093F1068091ED0674
:103020009091EE069093F4068093F3068091CF067C
:10303000882359F483ED96E063EE76E045EE56E0A2
:1030400027EE36E00E94543378C0813049F483ED96
:1030500096E063EE76E047EE56E025EE36E060C09F
:10306000823009F455C08430B1F483ED96E065EE0A
:1030700076E043EE56E027EE36E00E94543380912E
:10308000E5069091E606909581959F4F9093E60610
:103090008093E50652C08330B1F483ED96E067EE8D
:1030A00076E043EE56E025EE36E00E945433809100
:1030B000E3069091E406909581959F4F9093E406E6
:1030C0008093E3062FC0853049F483ED96E065EEEA
:1030D00076E047EE56E023EE36E00AC08630B1F4E3
:1030E00083ED96E067EE76E043EE56E025EE36E0BF
:1030F0000E9454338091E5069091E6069095819563
:103100009F4F9093E6068093E5060CC08730A9F4A4
:1031100083ED96E067EE76E045EE56E023EE36E08E
:103120000E9454338091E7069091E806909581952E
:103130009F4F9093E8068093E7068091D90690917F
:10314000DA06A091DB06B091DC060097A105B10577
:1031500029F421E030E040E050E010C00E94C43982
:103160009B01AC018091D9069091DA06A091DB0613
:10317000B091DC06281B390B4A0B5B0B2093DD0654
:103180003093DE064093DF065093E0060E94C43978
:103190006093D9067093DA068093DB069093DC0681
:1031A0006091E3067091E40620910B0430910C04C9
:1031B000620F731FE090E506F090E60620910D0483
:1031C00030910E04E20EF31EA090E706B090E806E0
:1031D00020910F0430911004A20EB31E882777FDB2
:1031E0008095982F0E94BB402091110430911204C9
:1031F00040911304509114040E9473410E9488402E
:103200003B014C017093E4066093E3060027F7FC52
:103210000095102FC801B7010E94BB4020911504F2
:103220003091160440911704509118040E94734184
:103230000E9488401B012C017093E6066093E5060E
:10324000CC24B7FCC094DC2CC601B5010E94BB4065
:103250002091190430911A0440911B0450911C04D0
:103260000E9473410E9488404B015C017093E80604
:103270006093E7060091EF061091F006B8018827E9
:1032800077FD8095982F0E94BB406B017C01601AEE
:10329000710AB301882777FD8095982F0E94BB4063
:1032A00020912B0430912C0440912D0450912E0438
:1032B0000E9473419B01AC01C701B6010E94943F7B
:1032C0000E9488407093EA066093E9060091F10637
:1032D0001091F206B801882777FD8095982F0E94FB
:1032E000BB406B017C01201A310AB101882777FDB0
:1032F0008095982F0E94BB4020912B0430912C0484
:1033000040912D0450912E040E9473419B01AC0109
:10331000C701B6010E94943F0E9488407093EC065A
:103320006093EB060091F3061091F406B80188272C
:1033300077FD8095982F0E94BB406B017C01940122
:10334000201B310BB901882777FD8095982F0E94AB
:10335000BB4020912B0430912C0440912D045091BE
:103360002E040E9473419B01AC01C701B6010E946B
:10337000943F0E9488407093EE066093ED06809122
:103380003304882309F4B0C081E090E0A0E0B0E00D
:103390008093A8069093A906A093AA06B093AB06C3
:1033A0003DC0B301882777FD8095982F6C0D7D1D5A
:1033B0008E1D9F1D0E94AF43DC01CB01880F991F1A
:1033C000FC01ED5EF84F20813181020F131F109335
:1033D000EA060093E906FC01E55CF84F20813181A3
:1033E000A20EB31EB092EC06A092EB068D59984F38
:1033F000DC018D919C91480E591E5092EE06409230
:10340000ED060894C11CD11CE11CF11CC092A80659
:10341000D092A906E092AA06F092AB06C090A80648
:10342000D090A906E090AA06F090AB0690903304E5
:10343000292D30E040E050E00091E9061091EA06C5
:10344000A090EB06B090EC064090ED065090EE0692
:103450006090E1067090E206C216D306E406F50617
:103460000CF49FCFC801692D70E00E947A439B0144
:103470007093EA066093E906C501692D70E00E9429
:103480007A438B017093EC066093EB06C201692DC1
:1034900070E00E947A437B017093EE066093ED0624
:1034A000C301692D70E00E947A43FC01EE0FFF1FFB
:1034B000ED5EF84F31832083C301692D70E00E94D7
:1034C0007A43FC01EE0FFF1FE55CF84F1183008388
:1034D000C301692D70E00E947A43FC01EE0FFF1FCB
:1034E000ED59F84FF182E0824091EF065091F006DD
:1034F0006091E9067091EA068091FB069091FC06C6
:10350000860F971F2091F5063091F606820F931FC4
:10351000841B950B841B950B9093FC068093FB06F4
:103520004091F1065091F2068091EB069091EC06E5
:103530002091FD063091FE06820F931F2091F70621
:103540003091F806820F931F841B950B841B950BFB
:103550009093FE068093FD064091F3065091F40689
:103560008091ED069091EE062091FF0630910007C4
:10357000820F931F2091F9063091FA06820F931F54
:10358000841B950B841B950B909300078093FF067B
:103590008091C6069091C706892B09F45DC02091E1
:1035A0008B0730918C07CB01261737070CF4C90124
:1035B00090938C0780938B0720918D0730918E0715
:1035C0008091EB069091EC06281739070CF4C9019D
:1035D00090938E0780938D0720918F0730919007ED
:1035E0008091ED069091EE06281739070CF4C90179
:1035F0009093900780938F072091910730919207C5
:103600008091E9069091EA06821793070CF4C901AC
:10361000909392078093910720919307309194079C
:103620008091EB069091EC06821793070CF4C90188
:103630009093940780939307209195073091960774
:103640008091ED069091EE06821793070CF4C90164
:10365000909396078093950780919D0790919E0780
:103660009093A4078093A30780919F079091A00750
:103670009093A6078093A5078091A1079091A20738
:103680009093A8078093A707809197079091980738
:1036900090939E0780939D078091990790919A0738
:1036A0009093A00780939F0780919B0790919C0720
:1036B0009093A2078093A1076091E9067091EA06B2
:1036C000882777FD8095982F0E94BB4020E030E04E
:1036D00040E85BE30E9473417B018C016091EB0643
:1036E0007091EC06882777FD8095982F0E94BB404B
:1036F00020E030E040E85BE30E9473415B016C0135
:103700006091ED067091EE06882777FD8095982FE1
:103710000E94BB4020E030E040E85BE30E94734140
:103720001B012C01C601B501A60195010E94734140
:1037300069837A838B839C83C201B101A2019101C9
:103740000E9473416D837E838F83988769817A811C
:103750008B819C812D813E814F8158850E94943FB1
:103760000E9426429B01AC01C801B7010E94204083
:103770000E94F83F21EE3EE245E652E40E9473418A
:103780000E9488403B014C01709398076093970713
:10379000C801B701A80197010E9473417B018C0108
:1037A0002D813E814F8158850E94943F0E94264280
:1037B0009B01AC01C601B5010E9420400E94F83F68
:1037C00021EE3EE245E652E40E9473410E948840A9
:1037D00070939A0760939907C801B70129813A81CC
:1037E0004B815C810E94943F0E9426429B01AC0168
:1037F000C201B1010E9420400E94F83F21EE3EE24A
:1038000045E652E40E9473410E948840AB017093E8
:103810009C0760939B072091990730919A07C301F9
:1038200077FE03C0909581959F4F8B35910544F4A9
:1038300037FF03C0309521953F4F2B35310534F0CC
:103840004C545F4F50939C0740939B078091E10637
:103850009091E20601969093E2068093E1068091B2
:10386000E2079091E3079093E9078093E80780913E
:10387000E4079091E5079093EB078093EA07809126
:10388000E6079091E7079093ED078093EC0780910E
:10389000DC079091DD079093E3078093E207809126
:1038A000DE079091DF079093E5078093E40780910E
:1038B000E0079091E1079093E7078093E6078091F6
:1038C0003404882359F483EB97E066ED77E048ED04
:1038D00057E02AED37E00E94B83578C0813049F4CE
:1038E00083EB97E066ED77E04AED57E028ED37E0AF
:1038F00060C0823009F455C08430B1F483EB97E0A6
:1039000068ED77E046ED57E02AED37E00E94B835E4
:103910008091D8079091D907909581959F4F90936A
:10392000D9078093D80752C08330B1F483EB97E076
:103930006AED77E046ED57E028ED37E00E94B835B4
:103940008091D6079091D707909581959F4F90933E
:10395000D7078093D6072FC0853049F483EB97E0D3
:1039600068ED77E04AED57E026ED37E00AC0863093
:10397000B1F483EB97E06AED77E046ED57E028ED90
:1039800037E00E94B8358091D8079091D90790957B
:1039900081959F4F9093D9078093D8070CC08730AB
:1039A000A9F483EB97E06AED77E048ED57E026ED68
:1039B00037E00E94B8358091DA079091DB07909547
:1039C00081959F4F9093DB078093DA078091CC0716
:1039D0009091CD07A091CE07B091CF070097A10598
:1039E000B10529F421E030E040E050E010C00E9431
:1039F000C4399B01AC018091CC079091CD07A09177
:103A0000CE07B091CF07281B390B4A0B5B0B2093D5
:103A1000D0073093D1074093D2075093D3070E9429
:103A2000C4396093CC077093CD078093CE079093F1
:103A3000CF076091D6077091D7072091C8063091C3
:103A4000C906620F731FE090D807F090D907209144
:103A5000CA063091CB06E20EF31EA090DA07B090B2
:103A6000DB072091CC063091CD06A20EB31E88272D
:103A700077FD8095982F0E94BB4020911D043091C6
:103A80001E0440911F04509120040E94734120E0C5
:103A900030E040E751E40E9420400E9488403B0112
:103AA0004C017093D7076093D6070027F7FC009569
:103AB000102FC801B7010E94BB4020912104309112
:103AC000220440912304509124040E94734120E079
:103AD00030E040E751E40E9420400E9488401B01F2
:103AE0002C017093D9076093D807CC24B7FCC094FD
:103AF000DC2CC601B5010E94BB4020912504309109
:103B0000260440912704509128040E94734120E02C
:103B100030E040E751E40E9420400E9488404B0181
:103B20005C017093DB076093DA070091E207109164
:103B3000E307B801882777FD8095982F0E94BB4046
:103B40006B017C01601A710AB301882777FD8095AB
:103B5000982F0E94BB4020912F0430913004409157
:103B60003104509132040E9473419B01AC01C701A2
:103B7000B6010E94943F0E9488407093DD076093D5
:103B8000DC070091E4071091E507B801882777FD6D
:103B90008095982F0E94BB406B017C01201A310A4E
:103BA000B101882777FD8095982F0E94BB40209116
:103BB0002F043091300440913104509132040E941E
:103BC00073419B01AC01C701B6010E94943F0E9462
:103BD00088407093DF076093DE070091E60710913D
:103BE000E707B801882777FD8095982F0E94BB4092
:103BF0006B017C019401201B310BB901882777FDF3
:103C00008095982F0E94BB4020912F043091300462
:103C100040913104509132040E9473419B01AC01E8
:103C2000C701B6010E94943F0E9488407093E1074B
:103C30006093E0078091CE06882309F4B0C081E04C
:103C400090E0A0E0B0E08093A8069093A906A0932E
:103C5000AA06B093AB063DC0B401882777FD8095D6
:103C6000982F6E0D7F1D801F911F0E94AF43DC01B6
:103C7000CB01880F991FFC01E050F84F2081318162
:103C8000420E531E5092DD074092DC07FC01E85DB6
:103C9000F74F20813181C20ED31ED092DF07C09230
:103CA000DE07805B974FFC0180819181680E791E51
:103CB0007092E1076092E0070894E11CF11C011D7D
:103CC000111DE092A806F092A9060093AA0610938F
:103CD000AB06E090A806F090A9060091AA06109104
:103CE000AB06B090CE062B2D30E040E050E0409087
:103CF000DC075090DD07C090DE07D090DF076090B2
:103D0000E0077090E1078090D4079090D507E21605
:103D1000F306040715070CF49FCFC2016B2D70E06A
:103D20000E947A439B017093DD076093DC07C60114
:103D30006B2D70E00E947A438B017093DF076093D4
:103D4000DE07C3016B2D70E00E947A437B01709304
:103D5000E1076093E007C4016B2D70E00E947A4395
:103D6000FC01EE0FFF1FE050F84F31832083C401A8
:103D70006B2D70E00E947A43FC01EE0FFF1FE85D9F
:103D8000F74F11830083C4016B2D70E00E947A43CA
:103D9000FC01EE0FFF1FE05BF74FF182E0828091A4
:103DA000C6069091C706892B09F460C02091780857
:103DB000309179088091DC079091DD072817390749
:103DC0000CF4C901909379088093780820917A08BF
:103DD00030917B088091DE079091DF072817390723
:103DE0000CF4C90190937B0880937A0820917C0899
:103DF00030917D088091E0079091E10728173907FD
:103E00000CF4C90190937D0880937C0820917E0872
:103E100030917F088091DC079091DD07821793072E
:103E20000CF4C90190937F0880937E08209180084C
:103E3000309181088091DE079091DF078217930708
:103E40000CF4C90190938108809380082091820826
:103E5000309183088091E0079091E10782179307E2
:103E60000CF4C90190938308809382088091D40751
:103E70009091D50701969093D5078093D4079090A1
:103E8000D106F2E09F1609F49BC0F91528F021E055
:103E9000921609F037C209C033E0931609F409C13C
:103EA00084E0981609F02EC296C18091AF07009168
:103EB0009707109198076090990770909A07882348
:103EC00009F46BC06091AE067091AF067093B706AF
:103ED0006093B606E090B006F090B106F092B90695
:103EE000E092B806882777FD8095982F0E94BB4006
:103EF0005B016C018091A9079091AA07081B190B1F
:103F0000B801882777FD8095982F0E94BB402091AB
:103F10003704309138044091390450913A040E949A
:103F200020409B01AC01C601B5010E94933F0E9455
:103F300088407093AF066093AE060027F7FC0095AB
:103F4000102FC801B7010E94BB407B018C018091FA
:103F5000AB079091AC07681A790AB301882777FDFF
:103F60008095982F0E94BB4020913B0430913C04E7
:103F700040913D0450913E040E9420409B01AC01C1
:103F8000C801B7010E94933F0E9488407093B10618
:103F90006093B0069092AC06B5C11093AA07009347
:103FA000A9077092AC076092AB0780919B07909134
:103FB0009C079093AE078093AD079092AF07A2C184
:103FC000C090AE06D090AF06D092B706C092B606AB
:103FD0008091B0069091B1069093B9068093B8068F
:103FE0002091DC073091DD0737FF13C06627772764
:103FF000621B730B882777FD8095982F0E94BB402A
:104000000E9426427B018C0117FB109517F9109531
:104010000BC0B901882777FD8095982F0E94BB407F
:104020000E9426427B018C01B601882777FD80958E
:10403000982F0E94BB40A80197010E94943F0E94C4
:1040400088407093AF066093AE06C090B006D090E3
:10405000B1062091DE073091DF0737FF13C06627D6
:104060007727621B730B882777FD8095982F0E9416
:10407000BB400E9426427B018C0117FB109517F96B
:1040800010950BC0B901882777FD8095982F0E9465
:10409000BB400E9426427B018C01B601882777FD38
:1040A0008095982F0E94BB40A80197010E94943FE1
:1040B00073C08091AF070091E9061091EA06409025
:1040C000ED065090EE06882309F46DC06091AE06AF
:1040D0007091AF067093B7066093B606E090B00695
:1040E000F090B106F092B906E092B806882777FD05
:1040F0008095982F0E94BB405B016C0180910D0759
:1041000090910E07081B190BB801882777FD809541
:10411000982F0E94BB402091470430914804409161
:10412000490450914A040E9420409B01AC01C60101
:10413000B5010E94933F0E9488407093AF06609340
:10414000AE060027F7FC0095102FC801B7010E94AA
:10415000BB407B018C01A0E0BFEF4A0E5B1E80914B
:10416000110790911207481A590AB201882777FD62
:104170008095982F0E94BB4020914B0430914C04B5
:1041800040914D0450914E040E9420409B01AC018F
:10419000C801B7010E94933F0E9488407093B10606
:1041A0006093B006ACC010930E0700930D0780918A
:1041B000EB069091EC069093100780930F07E0E0D8
:1041C000FFEF4E0E5F1E509212074092110781E0E2
:1041D0008093AF0797C06091AE067091AF06709361
:1041E000B7066093B606E090B006F090B106F09284
:1041F000B906E092B806A090B206B090B306B092AD
:10420000BB06A092BA06882777FD8095982F0E945A
:10421000BB403B014C016091FB067091FC06882776
:1042200077FD8095982F0E94BB4020914F043091DC
:10423000500440915104509152040E9420409B012F
:10424000AC01C401B3010E94933F0E948840709367
:10425000AF066093AE060027F7FC0095102FC8014B
:10426000B7010E94BB407B018C016091FF067091F9
:104270000007882777FD8095982F0E94BB402091EA
:1042800053043091540440915504509156040E94B7
:1042900020409B01AC01C801B7010E94933F0E94DE
:1042A00088407093B1066093B006CC24B7FCC094EC
:1042B000DC2CC601B5010E94BB407B018C016091E2
:1042C000FD067091FE06882777FD8095982F0E9445
:1042D000BB402091570430915804409159045091AB
:1042E0005A040E9420409B01AC01C801B7010E9402
:1042F000933F0E9488407093B3066093B20681E0BA
:104300008093AC069090D206F2E09F1609F493C019
:1043100023E0921609F4D0C031E0931609F060C191
:104320008091AF07009197071091980760909907C7
:1043300070909A07882309F46BC06091AE06709163
:10434000AF067093B7066093B606E090B006F090A3
:10435000B106F092B906E092B806882777FD8095FD
:10436000982F0E94BB405B016C018091A90790913E
:10437000AA07081B190BB801882777FD8095982F8D
:104380000E94BB4020913704309138044091390499
:1043900050913A040E9420409B01AC01C601B50136
:1043A0000E94933F0E9488407093AF066093AE06D0
:1043B0000027F7FC0095102FC801B7010E94BB40F1
:1043C0007B018C018091AB079091AC07681A790A48
:1043D000B301882777FD8095982F0E94BB402091DC
:1043E0003B0430913C0440913D0450913E040E94B6
:1043F00020409B01AC01C801B7010E94933F0E947D
:1044000088407093B1066093B0069092AD06E8C004
:104410001093AA070093A9077092AC076092AB07AC
:1044200080919B0790919C079093AE078093AD0776
:104430009092AF07D5C0C090B406D090B506D09288
:10444000BD06C092BC068091DC079091DD0797FF06
:1044500013C062EE7FEF0E947A43882777FD809534
:10446000982F0E94BB400E9426427B018C0117FBC3
:10447000109517F910950EC06EE170E00E947A4316
:10448000882777FD8095982F0E94BB400E94264286
:104490007B018C01B601882777FD8095982F0E94BB
:1044A000BB40A80197010E94933F0E9488407093EF
:1044B000B5066093B40679C08091AF070091E90614
:1044C0001091EA064090ED065090EE06882309F41C
:1044D00070C06091AE067091AF067093B70660939E
:1044E000B606E090B006F090B106F092B906E09200
:1044F000B806882777FD8095982F0E94BB405B0106
:104500006C0180910D0790910E07081B190BB801E3
:10451000882777FD8095982F0E94BB402091470403
:10452000309148044091490450914A040E9420402F
:104530009B01AC01C601B5010E94933F0E948840D7
:104540007093AF066093AE060027F7FC0095102F1E
:10455000C801B7010E94BB407B018C0180E09FEF46
:10456000480E591E8091110790911207481A590A56
:10457000B201882777FD8095982F0E94BB4020913B
:104580004B0430914C0440914D0450914E040E94D4
:1045900020409B01AC01C801B7010E94933F0E94DB
:1045A00088407093B1066093B00681E08093AD06B9
:1045B00017C010930E0700930D078091EB069091A2
:1045C000EC069093100780930F07A0E0BFEF4A0E10
:1045D0005B1E509212074092110781E08093AF0753
:1045E0004091AE065091AF068091B6069091B70605
:1045F000481B590B5093BF064093BE068091B006EE
:104600009091B1062091B8063091B906821B930BA8
:104610009093C1068093C0068091B2069091B30634
:104620002091BA063091BB06821B930B9093C30670
:104630008093C20680913504813041F48827992700
:10464000841B950B9093BF068093BE068091360421
:10465000813059F48091C0069091C1069095819562
:104660009F4F9093C1068093C0068091D006813001
:1046700059F48091C2069091C306909581959F4F01
:104680009093C3068093C2068091AC06882359F1AB
:104690008091D106882339F16091BE067091BF06E2
:1046A0006115710561F48091C0069091C106892B56
:1046B00031F48091C2069091C306892BA1F020911C
:1046C000C2063091C306121613063CF480E199E04D
:1046D0004091C0060E949A2D06C080E199E0409169
:1046E000C0060E94AA2D8091AD06882379F08091A2
:1046F000D206882359F06091C4067091C5066115F1
:10470000710521F080E199E00E94772D1092BB089D
:104710001092BC081092BD081092BE081092BF08FB
:104720001092C0081092C1081092C2081092BA08E4
:104730001092A8061092A9061092AA061092AB0633
:1047400011E0C12ED12CE12CF12C87C0FC01EE0F21
:10475000FF1FEE0FFF1FDF01A55EBC4F0C91E75E50
:10476000FC4F1081812F61E00E94612C812F60E05D
:104770009FD78091A8069091A906A091AA06B09112
:10478000AB068097A105B1052CF5802F36D7892B74
:1047900009F049C0A70196010090A80604C0220FA5
:1047A000331F441F551F0A94D2F78091BB08909184
:1047B000BC08A091BD08B091BE08822B932BA42BFE
:1047C000B52B8093BB089093BC08A093BD08B09311
:1047D000BE0829C0802F11D7892B29F52091A80662
:1047E0003091A90620523040D701C60104C0880F7D
:1047F000991FAA1FBB1F2A95D2F79C01AD0180917A
:10480000BF089091C008A091C108B091C208822B46
:10481000932BA42BB52B8093BF089093C008A09333
:10482000C108B093C208812F60E00E94612C812FE3
:1048300061E03ED78091A8069091A906A091AA06B2
:10484000B091AB060196A11DB11D8093A80690936F
:10485000A906A093AA06B093AB068091A8069091F2
:10486000A906A091AA06B091AB068C339105A105CB
:10487000B1050CF46BCFE090C308F090C408009130
:10488000C5081091C6088091BB089091BC08A09102
:10489000BD08B091BE08E816F9060A071B07A9F47F
:1048A0002091C7083091C8084091C9085091CA08A2
:1048B0008091BF089091C008A091C108B091C20832
:1048C000281739074A075B0759F00E94B6396093E9
:1048D000B5087093B6088093B7089093B8081AC1CA
:1048E0008091CB089091CC08A091CD08B091CE08D2
:1048F000E816F9060A071B0771F48091CF0890911A
:10490000D008A091D108B091D208281739074A07DA
:104910005B0709F4FFC00E94B6392091B5083091B9
:10492000B6084091B7085091B808621B730B840B0E
:10493000950B2091090430910A0440E050E0621781
:1049400073078407950708F4E5C080EF98E060EAF4
:1049500072E00E94472E1092A8061092A9061092AB
:10496000AA061092AB0639C080329105A105B105A7
:104970004CF44091BB085091BC086091BD08709107
:10498000BE0809C080974091BF085091C00860914F
:10499000C1087091C20804C07695679557954795F0
:1049A0008A95D2F7417050706070707080EF98E017
:1049B0000E948E2E8091A8069091A906A091AA0629
:1049C000B091AB060196A11DB11D8093A8069093EE
:1049D000A906A093AA06B093AB068091A806909171
:1049E000A906A091AA06B091AB068C339105A1054A
:1049F000B1050CF4B9CF80EF98E067EA72E00E944D
:104A0000472E6090C3087090C4088090C5089090AD
:104A1000C608A090CB08B090CC08C090CD08D0902C
:104A2000CE08A614B704C804D904A8F0E090C708BB
:104A3000F090C8080091C9081091CA082091CF08C9
:104A40003091D0084091D1085091D2082E153F05E1
:104A500040075107C0F481E08093B9086091C30812
:104A60007091C4088091C5089091C6082091C7082C
:104A70003091C8084091C9085091CA0801E010E07F
:104A80000E94641627C08091B908882319F16A141E
:104A90007B048C049D0428F0E216F3060407150736
:104AA000C8F41092B90881E08093BA086091CB08ED
:104AB0007091CC088091CD089091CE082091CF08BC
:104AC0003091D0084091D1085091D20801E010E017
:104AD0000E94150A8091C3089091C408A091C5084E
:104AE000B091C6088093CB089093CC08A093CD08D2
:104AF000B093CE088091C7089091C808A091C908CA
:104B0000B091CA088093CF089093D008A093D108A1
:104B1000B093D2088091BB089091BC08A091BD08C9
:104B2000B091BE088093C3089093C408A093C508B1
:104B3000B093C6088091BF089091C008A091C108A9
:104B4000B091C2088093C7089093C808A093C90881
:104B5000B093CA082091A0063091A1062F5F3F4F65
:104B60003093A1062093A006E0918808F09189086F
:104B7000E130F10589F4C90164EF71E00E947A43E4
:104B8000892B51F440E0C90168EE73E00E947A433A
:104B9000845F9140D4F538C0E230F10589F4C90151
:104BA00064E670E00E947A43892B51F440E0C90129
:104BB00068EE73E00E947A438436910534F524C090
:104BC000E330F10581F4C90162E370E00E947A43A9
:104BD000892B49F440E0C90164E670E00E947A4301
:104BE000C2979CF411C03497A9F4C9016AE070E03F
:104BF0000E947A43892B71F440E0C90164E670E0B9
:104C00000E947A430A970CF441E0842F6FEF4FEF34
:104C10000E94E90320918A0830918B0821303105E8
:104C2000A9F4E091A006F091A106CF0164EF71E034
:104C30000E947A43892B51F420E0CF0168EE73E0A3
:104C40000E947A43845F914084F52EC02330310561
:104C5000A9F4E091A006F091A106CF0164E670E00E
:104C60000E947A43892B51F420E0CF0168EE73E073
:104C70000E947A4384369105C4F416C0223031056F
:104C8000B9F4E091A006F091A106CF0162E370E0D3
:104C90000E947A43892B61F420E0CF0164E670E042
:104CA0000E947A43C2970CF421E08FEF622F19C063
:104CB00024303105C9F42091A0063091A106C90124
:104CC0006AE070E00E947A43892B71F440E0C901E8
:104CD00064E670E00E947A430A970CF441E08FEF9B
:104CE000642F4FEF0E94E90320918C0830918D08CA
:104CF00021303105B1F4E091A006F091A106CF0179
:104D000064EF71E00E947A43892B59F440E0CF01AF
:104D100068EE73E00E947A43845F91400CF047C0D4
:104D200045C022303105A9F4E091A006F091A1061A
:104D3000CF0164E670E00E947A43892B51F440E091
:104D4000CF0168EE73E00E947A43843691057CF5CA
:104D50002DC023303105A1F4E091A006F091A10609
:104D6000CF0162E370E00E947A43892B49F440E06E
:104D7000CF0164E670E00E947A43C297C4F416C083
:104D800024303105C1F42091A0063091A106C9015B
:104D90006AE070E00E947A43892B69F440E0C9011F
:104DA00064E670E00E947A430A970CF441E08FEFCA
:104DB0006FEF0E94E9038091A0069091A106885EA2
:104DC000934009F04BC01092A1061092A00680916A
:104DD000A2069091A30601969093A3068093A20643
:104DE00090E080918E08882309F491E090938E08DA
:104DF000992319F086E061E002C086E060E058D4B3
:104E000080EF98E069EA72E042D70E94B639AB01C0
:104E1000BC018091A4069091A506A091A606B09130
:104E2000A706481B590B6A0B7B0B80EF98E076D7DF
:104E300080EF98E067E371E02AD76091A206709155
:104E4000A30680EF98E021D70E94B6396093A406AC
:104E50007093A5068093A6069093A70628960FB692
:104E6000F894DEBF0FBECDBFCF91DF911F910F91A0
:104E7000FF90EF90DF90CF90BF90AF909F908F907A
:104E80007F906F905F904F903F902F900895E7E84C
:104E9000F4E02FB7F89482E994E0918380839383C0
:104EA00082839583848382E995E097838683108645
:104EB000128611862FBFE2E9F5E02FB7F8948DE94D
:104EC00095E09183808393838283958384838DE9A6
:104ED00096E0978386831086128611862FBF0E94E4
:104EE000B8030E940E3A0E9450070E94B1178091A9
:104EF0009D06882319F40E945A0202C010929D0652
:104F000080919E06882319F40E941F0202C010920D
:104F10009E060E94803FE9CFEF92FF920F931F936E
:104F20007C0100EF18E0C80169EB72E0B0D6C8015F
:104F3000B701ABD6C7010E943B1665E070E080E088
:104F400090E00E94EA39C7010E94E6091F910F9183
:104F5000FF90EF900895813051F0813028F0823039
:104F600061F08330E9F41AC010926E0008958091C8
:104F70006F008D7F80936F000895809170008D7F0A
:104F80008093700081E08093B0008091B100887FB1
:104F900084608093B1001092B30008951092710064
:104FA00008951F93182F80915B04811711F09FEFD4
:104FB00006C0E2E7F3E094918FEF80935B04892FC2
:104FC000CADF812F60E074D31F9108951F920F9262
:104FD0000FB60F920BB60F9211242F933F934F935E
:104FE0005F936F937F938F939F93AF93BF93EF9351
:104FF000FF938091E2089091E308A091E408B091BA
:10500000E5080097A105B10551F1E091E608F0919E
:10501000E70880819091E808892780838091E208E1
:105020009091E308A091E408B091E50818161906DC
:105030001A061B06BCF48091E2089091E308A09147
:10504000E408B091E5080197A109B1098093E2084D
:105050009093E308A093E408B093E50803C080911F
:105060005B049FDFFF91EF91BF91AF919F918F9173
:105070007F916F915F914F913F912F910F900BBE58
:105080000F900FBE0F901F9018952F923F925F9236
:105090006F927F928F929F92AF92BF92CF92DF9248
:1050A000EF92FF920F931F93DF93CF9300D000D026
:1050B000CDB7DEB7A82F1B0129833A834B835C83CE
:1050C00080915B048A1721F4E2E7F3E05490AFC0CB
:1050D0008F3F09F029C2A0935B04E2E7F3E054900C
:1050E0002FEF521609F420C281E0581671F1851590
:1050F0001CF0552051F09BC092E0591609F44BC0AA
:10510000B3E05B1609F093C06CC014BC15BC84B549
:10511000826084BD85B5816085BD2A2F30E0F901AC
:10512000EB59FE4FE491F0E0EE0FFF1FEF5AFE4FF8
:10513000859194919093D9088093D80827583E4F31
:10514000F90184918093DA0874C010928000109263
:10515000810080918100886080938100809181002E
:105160008160809381002A2F30E0F901EB59FE4FD6
:10517000E491F0E0EE0FFF1FEF5AFE4F85919491FE
:105180009093E0088093DF0827583E4FF9018491FF
:105190008093E1084EC01092B0001092B10080914F
:1051A000B00082608093B0008091B10081608093F4
:1051B000B1002A2F30E0F901EB59FE4FE491F0E005
:1051C000EE0FFF1FEF5AFE4F859194919093E708E1
:1051D0008093E60827583E4FF90184918093E808B0
:1051E00028C01092900010929100809191008860E8
:1051F00080939100809191008160809391002A2F8B
:1052000030E0F901EB59FE4FE491F0E0EE0FFF1FA3
:10521000EF5AFE4F859194919093EE088093ED089C
:1052200027583E4FF90184918093EF0802C057FC44
:105230007BC18A2F61E045D3552021F0F2E05F1653
:1052400009F0BDC031018824992460E079E08DE344
:1052500090E0A40193010E948D4359016A018601E7
:1052600075010894E108F108010911092FEFE21610
:10527000F1040105110509F008F498C060E271EA33
:1052800087E090E0A40193010E948D4379018A0197
:105290000894E108F1080109110982E05816C1F4E7
:1052A0009FEFE916F1040105110509F008F483C028
:1052B00068E478EE81E090E0A40193010E948D43C0
:1052C00079018A010894E108F1080109110983E0D4
:1052D000AFEFEA16F1040105110509F008F467C003
:1052E00064E274EF80E090E0A40193010E948D439A
:1052F00079018A010894E108F10801091109552092
:1053000011F483E01DC0B2E05B1611F084E018C018
:10531000EFEFEE16F1040105110509F008F402C1E2
:1053200062E17AE780E090E0A40193010E948D435E
:1053300079018A010894E108F1080109110985E061
:10534000FFEFEF16F1040105110589F180F169E025
:105350007DE380E090E0A40193010E948D437901F8
:105360008A010894E108F10801091109552011F09A
:1053700086E001C084E02FEFE216F104010511057B
:10538000B1F0A8F0860175019AE016950795F7949B
:10539000E7949A95D1F70894E108F10801091109F9
:1053A000552011F087E008C085E003C081E055205A
:1053B00019F485BD44C082E08093B10040C0510122
:1053C000CC24DD2460E079E08DE390E0A601950136
:1053D0000E948D4379018A010894E108F1080109CE
:1053E000110980E0E81680E0F80681E0080780E017
:1053F000180710F491E010C064E274EF80E090E0D0
:10540000A60195010E948D4379018A010894E10863
:10541000F1080109110993E0A1E05A1639F48091CD
:105420008100887F982B9093810009C0B3E05B16C0
:1054300031F480919100887F982B9093910089811D
:105440009A81AB81BC810097A105B10529F48FEF4A
:105450009FEFAFEFBFEF13C0220C331CB10180E010
:1054600090E029813A814B815C810E945B4328EE68
:1054700033E040E050E00E948D43C901DA01E1E0F1
:105480005E16E1F0E5151CF0552049F04DC0F2E044
:105490005F1631F123E0521609F046C031C0E7BC77
:1054A0008093D4089093D508A093D608B093D708DA
:1054B00080916E00826080936E0036C0F092890009
:1054C000E09288008093DB089093DC08A093DD08CD
:1054D000B093DE0880916F00826080936F0024C0DB
:1054E000E092B3008093E2089093E308A093E4086D
:1054F000B093E5088091700082608093700014C0C2
:10550000F0929900E09298008093E9089093EA085D
:10551000A093EB08B093EC088091710082608093B7
:10552000710002C084E048CF0F900F900F900F9051
:10553000CF91DF911F910F91FF90EF90DF90CF906F
:10554000BF90AF909F908F907F906F905F903F90B3
:105550002F900895CF93DF93EC01E881F981608368
:10556000888199810196998388832E813F81821752
:10557000930721F48C819D81998388832FB7F894B8
:1055800089859A8501969A8789872FBFDF91CF9168
:105590000895089508950895089508950895089523
:1055A0000895089508950895089508950895089513
:1055B0000895089508950895089508950895FC01A3
:1055C00060830895FC0162830895FC01638308955C
:1055D000FC0164830895FC0165830895FC016683E2
:1055E0000895FC0167830895089508950895089526
:1055F00080E00895089580E00895982F883060F441
:1056000089B141E050E002C0440F551F9A95E2F77E
:1056100090E0482359234AC08850823028F42CB1A6
:10562000892F90E0089738C0892F8A50883028F455
:1056300026B1892F90E00A972FC0892F825182309E
:1056400028F42CB1892F90E00C9726C0892F845123
:10565000883028F423B1892F90E044971DC0892F0A
:105660008C51883028F420B1892F90E04C9714C0D9
:10567000892F8452823028F42CB1892F90E08097B2
:105680000BC0892F8652883018F040E050E00EC0E1
:105690002FB1892F90E0869741E050E002C0440F7F
:1056A000551F8A95E2F730E042235323CA0108953B
:1056B000382F662309F086C0883060F42BB181E072
:1056C00090E002C0880F991F3A95E2F780958223F7
:1056D0008BB908958850823030F44EB1232F30E0DA
:1056E000285030404FC0832F8A50883080F448B112
:1056F000232F30E02A50304081E090E002C0880F34
:10570000991F2A95E2F78095842388B90895832FFD
:105710008251823030F44EB1232F30E02C50304093
:1057200031C0832F8451883080F445B1232F30E07D
:105730002451304081E090E002C0880F991F2A95E3
:10574000E2F78095842385B90895832F8C518830A2
:1057500080F442B1232F30E02C51304081E090E0C2
:1057600002C0880F991F2A95E2F78095842382B999
:105770000895832F8452823080F44EB1232F30E07D
:105780002052304081E090E002C0880F991F2A9596
:10579000E2F7809584238EB90895832F865288304E
:1057A00008F08EC041B3232F30E02652304081E014
:1057B00090E002C0880F991F2A95E2F78095842314
:1057C00081BB0895883058F42BB181E090E002C08D
:1057D000880F991F3A95E2F7282B2BB90895885026
:1057E000823030F44EB1232F30E0285030404CC08E
:1057F000832F8A50883078F448B1232F30E02A5024
:10580000304081E090E002C0880F991F2A95E2F7AE
:10581000482B48B90895832F8251823030F44EB11D
:10582000232F30E02C5030402FC0832F84518830FC
:1058300078F445B1232F30E02451304081E090E0EE
:1058400002C0880F991F2A95E2F7482B45B90895A1
:10585000832F8C51883078F442B1232F30E02C51C3
:10586000304081E090E002C0880F991F2A95E2F74E
:10587000482B42B90895832F8452823078F44EB178
:10588000232F30E02052304081E090E002C0880FAA
:10589000991F2A95E2F7482B4EB90895832F865217
:1058A000883070F441B3232F30E02652304081E03D
:1058B00090E002C0880F991F2A95E2F7482B41BB60
:1058C0000895382F662309F086C0883060F42AB125
:1058D00081E090E002C0880F991F3A95E2F7809529
:1058E00082238AB908958850823030F44DB1232F35
:1058F00030E0285030404FC0832F8A50883080F4E9
:1059000047B1232F30E02A50304081E090E002C0C0
:10591000880F991F2A95E2F78095842387B9089507
:10592000832F8251823030F44DB1232F30E02C5040
:10593000304031C0832F8451883080F444B1232F0C
:1059400030E02451304081E090E002C0880F991F80
:105950002A95E2F78095842384B90895832F8C518A
:10596000883080F441B1232F30E02C51304081E069
:1059700090E002C0880F991F2A95E2F78095842352
:1059800081B90895832F8452823080F44DB1232F42
:1059900030E02052304081E090E002C0880F991F33
:1059A0002A95E2F7809584238DB90895832F865236
:1059B000883008F08EC040B3232F30E026523040AC
:1059C00081E090E002C0880F991F2A95E2F7809548
:1059D000842380BB0895883058F42AB181E090E098
:1059E00002C0880F991F3A95E2F7282B2AB908952B
:1059F0008850823030F44DB1232F30E028503040B1
:105A00004CC0832F8A50883078F447B1232F30E080
:105A10002A50304081E090E002C0880F991F2A95FB
:105A2000E2F7482B47B90895832F8251823030F432
:105A30004DB1232F30E02C5030402FC0832F8451A4
:105A4000883078F444B1232F30E02451304081E095
:105A500090E002C0880F991F2A95E2F7482B44B9BD
:105A60000895832F8C51883078F441B1232F30E092
:105A70002C51304081E090E002C0880F991F2A9598
:105A8000E2F7482B41B90895832F8452823078F48D
:105A90004DB1232F30E02052304081E090E002C031
:105AA000880F991F2A95E2F7482B4DB90895832F47
:105AB0008652883070F440B3232F30E026523040B5
:105AC00081E090E002C0880F991F2A95E2F7482BE9
:105AD00040BB089522E020937504A6E7B4E0FC01E2
