:10000000BAC10000E2C10000E0C10000DEC1000092
:10001000DCC10000DAC10000D8C10000D6C1000078
:10002000D4C10000D2C100000C943E3BCEC1000000
:10003000CCC100000C941826C8C10000C6C1000045
:10004000C4C10000C2C10000C0C10000BEC10000A8
:10005000BCC10000BAC10000B8C100000C94133943
:10006000B4C10000B2C10000B0C10000AEC10000C8
:10007000ACC10000AAC10000A8C10000A6C10000D8
:10008000A4C10000A2C10000A0C100009EC10000E8
:100090009CC100009AC10000084AD73B3BCE016ECC
:1000A00084BCBFFDC12F3D6C74319ABD56833DDACF
:1000B0003D00C77F11BED9E4BB4C3E916BAAAABEDE
:1000C000000000803F07634236B79BD8A71A396803
:1000D0005618AEBAAB558C1D3CB7CC5763BD6DED11
:1000E000FD753EF6177231BF000000803F0800002A
:1000F00000BE922449123EABAAAA2ABECDCCCC4C5B
:100100003E00000080BEABAAAAAA3E00000000BFCD
:10011000000000803F0000000000084178D3BB438E
:1001200087D1133D190E3CC3BD4282AD2B3E68EC16
:100130008276BED98FE1A93E4C80EFFFBE01C4FF9D
:100140007F3F000000000000000000240027002A7C
:100150000000000000250028002B00000000002304
:10016000002600290004040404040404040202021A
:1001700002020203030303030301020408102040E8
:100180008001020408102001020408102000000071
:100190000700020100000304060000000000000048
:1001A0000005010902A10185010901A10005091944
:1001B000012903150025019503750181029501753B
:1001C000058101050109300931093815F6250A357F
:1001D000F6450A950375088106C0C005010906A108
:1001E000018502050719E029E7150025017501952C
:1001F00008810295017508810105081901290595F5
:10020000057501910295017503910115002565059C
:100210000719002965950675088100C005010904C4
:10022000A10185030901A10009300931159C25644C
:1002300035FF4501950275088102C005091901299C
:10024000021500250175019502810275069501814F
:1002500001C01201100100000008EB034E20010054
:100260000102DC0109026600030102C0FA080B006A
:100270000202020102090400000102020103052436
:10028000001001042402060524060001070581036D
:100290000800FF09040100020A0000030705030229
:1002A0001000010705820210000109040200020388
:1002B00001010409211101000122B1000705840395
:1002C00009000107050503090001040309041A03D5
:1002D0004A00650066006600200052006F0077004B
:1002E000620065007200670000002C034B0065008F
:1002F000790067006C006F007600650020004900FF
:100300006E007000750074002000440065007600E7
:1003100069006300650000002A034B006500790056
:1003200067006C006F0076006500200053006500D8
:100330007200690061006C00200050006F007200C4
:10034000740000002C034B006500790067006C000E
:100350006F0076006500200049006E007000750097
:1003600074002000440065007600690063006500A9
:10037000000002003B0211241FBECFEFD0E2DEBF1F
:10038000CDBF14E0A0E0B1E0E0E0F8E800E00BBF92
:1003900002C007900D92A430B107D9F718E0A4E08D
:1003A000B4E001C01D92A63CB107E1F713E0C6E737
:1003B000D3E004C02297FE010E947643C437D107E0
:1003C000C9F70E949A250C94FE431ACE0895089509
:1003D0000895089508950895089510922A08109296
:1003E00029081092280810922708109226081092C7
:1003F00025081092220810922108109220081092CD
:100400001F0810921E0810921D0810922C081092BE
:100410002B08109224081092230808950895089537
:10042000282FE0914C08E61710F490E00AC090E005
:10043000F0E0E61BF109EE5BF74F8081821709F4CB
:1004400091E0892F089581B38F71806C81BB0895ED
:1004500081B38F71806681BB08950895282F81FD37
:1004600002C090E401C090EC22FD906481B38F71D2
:10047000982B91BB089585E596E064E576E00E94AF
:100480009F378FE596E00E94FF2C8FE397E00C9456
:100490004A320F931F938091BD08843091F585E017
:1004A0008093E9008091E80082FF11C08091E8000C
:1004B00085FF08C086E194E069E070E040E050E02C
:1004C0000E94083D8091E8008B778093E80084E0EB
:1004D0008093E9008091E80080FF13C00DE014E0F4
:1004E000C80169E070E040E050E00E945A3D89E0B8
:1004F000F80111928A95E9F78091E8008E77809350
:10050000E8001F910F910895CF93DF938091BD086C
:10051000843009F089C08FB7F89420913305309169
:1005200034058FBF2115310509F448C080910103BE
:1005300090910203A0910303B09104030097A105D9
:10054000B10509F43BC082E08093E900A901AAE269
:10055000B5E0B9016F507040ED01EA81FB81319146
:10056000FB83EA838E819F81E817F90721F48C8150
:100570009D819B838A832FB7F89489859A850197FB
:100580009A8789872FBF3093F1004617570719F0D4
:100590004150504009F72091F2003091F3008091D2
:1005A000E8008E778093E8002031310539F40E940D
:1005B000AD3A8091E8008E778093E80083E08093E5
:1005C000E9008091E80082FF2FC06091F2007091F5
:1005D000F30040E0AFE1B4E01DC08091F100ED0117
:1005E000E881F98180838881998101969983888344
:1005F0002E813F818217930721F48C819D819983FD
:1006000088832FB7F89489859A8501969A87898778
:100610002FBF4F5F842F90E086179707F0F28091ED
:10062000E8008B778093E800DF91CF9108950F93D6
:100630001F938091BF08803209F44DC0813230F49D
:10064000813051F0893009F05FC01DC0813281F1E5
:10065000823209F059C04DC08091BE08813A09F03C
:1006600053C08091E800877F8093E8000DE014E09C
:10067000C80169E070E00E94083C89E0F80111922D
:100680008A95E9F724C08091BE088132E9F580910E
:10069000E800877F8093E80086E194E069E070E0FD
:1006A0000E94663C8091E8008E778093E8002CC021
:1006B0008091BE08813A41F58091E800877F809360
:1006C000E80081E093E067E070E00E94083C8091E0
:1006D000E8008B77EACF8091BE088132A9F480913F
:1006E000E800877F8093E80081E093E067E070E0B6
:1006F000D7CF8091BE08813239F48091E800877F9E
:100700008093E8000E948C3A1F910F910895BF9248
:10071000CF92DF92EF92FF920F931F9381E061ECF3
:1007200042E00E94573A082F82E061E842E10E94CD
:10073000573AC82E83E060E842E10E94573AE82E1B
:10074000109201031092020310920303109204030B
:1007500084E061EC42E10E94573AB82E85E060ECFB
:1007600042E10E94573A682F10E0DD240C211D2140
:1007700001701070FF240E211F2140E050E0012B7A
:1007800011F041E050E08B2D90E04823592320E008
:1007900030E0452B11F021E030E0862F90E0282357
:1007A0003923232B11F490E201C090E481B38F71BF
:1007B000982B91BB1F910F91FF90EF90DF90CF90FE
:1007C000BF90089581E885BF20E825BF84B7877F63
:1007D00084BF88E10FB6F8948093600010926000A7
:1007E0000FBE83E084BD85BD91E09093800082E0E0
:1007F000809381009093B0008093B100909390001B
:100800008093910010927E00E1E6F0E020839083D7
:10081000569A80B3806E80BB81B38F7181BB0E947A
:10082000283B789408950F931F93982F162F042F29
:100830008F3F21F08BE2692F0E9492291F3F21F008
:100840008CE2612F0E9492290F3F21F08DE2602FF0
:100850000E9492291F910F91089586E061E00E9405
:100860009B2A86E060E00E94922910921908089560
:10087000DF92EF92FF920F931F93D82E7B0108E82F
:1008800018E0C80160E071E00E94812CC8016D2D64
:100890000E94FE2BC80162E171E00E94812CC80118
:1008A000B7010E946E2C1F910F91FF90EF90DF9087
:1008B0000895DF92EF92FF920F931F93D82E7B0142
:1008C00008E818E0C80164E171E00E94812CC801C9
:1008D0006D2D0E94FE2BC80162E171E00E94812C07
:1008E000C801B7010E946E2C1F910F91FF90EF90ED
:1008F000DF900895DF92EF92FF920F931F93D82E0F
:100900007B0108E818E0C80166E271E00E94812CD2
:10091000C8016D2D0E94FE2BC80162E171E00E94AA
:10092000812CC801B7010E946E2C1F910F91FF907E
:10093000EF90DF900895DF92EF92FF920F931F9355
:10094000D82E7B0108E818E0C80169E371E00E9435
:10095000812CC8016D2D0E94FE2BC80162E171E05F
:100960000E94812CC801B7010E946E2C1F910F912B
:10097000FF90EF90DF900895BF92CF92DF92EF92B9
:10098000FF920F931F937C01B62E6A0108E818E0CE
:10099000C8016AE471E00E94812CC801B7010E947D
:1009A000EB2C82E1E82E81E0F82EC801B7010E940D
:1009B000812CC8016B2D0E94FE2BC801B7010E943B
:1009C000812CC801B6010E946E2C1F910F91FF90DF
:1009D000EF90DF90CF90BF9008951F93182F88E875
:1009E00098E069E571E00E94812C88E898E0612F29
:1009F0000E94F72B112319F41092380804C011300B
:100A000011F4109239081F9108951F93182F88E848
:100A100098E06CE671E00E94812C88E898E0612FF4
:100A20000E94F72B112321F482E08093380805C03F
:100A3000113019F482E0809339081F9108958BE2F8
:100A400061E00E949B2A8CE261E00E949B2A8DE279
:100A500061E00E949B2A81E061E041E0E4DE64E61F
:100A600070E080E090E00E949B3980E060E040E030
:100A7000DACE89E261E00E949B2A89E260E00E946E
:100A8000922964E670E080E090E00E949B3989E260
:100A900061E00C9492291F93182F88E898E06EE784
:100AA00071E00E94812C88E898E0612F0E94F72B6A
:100AB00060913A08812F90E0262F30E08223932323
:100AC000181619065CF4611B60933A0880EB98E0F5
:100AD0000E94192980EB98E00E94A42B1F91089591
:100AE000843011F488E0D7CF0895FF920F931F93BD
:100AF000F82E08E818E0C80163E971E00E94812C33
:100B0000C8016F2D0E94F72B60913A086F296093FE
:100B10003A0800EB18E0C8010E941929C8010E9498
:100B2000A42B1F910F91FF900895FF920F931F9395
:100B3000F82E08E818E0C8016AEA71E00E94812CEA
:100B4000C8016F2D0E94F72B8F2DCFDF65E070E07D
:100B500080E090E00E949B398F2D9DDF1F910F91C7
:100B6000FF9008951F93182F88E898E062EC71E0D9
:100B70000E94812C88E898E0612F0E94F72B212F9A
:100B800030E080913A0890E02823392312161306AA
:100B90001CF4812F80DF02C0812FA7DF1F910895F1
:100BA000823031F1833030F4882351F0813009F004
:100BB0004DC012C0833061F1843009F047C03AC0A3
:100BC00080ED97E063E041E050E0D6DE80E060E059
:100BD00070E0B1DE85E027C080ED97E063E042E0A1
:100BE00050E0CADE80E060E070E0A5DE80E00BC08F
:100BF00080ED97E063E043E050E0BEDE80E060E03F
:100C000070E099DE85E060E070E074DE85E00FC0A2
:100C100080ED97E063E044E050E0AEDE85E060E028
:100C200070E089DE80E060E070E064DE80E060E03B
:100C300070E03FCE80E496E064E041E050E09CDE6E
:100C400083E060E070E056DE88E04FCF089588E8EA
:100C500098E06BED71E00E94002CE0914C08EE23CF
:100C600041F0E150E0934C08F0E0EE5BF74F8081FB
:100C700037DF80914C08882329F41092420881E0E4
:100C800080934C08E0914C08F0E0EF5BF74F8081D7
:100C900087CF1F93182F88E898E06CEE71E00E94D0
:100CA000812C88E898E0612F0E94F72B80914C08F6
:100CB0008A3050F4E82FF0E0EE5BF74F10838F5F3F
:100CC00080934C08812F6CDF1F9108959F92AF9203
:100CD000BF92CF92DF92EF92FF920F931F93CF9329
:100CE000DF93982E88E898E06FEF71E00E94812CE6
:100CF00088E898E0692D0E94F72B10924206109226
:100D00004306109244061092450680914C08A82E86
:100D1000BB24CC24DD24E2E4F8E020E030E040E035
:100D200050E02A153B054C055D0558F0209342061E
:100D3000309343064093440650934506892DA9DF1E
:100D40004BC0819179018A010894E11CF11C011DBD
:100D5000111D891519F0A8019701E3CF20934206D0
:100D6000309343064093440650934506892DB8DEE0
:100D70008091420690914306A0914406B0914506A9
:100D800060914C08E62EFF2400E010E0EC01CE5B01
:100D9000D74F9C01AD012F5F3F4F4F4F5F4FD901A0
:100DA000A81BB90B09C0FD01EC0FFD1F80818993C1
:100DB0002F5F3F4F4F4F5F4F2E153F0540075107A5
:100DC00090F3209342063093430640934406509399
:100DD0004506615060934C08DF91CF911F910F91B0
:100DE000FF90EF90DF90CF90BF90AF909F900895CD
:100DF0001F93182F88E898E064E172E00E94812C2C
:100E000088E898E0612F0E94F72B0AC0F0E0EF5BC2
:100E1000F74F808165DE80914C08815080934C08AB
:100E2000E0914C08EE2391F781E080934C081093F9
:100E30004208812FB5DE1F91089510925708109235
:100E400058081092590810925A081092530810929C
:100E50005408109255081092560810925F0810928C
:100E60006008109261081092620810925B0810925C
:100E70005C0810925D0810925E081092670810924C
:100E800068081092690810926A081092630810921C
:100E9000640810926508109266081092420610923B
:100EA0004306109244061092450624C0FC01E55FFB
:100EB000FC4F808160E00E949B2AE0914206F09105
:100EC0004306E55FFC4F808161E00E94922980919A
:100ED000420690914306A0914406B09145060196C2
:100EE000A11DB11D8093420690934306A093440632
:100EF000B09345068091420690914306A091440626
:100F0000B091450682329105A105B10578F21092A3
:100F10006B0880E06DCF1F93182F88E898E066E299
:100F200072E00E94812C88E898E0612F0E94F72BE4
:100F3000EBE3F8E090E005C09F5F3196963009F44E
:100F400063C080818117C1F7E92FF0E0E55CF74FBE
:100F50001082923031F1933030F4992361F0913066
:100F600009F04AC013C0943091F1943028F19530C3
:100F700009F042C037C080EB98E060E00E941C2975
:100F800085E596E060E00E94AE3736C080EB98E0E1
:100F900060E00E941F2985E596E060E00E94B1377D
:100FA0002BC080EB98E060E00E94222985E596E066
:100FB00060E00E94B43720C080EB98E060E00E94BF
:100FC000252985E596E060E00E94B73715C080EBE3
:100FD00098E060E00E94282985E596E060E00E94A4
:100FE000BA370AC080EB98E060E00E942B2985E5C3
:100FF00096E060E00E94BD3780EB98E00E94A42B51
:1010000085E596E00E94A3381F9108951F93182F3D
:1010100088E898E066E372E00E94812C88E898E016
:10102000612F0E94F72BEBE3F8E090E005C09F5F93
:101030003196963009F463C080818823C1F7E92F87
:10104000F0E0E55CF74F1083923031F1933030F4EB
:10105000992361F0913009F04AC013C0943091F1A6
:10106000943028F1953009F042C037C080EB98E009
:10107000612F0E941C2985E596E0612F0E94AE3702
:1010800036C080EB98E0612F0E941F2985E596E02D
:10109000612F0E94B1372BC080EB98E0612F0E9436
:1010A000222985E596E0612F0E94B43720C080EBAD
:1010B00098E0612F0E94252985E596E0612F0E9426
:1010C000B73715C080EB98E0612F0E94282985E58D
:1010D00096E0612F0E94BA370AC080EB98E0612F3A
:1010E0000E942B2985E596E0612F0E94BD3780EB99
:1010F00098E00E94A42B85E596E00E94A3381F91FA
:101100000895FF920F931F93F82E08E818E0C80186
:1011100068E472E00E94812CC8016F2D0E94F72BB9
:101120008F2D74DF65E070E080E090E00E949B39D5
:101130008F2DF1DE1F910F91FF9008951F93182FAF
:1011400088E898E06BE572E00E94812C88E898E0DE
:10115000612F0E94F72B60914108812F90E0262F8C
:1011600030E08223932318161906A4F4862F811BDE
:1011700080934108282F30E060E080FD61E03695E3
:101180002795422F417036952795217088EA98E07F
:101190000E94C12B1F9108954F925F926F927F9290
:1011A0008F929F92AF92BF92CF92DF92EF92FF9277
:1011B0000F931F93DF93CF93CDB7DEB7CC55D040BD
:1011C0000FB6F894DEBF0FBECDBF6B017C01BA0134
:1011D000A90110914C08212F30E0D701C60182707F
:1011E0009070A070B07089839A83AB83BC83D70161
:1011F000C60188709070A070B0708D839E83AF839D
:10120000B887D701C60180719070A070B0708987CF
:101210009A87AB87BC87D701C60180729070A07097
:10122000B0708D879E87AF87B88BD701C601807459
:101230009070A070B070898B9A8BAB8BBC8BD701F0
:10124000C60180709170A070B0708D8B9E8BAF8B3B
:10125000B88FD701C60180709270A070B070898F6E
:101260009A8FAB8FBC8FD701C60180709870A07029
:10127000B0708D8F9E8FAF8FB8A3D701C6018070DD
:101280009072A070B07089A39AA3ABA3BCA3D7013E
:10129000C60180709074A070B0708DA39EA3AFA3A0
:1012A000B8A7D701C60180709070A170B07089A7EF
:1012B0009AA7ABA7BCA7D701C60180709070A27097
:1012C000B0708DA79EA7AFA7B8ABD701C60180703D
:1012D0009070A071B07089AB9AABABABBCABD701CF
:1012E000C60180709070A072B0708DAB9EABAFAB3A
:1012F000B8AFD701C60180709070A074B07089AF8C
:101300009AAFABAFBCAFD701C60180709070A07828
:10131000B07021968CAF9DAFAEAFBFAF2197D70114
:10132000C60180709070A070B17025968CAF9DAF93
:10133000AEAFBFAF2597D701C60180709070A07087
:10134000B47029968CAF9DAFAEAFBFAF2997D701D0
:10135000C60180709070A070B0712D968CAF9DAF5B
:10136000AEAFBFAF2D97D701C60180709070A0704F
:10137000B07461968CAF9DAFAEAFBFAF6197DB012C
:10138000CA0180719070A070B07065968CAF9DAFEF
:10139000AEAFBFAF6597DB01CA0180729070A070DD
:1013A000B07069968CAF9DAFAEAFBFAF6997F0E4F8
:1013B0008F2E912CA12CB12C84229522A622B7220B
:1013C000412CE1E05E2E612C712C442255226622D4
:1013D0007722DB01CA0180709270A070B0706D96A8
:1013E0008CAF9DAFAEAFBFAF6D9789819A81AB8156
:1013F000BC810097A105B10541F1101710F40C94C0
:101400009812F901E01BF109EE5BF74FE081EE2342
:1014100051F487E376DE82E03EDB84E03CDB81E072
:101420003ADB0C949812E13031F0E23021F0E330F5
:1014300011F00C944C1289E264DE82E02CDB84E033
:101440002ADB81E028DB0C9498128D819E81AF818C
:10145000B8850097A105B10509F488C0D701C60178
:1014600088709072A070B07088509042A040B040D8
:1014700039F5101710F40C949812F901E01BF109DA
:10148000EE5BF74FE081EE2321F0E23011F0E33024
:1014900051F488E236DE82E0FEDA84E0FCDA81E0B4
:1014A000FADA0C949812E13009F0F6C788E529DEE3
:1014B00082E0F1DA84E0EFDA81E0EDDA0C94981260
:1014C00047FD02C00C946412101710F40C9498128B
:1014D000F901E01BF109EE5BF74FE081EE2331F0FB
:1014E000E13021F0E23011F0E33051F48BE209DE1B
:1014F00082E0D1DA84E0CFDA81E0CDDA0C94981280
:10150000F901E01BF109EE5BF74FE081EE2351F4A6
:1015100086E1F7DD82E0BFDA84E0BDDA81E0BBDAA4
:101520000C949812E13059F482E0DFDA80E2E9DDD0
:1015300082E0B1DA84E0AFDA81E0ADDAF9C7E23017
:1015400049F483E3DEDD82E0A6DA84E0A4DA81E018
:10155000A2DAEEC7E33009F09FC783E4D2DD82E070
:101560009ADA84E098DA81E096DAE2C789859A858A
:10157000AB85BC850097A105B10509F438C01017EB
:1015800008F4D6C7F901E01BF109EE5BF74FE081E3
:10159000EE2349F486E0B5DD82E07DDA84E07BDA93
:1015A00081E079DAC5C7E13049F487E2AADD82E05B
:1015B00072DA84E070DA81E06EDABAC7E23059F4A8
:1015C00082E093DA83E39DDD82E065DA84E063DA2A
:1015D00081E061DAADC7E33009F05EC784E491DDF4
:1015E00082E059DA84E057DA81E055DAA1C78D85C7
:1015F0009E85AF85B8890097A105B10509F43AC069
:10160000101708F495C7F901E01BF109EE5BF74FDD
:10161000E081EE2349F483E174DD82E03CDA84E08A
:101620003ADA81E038DA84C7E13059F482E05DDAF1
:1016300085E267DD82E02FDA84E02DDA81E02BDAC3
:1016400077C7E23059F482E050DA85E35ADD82E070
:1016500022DA84E020DA81E01EDA6AC7E33009F09A
:101660001BC785E44EDD82E016DA84E014DA81E0FF
:1016700012DA5EC789899A89AB89BC890097A1056E
:10168000B10509F438C0101708F452C7F901E01B7E
:10169000F109EE5BF74FE081EE2349F48FE031DD95
:1016A00082E0F9D984E0F7D981E0F5D941C7E1308A
:1016B00049F485E226DD82E0EED984E0ECD981E0D0
:1016C000EAD936C7E23059F482E00FDA87E319DD50
:1016D00082E0E1D984E0DFD981E0DDD929C7E330B8
:1016E00009F0DAC681E40DDD82E0D5D984E0D3D9F2
:1016F00081E0D1D91DC7C7FE2BC0101708F418C749
:10170000F901E01BF109EE5BF74FE081EE2349F4AC
:1017100084E1F7DC82E0BFD984E0BDD981E0BBD9A8
:1017200007C7E13049F483E6ECDC82E0B4D984E019
:10173000B2D981E0B0D9FCC6E23009F0ADC685E38C
:10174000E0DC82E0A8D984E0A6D981E0A4D9F0C683
:101750008D899E89AF89B88D0097A105B10569F182
:10176000101708F4E5C6F901E01BF109EE5BF74F2D
:10177000E081EE2349F48CE1C4DC82E08CD984E082
:101780008AD981E088D9D4C6E23059F482E0ADD953
:101790008DE2B7DC82E07FD984E07DD981E07BD91E
:1017A000C7C6E33009F078C689E4ABDC82E073D9C0
:1017B00084E071D981E06FD9BBC6898D9A8DAB8DDC
:1017C000BC8D0097A105B10569F1101708F4B0C6EA
:1017D000F901E01BF109EE5BF74FE081EE2349F4DC
:1017E0008BE18FDC82E057D984E055D981E053D971
:1017F0009FC6E23059F482E078D981E382DC82E04E
:101800004AD984E048D981E046D992C6E33009F04C
:1018100043C686E476DC82E03ED984E03CD981E0B0
:101820003AD986C68D8D9E8DAF8DB8A10097A10542
:10183000B10521F1101708F47BC6F901E01BF1098D
:10184000EE5BF74FE081EE2349F486E35ADC82E059
:1018500022D984E020D981E01ED96AC6E13029F07E
:10186000E23019F0E33009F017C68CE44ADC82E07C
:1018700012D984E010D981E00ED95AC689A19AA163
:10188000ABA1BCA10097A105B10509F467C0D701C0
:10189000C60180709072A074B07080509042A044D5
:1018A000B04021F5101708F443C6F901E01BF10917
:1018B000EE5BF74FE081EE2349F48AE222DC82E01E
:1018C000EAD884E0E8D881E0E6D832C6E13029F0F1
:1018D000E23019F0E33009F0DFC58CE212DC82E07F
:1018E000DAD884E0D8D881E0D6D822C6101708F418
:1018F0001FC6F901E01BF109EE5BF74FE081EE2313
:1019000049F487E1FEDB82E0C6D884E0C4D881E0F8
:10191000C2D80EC6E13049F484E2F3DB82E0BBD8E2
:1019200084E0B9D881E0B7D803C6E23059F482E048
:10193000DCD886E3E6DB82E0AED884E0ACD881E098
:10194000AAD8F6C5E33009F0A7C580E4DADB82E067
:10195000A2D884E0A0D881E09ED8EAC58DA19EA13E
:10196000AFA1B8A50097A105B10509F436C01017BD
:1019700008F4DEC5F901E01BF109EE5BF74FE081E9
:10198000EE2349F48AE0BDDB82E085D884E083D889
:1019900081E081D8CDC5E13049F486E2B2DB82E056
:1019A0007AD884E078D881E076D8C2C5E23049F4AC
:1019B00088E3A7DB82E06FD884E06DD881E06BD844
:1019C000B7C5E33009F068C582E49BDB82E063D8E9
:1019D00084E061D881E05FD8ABC5C60180709078A3
:1019E000892B59F1101708F4A3C5F901E01BF1097F
:1019F000EE5BF74FE081EE2349F48AE182DB82E07F
:101A00004AD884E048D881E046D892C5E13049F40C
:101A100087E677DB82E03FD884E03DD881E03BD8A1
:101A200087C5E23009F038C58FE26BDB82E033D83E
:101A300084E031D881E02FD87BC589A59AA5ABA5D4
:101A4000BCA50097A105B10581F1101708F470C578
:101A5000F901E01BF109EE5BF74FE081EE2349F459
:101A60008EE04FDB82E017D884E015D881E013D8F0
:101A70005FC5E13059F482E038D883E242DB82E08E
:101A80000AD884E008D881E006D852C5E23009F0CF
:101A900003C580E336DB82E00E944B0584E00E94B0
:101AA0004B0581E00E944B0543C58DA59EA5AFA5C2
:101AB000B8A90097A105B105B9F1101708F438C508
:101AC000F901E01BF109EE5BF74FE081EE2361F4D1
:101AD0008DE117DB82E00E944B0584E00E944B05FC
:101AE00081E00E944B0524C5E13079F482E00E9438
:101AF000750582E206DB82E00E944B0584E00E94CD
:101B00004B0581E00E944B0513C5E23009F0C4C4C7
:101B100081E3F7DA82E00E944B0584E00E944B05E6
:101B200081E00E944B0504C589A99AA9ABA9BCA96B
:101B30000097A105B10509F4CBC4101708F4C8C477
:101B4000F901E01BF109EE5BF74F8081882309F072
:101B5000BFC489E1D6DA82E00E944B0584E00E948E
:101B60004B0581E00E944B05E3C4101708F4B9C48B
:101B7000F901E01BF109EE5BF74FE081EE2339F04C
:101B8000E13029F0E23019F0E33009F0AAC481E035
:101B90000E94ED04CDC447FF2AC0101708F4C8C442
:101BA000F901E01BF109EE5BF74FE081EE2361F4F0
:101BB0008CE2A7DA82E00E944B0584E00E944B058C
:101BC00081E00E944B05B4C4E13029F0E23019F005
:101BD000E33009F061C48AE294DA82E00E944B05A6
:101BE00084E00E944B0581E00E944B05A1C41017C0
:101BF00008F49EC4F901E01BF109EE5BF74FE081A8
:101C0000EE2361F48BE07DDA82E00E944B0584E0F4
:101C10000E944B0581E00E944B058AC4E13061F4CB
:101C200081E26FDA82E00E944B0584E00E944B055E
:101C300081E00E944B057CC4E23079F482E00E948E
:101C4000750586E25EDA82E00E944B0584E00E9420
:101C50004B0581E00E944B056BC4E33009F01CC4C6
:101C60008DE34FDA82E00E944B0584E00E944B0531
:101C700081E00E944B055CC421968CAD9DADAEAD5C
:101C8000BFAD21970097A105B10509F445C0101714
:101C900008F44EC4F901E01BF109EE5BF74FE08157
:101CA000EE2361F480E12DDA82E00E944B0584E0AE
:101CB0000E944B0581E00E944B053AC4E13061F47B
:101CC00082E21FDA82E00E944B0584E00E944B050D
:101CD00081E00E944B052CC4E23079F482E00E943E
:101CE000750587E20EDA82E00E944B0584E00E94CF
:101CF0004B0581E00E944B051BC4E33009F0CCC3C7
:101D00008EE3FFD982E00E944B0584E00E944B05E0
:101D100081E00E944B050CC425968CAD9DADAEAD07
:101D2000BFAD25970097A105B10509F445C010176F
:101D300008F4FEC3F901E01BF109EE5BF74FE08107
:101D4000EE2361F485E0DDD982E00E944B0584E05A
:101D50000E944B0581E00E944B05EAC3E13061F42B
:101D600083E2CFD982E00E944B0584E00E944B05BC
:101D700081E00E944B05DCC3E23079F482E00E94EE
:101D8000750588E3BED982E00E944B0584E00E947D
:101D90004B0581E00E944B05CBC3E33009F07CC3C7
:101DA0008FE3AFD982E00E944B0584E00E944B058F
:101DB00081E00E944B05BCC329968CAD9DADAEADB4
:101DC000BFAD29970097A105B10509F445C01017CB
:101DD00008F4AEC3F901E01BF109EE5BF74FE081B7
:101DE000EE2361F482E18DD982E00E944B0584E00C
:101DF0000E944B0581E00E944B059AC3E13061F4DB
:101E000085E57FD982E00E944B0584E00E944B0566
:101E100081E00E944B058CC3E23079F482E00E949D
:101E200075058FE26ED982E00E944B0584E00E9426
:101E30004B0581E00E944B057BC3E33009F02CC3C6
:101E40008FE75FD982E00E944B0584E00E944B053A
:101E500081E00E944B056CC32D968CAD9DADAEAD5F
:101E6000BFAD2D970097A105B105B9F1101708F482
:101E70005FC3F901E01BF109EE5BF74FE081EE2350
:101E800061F488E13ED982E00E944B0584E00E9423
:101E90004B0581E00E944B054BC3E13061F484E5C2
:101EA00030D982E00E944B0584E00E944B0581E01E
:101EB0000E944B053DC3E23009F0EEC282E00E9471
:101EC000750580E31ED982E00E944B0584E00E94E4
:101ED0004B0581E00E944B052BC361968CAD9DADF7
:101EE000AEADBFAD61970097A105B10549F11017DF
:101EF00008F41EC3F901E01BF109EE5BF74FE08126
:101F0000EE2361F487E0FDD882E00E944B0584E077
:101F10000E944B0581E00E944B050AC3E23009F0A4
:101F2000BBC282E00E9475058EE1EBD882E00E9480
:101F30004B0584E00E944B0581E00E944B05F8C2EE
:101F400065968CAD9DADAEADBFAD65970097A10513
:101F5000B10509F4D0C2101708F4CDC2F901E01B95
:101F6000F109EE5BF74F8081882309F0C4C28DE050
:101F7000C8D882E00E944B0584E00E944B0581E0B6
:101F80000E944B05D5C2101708F4C0C2F901E01B2E
:101F9000F109EE5BF74FE081EE2339F0E13029F0F3
:101FA000E23019F0E33009F0B1C280E00E94ED04A4
:101FB000BFC2101708F4BCC2F901E01BF109EE5BC7
:101FC000F74FE081EE2361F484E09BD882E00E9429
:101FD0004B0584E00E944B0581E00E944B05A8C29E
:101FE000E13061F487E58DD882E00E944B0584E002
:101FF0000E944B0581E00E944B059AC2E23009F035
:102000004BC282E00E94750584E37BD882E00E9487
:102010004B0584E00E944B0581E00E944B0588C27D
:1020200047FF42C0101708F483C2F901E01BF10911
:10203000EE5BF74FE081EE2361F485E162D882E048
:102040000E944B0584E00E944B0581E00E944B05F5
:102050006FC2E13061F48EE154D882E00E944B05FA
:1020600084E00E944B0581E00E944B0561C2E23092
:1020700061F487E346D882E00E944B0584E00E9429
:102080004B0581E00E944B0553C2E33009F004C2C6
:102090008AE337D882E00E944B0584E00E944B051A
:1020A00081E00E944B0544C2411451046104710453
:1020B00009F444C0101708F43BC2F901E01BF10910
:1020C000EE5BF74FE081EE2361F481E11AD882E004
:1020D0000E944B0584E00E944B0581E00E944B0565
:1020E00027C2E13061F48FE10CD882E00E944B05F9
:1020F00084E00E944B0581E00E944B0519C2E2304A
:1021000069F486E30E94810882E00E944B0584E026
:102110000E944B0581E00E944B050AC2E33009F0A2
:10212000BBC18BE30E94810882E00E944B0584E0E2
:102130000E944B0581E00E944B05FAC16D968CAD63
:102140009DADAEADBFAD6D970097A105B10509F48A
:1021500049C0101708F4ECC1F901E01BF109EE5B6E
:10216000F74FE081EE2369F489E00E94810882E064
:102170000E944B0584E00E944B0581E00E944B05C4
:10218000D7C1E13069F480E20E94810882E00E94B8
:102190004B0584E00E944B0581E00E944B05C8C1BD
:1021A000E23081F482E00E9475058FE10E9481088F
:1021B00082E00E944B0584E00E944B0581E00E9472
:1021C0004B05B6C1E33009F067C18CE30E9481087A
:1021D00082E00E944B0584E00E944B0581E00E9452
:1021E0004B05A6C154FF3DC0101708F4A1C1F90169
:1021F000E01BF109EE5BF74FE081EE2369F488E024
:102200000E94810882E00E944B0584E00E944B05F9
:1022100081E00E944B058CC1E13069F486E50E94A3
:10222000810882E00E944B0584E00E944B0581E01A
:102230000E944B057DC1E23069F484E30E9481086D
:1022400082E00E944B0584E00E944B0581E00E94E1
:102250004B056EC1E33009F01FC188E00E9495056F
:1022600067C156FF3AC0101708F462C1F901E01BBC
:10227000F109EE5BF74FE081EE2369F48CE00E94F8
:10228000810882E00E944B0584E00E944B0581E0BA
:102290000E944B054DC1E23081F482E00E94750539
:1022A00084E20E94810882E00E944B0584E00E9443
:1022B0004B0581E00E944B053BC1E33009F0ECC0C7
:1022C00085E60E94810882E00E944B0584E00E941E
:1022D0004B0581E00E944B052BC1CA0180709078AC
:1022E000892BD1F0101708F423C1F901E01BF10983
:1022F000EE5BF74FE081EE2321F0E13011F0E230A8
:1023000021F483E00E94F80613C1E33009F0C4C051
:1023100080E00E94F8060CC160FF1AC0101708F494
:1023200007C1F901E01BF109EE5BF74FE081EE23F5
:1023300021F0E13011F0E33021F482E00E94F80650
:10234000F7C0E23009F0A8C080E00E94F806F0C0B3
:1023500061FF1AC0101708F4EBC0F901E01BF10986
:10236000EE5BF74FE081EE2321F0E23011F0E33035
:1023700021F481E00E94F806DBC0E13009F08CC056
:1023800080E00E94F806D4C062FFC7C0101708F4AE
:10239000C4C0F901E01BF109EE5BF74FE081EE23C9
:1023A00009F4C6C0E13009F4C3C0E23009F4C0C08A
:1023B000E33009F4BDC0B1C0101708F4B0C0F90192
:1023C000E01BF109EE5BF74FE081EE2309F4B0C0AA
:1023D000E13009F4ADC0E23009F4AAC0E33009F4F9
:1023E000A7C09DC0101708F49CC0F901E01BF109BB
:1023F000EE5BF74FE081EE2309F49AC0E13009F477
:1024000097C0E23009F494C0E33009F491C089C068
:10241000101708F488C0F901E01BF109EE5BF74FD3
:10242000E081EE2339F0E13029F0E23019F0E330B9
:1024300009F079C084E00E949E087AC0101708F461
:1024400074C0F901E01BF109EE5BF74FE081EE2368
:1024500039F0E13029F0E23019F0E33009F065C0DD
:1024600082E00E949E0864C0101708F461C0F90160
:10247000E01BF109EE5BF74FE081EE2331F0E13034
:1024800021F0E23011F0E33039F481E00E949E083F
:102490004FC0101708F44CC0F901E01BF109EE5BC6
:1024A000F74F8081843009F043C00F5F101708F4A4
:1024B0003FC0F901E01BF109EE5BF74F80818823F3
:1024C00011F40C94F50934C0101708F019C830C085
:1024D0008DA99EA9AFA9B8AD0097A105B10509F0D6
:1024E00044CB89AD9AADABADBCAD0097A105B105AC
:1024F00009F051CBC1CB69968CAD9DADAEADBFADF2
:1025000069970097A105B10509F03DCD81149104AB
:10251000A104B10409F04DCD83CD63FD4DCF64FD21
:1025200061CF70FD75CF71FD89CF72FFB2CF9CCFA7
:10253000C45ADF4F0FB6F894DEBF0FBECDBFCF91A8
:10254000DF911F910F91FF90EF90DF90CF90BF90A0
:10255000AF909F908F907F906F905F904F90089575
:102560001F93182F88E898E06DE672E00E94812C96
:1025700088E898E0612F0E94F72B80914108812B19
:1025800080934108282F30E060E080FD61E03695BF
:102590002795422F417036952795217088EA98E05B
:1025A0000E94C12B1F9108954F925F926F927F926C
:1025B0008F929F92AF92BF92CF92DF92EF92FF9253
:1025C0000F93DF93CF93CDB7DEB728970FB6F8946C
:1025D000DEBF0FBECDBF6B017C012D833E834F83D9
:1025E000588790914C08A92FB0E0812C912C60E283
:1025F000A62EB12CC820D920EA20FB2020723070F2
:102600004070507029833A834B835C83412C512C5A
:10261000612C21E0722E2D813E814F81588542220E
:10262000532264227522812C912CA12C82E0B82E99
:1026300082229322A422B522207030704070547000
:102640002D833E834F835887C114D104E104F104E4
:1026500009F47BC0901708F478C0FD01E01BF10974
:10266000EE5BF74FE081EE2339F0E13029F0E23004
:1026700019F0E33009F069C081E013C0901708F445
:102680006EC0FD01E01BF109EE5BF74FE081EE2328
:1026900039F0E13029F0E23019F0E33009F05FC0A1
:1026A00080E00E94050573C0901708F45EC0FD012C
:1026B000E01BF109EE5BF74FE081EE2339F0E130EA
:1026C00029F0E23019F0E33009F04FC084E026C071
:1026D000901708F450C0FD01E01BF109EE5BF74FC5
:1026E000E081EE2339F0E13029F0E23019F0E330F7
:1026F00009F041C082E012C0901708F448C0FD0103
:10270000E01BF109EE5BF74FE081EE2331F0E130A1
:1027100021F0E23011F0E33019F481E021DF37C01D
:10272000FD01E01BF109EE5BF74F8081843079F504
:102730000F5F901760F1FD01E01BF109EE5BF74FB1
:102740008081882309F480CF22C029813A814B817E
:102750005C81211531054105510509F08FCF4114E8
:1027600051046104710409F09FCF81149104A10404
:10277000B10409F0ADCF2D813E814F8158852115DF
:1027800031054105510509F0B7CF901748F6289655
:102790000FB6F894DEBF0FBECDBFCF91DF910F9182
:1027A000FF90EF90DF90CF90BF90AF909F908F9071
:1027B0007F906F905F904F9008956F927F928F926D
:1027C0009F92AF92BF92CF92DF92EF92FF920F93C0
:1027D0001F931092530810925408109255081092AB
:1027E00056081092570810925808109259081092E3
:1027F0005A08109252081092420610924306109204
:10280000440610924506E1E0CE2ED12CE12CF12CAD
:1028100086C0FC01EE0FFF1FE35DFC4F10810181BC
:10282000812F61E00E949B2A812F60E00E94922903
:102830008091420690914306A0914406B0914506CE
:102840008097A105B10530F5802F0E943729892B8B
:1028500009F04AC0A70196010090420604C0220F69
:10286000331F441F551F0A94D2F78091530890914B
:102870005408A0915508B0915608822B932BA42B95
:10288000B52B8093530890935408A0935508B093A8
:1028900056082AC0802F0E943729892B29F52091BC
:1028A00042063091430620523040D701C60104C091
:1028B000880F991FAA1FBB1F2A95D2F79C01AD0153
:1028C0008091570890915808A0915908B0915A08E2
:1028D000822B932BA42BB52B8093570890935808E9
:1028E000A0935908B0935A08812F60E00E949B2A58
:1028F000812F61E00E9492298091420690914306C7
:10290000A0914406B09145060196A11DB11D80938A
:10291000420690934306A0934406B09345068091E7
:10292000420690914306A0914406B09145068C332F
:102930009105A105B10508F46CCFE0905B08F0901B
:102940005C0800915D0810915E0880915308909199
:102950005408A0915508B0915608E816F9060A07E0
:102960001B07A9F420915F0830916008409161082D
:10297000509162088091570890915808A091590889
:10298000B0915A08281739074A075B0759F00E9487
:10299000673960934D0870934E0880934F08909369
:1029A000500803C18091630890916408A091650864
:1029B000B0916608E816F9060A071B0771F48091C2
:1029C000670890916808A0916908B0916A08281773
:1029D00039074A075B0709F4E8C00E94673920916C
:1029E0004D0830914E0840914F0850915008621B9D
:1029F000730B840B950B209108033091090340E081
:102A000050E0621773078407950708F4CEC088E882
:102A100098E061E872E00E94812C109242061092C8
:102A20004306109244061092450639C08032910543
:102A3000A105B10548F440915308509154086091A4
:102A400055087091560809C08097409157085091D9
:102A500058086091590870915A0804C07695679596
:102A6000579547958A95D2F7417050706070707095
:102A700088E898E00E94C82C809142069091430615
:102A8000A0914406B09145060196A11DB11D809309
:102A9000420690934306A0934406B0934506809166
:102AA000420690914306A0914406B09145068C33AE
:102AB0009105A105B10508F4B9CF88E898E068E868
:102AC00072E00E94812CE0905B08F0905C0800911D
:102AD0005D0810915E08A0906308B0906408C090F3
:102AE0006508D0906608AE14BF04C006D106A8F0F1
:102AF00060905F0870906008809061089090620814
:102B000020916708309168084091690850916A08DF
:102B1000261537054805590580F481E08093510852
:102B200020915F08309160084091610850916208DF
:102B3000C801B70101E038DD18C080915108882331
:102B4000A1F0EA14FB040C051D0528F062167306BB
:102B50008406950650F41092510881E08093520843
:102B6000C601B50101E00E94CC0880915B089091FC
:102B70005C08A0915D08B0915E0880936308909313
:102B80006408A0936508B093660880915F089091EF
:102B90006008A0916108B0916208809367089093E3
:102BA0006808A0936908B0936A08809153089091CF
:102BB0005408A0915508B091560880935B089093F3
:102BC0005C08A0935D08B0935E08809157089091CF
:102BD0005808A0915908B0915A0880935F089093C3
:102BE0006008A0936108B09362081F910F91FF9055
:102BF000EF90DF90CF90BF90AF909F908F907F909D
:102C00006F900895FF920F931F93F82E08E818E035
:102C1000C8016AE872E00E94812CC8016F2D0E94F1
:102C2000F72B8F2D9DDC65E070E080E090E00E9446
:102C30009B398F2D0E949E081F910F91FF90089540
:102C40006F927F928F929F92AF92BF92CF92DF92BC
:102C5000EF92FF920F931F93CF93DF93609038080A
:102C600082E0681609F497C0861528F091E069168D
:102C700009F021C209C083E0681609F4FDC094E0A0
:102C8000691609F018C286C180913B07C0912307DD
:102C9000D09124078090250790902607882309F477
:102CA00067C060911D0870911E087093260860939C
:102CB0002508E0901F08F0902008F0922808E09284
:102CC000270880E090E00E946A405B016C018091DF
:102CD000350790913607C81BD90BBE01882777FDB1
:102CE0008095982F0E946C402091CF033091D003A3
:102CF0004091D1035091D2030E94D13F9B01AC017E
:102D0000C601B5010E94443F0E943E4070931E08D8
:102D100060931D0800E010E0C801B7010E946A40FE
:102D20007B018C018091370790913807881A990AA6
:102D3000B401882777FD8095982F0E946C402091E0
:102D4000D3033091D4034091D5035091D6030E9410
:102D5000D13F9B01AC01C801B7010E94443F0E94D2
:102D60003E407093200860931F0860923508A3C10D
:102D7000D0933607C0933507909238078092370773
:102D8000809127079091280790933A0780933907FD
:102D900060923B0790C1C0911D08D0911E08D0934E
:102DA0002608C093250880901F08909020089092D4
:102DB00028088092270820916E0730916F0737FF0F
:102DC00013C066277727621B730B882777FD8095D2
:102DD000982F0E946C400E94D7417B018C0117FB09
:102DE000109517F910950BC0B901882777FD8095CC
:102DF000982F0E946C400E94D7417B018C01BE013C
:102E000080E090E00E946A40A80197010E94453F3F
:102E10000E943E4070931E0860931D082091700729
:102E20003091710737FF13C066277727621B730B3A
:102E3000882777FD8095982F0E946C400E94D7418B
:102E40007B018C0117FB109517F910950BC0B90188
:102E5000882777FD8095982F0E946C400E94D7416B
:102E60007B018C01B40180E090E00E946A40A801DF
:102E700097010E94453F6FC080913B07C091750646
:102E8000D09176068090790690907A06882309F48E
:102E900069C060911D0870911E08709326086093A8
:102EA0002508E0901F08F0902008F0922808E09292
:102EB000270880E090E00E946A405B016C018091ED
:102EC000990690919A06C81BD90BBE01882777FDF9
:102ED0008095982F0E946C402091DF033091E00391
:102EE0004091E1035091E2030E94D13F9B01AC016C
:102EF000C601B5010E94443F0E943E4070931E08E7
:102F000060931D0800E010E0C801B7010E946A400C
:102F10007B018C0180E09FEF880E991E80919D06B9
:102F200090919E06881A990AB401882777FD8095AA
:102F3000982F0E946C402091E3033091E40340916C
:102F4000E5035091E6030E94D13F9B01AC01C8010B
:102F5000B7010E94443F0E943E4070932008609356
:102F60001F08A6C0D0939A06C09399068091770651
:102F70009091780690939C0680939B0680E09FEF4B
:102F8000880E991E90929E0680929D0681E0809305
:102F90003B0791C060911D0870911E087093260830
:102FA00060932508E0901F08F0902008F092280810
:102FB000E0922708A0902108B0902208B0922A0839
:102FC000A092290880E090E00E946A403B014C01F9
:102FD0006091870670918806882777FD8095982FE5
:102FE0000E946C402091E7033091E8034091E9038F
:102FF0005091EA030E94D13F9B01AC01C401B3018F
:103000000E94443F0E943E4070931E0860931D083A
:1030100000E010E0C801B7010E946A407B018C010A
:1030200060918B0670918C06882777FD8095982F8C
:103030000E946C402091EB033091EC034091ED0332
:103040005091EE030E94D13F9B01AC01C801B70132
:103050000E94443F0E943E407093200860931F08E6
:10306000CC24DD24C601B5010E946A407B018C019D
:103070006091890670918A06882777FD8095982F40
:103080000E946C402091EF033091F0034091F103D6
:103090005091F2030E94D13F9B01AC01C801B701DE
:1030A0000E94443F0E943E40709322086093210892
:1030B00081E0809335086090390892E0691609F440
:1030C0008FC083E0681609F4CAC091E0691609F060
:1030D00056C180913B07C0912307D091240780906F
:1030E000250790902607882309F467C060911D0882
:1030F00070911E087093260860932508E0901F08C1
:10310000F0902008F0922808E092270880E090E0F4
:103110000E946A405B016C018091350790913607EF
:10312000C81BD90BBE01882777FD8095982F0E9478
:103130006C402091CF033091D0034091D103509146
:10314000D2030E94D13F9B01AC01C601B5010E9490
:10315000443F0E943E4070931E0860931D0800E0AB
:1031600010E0C801B7010E946A407B018C01809188
:10317000370790913807881A990AB401882777FD94
:103180008095982F0E946C402091D3033091D403F6
:103190004091D5035091D6030E94D13F9B01AC01D1
:1031A000C801B7010E94443F0E943E40709320082E
:1031B00060931F0860923608E2C0D0933607C09330
:1031C00035079092380780923707809127079091B2
:1031D000280790933A078093390760923B07CFC046
:1031E000C0912308D0912408D0932C08C0932B08B9
:1031F00080916E0790916F0797FF13C062EE7FEF8B
:103200000E943F43882777FD8095982F0E946C404D
:103210000E94D7417B018C0117FB109517F910957F
:103220000EC06EE170E00E943F43882777FD8095D5
:10323000982F0E946C400E94D7417B018C01BE01F7
:1032400080E090E00E946A40A80197010E94443FFC
:103250000E943E40709324086093230875C08091BB
:103260003B07C0917506D0917606809079069090C4
:103270007A06882309F46CC060911D0870911E08BD
:103280007093260860932508E0901F08F0902008AE
:10329000F0922808E092270880E090E00E946A40BF
:1032A0005B016C018091990690919A06C81BD90B1D
:1032B000BE01882777FD8095982F0E946C40209151
:1032C000DF033091E0034091E1035091E2030E945B
:1032D000D13F9B01AC01C601B5010E94443F0E9451
:1032E0003E4070931E0860931D0800E010E0C80186
:1032F000B7010E946A407B018C0180E09FEF880E3D
:10330000991E80919D0690919E06881A990AB40193
:10331000882777FD8095982F0E946C402091E303C9
:103320003091E4034091E5035091E6030E94D13FC0
:103330009B01AC01C801B7010E94443F0E943E407E
:103340007093200860931F0881E08093360817C0AF
:10335000D0939A06C093990680917706909178064B
:1033600090939C0680939B0680E09FEF880E991EA9
:1033700090929E0680929D0681E080933B0720916B
:103380001D0830911E088091250890912608281B61
:10339000390B30932E0820932D0840911F0850912F
:1033A00020088091270890912808481B590B5093BA
:1033B000300840932F086091210870912208809175
:1033C000290890912A08681B790B70933208609342
:1033D00031088091CD03813041F488279927821BE1
:1033E000930B90932E0880932D088091CE0381300B
:1033F00041F488279927841B950B9093300880937C
:103400002F0880913708813041F488279927861B3F
:10341000970B909332088093310880913508882368
:1034200009F499C080913808882309F494C0609108
:103430002D0870912E086115710569F480912F088F
:1034400090913008892B39F480913108909132089D
:10345000892B09F480C02091310830913208211560
:10346000310539F088EA98E040912F080E94D42B6A
:1034700006C088EA98E040912F080E94E42B209132
:103480003108309132082115310549F085E596E083
:1034900060912D0840912F080E94C03708C085E533
:1034A00096E060912D0840912F080E94173888E817
:1034B00098E06FE972E00E94812C60911D08709184
:1034C0001E0888E898E00E94EB2C88E898E062E10A
:1034D00071E00E94812C60911F087091200888E89B
:1034E00098E00E94EB2C88E898E062E171E00E948D
:1034F000812C60912D0870912E0888E898E00E9438
:10350000EB2C88E898E062E171E00E94812C6091E8
:103510002F087091300888E898E00E94EB2C88E82A
:1035200098E062E171E00E94812C60913108709115
:10353000320888E898E00E94EB2C88E898E062E185
:1035400071E00E94812C609131087091320888E806
:1035500098E00E946E2C809136088823A9F0809113
:103560003908882389F06091330870913408611517
:10357000710551F088EA98E00E94B12B85E596E04C
:10358000609133080E941338DF91CF911F910F9102
:10359000FF90EF90DF90CF90BF90AF909F908F9073
:1035A0007F906F9008958AE260EE76E024E130E04B
:1035B00040E050E00E94772664E670E080E090E012
:1035C0000E949B398AE260EE76E024E130E040E040
:1035D00050E00E94772664E670E080E090E00C9472
:1035E0009B392F923F924F925F926F927F928F9270
:1035F0009F92AF92BF92CF92DF92EF92FF920F9382
:103600001F93DF93CF93CDB7DEB72C970FB6F89407
:10361000DEBF0FBECDBF8091740790917507909368
:103620007B0780937A078091760790917707909334
:103630007D0780937C07809178079091790790931C
:103640007F0780937E0780916E0790916F0790931C
:10365000750780937407809170079091710790931C
:103660007707809376078091720790917307909304
:103670007907809378078091CC03882359F48FE3EE
:1036800097E068E677E04AE657E02CE637E00E94EC
:10369000DB3378C0813049F48FE397E068E677E068
:1036A0004CE657E02AE637E060C0823009F455C0A6
:1036B0008430B1F48FE397E06AE677E048E657E0BC
:1036C0002CE637E00E94DB3380916A0790916B070C
:1036D000909581959F4F90936B0780936A0752C096
:1036E0008330B1F48FE397E06CE677E048E657E08B
:1036F0002AE637E00E94DB338091680790916907E2
:10370000909581959F4F90936907809368072FC08C
:10371000853049F48FE397E06AE677E04CE657E0BE
:1037200028E637E00AC08630B1F48FE397E06CE614
:1037300077E048E657E02AE637E00E94DB338091E5
:103740006A0790916B07909581959F4F90936B07B7
:1037500080936A070CC08730A9F48FE397E06CE68A
:1037600077E04AE657E028E637E00E94DB338091B5
:103770006C0790916D07909581959F4F90936D0781
:1037800080936C0780915F0790916007A09161071B
:10379000B09162070097A105B10529F421E030E05E
:1037A00040E050E010C00E9475399B01AC0180914F
:1037B0005F0790916007A0916107B0916207281B95
:1037C000390B4A0B5B0B20936307309364074093DC
:1037D0006507509366070E94753960935F07709381
:1037E000600780936107909362076091680770910A
:1037F00069072091580730915907620F731FE090B5
:103800006A07F0906B0720915A0730915B07E20E30
:10381000F31EA0906C07B0906D0720915C0730916B
:103820005D07A20EB31E882777FD8095982F0E9412
:103830006C402091BC033091BD034091BE03509178
:10384000BF030E94244120E030E040E751E40E94A1
:10385000D13F0E9439403B0170936907609368072C
:103860000027F7FC0095102FC801B7010E946C409B
:103870002091C0033091C1034091C2035091C30312
:103880000E94244120E030E040E751E40E94D13F13
:103890000E9439401B0170936B0760936A07CC2428
:1038A000B7FCC094DC2CC601B5010E946C4020918D
:1038B000C4033091C5034091C6035091C7030E94D1
:1038C000244120E030E040E751E40E94D13F0E94D3
:1038D00039406B0170936D0760936C07009174071A
:1038E000109175078091C8039091C903A091CA03F4
:1038F000B091CB0389839A83AB83BC83B8018827BB
:1039000077FD8095982F0E946C406F837887898718
:103910009A87601A710A882477FC8094982CC401D5
:10392000B3010E946C409B01AC0169817A818B815B
:103930009C810E9424419B01AC016F81788589851F
:103940009A850E94453F0E9439407E836D83709323
:103950006F0760936E070091760710917707B801A3
:10396000882777FD8095982F0E946C404B015C0161
:10397000201A310A442437FC4094542CC201B1016E
:103980000E946C409B01AC0169817A818B819C8192
:103990000E9424419B01AC01C501B4010E94453F36
:1039A0000E9439402B01709371076093700700915A
:1039B000780710917907B801882777FD8095982FAF
:1039C0000E946C404B015C01C01AD10AEE24D7FC66
:1039D000E094FE2CC701B6010E946C409B01AC0133
:1039E00069817A818B819C810E9424419B01AC0179
:1039F000C501B4010E94453F0E9439407C876B8716
:103A0000709373076093720720905E07222009F479
:103A10009CC081E090E0A0E0B0E0809342069093EB
:103A20004306A0934406B093450630906707E32C05
:103A3000FF2400E010E00894E11CF11C011D111DA1
:103A400021E0A22EB12CC12CD12C622C7724882409
:103A5000992433C0C801B701A40193010E945243C5
:103A6000FB01EE0FFF1FEE56F84F80819181AD8173
:103A7000BE81A80FB91FBE83AD83FB01EE0FFF1FF0
:103A8000E654F84F80819181480E591EFB01EE0FDC
:103A9000FF1FEE51F84F80819181EB85FC85E80F87
:103AA000F91FFC87EB870894A11CB11CC11CD11C19
:103AB0000894E11CF11C011D111DA614B704C804D3
:103AC000D90440F2A0924206B0924306C092440646
:103AD000D09245068D819E81622D70E00E943F4309
:103AE000062FF72E60936E0770936F07C201622D49
:103AF00070E00E943F43462F172F6093700770932A
:103B000071078B859C85622D70E00E943F439B016D
:103B10006093720730937307832D90E0622D70E0FD
:103B20000E942B43FC01EE0FFF1FDF01AE56B84F82
:103B30000C931196FC92DF01A654B84F4C9311964A
:103B40001C93EE51F84F20833183809153068823D4
:103B500009F4B7C0E0916E07F0916F0720910A0851
:103B600030910B08CF014E2F892F2E173F071CF4E1
:103B7000C901422F892F40930A0880930B08609156
:103B800070077091710720910C0830910D08CB01DE
:103B9000462F892F261737071CF4C901422F892F7A
:103BA00040930C0880930D08409172075091730761
:103BB00020910E0830910F08CA01A42F892F2417D5
:103BC00035071CF4C901A22F892FA0930E088093FA
:103BD0000F0880911008909111088E179F070CF420
:103BE000CF01909311088093100880911208909152
:103BF0001308861797070CF4CB0190931308809352
:103C000012088091140890911508841795070CF4F8
:103C1000CA01909315088093140888E898E066EA32
:103C200072E00E94812C60910A0870910B0888E86C
:103C300098E00E94FC2C88E898E062E171E00E9424
:103C4000812C60910C0870910D0888E898E00E9422
:103C5000FC2C88E898E062E171E00E94812C609180
:103C60000E0870910F0888E898E00E94FC2C88E804
:103C700098E062E171E00E94812C609110087091DF
:103C8000110888E898E00E94FC2C88E898E062E13E
:103C900071E00E94812C609112087091130888E8ED
:103CA00098E00E94FC2C88E898E062E171E00E94B4
:103CB000812C609114087091150888E898E00E94A2
:103CC000FC2C88E898E065EB72E00E94812C609102
:103CD00068077091690788E898E00E94FC2C88E8E2
:103CE00098E062E171E00E94812C60916A07709116
:103CF0006B0788E898E00E94FC2C88E898E062E175
:103D000071E00E94812C60916C0770916D0788E8CA
:103D100098E00E94FC2C88E898E062E171E00E9443
:103D2000812C60916E0770916F0788E898E00E947F
:103D3000FC2C88E898E062E171E00E94812C60919F
:103D400070077091710788E898E00E94FC2C88E861
:103D500098E062E171E00E94812C6091720770919D
:103D6000730788E898E00E94FC2C809167078F5FBA
:103D7000809367072C960FB6F894DEBF0FBECDBFB9
:103D8000CF91DF911F910F91FF90EF90DF90CF9037
:103D9000BF90AF909F908F907F906F905F904F906B
:103DA0003F902F9008958FE397E068E60E94803758
:103DB0001092730710927207109271071092700799
:103DC00010926F0710926E0710925F0710926007B3
:103DD00010926107109262071092670710921808FC
:103DE00010920F0810920E0810920D0810920C08F5
:103DF00010920B0810920A081092150810921408DD
:103E000010921308109212081092110810921008C4
:103E100008952F923F924F925F926F927F928F926E
:103E20009F92AF92BF92CF92DF92EF92FF920F9349
:103E30001F93DF93CF93CDB7DEB760970FB6F8949B
:103E4000DEBF0FBECDBF80917B0690917C06909324
:103E500082068093810680917D0690917E069093E4
:103E600084068093830680917F06909180069093CC
:103E700086068093850680917506909176069093CC
:103E80007C0680937B0680917706909178069093CC
:103E90007E0680937D068091790690917A069093B4
:103EA000800680937F0680916506882359F48FE50C
:103EB00096E06FE676E041E756E023E736E00E94C1
:103EC000783178C0813049F48FE596E06FE676E08E
:103ED00043E756E021E736E060C0823009F455C080
:103EE0008430B1F48FE596E061E776E04FE656E086
:103EF00023E736E00E947831809171069091720636
:103F0000909581959F4F909372068093710652C051
:103F10008330B1F48FE596E063E776E04FE656E054
:103F200021E736E00E94783180916F06909170060B
:103F3000909581959F4F9093700680936F062FC048
:103F4000853049F48FE596E061E776E043E756E097
:103F50002FE636E00AC08630B1F48FE596E063E7DD
:103F600076E04FE656E021E736E00E947831809116
:103F7000710690917206909581959F4F909372066D
:103F8000809371060CC08730A9F48FE596E063E753
:103F900076E041E756E02FE636E00E9478318091E6
:103FA000730690917406909581959F4F9093740637
:103FB000809373068091660690916706A0916806CB
:103FC000B09169060097A105B10529F421E030E020
:103FD00040E050E010C00E9475399B01AC01809117
:103FE000660690916706A0916806B0916906281B45
:103FF000390B4A0B5B0B20936A0630936B06409398
:104000006C0650936D060E94753960936606709336
:104010006706809368069093690660916F067091B9
:1040200070062091A5033091A603620F731FE090E4
:104030007106F09072062091A7033091A803E20E5A
:10404000F31EA0907306B09074062091A9033091DE
:10405000AA03A20EB31E882777FD8095982F0E9491
:104060006C402091AB033091AC034091AD03509173
:10407000AE030E9424410E9439403B014C017093E1
:10408000700660936F060027F7FC0095102FC8019B
:10409000B7010E946C402091AF033091B003409172
:1040A000B1035091B2030E9424410E9439401B0188
:1040B0002C017093720660937106CC24B7FCC094F7
:1040C000DC2CC601B5010E946C402091B3033091F5
:1040D000B4034091B5035091B6030E9424410E945D
:1040E00039406B837C838D839E832B813C8130930D
:1040F00074062093730600917B0610917C06B8012C
:10410000882777FD8095982F0E946C406B017C0179
:10411000601A710AB301882777FD8095982F0E9455
:104120006C402091B7033091B8034091B90350918E
:10413000BA030E9424419B01AC01C701B6010E9451
:10414000453F0E9439407093760660937506009152
:104150007D0610917E068090B7039090B803A090E2
:10416000B903B090BA03B801882777FD8095982FDE
:104170000E946C406B017C01201A310AB101882732
:1041800077FD8095982F0E946C409B01AC01C50182
:10419000B4010E9424419B01AC01C701B6010E94F9
:1041A000453F0E9439407A83698370937806609313
:1041B000770600917F0610918006B801882777FD69
:1041C0008095982F0E946C406B017C012B813C8173
:1041D000201B310BB901882777FD8095982F0E940D
:1041E0006C409B01AC01C501B4010E9424419B01BC
:1041F000AC01C701B6010E94453F0E9439402B0126
:1042000070937A06609379062090BB03222009F40C
:10421000B3C081E090E0A0E0B0E0809342069093CC
:104220004306A0934406B093450611E0A12EB12C9D
:10423000C12CD12C622C77248824992440C0D6012B
:10424000C5018E0D911DA11DB11D7C018D01BC010B
:10425000CD01A40193010E945243DC01CB01880FE0
:10426000991F8156994FDC018D919C91EF85F889BA
:10427000E80FF91FF0937606E0937506C801B701C1
:10428000A40193010E945243FB01EE0FFF1FE9536B
:10429000F94F8081918129813A81280F391F3A8312
:1042A0002983FB01EE0FFF1FE151F94F80819181BE
:1042B000480E591E0894A11CB11CC11CD11C809130
:1042C000750690917606988B8F87E0906E06A614FF
:1042D000B704C804D90408F4B2CFA0924206B09241
:1042E0004306C0924406D0924506622D70E00E94BB
:1042F0003F439B01609375063093760689819A81CE
:10430000622D70E00E943F43462F172F609377067F
:1043100070937806C201622D70E00E943F43062F21
:10432000F72E6093790670937A068E2D90E0622DB9
:1043300070E00E942B43FC01EE0FFF1FE156F94F86
:10434000208331838E2D90E0622D70E00E942B43FC
:10435000FC01EE0FFF1FE953F94F408311838E2DAF
:1043600090E0622D70E00E942B43FC01EE0FFF1FD6
:10437000E151F94F0083F18240917B0650917C0618
:10438000A0917506B0917606809187069091880677
:104390008A0F9B1F2091810630918206820F931F06
:1043A000841B950B841B950B90938806809387063E
:1043B000E0917706F091780640917D0650917E0657
:1043C0008091890690918A068E0F9F1F2091830607
:1043D00030918406820F931F841B950B841B950BD1
:1043E00090938A06809389066091790670917A0687
:1043F00040917F065091800680918B0690918C06AB
:10440000860F971F2091850630918606820F931F95
:10441000841B950B841B950B90938C0680938B06C5
:1044200080915306882309F4A1C020911707309189
:104430001807CD012A173B070CF4C9019093180700
:10444000809317078091190790911A07E817F907C9
:104450000CF4CF0190931A078093190780911B07E2
:1044600090911C07681779070CF4CB0190931C07F7
:1044700080931B0720911D0730911E0780917506C0
:1044800090917606821793070CF4C90190931E074A
:1044900080931D0780911F07909120078E179F071B
:1044A0000CF4CF019093200780931F078091210780
:1044B00090912207861797070CF4CB01909322075F
:1044C0008093210788E898E06BEB72E00E94812CD2
:1044D000609117077091180788E898E00E94FC2CFB
:1044E00088E898E062E171E00E94812C60911907F0
:1044F00070911A0788E898E00E94FC2C88E898E000
:1045000062E171E00E94812C60911B0770911C0791
:1045100088E898E00E94FC2C88E898E062E171E06D
:104520000E94812C60911D0770911E0788E898E019
:104530000E94FC2C88E898E062E171E00E94812CE6
:1045400060911F077091200788E898E00E94FC2C7A
:1045500088E898E062E171E00E94812C6091210777
:104560007091220788E898E00E947F2C80912907AB
:1045700090912A079093300780932F0780912B0703
:1045800090912C07909332078093310780912D07EB
:1045900090912E07909334078093330780912307DF
:1045A0009091240790932A078093290780912507EB
:1045B0009091260790932C0780932B0780912707D3
:1045C0009091280790932E0780932D076091750690
:1045D00070917606882777FD8095982F0E946C4011
:1045E00020E030E040E85BE30E9424417B018C0145
:1045F0006091770670917806882777FD8095982FCF
:104600000E946C4020E030E040E85BE30E942441DF
:104610005B016C016091790670917A06882777FDBD
:104620008095982F0E946C4020E030E040E85BE3EA
:104630000E9424411B012C01C601B501A601950170
:104640000E9424416F83788789879A87C201B101CC
:10465000A20191010E9424416B877C878D879E87F0
:104660006F81788589859A852B853C854D855E850A
:104670000E94453F0E94D7419B01AC01C801B70190
:104680000E94D13F0E94A93F21EE3EE245E652E45E
:104690000E9424410E9439403B014C017093240741
:1046A00060932307C801B701A80197010E94244124
:1046B0007B018C012B853C854D855E850E94453FA5
:1046C0000E94D7419B01AC01C601B5010E94D13FB8
:1046D0000E94A93F21EE3EE245E652E40E942441B9
:1046E0000E9439407093260760932507C801B701DF
:1046F0002F81388549855A850E94453F0E94D741C0
:104700009B01AC01C201B1010E94D13F0E94A93FAF
:1047100021EE3EE245E652E40E9424410E943940E7
:10472000AB017093280760932707209125073091EC
:104730002607C30177FE03C0909581959F4F8B3567
:10474000910544F437FF03C0309521953F4F2B3539
:10475000310534F04C545F4F50932807409327079E
:1047600088E898E06BEC72E00E94812C60916F0603
:104770007091700688E898E00E94FC2C88E898E028
:1047800062E171E00E94812C609171067091720665
:1047900088E898E00E94FC2C88E898E062E171E0EB
:1047A0000E94812C609173067091740688E898E0ED
:1047B0000E94FC2C88E898E062E171E00E94812C64
:1047C000609175067091760688E898E00E94FC2C4E
:1047D00088E898E062E171E00E94812C60917706A0
:1047E0007091780688E898E00E94FC2C88E898E0B0
:1047F00062E171E00E94812C6091790670917A06E5
:1048000088E898E00E94FC2C88E898E062E171E07A
:104810000E94812C609187067091880688E898E054
:104820000E94FC2C88E898E062E171E00E94812CF3
:104830006091890670918A0688E898E00E94FC2CB5
:1048400088E898E062E171E00E94812C60918B061B
:1048500070918C0688E898E00E94FC2C88E898E02B
:1048600062E171E00E94812C60912307709124071E
:1048700088E898E00E94FC2C88E898E062E171E00A
:104880000E94812C609125077091260788E898E0A6
:104890000E94FC2C88E898E062E171E00E94812C83
:1048A000609127077091280788E898E00E947F2C84
:1048B00080916E068F5F80936E0660960FB6F894B7
:1048C000DEBF0FBECDBFCF91DF911F910F91FF9043
:1048D000EF90DF90CF90BF90AF909F908F907F90A0
:1048E0006F905F904F903F902F90089580914A066F
:1048F000882309F08EDA80914B06882311F00E94FC
:10490000F11A80914E06882311F00E94DD138091E8
:104910005006882311F00E9420168091380690914D
:10492000390601969093390680933806885E934045
:1049300009F03FC0109239061092380680913A066D
:1049400090913B06A0913C06B0913D060196A11DB9
:10495000B11D80933A0690933B06A0933C06B0931A
:104960003D0688E898E062ED72E0CBD70E94673997
:10497000AB01BC0180913E0690913F06A09140069C
:10498000B0914106481B590B6A0B7B0B88E898E0F5
:10499000FFD788E898E062E171E0B3D740913A062A
:1049A00050913B0660913C0670913D0688E898E086
:1049B00072D70E94673960933E0670933F068093DA
:1049C00040069093410608950F931F930FE516E05C
:1049D000C8010E94B531C80140E050E068EC72E4C3
:1049E0000E94972F10927A061092790610927806FC
:1049F0001092770610927606109275061092950620
:104A000010929606109297061092980610929106B0
:104A100010929206109293061092940610928D06B0
:104A200010928E0610928F06109290061092280710
:104A3000109227071092260710922507109224073C
:104A4000109223071092660610926706109268066D
:104A50001092690610926E0610923E0710921C0783
:104A600010921B0710921A0710921907109218073C
:104A70001092170710922207109221071092200718
:104A800010921F0710921E0710921D071F910F9181
:104A9000089508C084E596E0C8D3682F85E596E0C0
:104AA0000E940E3984E596E0C2D3882399F709C0A5
:104AB00088E898E0A1D3682F84E596E040E050E0D4
:104AC000A6D388E898E09AD3882391F7089584E5DF
:104AD00096E040E056E960E070E092C30F931F93C8
:104AE00008E818E0C80140E056E960E070E083D3D0
:104AF000C80162EE72E084D6EADF66DF54D90E9414
:104B00002D040E94D31A0E9439050E941F050E949D
:104B10001D070E94ED011F910F910895DFDF0E9494
:104B2000673960933E0670933F06809340069093EA
:104B300041060895EFE1F4E02FB7F8948AE294E09B
:104B40009183808393838283958384838AE295E033
:104B5000978386831086128611862FBFEAE2F5E0DE
:104B60002FB7F89485E395E09183808393838283C4
:104B70009583848385E396E09783868310861286E7
:104B800011862FBF0E94E2030E94BF39C7DFAEDE4D
:104B900080913506882319F40E94840202C0109285
:104BA000350680913606882319F40E94490202C016
:104BB000109236060E94313FEACF813051F08130A9
:104BC00028F0823061F08330E9F41AC010926E0050
:104BD000089580916F008D7F80936F00089580917C
:104BE00070008D7F8093700081E08093B000809191
:104BF000B100887F84608093B1001092B300089563
:104C00001092710008951F93182F8091F30381175C
:104C100011F09FEF06C0E2E7F3E094918FEF8093ED
:104C2000F303892FCADF812F60E07CD31F910895A1
:104C30001F920F920FB60F920BB60F9211242F9363
:104C40003F934F935F936F937F938F939F93AF9314
:104C5000BF93EF93FF9380917A0890917B08A09186
:104C60007C08B0917D080097A105B10551F1E09154
:104C70007E08F0917F088081909180088927808349
:104C800080917A0890917B08A0917C08B0917D0872
:104C9000181619061A061B06BCF480917A08909122
:104CA0007B08A0917C08B0917D080197A109B1090A
:104CB00080937A0890937B08A0937C08B0937D083A
:104CC00003C08091F3039FDFFF91EF91BF91AF91FC
:104CD0009F918F917F916F915F914F913F912F9114
:104CE0000F900BBE0F900FBE0F901F9018952F9234
:104CF0003F925F926F927F928F929F92AF92BF92FC
:104D0000CF92DF92EF92FF920F931F93DF93CF9397
:104D100000D000D0CDB7DEB7A82F1B0129833A837E
:104D20004B835C838091F3038A1721F4E2E7F3E07D
:104D30005490AFC08F3F09F029C2A093F303E2E77C
:104D4000F3E054902FEF521609F420C281E0581678
:104D500071F185151CF0552051F09BC092E0591659
:104D600009F44BC0B3E05B1609F093C06CC014BCEF
:104D700015BC84B5826084BD85B5816085BD2A2F50
:104D800030E0F901EB59FE4FE491F0E0EE0FFF1F28
:104D9000EF5AFE4F8591949190937108809370081B
:104DA00027583E4FF90184918093720874C0109285
:104DB0008000109281008091810088608093810042
:104DC000809181008160809381002A2F30E0F90179
:104DD000EB59FE4FE491F0E0EE0FFF1FEF5AFE4F4C
:104DE00085919491909378088093770827583E4F47
:104DF000F9018491809379084EC01092B00010920E
:104E0000B1008091B00082608093B0008091B100C9
:104E100081608093B1002A2F30E0F901EB59FE4FF9
:104E2000E491F0E0EE0FFF1FEF5AFE4F8591949151
:104E300090937F0880937E0827583E4FF901849114
:104E40008093800828C01092900010929100809169
:104E5000910088608093910080919100816080939F
:104E600091002A2F30E0F901EB59FE4FE491F0E078
:104E7000EE0FFF1FEF5AFE4F859194919093860895
:104E80008093850827583E4FF901849180938708C5
:104E900002C057FC7BC18A2F61E04DD3552021F021
:104EA000F2E05F1609F0BDC031018824992460E06A
:104EB00079E08DE390E0A40193010E9452435901EF
:104EC0006A01860175010894E108F10801091109D8
:104ED0002FEFE216F1040105110509F008F498C05E
:104EE00060E271EA87E090E0A40193010E945243DE
:104EF00079018A010894E108F1080109110982E0A9
:104F00005816C1F49FEFE916F1040105110509F0E7
:104F100008F483C068E478EE81E090E0A401930196
:104F20000E94524379018A010894E108F1080109BD
:104F3000110983E0AFEFEA16F1040105110509F04C
:104F400008F467C064E274EF80E090E0A40193018C
:104F50000E94524379018A010894E108F10801098D
:104F60001109552011F483E01DC0B2E05B1611F069
:104F700084E018C0EFEFEE16F1040105110509F009
:104F800008F402C162E17AE780E090E0A4019301B5
:104F90000E94524379018A010894E108F10801094D
:104FA000110985E0FFEFEF16F1040105110589F104
:104FB00080F169E07DE380E090E0A40193010E942C
:104FC000524379018A010894E108F10801091109A5
:104FD000552011F086E001C084E02FEFE216F104C5
:104FE00001051105B1F0A8F0860175019AE016954A
:104FF0000795F794E7949A95D1F70894E108F1089A
:1050000001091109552011F087E008C085E003C0AF
:1050100081E0552019F485BD44C082E08093B10041
:1050200040C05101CC24DD2460E079E08DE390E0C4
:10503000A60195010E94524379018A010894E10872
:10504000F1080109110980E0E81680E0F80681E026
:10505000080780E0180710F491E010C064E274EFD4
:1050600080E090E0A60195010E94524379018A01F7
:105070000894E108F1080109110993E0A1E05A162A
:1050800039F480918100887F982B9093810009C02A
:10509000B3E05B1631F480919100887F982B909358
:1050A000910089819A81AB81BC810097A105B105EE
:1050B00029F48FEF9FEFAFEFBFEF13C0220C331C2B
:1050C000B10180E090E029813A814B815C810E94AE
:1050D0000C4328EE33E040E050E00E945243C90107
:1050E000DA01E1E05E16E1F0E5151CF0552049F02B
:1050F0004DC0F2E05F1631F123E0521609F046C0D0
:1051000031C0E7BC80936C0890936D08A0936E0843
:10511000B0936F0880916E00826080936E0036C0FD
:10512000F0928900E092880080937308909374084D
:10513000A0937508B093760880916F008260809389
:105140006F0024C0E092B30080937A0890937B08AC
:10515000A0937C08B0937D0880917000826080935A
:10516000700014C0F0929900E0929800809381083A
:1051700090938208A0938308B09384088091710073
:1051800082608093710002C084E048CF0F900F903E
:105190000F900F90CF91DF911F910F91FF90EF90A3
:1051A000DF90CF90BF90AF909F908F907F906F9047
:1051B0005F903F902F900895CF93DF93EC01E881AB
:1051C000F9816083888199810196998388832E81F2
:1051D0003F818217930721F48C819D819983888375
:1051E0002FB7F89489859A8501969A8789872FBF6A
:1051F000DF91CF910895089580E0089580E00895AB
:1052000008950895089508950895089508950895B6
:1052100008950895089508950895089508950895A6
:105220000895089508950895089580E0089580E010
:105230000895FC0160830895FC0162830895FC01D8
:1052400063830895FC0164830895FC0165830895D8
:10525000FC0166830895FC0167830895089508950D
:105260000895089580E00895089580E00895982FA6
:10527000883060F489B141E050E002C0440F551F0E
:105280009A95E2F790E0482359234AC0885082302B
:1052900028F42CB1892F90E0089738C0892F8A50C4
:1052A000883028F426B1892F90E00A972FC0892FE3
:1052B0008251823028F42CB1892F90E00C9726C0BF
:1052C000892F8451883028F423B1892F90E04497A6
:1052D0001DC0892F8C51883028F420B1892F90E08F
:1052E0004C9714C0892F8452823028F42CB1892F16
:1052F00090E080970BC0892F8652883018F040E0EC
:1053000050E00EC02FB1892F90E0869741E050E029
:1053100002C0440F551F8A95E2F730E04223532321
:10532000CA010895382F662309F086C0883060F4DA
:105330002BB181E090E002C0880F991F3A95E2F707
:10534000809582238BB908958850823030F44EB115
:10535000232F30E0285030404FC0832F8A508830B0
:1053600080F448B1232F30E02A50304081E090E0B3
:1053700002C0880F991F2A95E2F78095842388B987
:105380000895832F8251823030F44EB1232F30E0C4
:105390002C50304031C0832F8451883080F445B187
:1053A000232F30E02451304081E090E002C0880F8C
:1053B000991F2A95E2F78095842385B90895832F54
:1053C0008C51883080F442B1232F30E02C51304092
:1053D00081E090E002C0880F991F2A95E2F780953E
:1053E000842382B90895832F8452823080F44EB191
:1053F000232F30E02052304081E090E002C0880F3F
:10540000991F2A95E2F7809584238EB90895832FFA
:105410008652883008F08EC041B3232F30E02652E8
:10542000304081E090E002C0880F991F2A95E2F792
:105430008095842381BB0895883058F42BB181E096
:1054400090E002C0880F991F3A95E2F7282B2BB9FC
:1054500008958850823030F44EB1232F30E0285028
:1054600030404CC0832F8A50883078F448B1232FC5
:1054700030E02A50304081E090E002C0880F991F50
:105480002A95E2F7482B48B90895832F825182303C
:1054900030F44EB1232F30E02C5030402FC0832FFA
:1054A0008451883078F445B1232F30E024513040C6
:1054B00081E090E002C0880F991F2A95E2F7482BFF
:1054C00045B90895832F8C51883078F442B1232F49
:1054D00030E02C51304081E090E002C0880F991FED
:1054E0002A95E2F7482B42B90895832F84528230DF
:1054F00078F44EB1232F30E02052304081E090E02C
:1055000002C0880F991F2A95E2F7482B4EB90895DB
:10551000832F8652883070F441B3232F30E0265217
:10552000304081E090E002C0880F991F2A95E2F791
:10553000482B41BB0895382F662309F086C0883078
:1055400060F42AB181E090E002C0880F991F3A957B
:10555000E2F7809582238AB908958850823030F42A
:105560004DB1232F30E0285030404FC0832F8A5058
:10557000883080F447B1232F30E02A50304081E05A
:1055800090E002C0880F991F2A95E2F78095842346
:1055900087B90895832F8251823030F44DB1232F83
:1055A00030E02C50304031C0832F8451883080F45B
:1055B00044B1232F30E02451304081E090E002C01C
:1055C000880F991F2A95E2F78095842384B908955E
:1055D000832F8C51883080F441B1232F30E02C513F
:1055E000304081E090E002C0880F991F2A95E2F7D1
:1055F0008095842381B90895832F8452823080F46A
:105600004DB1232F30E02052304081E090E002C0C5
:10561000880F991F2A95E2F7809584238DB9089504
:10562000832F8652883008F08EC040B3232F30E09D
:105630002652304081E090E002C0880F991F2A95E1
:10564000E2F78095842380BB0895883058F42AB10E
:1056500081E090E002C0880F991F3A95E2F7282B6D
:105660002AB908958850823030F44DB1232F30E0AC
:10567000285030404CC0832F8A50883078F447B18E
:10568000232F30E02A50304081E090E002C0880FA4
:10569000991F2A95E2F7482B47B90895832F825125
:1056A000823030F44DB1232F30E02C5030402FC0E9
:1056B000832F8451883078F444B1232F30E0245173
:1056C000304081E090E002C0880F991F2A95E2F7F0
:1056D000482B44B90895832F8C51883078F441B118
:1056E000232F30E02C51304081E090E002C0880F41
:1056F000991F2A95E2F7482B41B90895832F8452C8
:10570000823078F44DB1232F30E02052304081E0D8
:1057100090E002C0880F991F2A95E2F7482B4DB9F7
:105720000895832F8652883070F440B3232F30E0E1
:105730002652304081E090E002C0880F991F2A95E0
:10574000E2F7482B40BB089522E020930D04AEE021
:10575000B4E0FC0188E001900D928150E1F70C94D7
:105760004902FC0181E080930D041182128263835F
:10577000AEE0B4E088E001900D928150E1F70C9426
:105780004902FC0181E080930D04440F420F660F33
:10579000660F460F4083AEE0B4E088E001900D92C2
:1057A0008150E1F70C944902FC0181E080930D04E3
:1057B000618342832383AEE0B4E088E001900D92E0
:1057C0008150E1F70C94490220E0EECF0F931F9334
:1057D0000AE215E0C801F0DCC8016DE0EDDCC801AB
:1057E0006AE0EADC0E9484021F910F91089540E074
:1057F000EDCF8AE295E0E0DC0C94840240E0F9CF42
:105800000F931F93CF93DF938B01C0E0D0E008C0CC
:10581000F801EC0FFD1F8AE295E06081CDDC219656
:10582000F80101900020E9F73197E01BF10BCE174A
:10583000DF0770F38AE295E06DE0BEDC8AE295E076
:105840006AE0BADC0E948402DF91CF911F910F9130
:1058500008950F931F938C01CB01BA010E943E4023
:10586000A8012AE030E00E94CB43BC01C801C8DF98
:105870001F910F9108950F931F938C01CB01BA01D3
:10588000A8012AE030E00E94CB43BC01C801B8DF88
:105890001F910F91089520E0EECF0F931F938C017D
:1058A000CB01BA01A8012AE030E00E949943BC0173
:1058B000C801A6DF1F910F91089520E0EECF0F934E
:1058C0001F938C01CB01B8014AE050E00E947A435B
:1058D000BC01C80195DF1F910F91089540E0EFCF03
:1058E0000F931F938C01CB01B8014AE050E00E9456
:1058F0007A43BC01C80184DF1F910F91089540E0F5
:10590000EFCF0F931F93CF93DF938B01C0E0D0E0D5
:1059100008C0F801EC0FFD1F8AE295E060814CDCC5
:105920002196F80101900020E9F73197E01BF10B77
:10593000CE17DF0770F30E948402DF91CF911F9191
:105940000F9108950F931F938C01CB01BA010E9410
:105950003E40A8012AE030E00E94CB43BC01C801D0
:10596000D0DF1F910F91089520E0ECCF20E0EACF27
:105970000F931F938C01CB01BA01A8012AE030E0FC
:105980000E94CB43BC01C801BCDF1F910F91089559
:1059900020E0EECF0F931F938C01CB01BA01A80139
:1059A0002AE030E00E949943BC01C801AADF1F91A0
:1059B0000F91089520E0EECF0F931F938C01CB0140
:1059C000B8014AE050E00E947A43BC01C80199DF67
:1059D0001F910F91089540E0EFCF0F931F938C011B
:1059E000CB01B8014AE050E00E947A43BC01C801F3
:1059F00088DF1F910F91089540E0EFCF089508953B
:105A0000EF92FF920F931F93F42EE22E08EB18E013
:105A1000C80125DCC8016F2D24DCC8016E2D21DCF6
:105A2000C8011EDC1F910F91FF90EF9008956F3F0A
:105A300071051CF02FEF30E005C09B0177FF02C01D
:105A400020E030E063E570E049E2DACF6F3F7105B6
:105A50001CF02FEF30E005C09B0177FF02C020E073
:105A600030E063E570E048E2CBCF6F3F71051CF09A
:105A70002FEF30E005C09B0177FF02C020E030E04F
:105A800063E570E046E2BCCF6F3F71051CF02FEF7D
:105A900030E005C09B0177FF02C020E030E063E505
:105AA00070E045E2ADCF6F3F71051CF02FEF30E0A5
:105AB00005C09B0177FF02C020E030E063E570E0A5
:105AC00044E29ECF6F3F71051CF02FEF30E005C020
:105AD0009B0177FF02C020E030E063E570E043E225
