:1000000034C1000050C100004EC100004CC10000CE
:100010004AC1000048C1000046C1000044C10000C0
:1000200042C1000040C1000065C500003CC10000A5
:100030003AC1000038C1000036C1000034C10000E0
:1000400032C1000030C100002EC100002CC10000F0
:100050002AC1000028C1000026C1000024C1000000
:1000600022C1000020C100001EC100001CC1000010
:100070001AC1000018C1000016C1000014C1000020
:1000800012C1000010C100000EC100000CC1000030
:100090000AC1000008C1000005010902A101850193
:1000A0000901A1000509190129031500250195037E
:1000B000750181029501750581010501093009313C
:1000C000093815F6250A35F6450A9503750881069F
:1000D000C0C005010906A1018502050719E029E74D
:1000E00015002501750195088102950175088101AA
:1000F00005081901290595057501910295017503FA
:1001000091011500256505071900296595067508F3
:100110008100C005010904A10185030901A10009AD
:10012000300931159C256435FF450195027508811C
:1001300002C0050919012902150025017501950262
:100140008102750695018101C012011001000000B5
:1001500008EB034E2001000102DC010902660003E6
:100160000102C0FA080B00020202010209040000A9
:1001700001020201030524001001042402060524E3
:10018000060001070581030800FF09040100020AB7
:10019000000003070503021000010705820210009A
:1001A00001090402000203010104092111010001F7
:1001B00022B10007058403090001070505030900B2
:1001C00001040309041A034A006500660066002062
:1001D0000052006F00770062006500720067000047
:1001E000002C034B006500790067006C006F0076FF
:1001F000006500200049006E00700075007400204A
:100200000044006500760069006300650000002A74
:10021000034B006500790067006C006F0076006595
:10022000002000530065007200690061006C00202E
:100230000050006F007200740000002C034B00653A
:1002400000790067006C006F0076006500200049AF
:10025000006E007000750074002000440065007698
:100260000069006300650000000011241FBECFEF8D
:10027000D0E2DEBFCDBF11E0A0E0B1E0EEE7F3E1F8
:1002800000E00BBF02C007900D92AC30B107D9F768
:1002900012E0ACE0B1E001C01D92A534B107E1F776
:1002A000C9D10C94BD09ACCECF93DF93EC01E881AA
:1002B000F9816083888199810196998388832E8151
:1002C0003F818217930721F48C819D8199838883D4
:1002D0002FB7F89489859A8501969A8789872FBFC9
:1002E000DF91CF91089581B38F71806C81BB0895A8
:1002F00081B38F71806681BB08950F931F938091A6
:100300003C02843081F585E08093E9008091E8002B
:1003100082FF10C08091E80085FF07C086E292E06E
:1003200069E070E040E050E034D78091E8008B77DE
:100330008093E80084E08093E9008091E80080FFEA
:1003400012C00FE212E0C80169E070E040E050E046
:1003500072D78AE0F80111928A95E9F78091E80056
:100360008E778093E8001F910F910895EF92FF928E
:100370001F93CF93DF9380913C02843009F079C0C2
:100380008FB7F8942091A4013091A5018FBF21155A
:10039000310509F449C08091050190910601A091B1
:1003A0000701B09108010097A105B10509F43CC00F
:1003B0005E9A82E08093E900A901ABE9B1E0B9015E
:1003C0006F507040ED01EA81FB813191FB83EA833C
:1003D0008E819F81E817F90721F48C819D819B8391
:1003E0008A832FB7F89489859A8501979A87898798
:1003F0002FBF3093F1004617570719F04150504076
:1004000009F72091F2003091F3008091E8008E7797
:100410008093E8002031310531F4DBD28091E8008F
:100420008E778093E8005E9883E08093E900809166
:10043000E80082FF1EC0E090F200F090F300C0E000
:10044000D0E00FC01091F10080E191E0612F2CDF2E
:1004500080910401882321F08BE991E0612F24DF52
:100460002196CE15DF0570F38091E8008B7780939D
:10047000E800DF91CF911F91FF90EF9008950F93C7
:100480001F9380913E02803209F44AC0813230F4D9
:10049000813051F0893009F05BC01CC0813271F1AC
:1004A000823209F055C04AC080913D02813A09F07C
:1004B0004FC08091E800877F8093E8000FE212E050
:1004C000C80169E070E065D58AE0F80111928A956B
:1004D000E9F722C080913D028132D1F58091E80098
:1004E000877F8093E80086E292E069E070E0AFD514
:1004F0008091E8008E778093E8002AC080913D02C9
:10050000813A31F58091E800877F8093E80085E0AB
:1005100091E067E070E03DD58091E8008B77EBCF0C
:1005200080913D028132A1F48091E800877F809321
:10053000E80085E091E067E070E0D9CF80913D026E
:10054000813231F48091E800877F8093E80020D2E7
:100550001F910F910895BF92CF92DF92EF92FF9279
:100560000F931F9381E061EC42E0DDD1082F82E020
:1005700061E842E1D8D1C82E83E060E842E1D3D1FE
:10058000E82E1092050110920601109207011092B8
:10059000080184E061EC42E1C6D1B82E85E060EC50
:1005A00042E1C1D1682F10E0DD240C211D21017032
:1005B0001070FF240E211F2140E050E0012B11F0AC
:1005C00041E050E08B2D90E04823592320E030E0BB
:1005D000452B11F021E030E0862F90E028233923CD
:1005E000232B11F490E201C090E481B38F71982B1A
:1005F00091BB1F910F91FF90EF90DF90CF90BF9034
:10060000089584B7877F84BF88E10FB6F8948093FC
:100610006000109260000FBEE1E6F0E080E88083A9
:1006200082E08083569A80B3806E80BB81B38F71E5
:1006300081BB4AC27F928F929F92AF92BF92CF921C
:10064000DF92EF92FF920F931F93E0E1F1E02FB75B
:10065000F8948BE191E091838083938382839583E7
:1006600084838BE991E09783868380E88087128674
:1006700011862FBFEBE9F1E02FB7F89486EA91E0FD
:1006800091838083938382839583848386E292E03F
:100690009783868380E88087128611862FBFB1DF1B
:1006A00081B38F71806681BB789443E0842E992456
:1006B000939435E0A32E2BEFB22E92E0C92E8AE060
:1006C000D82E77247A94E0900C01F0900D010091DF
:1006D0000E0110910F01C801B70120E137E240E09F
:1006E00050E00ED69B01AC01283E83E0380780E045
:1006F000480780E0580709F039C08BE991E064E5CC
:10070000D3DD8BE991E069E6CFDD8BE991E063E62B
:10071000CBDD8BE991E06BE6C7DD8BE991E060E230
:10072000C3DD60910C0170910D0180910E019091DB
:100730000F01685E73408040904020E137E240E066
:1007400050E0DED5CA01B9012AE030E040E050E0D7
:10075000D7D5605D8BE991E0A7DD8BE991E06AE098
:10076000A3DD8BE991E06DE09FDD74C0283B9BE049
:10077000390790E0490790E0590759F490922F0209
:1007800010923002D0923102D09232027092330233
:1007900059C02838A3E13A07A0E04A07A0E05A0769
:1007A00001F5C0922F02109230021092310288E1BE
:1007B0009CEFAFEFBFEFE80EF91E0A1F1B1FC80129
:1007C000B70120E137E240E050E09AD5CA01B90113
:1007D0002AE130E040E050E093D56C5F6093320254
:1007E0002FC0203797E1390790E0490790E059077B
:1007F00019F4C0922F021EC02835ABE13A07A0E0E1
:100800004A07A0E05A0779F480922F0290923002B2
:1008100010923102A0923202A0923302B0923402BE
:10082000B092350213C020543F414040504091F4F3
:1008300080922F02109230021092310210923202F6
:100840001092330210923402109235021092360246
:10085000109237028BDD51DD40D580910C019091D3
:100860000D01A0910E01B0910F010196A11DB11DC6
:1008700080930C0190930D01A0930E01B0930F0192
:1008800022CFDA019330C9F0943030F4913059F02E
:10089000923009F040C00CC0913209F432C092325B
:1008A00009F039C033C0E9E4F1E022E130E037C0BB
:1008B000EBE5F1E026E630E032C08230B1F0833083
:1008C00028F4882341F0813031F509C0833089F064
:1008D000843009F512C0E1ECF1E0849103C0E5EC4D
:1008E000F1E08491282F30E01AC0E1EEF1E084912C
:1008F000F9CFEFE0F2E08491F5CFEBE3F2E0849101
:10090000F1CFEAEAF1E029E030E009C0E8E9F0E0FF
:1009100021EB30E004C0E0E0F0E020E030E0ED93D7
:10092000FC93C9010895382F282F2CC02093E9008B
:10093000231721F4762F942F50E006C07091EC001D
:100940009091ED005091F00091FF1BC08091EB0061
:100950008E7F8093EB008091ED0082708093ED009C
:100960008091EB0081608093EB007093EC0090939A
:10097000ED005093F0008091EE0087FD02C080E012
:1009800008952F5F273090F23093E90081E00895B9
:1009900080913D0288239CF404C080913C0288230E
:1009A000B9F08091E80082FFF8CF8091E8008B7762
:1009B0008093E800089580913C02882349F080915B
:1009C000E80080FFF8CF8091E8008E778093E80000
:1009D00008954091E4005091E50024E68091EC00F8
:1009E00080FF05C08091E80080FF05C022C0809193
:1009F000E80082FD1EC080913C02882311F482E051
:100A00000895853011F483E008958091EB0085FF0F
:100A100002C081E008958091E4009091E500841780
:100A20009507E1F2222311F484E008952150AC01EE
:100A3000D5CF80E00895EF92FF920F931F934DD092
:100A400054D008ED10E0F8018081982F9F779083B3
:100A50008068808380818F7D8083E7EDF0E08081F6
:100A60008068808319BC10923C0210923A02109266
:100A700039021092380280EEE82EF12CF7018081C5
:100A80008B7F8083F80180818160808380E060E0DB
:100A900042E049DFE1EEF0E080818E7F8083E2EE8C
:100AA000F0E0808181608083808188608083F701AD
:100AB00080818E7F8083F8018081806180831F9197
:100AC0000F91FF90EF900895E7EDF0E08081816055
:100AD000808381E080933B02AECFE8EDF0E080813F
:100AE0008C7F80831092E20008951092DA001092B9
:100AF000E10008951F920F920FB60F920BB60F925E
:100B000011242F933F934F935F936F937F938F9312
:100B10009F93AF93BF93EF93FF938091E10082FF88
:100B20000AC08091E20082FF06C08091E1008B7FC5
:100B30008093E1002DD28091DA0080FF1EC0809169
:100B4000D80080FF1AC08091DA008E7F8093DA008F
:100B50008091D90080FF0DC084E189BD89B5826094
:100B600089BD09B400FEFDCF81E080933C02BBDB70
:100B700004C019BC10923C02BBDB8091E10080FFF5
:100B800018C08091E20080FF14C08091E2008E7F47
:100B90008093E2008091E20080618093E200809186
:100BA000D80080628093D80019BC85E080933C0215
:100BB000EFD18091E10084FF2EC08091E20084FF9C
:100BC0002AC084E189BD89B5826089BD09B400FE6F
:100BD000FDCF8091D8008F7D8093D8008091E10077
:100BE0008F7E8093E1008091E2008F7E8093E2000F
:100BF0008091E20081608093E20080913A02882334
:100C000031F48091E30087FD02C081E001C084E0FF
:100C100080933C02BDD18091E10083FF22C080918E
:100C2000E20083FF1EC08091E100877F8093E10096
:100C300082E080933C0210923A028091E1008E7F24
:100C40008093E1008091E2008E7F8093E2008091AA
:100C5000E20080618093E20080E060E042E063DED9
:100C600097D1FF91EF91BF91AF919F918F917F911C
:100C70006F915F914F913F912F910F900BBE0F900D
:100C80000FBE0F901F9018950F931F93DF93CF9374
:100C9000CDB7DEB7AC970FB6F894DEBF0FBECDBFB1
:100CA0008091F10080933D028091F10080933E029B
:100CB0008091F1009091F100EFE3F2E080933F0228
:100CC000909340028091F1009091F1008093410255
:100CD00093838091F1009091F1008093430295837A
:100CE000CEDB8091E80083FF3AC180913D023091D4
:100CF0003E02353009F487C0363040F43130C9F156
:100D0000313070F0333009F02AC133C0383009F483
:100D1000F8C0393009F407C1363009F020C199C054
:100D2000803821F0823809F01AC108C09091380249
:100D300080913902882399F0926011C0809141021C
:100D400087708093E9008091EB0090E025E0969514
:100D500087952A95E1F7982F91701092E90080917C
:100D6000E800877F8093E8009093F1001092F100F3
:100D7000D3C0882319F0823009F0F1C090E08F7160
:100D80009070009721F0029709F0E9C00CC08091A3
:100D90003F02813009F0E3C010923902333069F527
:100DA000809339022AC080913F02882331F5209137
:100DB0004102277009F4D3C02093E9008091EB0031
:100DC00080FF1BC0333021F48091EB00806213C0A0
:100DD0008091EB0080618093EB0081E090E002C0A5
:100DE000880F991F2A95E2F78093EA001092EA0093
:100DF0008091EB0088608093EB001092E900809175
:100E0000E800877F8CC0882309F0A9C010913F02B9
:100E10001F770FB7F8948091E800877F8093E800F0
:100E2000B7DD8091E80080FFFCCF8091E3008078FF
:100E3000812B8093E3008091E30080688093E3003E
:100E4000112311F482E001C083E080933C020FBFC4
:100E500086C08058823008F082C080913F02909115
:100E6000400223E08C3D920709F033C083E08C837D
:100E70008AE28B837FB7F894DE0115966EE040E03E
:100E800050E011E2E62FF0E010935700849140FF0C
:100E900003C082958F706F5F8F70282F30E08A308B
:100EA00018F0C901C79602C0C901C0968D939D93E1
:100EB0004F5F5F4F4431510529F77FBF8091E800B4
:100EC000877F8093E800CE0103966AE270E061D0EC
:100ED00012C060914102AE014F5F5F4FD2DCBC0196
:100EE000009709F43CC08091E800877F8093E80078
:100EF00089819A81EDD08091E8008B778093E8001A
:100F00002EC0803861F58091E800877F8093E800EB
:100F100080913A028093F1008091E8008E7780936F
:100F2000E80036DD1CC08823D1F490913F02923056
:100F3000B0F48091E800877F8093E80090933A02B4
:100F400027DD80913A02882331F48091E30087FD08
:100F500002C081E001C084E080933C02FCDA809111
:100F6000E80083FF0AC08091EB0080628093EB0071
:100F70008091E800877F8093E800AC960FB6F894E4
:100F8000DEBF0FBECDBFCF91DF911F910F910895AE
:100F900008959C014091430250914402461757071F
:100FA00018F4F90190E03DC06115710511F0AB0135
:100FB000F8CF8091E8008E778093E80040E050E021
:100FC000F0CF80913C028823F1F18530F1F18091DE
:100FD000E80083FF02C081E008958091E80082FD6F
:100FE0002CC08091E80080FF1CC02091F20030915D
:100FF000F30007C081918093F100415050402F5F72
:101000003F4F4115510519F02830310598F390E014
:101010002830310509F491E08091E8008E778093C3
:10102000E8004115510569F6992359F606C08091EB
:101030003C02882341F0853041F08091E80082FF36
:10104000F6CF80E0089582E0089583E008959C0142
:101050006115710529F48091E8008B778093E80091
:10106000F90122C080913C02882371F1853071F131
:101070008091E80083FF02C081E008958091E8003C
:1010800082FFF0CF06C08091F100819361507040E3
:1010900031F08091F2009091F300892BA1F78091BB
:1010A000E8008B778093E80061157105D9F606C0DA
:1010B00080913C02882341F0853041F08091E80026
:1010C00080FFF6CF80E0089582E0089583E00895E0
:1010D0009C0140914302509144024617570718F46F
:1010E000F90190E040C06115710511F0AB01F8CF36
:1010F0008091E8008E778093E80040E050E0F0CFE8
:1011000080913C02882309F440C0853009F43FC037
:101110008091E80083FF02C081E008958091E8009B
:1011200082FD2DC08091E80080FF1DC02091F2005B
:101130003091F30008C084918093F10031964150C2
:1011400050402F5F3F4F4115510519F028303105B0
:1011500090F390E02830310509F491E08091E800A7
:101160008E778093E8004115510551F6992341F699
:1011700006C080913C02882341F0853041F0809187
:10118000E80082FFF6CF80E0089582E0089583E0D2
:101190000895BF92CF92DF92EF92FF920F931F9329
:1011A000CF93DF93182F092F7B016A0112DCB82E31
:1011B0008823B1F5812F902F9C01E901C114D1043E
:1011C00039F0F60180819181E81AF90AC80FD91F18
:1011D00000E010E022C08091E80085FD16C08091FB
:1011E000E8008B778093E800C114D10449F0F60140
:1011F00080819181800F911F9183808385E011C050
:101200006CD0E7DB882349F00CC08091F100899312
:101210000894E108F1080F5F1F4FE114F104D9F6BB
:101220008B2DDF91CF911F910F91FF90EF90DF9069
:10123000CF90BF900895BF92CF92DF92EF92FF922E
:101240000F931F93CF93DF93182F092F7B016A0110
:10125000C0DBB82E8823B1F5812F902F9C01E901C6
:10126000C114D10439F0F60180819181E81AF90A9C
:10127000C80FD91F00E010E022C08091E80085FD72
:1012800016C08091E8008E778093E800C114D104E5
:1012900049F0F60180819181800F911F91838083B5
:1012A00085E011C01AD095DB882349F00CC08991E4
:1012B0008093F1000894E108F1080F5F1F4FE114DB
:1012C000F104D9F68B2DDF91CF911F910F91FF90F3
:1012D000EF90DF90CF90BF9008951F9380913C02D4
:1012E000882361F01091E9001092E9008091E800F4
:1012F00083FF01C0C9DC17701093E9001F910895A6
:1013000097FB092E05260ED057FD04D014D00AD025
:10131000001C38F450954095309521953F4F4F4F24
:101320005F4F0895F6F790958095709561957F4F82
:101330008F4F9F4F0895A1E21A2EAA1BBB1BFD01E0
:101340000DC0AA1FBB1FEE1FFF1FA217B307E407A4
:10135000F50720F0A21BB30BE40BF50B661F771FFC
:10136000881F991F1A9469F76095709580959095DC
:0E1370009B01AC01BD01CF010895F894FFCFA1
:0C137E0001000000010000000000000859
:00000001FF
