:100000008CC10000B4C10000B2C10000B0C100004A
:10001000AEC10000ACC10000AAC10000A8C1000030
:10002000A6C10000A4C100000C942F38A0C100009C
:100030009EC100009CC100009AC1000098C1000050
:1000400096C1000094C1000092C1000090C1000060
:100050008EC100008CC100008AC100000C940436DF
:1000600086C1000084C1000082C1000080C1000080
:100070007EC100007CC100007AC1000078C1000090
:1000800076C1000074C1000072C1000070C10000A0
:100090006EC100006CC10000084AD73B3BCE016E28
:1000A00084BCBFFDC12F3D6C74319ABD56833DDACF
:1000B0003D00C77F11BED9E4BB4C3E916BAAAABEDE
:1000C000000000803F07634236B79BD8A71A396803
:1000D0005618AEBAAB558C1D3CB7CC5763BD6DED11
:1000E000FD753EF6177231BF000000803F0800002A
:1000F00000BE922449123EABAAAA2ABECDCCCC4C5B
:100100003E00000080BEABAAAAAA3E00000000BFCD
:10011000000000803F0000000000084178D3BB438E
:1001200087D1133D190E3CC3BD4282AD2B3E68EC16
:100130008276BED98FE1A93E4C80EFFFBE01C4FF9D
:100140007F3F000000000005010902A101850109AF
:1001500001A1000509190129031500250195037561
:1001600001810295017505810105010930093109F7
:100170003815F6250A35F6450A950375088106C037
:10018000C005010906A1018502050719E029E71547
:100190000025017501950881029501750881010509
:1001A00008190129059505750191029501750391BD
:1001B0000115002565050719002965950675088153
:1001C00000C005010904A10185030901A10009304E
:1001D0000931159C256435FF45019502750881029A
:1001E000C005091901290215002501750195028133
:1001F00002750695018101C012011001000000087E
:10020000EB034E2001000102DC010902660003013C
:1002100002C0FA080B0002020201020904000001F8
:10022000020201030524001001042402060524062D
:100230000001070581030800FF09040100020A000C
:1002400000030705030210000107058202100001E8
:100250000904020002030101040921110100012225
:10026000B100070584030900010705050309000122
:10027000040309041A034A006500660066002000B2
:1002800052006F0077006200650072006700000096
:100290002C034B006500790067006C006F0076004E
:1002A0006500200049006E00700075007400200099
:1002B00044006500760069006300650000002A03C1
:1002C0004B006500790067006C006F0076006500E8
:1002D0002000530065007200690061006C0020007E
:1002E00050006F007200740000002C034B0065008A
:1002F000790067006C006F007600650020004900FF
:100300006E007000750074002000440065007600E7
:100310006900630065000000E90111241FBECFEFF2
:10032000D0E2DEBFCDBF14E0A0E0B1E0EAEDF1E83D
:1003300000E00BBF02C007900D92AC36B107D9F7B1
:1003400019E0ACE6B4E001C01D92A231B107E1F7BB
:1003500013E0CAE1D3E004C02297FE010E9463408B
:10036000C831D107C9F70E94E6260C94EB4048CE6D
:10037000AC01E091B308F091B408E617F70714F464
:1003800020E00DC020E0E61BF70BEE0FFF1FE1564B
:10039000F74F808191818417950709F421E0822F1E
:1003A000089581B38F71806C81BB089581B38F7183
:1003B000806681BB08950895282F81FD02C090E4D6
:1003C00001C090EC22FD906481B38F71982B91BB9A
:1003D000089583ED96E00E94672B83EB97E00C94E1
:1003E000C9300F931F9380910909843091F585E0FE
:1003F0008093E9008091E80082FF11C08091E800BD
:1004000085FF08C08EE794E069E070E040E050E0CE
:100410000E94F9398091E8008B778093E80084E0AE
:100420008093E9008091E80080FF13C005E714E0A5
:10043000C80169E070E040E050E00E944B3A89E07A
:10044000F80111928A95E9F78091E8008E77809300
:10045000E8001F910F910895CF93DF9380910909D0
:10046000843009F089C08FB7F89420919B053091B2
:100470009C058FBF2115310509F448C08091CE023B
:100480009091CF02A091D002B091D1020097A10526
:10049000B10509F43BC082E08093E900A901A2E91B
:1004A000B5E0B9016F507040ED01EA81FB813191F7
:1004B000FB83EA838E819F81E817F90721F48C8101
:1004C0009D819B838A832FB7F89489859A850197AC
:1004D0009A8789872FBF3093F1004617570719F085
:1004E0004150504009F72091F2003091F300809183
:1004F000E8008E778093E8002031310539F40E94BE
:100500009E378091E8008E778093E80083E08093A7
:10051000E9008091E80082FF2FC06091F2007091A5
:10052000F30040E0A7E8B4E01DC08091F100ED01C8
:10053000E881F981808388819981019699838883F4
:100540002E813F818217930721F48C819D819983AD
:1005500088832FB7F89489859A8501969A87898729
:100560002FBF4F5F842F90E086179707F0F280919E
:10057000E8008B778093E800DF91CF9108950F9387
:100580001F9380910B09803209F44DC0813230F401
:10059000813051F0893009F05FC01DC0813281F196
:1005A000823209F059C04DC080910A09813A09F0A0
:1005B00053C08091E800877F8093E80005E714E04E
:1005C000C80169E070E00E94F93889E0F8011192F1
:1005D0008A95E9F724C080910A098132E9F5809172
:1005E000E800877F8093E8008EE794E069E070E0A0
:1005F0000E9457398091E8008E778093E8002CC0E4
:1006000080910A09813A41F58091E800877F8093C3
:10061000E8008EEC92E067E070E00E94F93880918B
:10062000E8008B77EACF80910A098132A9F48091A2
:10063000E800877F8093E8008EEC92E067E070E04E
:10064000D7CF80910A09813239F48091E800877F01
:100650008093E8000E947D371F910F910895BF920B
:10066000CF92DF92EF92FF920F931F9381E061ECA4
:1006700042E00E944837082F82E061E842E10E9490
:100680004837C82E83E060E842E10E944837E82EF0
:100690001092CE021092CF021092D0021092D1028C
:1006A00084E061EC42E10E944837B82E85E060ECBE
:1006B00042E10E944837682F10E0DD240C211D2103
:1006C00001701070FF240E211F2140E050E0012B2B
:1006D00011F041E050E08B2D90E04823592320E0B9
:1006E00030E0452B11F021E030E0862F90E0282308
:1006F0003923232B11F490E201C090E481B38F7170
:10070000982B91BB1F910F91FF90EF90DF90CF90AE
:10071000BF90089584B7877F84BF88E10FB6F894AF
:1007200080936000109260000FBEE1E6F0E080E888
:10073000808382E08083569A80B3806E80BB81B3D1
:100740008F7181BB0C9419380F931F93982F162F1C
:10075000042F8F3F21F08BE2692F0E94F8271F3F63
:1007600021F08CE2612F0E94F8270F3F21F08DE2EB
:10077000602F0E94F8271F910F910895CF93DF9368
:10078000EC0184ED98E060E071E00E94E92A84EDDC
:1007900098E0BE010E94E72A209719F41092D10632
:1007A00004C0219711F41092D206DF91CF910895E1
:1007B000CF93DF93EC0184ED98E063E171E00E9458
:1007C000E92A84ED98E0BE010E94E72A209721F4EF
:1007D00082E08093D10605C0219719F482E08093CE
:1007E000D206DF91CF910895CF92DF92EF92FF92E0
:1007F0000F931F938C016B0194EDE92E98E0F92E75
:10080000C70165E271E00E94E92AC701B8010E94B0
:10081000642BC70167E371E00E94E92AC701B601B2
:100820000E94E72A1F910F91FF90EF90DF90CF90E9
:1008300008950F931F93CF93DF93EC018B0184ED09
:1008400098E069E371E00E94E92A84ED98E0BE0136
:100850000E94642B84ED98E067E371E00E94E92A2E
:1008600084ED98E0B8010E94E72AC230D10509F171
:10087000C330D10534F4209769F0C130D10531F58A
:1008800018C0C430D105A9F0C430D1055CF025975B
:10089000E9F414C010928D0810928C088FEF6FEF5E
:1008A00040E013C083E090E090938D0880938C0823
:1008B00009C0D0938D08C0938C0804C010928D0895
:1008C00010928C088FEF6FEF41E03EDFDF91CF9108
:1008D0001F910F9108950F931F93CF93DF93EC0116
:1008E0008B0184ED98E06BE471E00E94E92A84EDCD
:1008F00098E0BE010E94642B84ED98E067E371E00C
:100900000E94E92A84ED98E0B8010E94E72AC230EB
:10091000D10501F1C330D10534F4209769F0C1301D
:10092000D10529F517C0C430D105A1F0C430D105D7
:1009300054F02597E1F413C010928B0810928A08A6
:100940008FEF60E012C083E090E090938B0880937B
:100950008A0809C0D0938B08C0938A0804C01092FB
:100960008B0810928A088FEF61E04FEFEDDEDF9188
:10097000CF911F910F9108950F931F93CF93DF9302
:10098000EC018B0184ED98E06EE571E00E94E92AAC
:1009900084ED98E0BE010E94642B84ED98E067E34B
:1009A00071E00E94E92A84ED98E0B8010E94E72AEC
:1009B000C230D105F9F0C330D10534F4209769F085
:1009C000C130D10521F516C0C430D10599F0C4302D
:1009D000D1054CF02597D9F412C0109289081092D5
:1009E000880880E011C083E090E0909389088093AC
:1009F000880809C0D0938908C093880804C0109261
:100A000089081092880881E06FEF4FEF9DDEDF913B
:100A1000CF911F910F910895CF92DF92EF92FF92A5
:100A20000F931F93CF93DF936C01EB017A0184ED59
:100A300098E06FE671E00E94E92A84ED98E0B60143
:100A40000E94642B84ED98E067E371E00E94E92A3C
:100A500084ED98E0BE010E94642B84ED98E067E38A
:100A600071E00E94E92A84ED98E0B7010E94E72A2C
:100A7000209721F48AE20E940B2A22C0C430D105BB
:100A800019F404E610E007C0239719F409E110E017
:100A900002C008EE13E0C0E0D0E00FC01C161D0637
:100AA00034F460E570E080E090E00E948C368AE2E9
:100AB000B601A8010E940A2A2196CE15DF0574F31B
:100AC000DF91CF911F910F91FF90EF90DF90CF902A
:100AD0000895CF93DF93EC0184ED98E06EE771E029
:100AE0000E94E92A84ED98E0BE010E94E72A609105
:100AF0008F0870919008CE01862397231816190647
:100B000074F46C1B7D0B7093900860938F088CEFCE
:100B100098E00E947F278CEF98E00E940C2ADF91DA
:100B2000CF910895049719F488E090E0D2CF08950A
:100B3000EF92FF920F931F937C0104ED18E0C80120
:100B400063E971E00E94E92AC801B7010E94E72A1F
:100B500060918F08709190086E297F29709390089A
:100B600060938F080CEF18E0C8010E947F27C8012E
:100B70000E940C2A1F910F91FF90EF9008958230F0
:100B8000910571F18330910534F4009759F0019784
:100B900009F05FC016C083309105B1F1049709F0E8
:100BA00058C048C080ED97E063E070E041E050E05D
:100BB00033DF80E090E060E070E0DEDE85E090E032
:100BC00031C080ED97E063E070E042E050E024DF68
:100BD00080E090E060E070E0CFDE80E090E00EC06A
:100BE00080ED97E063E070E043E050E015DF80E0E7
:100BF00090E060E070E0C0DE85E090E060E070E0F2
:100C00006ADE85E090E013C080ED97E063E070E07D
:100C100044E050E001DF85E090E060E070E0ACDEB1
:100C200080E090E060E070E056DE80E090E060E020
:100C300070E0FFCD80E496E064E070E041E050E0D9
:100C4000EBDE83E090E060E070E045DE88E090E07D
:100C50006FCF089584ED98E06AEA71E00E94682AF7
:100C6000E091B308F091B4081E161F0664F43197A2
:100C7000F093B408E093B308EE0FFF1FE156F74F6F
:100C8000808191814FDF8091B3089091B408892BC6
:100C900051F41092A00810929F0881E090E0909388
:100CA000B4088093B308E091B308F091B408EE0F54
:100CB000FF1FE356F74F8081918161CFCF93DF9380
:100CC000EC0184ED98E06BEB71E00E94E92A84ED81
:100CD00098E0BE010E94E72A8091B3089091B40881
:100CE0008A30910574F4FC01EE0FFF1FE156F74FB7
:100CF000D183C08301969093B4088093B308CE014A
:100D00003EDFDF91CF9108950F931F93CF93DF9331
:100D10008C0184ED98E06EEC71E00E94E92A84ED8C
:100D200098E0B8010E94E72A2091B3083091B408F6
:100D3000EFE9F8E0C0E0D0E001C02196C217D30788
:100D400034F48191919180179107B9F713C0C801CC
:100D5000B5DF1DC082819381819391932F5F3F4FB7
:100D600024173507BCF3415050405093B4084093CA
:100D7000B3080DC0C801D6DE4091B3085091B40845
:100D80009E01FE01EE0FFF1FE156F74FE7CFDF9107
:100D9000CF911F910F910895CF93DF93EC0184EDD4
:100DA00098E063EE71E00E94E92A84ED98E0BE01CC
:100DB0000E94E72A10C0EE0FFF1FE356F74F808115
:100DC0009181B0DE8091B3089091B408019790931F
:100DD000B4088093B308E091B308F091B4081E16EC
:100DE0001F064CF381E090E09093B4088093B30821
:100DF000D093A008C0939F08CE01C1DEDF91CF91B0
:100E0000089584ED98E040E056E960E070E00E94CB
:100E1000692784ED98E065EF71E00E94682A8BE213
:100E200061E00E9401298CE261E00E9401298DE2CB
:100E300061E00E94012981E061E041E085DC64E637
:100E400070E080E090E00E948C3680E060E040E05E
:100E50007BDC86E061E00E94012986E060E00E9480
:100E6000F82710928E081092A8061092A9061092E8
:100E7000AA061092AB0628C0FC01EE0FFF1FEB5232
:100E8000FD4F808160E00E940129E091A806F09169
:100E9000A906EE0FFF1FEB52FD4F808161E00E941B
:100EA000F8278091A8069091A906A091AA06B09172
:100EB000AB060196A11DB11D8093A8069093A906CB
:100EC000A093AA06B093AB068091A8069091A906BC
:100ED000A091AA06B091AB0682329105A105B10599
:100EE0005CF21092D30883ED96E00E94343083EDDB
:100EF00096E040E050E068EC72E40E94052E10920B
:100F0000EE061092ED061092EC061092EB0610928F
:100F1000EA061092E9061092090710920A07109249
:100F20000B0710920C0710920507109206071092FB
:100F300007071092080710920107109202071092FB
:100F400003071092040710929C0710929B071092BF
:100F50009A0710929907109298071092970710928B
:100F6000D9061092DA061092DB061092DC06109277
:100F7000E2061092E1061092B207109290071092CA
:100F80008F0710928E0710928D0710928C07109287
:100F90008B07109296071092950710929407109263
:100FA0009307109292071092910783EB97E068E6FF
:100FB00070E00E94F1351092E1071092E007109264
:100FC000DF071092DE071092DD071092DC07109207
:100FD000CC071092CD071092CE071092CF07109237
:100FE000D5071092D4071092870810927D081092AE
:100FF0007C0810927B0810927A081092790810925F
:10100000780810928308109282081092810810923A
:10101000800810927F0810927E081092BB061092F2
:10102000BA061092B9061092B8061092B70610923E
:10103000B6061092B3061092B2061092B106109244
:10104000B0061092AF061092AE061092BD06109236
:10105000BC061092B5061092B40689E261E00E94C7
:10106000012989E260E00E94F82764E670E080E0F0
:1010700090E00E948C3689E261E00E94F8278AE2C3
:1010800060EE76E049E150E00E940A2A64E670E0F2
:1010900080E090E00E948C368AE260EE76E049E1E2
:1010A00050E00E940A2A80E090E076DE0E945836E6
:1010B0006093A4067093A5068093A6069093A70656
:1010C0000895EF92FF920F931F937C0104ED18E0B7
:1010D000C80164E172E00E94E92AC801B7010E94D8
:1010E000E72AC70125DD65E070E080E090E00E941E
:1010F0008C36C701EEDC1F910F91FF90EF900895A1
:10110000CF93DF93EC0184ED98E06CE272E00E94F3
:10111000E92A84ED98E0BE010E94E72A80918F08B9
:10112000909190088C239D23181619061CF4CE016B
:10113000D0DC02C0CE01FCDCDF91CF910895CF93CB
:10114000DF93EC0184ED98E065E472E00E94E92A07
:1011500084ED98E0BE010E94E72AE1E9F8E020E092
:1011600030E007C02F5F3F4F32962630310509F43B
:101170004AC0808191818C179D07A1F7F901EE0F7C
:10118000FF1FEF56F74F118210822230310501F117
:10119000233031053CF42115310571F02130310542
:1011A00071F510C024303105F9F024303105B4F068
:1011B0002530310521F51EC08CEF98E060E00E94DB
:1011C00082271DC08CEF98E060E00E94852717C041
:1011D0008CEF98E060E00E94882711C08CEF98E0C7
:1011E00060E00E948B270BC08CEF98E060E00E94CB
:1011F0008E2705C08CEF98E060E00E9491278CEF6D
:1012000098E00E940C2ADF91CF9108950F931F93CD
:10121000182F092F84ED98E065E572E00E94E92A15
:1012200084ED98E0612F702F0E94E72AE1E9F8E051
:1012300020E030E007C02F5F3F4F32962630310567
:1012400009F449C080819181892BA9F7F901EE0F3A
:10125000FF1FEF56F74F108301832230310501F154
:10126000233031053CF42115310571F02130310571
:1012700071F510C024303105F9F024303105B4F097
:101280002530310521F51EC08CEF98E0612F0E94BA
:1012900082271DC08CEF98E0612F0E94852717C020
:1012A0008CEF98E0612F0E94882711C08CEF98E0A6
:1012B000612F0E948B270BC08CEF98E0612F0E945A
:1012C0008E2705C08CEF98E0612F0E9491278CEF4C
:1012D00098E00E940C2A1F910F910895EF92FF92BF
:1012E0000F931F937C0104ED18E0C80167E672E0DC
:1012F0000E94E92AC801B7010E94E72AC70186DFD8
:1013000065E070E080E090E00E948C36C70117DF56
:101310001F910F91FF90EF900895CF93DF93EC0111
:1013200084ED98E06AE772E00E94E92A84ED98E093
:10133000BE010E94E72A20919D0830919E08CE01AF
:101340008223932318161906A4F42C1B3D0B30930B
:101350009E0820939D0860E020FD61E0369527956A
:10136000422F417036952795217084EF98E00E94B6
:10137000292ADF91CF9108954F925F926F927F92C9
:101380008F929F92AF92BF92CF92DF92EF92FF9295
:101390000F931F93DF93CF93CDB7DEB7CC54D040DC
:1013A0000FB6F894DEBF0FBECDBF6B017C014901C3
:1013B0005A016091B3087091B408980140E050E080
:1013C000D701C60182709070A070B07089839A8333
:1013D000AB83BC83D701C60188709070A070B070D9
:1013E0008D839E83AF83B887D701C60180719070CB
:1013F000A070B07089879A87AB87BC87D701C60178
:1014000080729070A070B0708D879E87AF87B88B08
:10141000D701C60180749070A070B070898B9A8BD0
:10142000AB8BBC8BD701C60180709170A070B0707F
:101430008D8B9E8BAF8BB88FD701C6018070927059
:10144000A070B070898F9A8FAB8FBC8FD701C60107
:1014500080709870A070B0708D8F9E8FAF8FB8A382
:10146000D701C60180709072A070B07089A39AA352
:10147000ABA3BCA3D701C60180709074A070B070FC
:101480008DA39EA3AFA3B8A7D701C60180709070AB
:10149000A170B07089A79AA7ABA7BCA7D701C60156
:1014A00080709070A270B0708DA79EA7AFA7B8ABE8
:1014B000D701C60180709070A071B07089AB9AABF3
:1014C000ABABBCABD701C60180709070A072B0709E
:1014D0008DAB9EABAFABB8AFD701C601807090703B
:1014E000A074B07089AF9AAFABAFBCAFD701C601E3
:1014F00080709070A078B07021968CAF9DAFAEAF29
:10150000BFAF2197D701C60180709070A070B170F5
:1015100025968CAF9DAFAEAFBFAF2597D701C60163
:1015200080709070A070B47029968CAF9DAFAEAFF4
:10153000BFAF2997D701C60180709070A070B071BD
:101540002D968CAF9DAFAEAFBFAF2D97412C512CD8
:10155000612CF0E47F2E4C205D206E207F208FEFE9
:101560009FE7289F8001299F100D389F100D11249F
:10157000060F171F000F111F0156174F89819A81FF
:10158000AB81BC810097A105B10599F16217730782
:1015900014F40C94CA15F801E40FF51F0190F081C2
:1015A000E02D309771F487E390E098DE82E090E0E0
:1015B00090DA84E090E08DDA81E090E08ADA0C94B1
:1015C000CA15E130F10539F0E230F10521F0339729
:1015D00011F00C948B1589E290E080DE82E090E0BF
:1015E00078DA84E090E075DA81E090E072DA0C94C9
:1015F000CA158D819E81AF81B8850097A105B1057F
:1016000009F4B2C0D701C60188709072A070B070A2
:1016100088509042A040B04099F56217730714F4C7
:101620000C94CA15F801E40FF51F0190F081E02D2C
:10163000309731F0E230F10519F0E330F10571F443
:1016400088E290E04BDE82E090E043DA84E090E0D4
:1016500040DA81E090E03DDA0C94CA15319711F040
:101660000C948B1588E590E039DE82E090E031DA69
:1016700084E090E02EDA81E090E02BDA0C94CA1539
:1016800087FC02C00C94A1156217730714F40C9424
:10169000CA15F801E40FF51F0190F081E02D309795
:1016A00041F0E130F10529F0E230F10511F0339716
:1016B00071F48BE290E012DE82E090E00ADA84E0DE
:1016C00090E007DA81E090E004DA0C94CA15F801A2
:1016D000E40FF51F0190F081E02D309771F486E161
:1016E00090E0FCDD82E090E0F4D984E090E0F1D974
:1016F00081E090E0EED90C94CA15E130F10589F44F
:1017000082E090E015DA80E290E0E8DD82E090E0AF
:10171000E0D984E090E0DDD981E090E0DAD90C9462
:10172000CA15E230F10571F483E390E0D7DD82E081
:1017300090E0CFD984E090E0CCD981E090E0C9D9A5
:101740000C94CA15339711F00C948B1583E490E038
:10175000C5DD82E090E0BDD984E090E0BAD981E0B7
:1017600090E0B7D90C94CA1589859A85AB85BC855C
:101770000097A105B10509F452C06217730714F46C
:101780000C94CA15F801E40FF51F0190F081E02DCB
:10179000309771F486E090E0A1DD82E090E099D985
:1017A00084E090E096D981E090E093D90C94CA153A
:1017B000E130F10571F487E290E090DD82E090E0A5
:1017C00088D984E090E085D981E090E082D90C94BA
:1017D000CA15E230F10589F482E090E0A9D983E3EB
:1017E00090E07CDD82E090E074D984E090E071D9F3
:1017F00081E090E06ED90C94CA15339711F00C94E7
:101800008B1584E490E06ADD82E090E062D984E0A8
:1018100090E05FD981E090E05CD90C94CA158D8589
:101820009E85AF85B8890097A105B10509F455C01B
:101830006217730714F40C94CA15F801E40FF51F2E
:101840000190F081E02D309771F483E190E046DD66
:1018500082E090E03ED984E090E03BD981E090E0E6
:1018600038D90C94CA15E130F10589F482E090E092
:101870005FD985E290E032DD82E090E02AD984E011
:1018800090E027D981E090E024D90C94CA15E23089
:10189000F10589F482E090E04BD985E390E01EDD0C
:1018A00082E090E016D984E090E013D981E090E0E6
:1018B00010D90C94CA15339711F00C948B1585E44C
:1018C00090E00CDD82E090E004D984E090E001D962
:1018D00081E090E0FED80C94CA1589899A89AB8979
:1018E000BC890097A105B10509F452C062177307BE
:1018F00014F40C94CA15F801E40FF51F0190F0815F
:10190000E02D309771F48FE090E0E8DC82E090E029
:10191000E0D884E090E0DDD881E090E0DAD80C9463
:10192000CA15E130F10571F485E290E0D7DC82E080
:1019300090E0CFD884E090E0CCD881E090E0C9D8A6
:101940000C94CA15E230F10589F482E090E0F0D8F9
:1019500087E390E0C3DC82E090E0BBD884E090E0D5
:10196000B8D881E090E0B5D80C94CA15339711F03F
:101970000C948B1581E490E0B1DC82E090E0A9D872
:1019800084E090E0A6D881E090E0A3D80C94CA153A
:10199000C7FE3EC06217730714F40C94CA15F80111
:1019A000E40FF51F0190F081E02D309771F484E190
:1019B00090E094DC82E090E08CD884E090E089D8DC
:1019C00081E090E086D80C94CA15E130F10571F4FD
:1019D00083E690E083DC82E090E07BD884E090E0D6
:1019E00078D881E090E075D80C94CA15329711F040
:1019F0000C948B1585E390E071DC82E090E069D86F
:101A000084E090E066D881E090E063D80C94CA1539
:101A10008D899E89AF89B88D0097A105B10509F41C
:101A200041C06217730714F40C94CA15F801E40F4F
:101A3000F51F0190F081E02D309771F48CE190E07A
:101A40004DDC82E090E045D884E090E042D881E02F
:101A500090E03FD80C94CA15E230F10589F482E099
:101A600090E066D88DE290E039DC82E090E031D8F9
:101A700084E090E02ED881E090E02BD80C94CA1539
:101A8000339711F00C948B1589E490E027DC82E009
:101A900090E01FD884E090E01CD881E090E019D855
:101AA0000C94CA15898D9A8DAB8DBC8D0097A105BC
:101AB000B10509F449C06217730714F40C94CA15F0
:101AC000F801E40FF51F0190F081E02D309789F4C3
:101AD0008BE190E003DC82E090E00E94690584E005
:101AE00090E00E94690581E090E00E9469050C94F5
:101AF000CA15E230F105A1F482E090E019D881E343
:101B000090E0ECDB82E090E00E94690584E090E0E8
:101B10000E94690581E090E00E9469050C94CA1555
:101B2000339709F0F8C786E490E0D8DB82E090E0D4
:101B30000E94690584E090E00E94690581E090E0E0
:101B40000E9469050C94CA158D8D9E8DAF8DB8A12C
:101B50000097A105B105B9F16217730714F40C944D
:101B6000CA15F801E40FF51F0190F081E02D3097C0
:101B700089F486E390E0B2DB82E090E00E946905A0
:101B800084E090E00E94690581E090E00E94690590
:101B90000C94CA15E130F10531F0E230F10519F08D
:101BA000339709F0B8C78CE490E098DB82E090E0CE
:101BB0000E94690584E090E00E94690581E090E060
:101BC0000E946905E7C789A19AA1ABA1BCA10097B2
:101BD000A105B10509F499C0D701C60180709072C2
:101BE000A074B07080509042A044B040A9F5621734
:101BF00073070CF4CFC7F801E40FF51F0190F081D3
:101C0000E02D309781F48AE290E068DB82E090E09A
:101C10000E94690584E090E00E94690581E090E0FF
:101C20000E946905B7C7E130F10531F0E230F105F6
:101C300019F0339709F06FC78CE290E04FDB82E038
:101C400090E00E94690584E090E00E94690581E0CF
:101C500090E00E9469059EC7621773070CF49AC74B
:101C6000F801E40FF51F0190F081E02D309781F429
:101C700087E190E033DB82E090E00E94690584E038
:101C800090E00E94690581E090E00E94690582C7AA
:101C9000E130F10581F484E290E020DB82E090E025
:101CA0000E94690584E090E00E94690581E090E06F
:101CB0000E9469056FC7E230F105A1F482E090E06F
:101CC0000E94980586E390E009DB82E090E00E94A4
:101CD000690584E090E00E94690581E090E00E943F
:101CE000690558C7339709F016C780E490E0F6DA23
:101CF00082E090E00E94690584E090E00E9469051E
:101D000081E090E00E94690545C78DA19EA1AFA129
:101D1000B8A50097A105B10509F455C0621773076E
:101D20000CF438C7F801E40FF51F0190F081E02DA5
:101D3000309781F48AE090E0D1DA82E090E00E946E
:101D4000690584E090E00E94690581E090E00E94CE
:101D5000690520C7E130F10581F486E290E0BEDA42
:101D600082E090E00E94690584E090E00E946905AD
:101D700081E090E00E9469050DC7E230F10581F431
:101D800088E390E0ABDA82E090E00E94690584E0AD
:101D900090E00E94690581E090E00E946905FAC622
:101DA000339709F0B8C682E490E098DA82E090E0D8
:101DB0000E94690584E090E00E94690581E090E05E
:101DC0000E946905E7C6C60180709078892B09F4E6
:101DD00042C0621773070CF4DDC6F801E40FF51F6B
:101DE0000190F081E02D309781F48AE190E076DA7D
:101DF00082E090E00E94690584E090E00E9469051D
:101E000081E090E00E946905C5C6E130F10581F4EA
:101E100087E690E063DA82E090E00E94690584E062
:101E200090E00E94690581E090E00E946905B2C6D9
:101E3000329709F070C68FE290E050DA82E090E0CD
:101E40000E94690584E090E00E94690581E090E0CD
:101E50000E9469059FC689A59AA5ABA5BCA5009758
:101E6000A105B10509F446C0621773070CF492C6C8
:101E7000F801E40FF51F0190F081E02D309781F417
:101E80008EE090E02BDA82E090E00E94690584E029
:101E900090E00E94690581E090E00E9469057AC6A1
:101EA000E130F105A1F482E090E00E94980583E220
:101EB00090E014DA82E090E00E94690584E090E00E
:101EC0000E94690581E090E00E94690563C632972F
:101ED00009F021C680E390E001DA82E090E00E9400
:101EE000690584E090E00E94690581E090E00E942D
:101EF000690550C68DA59EA5AFA5B8A90097A105F7
:101F0000B10509F446C0621773070CF443C6F80123
:101F1000E40FF51F0190F081E02D309781F48DE101
:101F200090E0DCD982E090E00E94690584E090E0D6
:101F30000E94690581E090E00E9469052BC6E130AE
:101F4000F105A1F482E090E00E94980582E290E021
:101F5000C5D982E090E00E94690584E090E00E948B
:101F6000690581E090E00E94690514C6329709F086
:101F7000D2C581E390E0B2D982E090E00E94690589
:101F800084E090E00E94690581E090E00E9469058C
:101F900001C689A99AA9ABA9BCA90097A105B10559
:101FA00009F4D5C5621773070CF4D1C5F801E40F25
:101FB000F51F80819181892B09F0C9C589E190E0E5
:101FC0008DD982E090E00E94690584E090E00E9453
:101FD000690581E090E00E946905DCC5621773071E
:101FE0000CF4BEC5F801E40FF51F0190F081E02D5F
:101FF000309749F0E130F10531F0E230F10519F0A8
:10200000339709F0ADC581E090E00E94BE03C2C5E0
:1020100087FE35C0621773070CF4BCC5F801E40FE6
:10202000F51F0190F081E02D309781F48CE290E073
:1020300055D982E090E00E94690584E090E00E941A
:10204000690581E090E00E946905A4C5E130F105D1
:1020500031F0E230F10519F0339709F05CC58AE2FE
:1020600090E03CD982E090E00E94690584E090E035
:102070000E94690581E090E00E9469058BC56217A6
:1020800073070CF487C5F801E40FF51F0190F08188
:10209000E02D309781F48BE090E020D982E090E051
:1020A0000E94690584E090E00E94690581E090E06B
:1020B0000E9469056FC5E130F10581F481E290E08D
:1020C0000DD982E090E00E94690584E090E00E94D2
:1020D000690581E090E00E9469055CC5E230F10588
:1020E000A1F482E090E00E94980586E290E0F6D8A4
:1020F00082E090E00E94690584E090E00E9469051A
:1021000081E090E00E94690545C5339709F003C559
:102110008DE390E0E3D882E090E00E94690584E0DE
:1021200090E00E94690581E090E00E94690532C557
:1021300021968CAD9DADAEADBFAD21970097A105A9
:10214000B10509F459C0621773070CF423C5F801EF
:10215000E40FF51F0190F081E02D309781F480E1CC
:1021600090E0BCD882E090E00E94690584E090E0B5
:102170000E94690581E090E00E9469050BC5E1308D
:10218000F10581F482E290E0A9D882E090E00E941B
:10219000690584E090E00E94690581E090E00E947A
:1021A0006905F8C4E230F105A1F482E090E00E94F4
:1021B000980587E290E092D882E090E00E9469055D
:1021C00084E090E00E94690581E090E00E9469054A
:1021D000E1C4339709F09FC48EE390E07FD882E09A
:1021E00090E00E94690584E090E00E94690581E02A
:1021F00090E00E946905CEC425968CAD9DADAEAD34
:10220000BFAD25970097A105B10509F459C0621724
:1022100073070CF4BFC4F801E40FF51F0190F081BF
:10222000E02D309781F485E090E058D882E090E08E
:102230000E94690584E090E00E94690581E090E0D9
:102240000E946905A7C4E130F10581F483E290E0C2
:1022500045D882E090E00E94690584E090E00E9409
:10226000690581E090E00E94690594C4E230F105BF
:10227000A1F482E090E00E94980588E390E02ED8D7
:1022800082E090E00E94690584E090E00E94690588
:1022900081E090E00E9469057DC4339709F03BC45A
:1022A0008FE390E01BD882E090E00E94690584E013
:1022B00090E00E94690581E090E00E9469056AC48F
:1022C00029968CAD9DADAEADBFAD29970097A10508
:1022D000B10509F45DC0621773070CF45BC4F80123
:1022E000E40FF51F0190F081E02D309789F482E131
:1022F00090E00E946E0982E090E00E94690584E00F
:1023000090E00E94690581E090E00E94690542C466
:10231000E130F10589F485E590E00E946E0982E0E4
:1023200090E00E94690584E090E00E94690581E0E8
:1023300090E00E9469052EC4E230F105A9F482E024
:1023400090E00E9498058FE290E00E946E0982E082
:1023500090E00E94690584E090E00E94690581E0B8
:1023600090E00E94690516C4339709F0D4C38FE743
:1023700090E00E946E0982E090E00E94690584E08E
:1023800090E00E94690581E090E00E94690502C426
:102390002D968CAD9DADAEADBFAD2D970097A1052F
:1023A000B10509F449C0621773070CF4F3C3F801CF
:1023B000E40FF51F0190F081E02D309789F488E15A
:1023C00090E00E946E0982E090E00E94690584E03E
:1023D00090E00E94690581E090E00E946905DAC3FF
:1023E000E130F10589F484E590E00E946E0982E015
:1023F00090E00E94690584E090E00E94690581E018
:1024000090E00E946905C6C3329709F084C382E058
:1024100090E00E94980580E390E00E946E0982E0BF
:1024200090E00E94690584E090E00E94690581E0E7
:1024300090E00E946905AEC3411451046104710427
:10244000A9F1621773070CF4A5C3F801E40FF51F97
:102450000190F081E02D309789F487E090E00E94B0
:102460006E0982E090E00E94690584E090E00E949D
:10247000690581E090E00E9469058CC3329709F0FC
:102480004AC382E090E00E9498058EE190E00E94AD
:102490006E0982E090E00E94690584E090E00E946D
:1024A000690581E090E00E94690574C384FE62C3FF
:1024B000621773070CF45EC3F801E40FF51F808107
:1024C0009181892B09F056C38DE090E00E946E093E
:1024D00082E090E00E94690584E090E00E94690536
:1024E00081E090E00E94690555C3621773070CF400
:1024F00043C3F801E40FF51F0190F081E02D309700
:1025000049F0E130F10531F0E230F10519F033978F
:1025100009F032C380E090E00E94BE033BC3621723
:1025200073070CF437C3F801E40FF51F0190F08135
:10253000E02D309789F484E090E00E946E0982E0FB
:1025400090E00E94690584E090E00E94690581E0C6
:1025500090E00E9469051EC3E130F10589F487E52A
:1025600090E00E946E0982E090E00E94690584E09C
:1025700090E00E94690581E090E00E9469050AC32D
:10258000329709F0C8C282E090E00E94980584E387
:1025900090E00E946E0982E090E00E94690584E06C
:1025A00090E00E94690581E090E00E946905F2C216
:1025B00087FE59C0621773070CF4ECC2F801E40FF0
:1025C000F51F0190F081E02D309789F485E190E0CE
:1025D0000E946E0982E090E00E94690584E090E02C
:1025E0000E94690581E090E00E946905D3C2E13054
:1025F000F10589F48EE190E00E946E0982E090E09E
:102600000E94690584E090E00E94690581E090E005
:102610000E946905BFC2E230F10589F487E390E0CA
:102620000E946E0982E090E00E94690584E090E0DB
:102630000E94690581E090E00E946905ABC2339772
:1026400009F069C28AE390E00E946E0982E090E09E
:102650000E94690584E090E00E94690581E090E0B5
:102660000E94690597C290FE59C0621773070CF467
:1026700091C2F801E40FF51F0190F081E02D309731
:1026800089F481E190E00E946E0982E090E00E946E
:10269000690584E090E00E94690581E090E00E9475
:1026A000690578C2E130F10589F48FE190E00E947C
:1026B0006E0982E090E00E94690584E090E00E944B
:1026C000690581E090E00E94690564C2E230F1058D
:1026D00089F486E390E00E946E0982E090E00E9417
:1026E000690584E090E00E94690581E090E00E9425
:1026F000690550C2339709F00EC28BE390E00E9447
:102700006E0982E090E00E94690584E090E00E94FA
:10271000690581E090E00E9469053CC291FE5DC0C0
:10272000621773070CF436C2F801E40FF51F01902D
:10273000F081E02D309789F489E090E00E946E09E5
:1027400082E090E00E94690584E090E00E946905C3
:1027500081E090E00E9469051DC2E130F10589F435
:1027600080E290E00E946E0982E090E00E9469059C
:1027700084E090E00E94690581E090E00E94690594
:1027800009C2E230F105A9F482E090E00E949805C8
:102790008FE190E00E946E0982E090E00E9469055E
:1027A00084E090E00E94690581E090E00E94690564
:1027B000F1C1339709F0AFC18CE390E00E946E093C
:1027C00082E090E00E94690584E090E00E94690543
:1027D00081E090E00E946905DDC194FE4DC0621762
:1027E00073070CF4D7C1F801E40FF51F0190F081D5
:1027F000E02D309789F488E090E00E946E0982E035
:1028000090E00E94690584E090E00E94690581E003
:1028100090E00E946905BEC1E130F10589F486E5CA
:1028200090E00E946E0982E090E00E94690584E0D9
:1028300090E00E94690581E090E00E946905AAC1CC
:10284000E230F10589F484E390E00E946E0982E0B1
:1028500090E00E94690584E090E00E94690581E0B3
:1028600090E00E94690596C1339709F054C188E051
:1028700090E00E9461088EC196FE49C062177307FE
:102880000CF488C1F801E40FF51F0190F081E02DF0
:10289000309789F48CE090E00E946E0982E090E02D
:1028A0000E94690584E090E00E94690581E090E063
:1028B0000E9469056FC1E230F105A9F482E090E061
:1028C0000E94980584E290E00E946E0982E090E008
:1028D0000E94690584E090E00E94690581E090E033
:1028E0000E94690557C1339709F015C185E690E04C
:1028F0000E946E0982E090E00E94690584E090E009
:102900000E94690581E090E00E94690543C1C4010D
:1029100080709078892BF9F0621773070CF43AC134
:10292000F801E40FF51F0190F081E02D309731F0B0
:10293000E130F10519F0E230F10529F483E090E08F
:102940000E94CC0627C1339709F0E5C080E090E0F3
:102950000E94CC061FC1A0FE1FC0621773070CF4B3
:1029600019C1F801E40FF51F0190F081E02D3097B7
:1029700031F0E130F10519F0E330F10529F482E09E
:1029800090E00E94CC0606C1329709F0C4C080E0F6
:1029900090E00E94CC06FEC0A1FE1FC06217730724
:1029A0000CF4F8C0F801E40FF51F0190F081E02D60
:1029B000309731F0E230F10519F0E330F10529F4F8
:1029C00081E090E00E94CC06E5C0319709F0A3C0F9
:1029D00080E090E00E94CC06DDC0A2FED0C062176D
:1029E00073070CF4CCC0F801E40FF51F0190F081DF
:1029F000E02D309709F4CEC0E130F10509F4CAC0EA
:102A0000E230F10509F4C6C0339709F4C3C0B7C07A
:102A1000621773070CF4B5C0F801E40FF51F0190BD
:102A2000F081E02D309709F4B5C0E130F10509F4EB
:102A3000B1C0E230F10509F4ADC0339709F4AAC082
:102A4000A0C0621773070CF49EC0F801E40FF51FD5
:102A50000190F081E02D309709F49CC0E130F10540
:102A600009F498C0E230F10509F494C0339709F4F1
:102A700091C089C0621773070CF487C0F801E40F96
:102A8000F51F0190F081E02D309749F0E130F1051C
:102A900031F0E230F10519F0339709F076C084E0A7
:102AA00090E00E948D0976C0621773070CF46FC026
:102AB000F801E40FF51F0190F081E02D309749F007
:102AC000E130F10531F0E230F10519F0339709F00A
:102AD0005EC082E090E00E948D095CC062177307BF
:102AE0000CF458C0F801E40FF51F0190F081E02DBF
:102AF000309741F0E130F10529F0E230F10511F0B5
:102B0000339749F481E090E00E948D0943C0621739
:102B100073070CF43FC0F801E40FF51F8081918129
:102B20000497C1F52F5F3F4F621773079CF1425026
:102B30005040329780819181892B11F40C94BE0A08
:102B400029C06217730714F00C94670B23C08DA97A
:102B50009EA9AFA9B8AD0097A105B10509F03ECA7D
:102B600089AD9AADABADBCAD0097A105B10509F03B
:102B70004FCADECA85FCB9CC86FCD1CC19CDA3FCEA
:102B800047CFA4FC5ECFB0FC75CFB1FC8DCFB2FEB9
:102B9000BECFA4CFC45BDF4F0FB6F894DEBF0FBE2D
:102BA000CDBFCF91DF911F910F91FF90EF90DF90FC
:102BB000CF90BF90AF909F908F907F906F905F90DD
:102BC0004F9008950F931F938C0184ED98E06CE86B
:102BD00072E00E94E92A84ED98E0B8010E94E72A99
:102BE00020919D0830919E08202B312B30939E0818
:102BF00020939D0860E020FD61E036952795422FE7
:102C0000417036952795217084EF98E00E94292A1B
:102C10001F910F9108952F923F924F925F926F9262
:102C20007F928F929F92AF92BF92CF92DF92EF925C
:102C3000FF920F931F93DF93CF93CDB7DEB76297C9
:102C40000FB6F894DEBF0FBECDBF6B017C01609163
:102C5000B3087091B4087A8B698BC8018095909500
:102C6000860F971F880F991F8156974F988B8F87D4
:102C7000601B710B660F771F6156774F7E876D87DC
:102C80002B013B014B015B011B0160E070E080E226
:102C900090E0C622D722E822F922DA01C901807227
:102CA0009070A070B07089839A83AB83BC83CA0193
:102CB000B90160707070807091706D837E838F83B6
:102CC0009887DA01C90180709070A070B27089870E
:102CD0009A87AB87BC872070307040705470C114E5
:102CE000D104E104F10409F4A2C0A989BA89A017AA
:102CF000B1070CF49CC0F30180819181009749F0E9
:102D00008130910531F08230910519F0039709F077
:102D10008EC081E090E016C069897A8960177107DA
:102D20000CF48EC0D4018D919C91009749F08130B4
:102D3000910531F08230910519F0039709F080C0B8
:102D400080E090E00E94D8039AC0E989FA89E017F0
:102D5000F1070CF47FC0AD85BE858D919C910097E5
:102D600049F08130910531F08230910519F00397D7
:102D700009F070C084E090E02CC0E989FA89E0177E
:102D8000F1070CF470C0D5018D919C91009749F02A
:102D90008130910531F08230910519F0039709F0E7
:102DA00062C082E090E015C0E989FA89E017F10776
:102DB0000CF465C0D1018D919C91009741F0813058
:102DC000910529F08230910511F0039721F481E0FB
:102DD00090E0F8DE54C0F20180819181049709F0FF
:102DE0004EC00F5F1F4F69897A89601771070CF415
:102DF00046C0AF85B8898D919C9111971297B88B79
:102E0000AF87EEEFFFEF4E0E5F1E6E0E7F1E8E0E33
:102E10009F1E6D857E85625070407E876D87AE0EE9
:102E2000BF1E2E0E3F1E892B09F459CF28C0898161
:102E30009A81AB81BC810097A105B10509F06CCFE7
:102E40006D817E818F819885611571058105910560
:102E500009F07BCF89859A85AB85BC850097A10554
:102E6000B10509F08ACF211531054105510509F059
:102E70009BCFA989BA89A017B1070CF0ACCF629695
:102E80000FB6F894DEBF0FBECDBFCF91DF911F917B
:102E90000F91FF90EF90DF90CF90BF90AF909F90F9
:102EA0008F907F906F905F904F903F902F900895FC
:102EB0002F923F924F925F926F927F928F929F924A
:102EC000AF92BF92CF92DF92EF92FF920F931F9338
:102ED000DF93CF93CDB7DEB728970FB6F894DEBF58
:102EE0000FBECDBF1092AC061092AD0660912904C2
:102EF00070912A048091A0069091A1060E94FD3F46
:102F0000892B11F00C942A238091D106882329F46F
:102F10008091D206882309F459C78091EF069091D9
:102F2000F0069093F6068093F5068091F106909155
:102F3000F2069093F8068093F7068091F30690913D
:102F4000F4069093FA068093F9068091E906909131
:102F5000EA069093F0068093EF068091EB0690913D
:102F6000EC069093F2068093F1068091ED06909125
:102F7000EE069093F4068093F3068091CF068823A3
:102F800059F483ED96E063EE76E045EE56E027EEE9
:102F900036E00E94F62F78C0813049F483ED96E048
:102FA00063EE76E047EE56E025EE36E060C0823014
:102FB00009F455C08430B1F483ED96E065EE76E017
:102FC00043EE56E027EE36E00E94F62F8091E506AC
:102FD0009091E606909581959F4F9093E606809399
:102FE000E50652C08330B1F483ED96E067EE76E0FB
:102FF00043EE56E025EE36E00E94F62F8091E30680
:103000009091E406909581959F4F9093E40680936C
:10301000E3062FC0853049F483ED96E065EE76E057
:1030200047EE56E023EE36E00AC08630B1F483ED79
:1030300096E067EE76E043EE56E025EE36E00E943D
:10304000F62F8091E5069091E606909581959F4F29
:103050009093E6068093E5060CC08730A9F483EDD3
:1030600096E067EE76E045EE56E023EE36E00E940D
:10307000F62F8091E7069091E806909581959F4FF5
:103080009093E8068093E7068091D9069091DA063E
:10309000A091DB06B091DC060097A105B10529F4EB
:1030A00021E030E040E050E010C00E9466369B0115
:1030B000AC018091D9069091DA06A091DB06B0911F
:1030C000DC06281B390B4A0B5B0B2093DD06309383
:1030D000DE064093DF065093E0060E94663660935A
:1030E000D9067093DA068093DB069093DC06609134
:1030F000E3067091E40620910B0430910C04620FFA
:10310000731FE090E506F090E60620910D043091E3
:103110000E04E20EF31EA090E706B090E8062091A0
:103120000F0430911004A20EB31E882777FD8095FE
:10313000982F0E945D3D209111043091120440911E
:103140001304509114040E94153E0E942A3D3B0135
:103150004C017093E4066093E3060027F7FC0095AA
:10316000102FC801B7010E945D3D209115043091D8
:10317000160440911704509118040E94153E0E94B5
:103180002A3D1B012C017093E6066093E506CC24D2
:10319000B7FCC094DC2CC601B5010E945D3D2091B6
:1031A000190430911A0440911B0450911C040E9490
:1031B000153E0E942A3D4B015C017093E806609326
:1031C000E7060091EF061091F006B801882777FD19
:1031D0008095982F0E945D3D6B017C01601A710AF9
:1031E000B301882777FD8095982F0E945D3D20913F
:1031F0002B0430912C0440912D0450912E040E94F8
:10320000153E9B01AC01C701B6010E94363C0E94ED
:103210002A3D7093EA066093E9060091F106109149
:10322000F206B801882777FD8095982F0E945D3DB2
:103230006B017C01201A310AB101882777FD809546
:10324000982F0E945D3D20912B0430912C044091D9
:103250002D0450912E040E94153E9B01AC01C70124
:10326000B6010E94363C0E942A3D7093EC066093A2
:10327000EB060091F3061091F406B801882777FD5C
:103280008095982F0E945D3D6B017C019401201B6D
:10329000310BB901882777FD8095982F0E945D3DFD
:1032A00020912B0430912C0440912D0450912E0438
:1032B0000E94153E9B01AC01C701B6010E94363C3D
:1032C0000E942A3D7093EE066093ED0680913304D0
:1032D000882309F4B0C081E090E0A0E0B0E08093E2
:1032E000A8069093A906A093AA06B093AB063DC08A
:1032F000B301882777FD8095982F6C0D7D1D8E1D5D
:103300009F1D0E943240DC01CB01880F991FFC01F8
:10331000ED5EF84F20813181020F131F1093EA06F2
:103320000093E906FC01E55CF84F20813181A20E93
:10333000B31EB092EC06A092EB068D59984FDC01BB
:103340008D919C91480E591E5092EE064092ED06CA
:103350000894C11CD11CE11CF11CC092A806D0929B
:10336000A906E092AA06F092AB06C090A806D090FB
:10337000A906E090AA06F090AB0690903304292DA0
:1033800030E040E050E00091E9061091EA06A0909C
:10339000EB06B090EC064090ED065090EE06609083
:1033A000E1067090E206C216D306E406F5060CF4B8
:1033B0009FCFC801692D70E00E94FD3F9B01709373
:1033C000EA066093E906C501692D70E00E94FD3FA1
:1033D0008B017093EC066093EB06C201692D70E0DF
:1033E0000E94FD3F7B017093EE066093ED06C301E2
:1033F000692D70E00E94FD3FFC01EE0FFF1FED5EA6
:10340000F84F31832083C301692D70E00E94FD3F96
:10341000FC01EE0FFF1FE55CF84F11830083C30131
:10342000692D70E00E94FD3FFC01EE0FFF1FED597A
:10343000F84FF182E0824091EF065091F0066091E2
:10344000E9067091EA068091FB069091FC06860FD2
:10345000971F2091F5063091F606820F931F841B6B
:10346000950B841B950B9093FC068093FB06409173
:10347000F1065091F2068091EB069091EC062091B6
:10348000FD063091FE06820F931F2091F7063091C2
:10349000F806820F931F841B950B841B950B90934A
:1034A000FE068093FD064091F3065091F40680914C
:1034B000ED069091EE062091FF0630910007820FF5
:1034C000931F2091F9063091FA06820F931F841BF7
:1034D000950B841B950B909300078093FF068091BA
:1034E000C6069091C706892B09F45DC020918B0711
:1034F00030918C07CB01261737070CF4C901909344
:103500008C0780938B0720918D0730918E078091D7
:10351000EB069091EC06281739070CF4C90190933B
:103520008E0780938D0720918F07309190078091AF
:10353000ED069091EE06281739070CF4C901909317
:10354000900780938F072091910730919207809187
:10355000E9069091EA06821793070CF4C90190934B
:10356000920780939107209193073091940780915F
:10357000EB069091EC06821793070CF4C901909327
:103580009407809393072091950730919607809137
:10359000ED069091EE06821793070CF4C901909303
:1035A00096078093950780919D0790919E07909331
:1035B000A4078093A30780919F079091A007909301
:1035C000A6078093A5078091A1079091A2079093E9
:1035D000A8078093A70780919707909198079093E9
:1035E0009E0780939D078091990790919A079093E9
:1035F000A00780939F0780919B0790919C079093D1
:10360000A2078093A1076091E9067091EA068827D6
:1036100077FD8095982F0E945D3D20E030E040E8E6
:103620005BE30E94153E7B018C016091EB0670917B
:10363000EC06882777FD8095982F0E945D3D20E05D
:1036400030E040E85BE30E94153E5B016C01609155
:10365000ED067091EE06882777FD8095982F0E94E1
:103660005D3D20E030E040E85BE30E94153E1B0139
:103670002C01C601B501A60195010E94153E698382
:103680007A838B839C83C201B101A20191010E94C4
:10369000153E6D837E838F83988769817A818B81C4
:1036A0009C812D813E814F8158850E94363C0E942D
:1036B000C83E9B01AC01C801B7010E94C23C0E94F8
:1036C0009A3C21EE3EE245E652E40E94153E0E94FD
:1036D0002A3D3B014C017093980760939707C801FE
:1036E000B701A80197010E94153E7B018C012D8135
:1036F0003E814F8158850E94363C0E94C83E9B0106
:10370000AC01C601B5010E94C23C0E949A3C21EE68
:103710003EE245E652E40E94153E0E942A3D709327
:103720009A0760939907C801B70129813A814B81B3
:103730005C810E94363C0E94C83E9B01AC01C201E4
:10374000B1010E94C23C0E949A3C21EE3EE245E655
:1037500052E40E94153E0E942A3DAB0170939C07E3
:1037600060939B072091990730919A07C30177FED8
:1037700003C0909581959F4F8B35910544F437FF99
:1037800003C0309521953F4F2B35310534F04C5413
:103790005F4F50939C0740939B078091E106909167
:1037A000E20601969093E2068093E1068091E2079B
:1037B0009091E3079093E9078093E8078091E407ED
:1037C0009091E5079093EB078093EA078091E607D5
:1037D0009091E7079093ED078093EC078091DC07C9
:1037E0009091DD079093E3078093E2078091DE07D5
:1037F0009091DF079093E5078093E4078091E007BD
:103800009091E1079093E7078093E6078091340455
:10381000882359F483EB97E066ED77E048ED57E0B5
:103820002AED37E00E945A3278C0813049F483EBA8
:1038300097E066ED77E04AED57E028ED37E060C0AD
:10384000823009F455C08430B1F483EB97E068ED21
:1038500077E046ED57E02AED37E00E945A3280913A
:10386000D8079091D907909581959F4F9093D9074C
:103870008093D80752C08330B1F483EB97E06AEDB0
:1038800077E046ED57E028ED37E00E945A3280910C
:10389000D6079091D707909581959F4F9093D70722
:1038A0008093D6072FC0853049F483EB97E068ED0D
:1038B00077E04AED57E026ED37E00AC08630B1F4F4
:1038C00083EB97E06AED77E046ED57E028ED37E0CF
:1038D0000E945A328091D8079091D907909581958E
:1038E0009F4F9093D9078093D8070CC08730A9F4D5
:1038F00083EB97E06AED77E048ED57E026ED37E09F
:103900000E945A328091DA079091DB079095819559
:103910009F4F9093DB078093DA078091CC079091BB
:10392000CD07A091CE07B091CF070097A105B105B3
:1039300029F421E030E040E050E010C00E946636FB
:103940009B01AC018091CC079091CD07A091CE074F
:10395000B091CF07281B390B4A0B5B0B2093D00784
:103960003093D1074093D2075093D3070E94663615
:103970006093CC077093CD078093CE079093CF07C9
:103980006091D6077091D7072091C8063091C9067B
:10399000620F731FE090D807F090D9072091CA06F4
:1039A0003091CB06E20EF31EA090DA07B090DB0751
:1039B0002091CC063091CD06A20EB31E882777FD4C
:1039C0008095982F0E945D3D20911D0430911E042A
:1039D00040911F04509120040E94153E20E030E0E9
:1039E00040E751E40E94C23C0E942A3D3B014C0149
:1039F0007093D7076093D6070027F7FC0095102F28
:103A0000C801B7010E945D3D20912104309122043C
:103A100040912304509124040E94153E20E030E0A0
:103A200040E751E40E94C23C0E942A3D1B012C0148
:103A30007093D9076093D807CC24B7FCC094DC2CD2
:103A4000C601B5010E945D3D2091250430912604F8
:103A500040912704509128040E94153E20E030E058
:103A600040E751E40E94C23C0E942A3D4B015C01A8
:103A70007093DB076093DA070091E2071091E30788
:103A8000B801882777FD8095982F0E945D3D6B01D6
:103A90007C01601A710AB301882777FD8095982F01
:103AA0000E945D3D20912F043091300440913104FB
:103AB000509132040E94153E9B01AC01C701B60132
:103AC0000E94363C0E942A3D7093DD076093DC071C
:103AD0000091E4071091E507B801882777FD8095EC
:103AE000982F0E945D3D6B017C01201A310AB101C3
:103AF000882777FD8095982F0E945D3D20912F04A7
:103B00003091300440913104509132040E94153EAE
:103B10009B01AC01C701B6010E94363C0E942A3DC0
:103B20007093DF076093DE070091E6071091E707C7
:103B3000B801882777FD8095982F0E945D3D6B0125
:103B40007C019401201B310BB901882777FD8095FA
:103B5000982F0E945D3D20912F04309130044091B8
:103B60003104509132040E94153E9B01AC01C70103
:103B7000B6010E94363C0E942A3D7093E107609393
:103B8000E0078091CE06882309F4B0C081E090E080
:103B9000A0E0B0E08093A8069093A906A093AA069F
:103BA000B093AB063DC0B401882777FD8095982F70
:103BB0006E0D7F1D801F911F0E943240DC01CB01E2
:103BC000880F991FFC01E050F84F20813181420E8F
:103BD000531E5092DD074092DC07FC01E85DF74F71
:103BE00020813181C20ED31ED092DF07C092DE0742
:103BF000805B974FFC0180819181680E791E7092E5
:103C0000E1076092E0070894E11CF11C011D111D01
:103C1000E092A806F092A9060093AA061093AB06BC
:103C2000E090A806F090A9060091AA061091AB06B4
:103C3000B090CE062B2D30E040E050E04090DC0705
:103C40005090DD07C090DE07D090DF076090E0075E
:103C50007090E1078090D4079090D507E216F306A4
:103C6000040715070CF49FCFC2016B2D70E00E9472
:103C7000FD3F9B017093DD076093DC07C6016B2D50
:103C800070E00E94FD3F8B017093DF076093DE07B9
:103C9000C3016B2D70E00E94FD3F7B017093E10733
:103CA0006093E007C4016B2D70E00E94FD3FFC01B2
:103CB000EE0FFF1FE050F84F31832083C4016B2DBE
:103CC00070E00E94FD3FFC01EE0FFF1FE85DF74F23
:103CD00011830083C4016B2D70E00E94FD3FFC0145
:103CE000EE0FFF1FE05BF74FF182E0828091C60686
:103CF0009091C706892B09F460C020917808309113
:103D000079088091DC079091DD07281739070CF4BA
:103D1000C901909379088093780820917A083091AE
:103D20007B088091DE079091DF07281739070CF494
:103D3000C90190937B0880937A0820917C08309188
:103D40007D088091E0079091E107281739070CF46E
:103D5000C90190937D0880937C0820917E08309162
:103D60007F088091DC079091DD07821793070CF4A0
:103D7000C90190937F0880937E082091800830913C
:103D800081088091DE079091DF07821793070CF47A
:103D9000C901909381088093800820918208309116
:103DA00083088091E0079091E107821793070CF454
:103DB000C90190938308809382088091D4079091E1
:103DC000D50701969093D5078093D4079090D1069C
:103DD000F2E09F1609F49BC0F91528F021E0921635
:103DE00009F037C209C033E0931609F409C184E031
:103DF000981609F02EC296C18091AF0700919707DF
:103E0000109198076090990770909A07882309F499
:103E10006BC06091AE067091AF067093B706609369
:103E2000B606E090B006F090B106F092B906E092C6
:103E3000B806882777FD8095982F0E945D3D5B012D
:103E40006C018091A9079091AA07081B190BB80172
:103E5000882777FD8095982F0E945D3D209137043B
:103E6000309138044091390450913A040E94C23C88
:103E70009B01AC01C601B5010E94353C0E942A3D60
:103E80007093AF066093AE060027F7FC0095102FE5
:103E9000C801B7010E945D3D7B018C018091AB0799
:103EA0009091AC07681A790AB301882777FD80954D
:103EB000982F0E945D3D20913B0430913C0440913D
:103EC0003D0450913E040E94C23C9B01AC01C801DC
:103ED000B7010E94353C0E942A3D7093B106609361
:103EE000B0069092AC06B5C11093AA070093A9073B
:103EF0007092AC076092AB0780919B0790919C07F2
:103F00009093AE078093AD079092AF07A2C1C09087
:103F1000AE06D090AF06D092B706C092B60680919A
:103F2000B0069091B1069093B9068093B80620919F
:103F3000DC073091DD0737FF13C066277727621B48
:103F4000730B882777FD8095982F0E945D3D0E9416
:103F5000C83E7B018C0117FB109517F910950BC01B
:103F6000B901882777FD8095982F0E945D3D0E94BA
:103F7000C83E7B018C01B601882777FD8095982F7C
:103F80000E945D3DA80197010E94363C0E942A3D97
:103F90007093AF066093AE06C090B006D090B106A5
:103FA0002091DE073091DF0737FF13C066277727A0
:103FB000621B730B882777FD8095982F0E945D3DCB
:103FC0000E94C83E7B018C0117FB109517F91095D4
:103FD0000BC0B901882777FD8095982F0E945D3D21
:103FE0000E94C83E7B018C01B601882777FD809531
:103FF000982F0E945D3DA80197010E94363C73C036
:104000008091AF070091E9061091EA064090ED0615
:104010005090EE06882309F46DC06091AE06709151
:10402000AF067093B7066093B606E090B006F090C6
:10403000B106F092B906E092B806882777FD809520
:10404000982F0E945D3D5B016C0180910D0790915E
:104050000E07081B190BB801882777FD8095982F4C
:104060000E945D3D209147043091480440914904ED
:1040700050914A040E94C23C9B01AC01C601B501AB
:104080000E94353C0E942A3D7093AF066093AE06B5
:104090000027F7FC0095102FC801B7010E945D3D75
:1040A0007B018C01A0E0BFEF4A0E5B1E80911107DF
:1040B00090911207481A590AB201882777FD809516
:1040C000982F0E945D3D20914B0430914C0440910B
:1040D0004D0450914E040E94C23C9B01AC01C801AA
:1040E000B7010E94353C0E942A3D7093B10660934F
:1040F000B006ACC010930E0700930D078091EB063D
:104100009091EC069093100780930F07E0E0FFEF8B
:104110004E0E5F1E509212074092110781E080936D
:10412000AF0797C06091AE067091AF067093B70667
:104130006093B606E090B006F090B106F092B90632
:10414000E092B806A090B206B090B306B092BB065B
:10415000A092BA06882777FD8095982F0E945D3D32
:104160003B014C016091FB067091FC06882777FDAE
:104170008095982F0E945D3D20914F04309150040E
:1041800040915104509152040E94C23C9B01AC01E9
:10419000C401B3010E94353C0E942A3D7093AF06D2
:1041A0006093AE060027F7FC0095102FC801B701F9
:1041B0000E945D3D7B018C016091FF0670910007BC
:1041C000882777FD8095982F0E945D3D20915304AC
:1041D0003091540440915504509156040E94C23CC1
:1041E0009B01AC01C801B7010E94353C0E942A3DE9
:1041F0007093B1066093B006CC24B7FCC094DC2C5D
:10420000C601B5010E945D3D7B018C016091FD06F8
:104210007091FE06882777FD8095982F0E945D3D5E
:1042200020915704309158044091590450915A04F8
:104230000E94C23C9B01AC01C801B7010E94353C01
:104240000E942A3D7093B3066093B20681E080938A
:10425000AC069090D206F2E09F1609F493C023E0DA
:10426000921609F4D0C031E0931609F060C1809134
:10427000AF07009197071091980760909907709089
:104280009A07882309F46BC06091AE067091AF065F
:104290007093B7066093B606E090B006F090B10652
:1042A000F092B906E092B806882777FD8095982F9E
:1042B0000E945D3D5B016C018091A9079091AA0766
:1042C000081B190BB801882777FD8095982F0E944D
:1042D0005D3D20913704309138044091390450916C
:1042E0003A040E94C23C9B01AC01C601B5010E9488
:1042F000353C0E942A3D7093AF066093AE060027BE
:10430000F7FC0095102FC801B7010E945D3D7B01AD
:104310008C018091AB079091AC07681A790AB301C0
:10432000882777FD8095982F0E945D3D20913B0462
:1043300030913C0440913D0450913E040E94C23CA7
:104340009B01AC01C801B7010E94353C0E942A3D87
:104350007093B1066093B0069092AD06E8C01093DA
:10436000AA070093A9077092AC076092AB078091EF
:104370009B0790919C079093AE078093AD07909216
:10438000AF07D5C0C090B406D090B506D092BD0698
:10439000C092BC068091DC079091DD0797FF13C0A7
:1043A00062EE7FEF0E94FD3F882777FD8095982F72
:1043B0000E945D3D0E94C83E7B018C0117FB109559
:1043C00017F910950EC06EE170E00E94FD3F88273E
:1043D00077FD8095982F0E945D3D0E94C83E7B012D
:1043E0008C01B601882777FD8095982F0E945D3D4E
:1043F000A80197010E94353C0E942A3D7093B506A2
:104400006093B40679C08091AF070091E9061091DE
:10441000EA064090ED065090EE06882309F470C03D
:104420006091AE067091AF067093B7066093B606C2
:10443000E090B006F090B106F092B906E092B806AE
:10444000882777FD8095982F0E945D3D5B016C0168
:1044500080910D0790910E07081B190BB801882752
:1044600077FD8095982F0E945D3D20914704309103
:1044700048044091490450914A040E94C23C9B0167
:10448000AC01C601B5010E94353C0E942A3D7093E3
:10449000AF066093AE060027F7FC0095102FC80109
:1044A000B7010E945D3D7B018C0180E09FEF480ECB
:1044B000591E8091110790911207481A590AB201AA
:1044C000882777FD8095982F0E945D3D20914B04B1
:1044D00030914C0440914D0450914E040E94C23CD6
:1044E0009B01AC01C801B7010E94353C0E942A3DE6
:1044F0007093B1066093B00681E08093AD0617C05B
:1045000010930E0700930D078091EB069091EC0637
:104510009093100780930F07A0E0BFEF4A0E5B1E39
:10452000509212074092110781E08093AF074091AB
:10453000AE065091AF068091B6069091B706481B23
:10454000590B5093BF064093BE068091B0069091E0
:10455000B1062091B8063091B906821B930B909357
:10456000C1068093C0068091B2069091B306209157
:10457000BA063091BB06821B930B9093C3068093BF
:10458000C20680913504813041F488279927841B25
:10459000950B9093BF068093BE06809136048130C0
:1045A00059F48091C0069091C106909581959F4FD6
:1045B0009093C1068093C0068091D006813059F453
:1045C0008091C2069091C306909581959F4F9093DC
:1045D000C3068093C2068091AC06882349F180917E
:1045E000D106882329F16091BE067091BF0661153E
:1045F000710561F48091C0069091C106892B31F458
:104600008091C2069091C306892B91F02091C20639
:104610003091C3061216130634F484EF98E04091EB
:10462000C0062AD705C084EF98E04091C00634D771
:104630008091AD06882371F08091D206882351F0D5
:104640006091C4067091C5066115710519F084EF7B
:1046500098E0EFD61092BB081092BC081092BD08EB
:104660001092BE081092BF081092C0081092C108A4
:104670001092C2081092BA081092A8061092A906C9
:104680001092AA061092AB0611E0C12ED12CE12C9B
:10469000F12C85C0FC01EE0FFF1FEE0FFF1FDF01A5
:1046A000A55EBC4F0C91E75EFC4F1081812F61E04D
:1046B000A8D5812F60E09CD48091A8069091A9068E
:1046C000A091AA06B091AB068097A105B1052CF583
:1046D000802F33D4892B09F049C0A701960100909F
:1046E000A80604C0220F331F441F551F0A94D2F797
:1046F0008091BB089091BC08A091BD08B091BE0804
:10470000822B932BA42BB52B8093BB089093BC08D2
:10471000A093BD08B093BE0829C0802F0ED4892B6A
:1047200029F52091A8063091A90620523040D701E2
:10473000C60104C0880F991FAA1FBB1F2A95D2F774
:104740009C01AD018091BF089091C008A091C10863
:10475000B091C208822B932BA42BB52B8093BF085A
:104760009093C008A093C108B093C208812F60E065
:1047700048D5812F61E03CD48091A8069091A9068C
:10478000A091AA06B091AB060196A11DB11D809320
:10479000A8069093A906A093AA06B093AB068091B1
:1047A000A8069091A906A091AA06B091AB068C33F9
:1047B0009105A105B1050CF46DCFE090C308F09010
:1047C000C4080091C5081091C6088091BB0890915B
:1047D000BC08A091BD08B091BE08E816F9060A070A
:1047E0001B07A9F42091C7083091C8084091C90857
:1047F0005091CA088091BF089091C008A091C1084B
:10480000B091C208281739074A075B0759F00E9480
:1048100058366093B5087093B6088093B7089093A4
:10482000B80817C18091CB089091CC08A091CD0811
:10483000B091CE08E816F9060A071B0771F48091BB
:10484000CF089091D008A091D108B091D208281734
:1048500039074A075B0709F4FCC00E9458362091CB
:10486000B5083091B6084091B7085091B808621B5E
:10487000730B840B950B2091090430910A0440E0DE
:1048800050E0621773078407950708F4E2C084EDCF
:1048900098E060EA72E09DD61092A8061092A906F0
:1048A0001092AA061092AB0638C080329105A1057D
:1048B000B1054CF44091BB085091BC086091BD0813
:1048C0007091BE0809C080974091BF085091C00800
:1048D0006091C1087091C20804C07695679557959C
:1048E00047958A95D2F7417050706070707084ED72
:1048F00098E0B6D68091A8069091A906A091AA0644
:10490000B091AB060196A11DB11D8093A8069093AE
:10491000A906A093AA06B093AB068091A806909131
:10492000A906A091AA06B091AB068C339105A1050A
:10493000B1050CF4BACF84ED98E067EA72E049D68D
:104940006090C3087090C4088090C5089090C60815
:10495000A090CB08B090CC08C090CD08D090CE08E5
:10496000A614B704C804D904A8F0E090C708F090D2
:10497000C8080091C9081091CA082091CF08309149
:10498000D0084091D1085091D2082E153F0540071C
:104990005107C0F481E08093B9086091C308709119
:1049A000C4088091C5089091C6082091C70830912D
:1049B000C8084091C9085091CA0801E010E00E945F
:1049C0000B1627C08091B908882319F16A147B045B
:1049D0008C049D0428F0E216F30604071507C8F4BA
:1049E0001092B90881E08093BA086091CB08709169
:1049F000CC088091CD089091CE082091CF083091BD
:104A0000D0084091D1085091D20801E010E00E94F6
:104A1000BC098091C3089091C408A091C508B091C9
:104A2000C6088093CB089093CC08A093CD08B09390
:104A3000CE088091C7089091C808A091C908B0918C
:104A4000CA088093CF089093D008A093D108B09360
:104A5000D2088091BB089091BC08A091BD08B0918C
:104A6000BE088093C3089093C408A093C508B09370
:104A7000C6088091BF089091C008A091C108B0916C
:104A8000C2088093C7089093C808A093C908B09340
:104A9000CA082091A0063091A1062F5F3F4F3093A6
:104AA000A1062093A006E0918808F0918908E130E2
:104AB000F10589F4C90164EF71E00E94FD3F892B83
:104AC00051F440E0C90168EE73E00E94FD3F845F4D
:104AD0009140D4F538C0E230F10589F4C90164E6AB
:104AE00070E00E94FD3F892B51F440E0C90168EE5F
:104AF00073E00E94FD3F8436910534F524C0E33015
:104B0000F10581F4C90162E370E00E94FD3F892B49
:104B100049F440E0C90164E670E00E94FD3FC2979D
:104B20009CF411C03497A9F4C9016AE070E00E94B6
:104B3000FD3F892B71F440E0C90164E670E00E94FA
:104B4000FD3F0A970CF441E0842F6FEF4FEF0E9476
:104B5000A40320918A0830918B0821303105A9F4F3
:104B6000E091A006F091A106CF0164EF71E00E94F0
:104B7000FD3F892B51F420E0CF0168EE73E00E94E5
:104B8000FD3F845F914084F52EC023303105A9F4A8
:104B9000E091A006F091A106CF0164E670E00E94CA
:104BA000FD3F892B51F420E0CF0168EE73E00E94B5
:104BB000FD3F84369105C4F416C022303105B9F4A6
:104BC000E091A006F091A106CF0162E370E00E949F
:104BD000FD3F892B61F420E0CF0164E670E00E9484
:104BE000FD3FC2970CF421E08FEF622F19C02430F3
:104BF0003105C9F42091A0063091A106C9016AE0EF
:104C000070E00E94FD3F892B71F440E0C90164E629
:104C100070E00E94FD3F0A970CF441E08FEF642F93
:104C20004FEF0E94A40320918C0830918D08213011
:104C30003105B1F4E091A006F091A106CF0164EF37
:104C400071E00E94FD3F892B59F440E0CF0168EEEE
:104C500073E00E94FD3F845F91400CF047C045C067
:104C600022303105A9F4E091A006F091A106CF0110
:104C700064E670E00E94FD3F892B51F440E0CF01D3
:104C800068EE73E00E94FD3F843691057CF52DC0EF
:104C900023303105A1F4E091A006F091A106CF01E7
:104CA00062E370E00E94FD3F892B49F440E0CF01B0
:104CB00064E670E00E94FD3FC297C4F416C0243041
:104CC0003105C1F42091A0063091A106C9016AE026
:104CD00070E00E94FD3F892B69F440E0C90164E661
:104CE00070E00E94FD3F0A970CF441E08FEF6FEFF8
:104CF0000E94A4038091A0069091A106885E934033
:104D000009F04BC01092A1061092A0068091A20655
:104D10009091A30601969093A3068093A20690E03B
:104D200080918E08882309F491E090938E0899234E
:104D300019F086E061E002C086E060E059D184EDC0
:104D400098E069EA72E045D40E945836AB01BC0194
:104D50008091A4069091A506A091A606B091A70601
:104D6000481B590B6A0B7B0B84ED98E079D484EDDA
:104D700098E067E371E02DD46091A2067091A306DC
:104D800084ED98E024D40E9458366093A406709372
:104D9000A5068093A6069093A70628960FB6F894CA
:104DA000DEBF0FBECDBFCF91DF911F910F91FF905E
:104DB000EF90DF90CF90BF90AF909F908F907F90BB
:104DC0006F905F904F903F902F900895E7E8F4E048
:104DD0002FB7F89482E994E0918380839383828350
:104DE0009583848382E995E0978386831086128673
:104DF00011862FBFE2E9F5E02FB7F8948DE995E031
:104E00009183808393838283958384838DE996E065
:104E1000978386831086128611862FBF0E948A038D
:104E20000E94B0360E9401070E94581780919D068B
:104E3000882319F40E942C0202C010929D068091D2
:104E40009E06882319F40E94F10102C010929E066A
:104E50000E94223CE9CFEF92FF920F931F937C01B7
:104E600004ED18E0C80169EB72E0B3D3C801B701E3
:104E7000AED3C7010E94E21565E070E080E090E0EB
:104E80000E948C36C7010E948D091F910F91FF90DF
:104E9000EF900895CF93DF93EC01E881F98160836F
:104EA000888199810196998388832E813F81821719
:104EB000930721F48C819D81998388832FB7F8947F
:104EC00089859A8501969A8789872FBFDF91CF912F
:104ED00008950895089508950895089508950895EA
:104EE00008950895089508950895089508950895DA
:104EF0000895089508950895089508950895FC016A
:104F000060830895FC0162830895FC016383089522
:104F1000FC0164830895FC0165830895FC016683A8
:104F20000895FC01678308950895089508950895EC
:104F300080E00895089580E00895982F883060F407
:104F400089B141E050E002C0440F551F9A95E2F745
:104F500090E0482359234AC08850823028F42CB16D
:104F6000892F90E0089738C0892F8A50883028F41C
:104F700026B1892F90E00A972FC0892F8251823065
:104F800028F42CB1892F90E00C9726C0892F8451EA
:104F9000883028F423B1892F90E044971DC0892FD1
:104FA0008C51883028F420B1892F90E04C9714C0A0
:104FB000892F8452823028F42CB1892F90E0809779
:104FC0000BC0892F8652883018F040E050E00EC0A8
:104FD0002FB1892F90E0869741E050E002C0440F46
:104FE000551F8A95E2F730E042235323CA01089502
:104FF000382F662309F086C0883060F42BB181E039
:1050000090E002C0880F991F3A95E2F780958223BD
:105010008BB908958850823030F44EB1232F30E0A0
:10502000285030404FC0832F8A50883080F448B1D8
:10503000232F30E02A50304081E090E002C0880FFA
:10504000991F2A95E2F78095842388B90895832FC4
:105050008251823030F44EB1232F30E02C5030405A
:1050600031C0832F8451883080F445B1232F30E044
:105070002451304081E090E002C0880F991F2A95AA
:10508000E2F78095842385B90895832F8C51883069
:1050900080F442B1232F30E02C51304081E090E089
:1050A00002C0880F991F2A95E2F78095842382B960
:1050B0000895832F8452823080F44EB1232F30E044
:1050C0002052304081E090E002C0880F991F2A955D
:1050D000E2F7809584238EB90895832F8652883015
:1050E00008F08EC041B3232F30E02652304081E0DB
:1050F00090E002C0880F991F2A95E2F780958423DB
:1051000081BB0895883058F42BB181E090E002C053
:10511000880F991F3A95E2F7282B2BB908958850EC
:10512000823030F44EB1232F30E0285030404CC054
:10513000832F8A50883078F448B1232F30E02A50EA
:10514000304081E090E002C0880F991F2A95E2F775
:10515000482B48B90895832F8251823030F44EB1E4
:10516000232F30E02C5030402FC0832F84518830C3
:1051700078F445B1232F30E02451304081E090E0B5
:1051800002C0880F991F2A95E2F7482B45B9089568
:10519000832F8C51883078F442B1232F30E02C518A
:1051A000304081E090E002C0880F991F2A95E2F715
:1051B000482B42B90895832F8452823078F44EB13F
:1051C000232F30E02052304081E090E002C0880F71
:1051D000991F2A95E2F7482B4EB90895832F8652DE
:1051E000883070F441B3232F30E02652304081E004
:1051F00090E002C0880F991F2A95E2F7482B41BB27
:105200000895382F662309F086C0883060F42AB1EB
:1052100081E090E002C0880F991F3A95E2F78095EF
:1052200082238AB908958850823030F44DB1232FFB
:1052300030E0285030404FC0832F8A50883080F4AF
:1052400047B1232F30E02A50304081E090E002C087
:10525000880F991F2A95E2F78095842387B90895CE
:10526000832F8251823030F44DB1232F30E02C5007
:10527000304031C0832F8451883080F444B1232FD3
:1052800030E02451304081E090E002C0880F991F47
:105290002A95E2F78095842384B90895832F8C5151
:1052A000883080F441B1232F30E02C51304081E030
:1052B00090E002C0880F991F2A95E2F78095842319
:1052C00081B90895832F8452823080F44DB1232F09
:1052D00030E02052304081E090E002C0880F991FFA
:1052E0002A95E2F7809584238DB90895832F8652FD
:1052F000883008F08EC040B3232F30E02652304073
:1053000081E090E002C0880F991F2A95E2F780950E
:10531000842380BB0895883058F42AB181E090E05E
:1053200002C0880F991F3A95E2F7282B2AB90895F1
:105330008850823030F44DB1232F30E02850304077
:105340004CC0832F8A50883078F447B1232F30E047
:105350002A50304081E090E002C0880F991F2A95C2
:10536000E2F7482B47B90895832F8251823030F4F9
:105370004DB1232F30E02C5030402FC0832F84516B
:10538000883078F444B1232F30E02451304081E05C
:1053900090E002C0880F991F2A95E2F7482B44B984
:1053A0000895832F8C51883078F441B1232F30E059
:1053B0002C51304081E090E002C0880F991F2A955F
:1053C000E2F7482B41B90895832F8452823078F454
:1053D0004DB1232F30E02052304081E090E002C0F8
:1053E000880F991F2A95E2F7482B4DB90895832F0E
:1053F0008652883070F440B3232F30E0265230407C
:1054000081E090E002C0880F991F2A95E2F7482BAF
:1054100040BB08950895089522E020937504A6E7FF
:10542000B4E0FC0188E001900D928150E1F70C940A
:10543000F101FC0181E08093750411821282638383
:10544000A6E7B4E088E001900D928150E1F70C945A
:10545000F101FC0181E080937504440F420F660F57
:10546000660F460F4083A6E7B4E088E001900D92F6
:105470008150E1F70C94F101FC0181E08093750407
:10548000618342832383A6E7B4E088E001900D9214
:105490008150E1F70C94F10120E0EECF0F931F93C0
:1054A00002E915E0C801F6DCC8016DE0F3DCC801D3
:1054B0006AE0F0DC0E942C021F910F91089540E0F9
:1054C000EDCF82E995E0E6DC0C942C0240E0F9CFC8
:1054D0000F931F93CF93DF938B01C0E0D0E008C000
:1054E000F801EC0FFD1F82E995E06081D3DC219685
:1054F000F80101900020E9F73197E01BF10BCE177E
:10550000DF0770F382E995E06DE0C4DC82E995E0A5
:105510006AE0C0DC0E942C02DF91CF911F910F91B5
:1055200008950F931F938C01CB01BA010E942F3D68
:10553000A8012AE030E00E94B840BC01C801C8DFE1
:105540001F910F9108950F931F938C01CB01BA0106
:10555000A8012AE030E00E94B840BC01C801B8DFD1
:105560001F910F91089520E0EECF0F931F938C01B0
:10557000CB01BA01A8012AE030E00E948640BC01BC
:10558000C801A6DF1F910F91089520E0EECF0F9381
:105590001F938C01CB01B8014AE050E00E946740A4
:1055A000BC01C80195DF1F910F91089540E0EFCF36
:1055B0000F931F938C01CB01B8014AE050E00E9489
:1055C0006740BC01C80184DF1F910F91089540E03E
:1055D000EFCF0F931F93CF93DF938B01C0E0D0E009
:1055E00008C0F801EC0FFD1F82E995E0608152DCF4
:1055F0002196F80101900020E9F73197E01BF10BAB
:10560000CE17DF0770F30E942C02DF91CF911F911C
:105610000F9108950F931F938C01CB01BA010E9443
:105620002F3DA8012AE030E00E94B840BC01C8012B
:10563000D0DF1F910F91089520E0ECCF20E0EACF5A
:105640000F931F938C01CB01BA01A8012AE030E02F
:105650000E94B840BC01C801BCDF1F910F910895A2
:1056600020E0EECF0F931F938C01CB01BA01A8016C
:105670002AE030E00E948640BC01C801AADF1F91E9
:105680000F91089520E0EECF0F931F938C01CB0173
:10569000B8014AE050E00E946740BC01C80199DFB0
:1056A0001F910F91089540E0EFCF0F931F938C014E
:1056B000CB01B8014AE050E00E946740BC01C8013C
:1056C00088DF1F910F91089540E0EFCF089508956E
:1056D000EF92FF920F931F93F42EE22E04E019E055
:1056E000C80123DCC8016F2D22DCC8016E2D1FDC30
:1056F000C8011CDC1F910F91FF90EF9008956F3F40
:1057000071051CF02FEF30E005C09B0177FF02C050
:1057100020E030E063E570E049E2DACF6F3F7105E9
:105720001CF02FEF30E005C09B0177FF02C020E0A6
:1057300030E063E570E048E2CBCF6F3F71051CF0CD
:105740002FEF30E005C09B0177FF02C020E030E082
:1057500063E570E046E2BCCF6F3F71051CF02FEFB0
:1057600030E005C09B0177FF02C020E030E063E538
:1057700070E045E2ADCF6F3F71051CF02FEF30E0D8
:1057800005C09B0177FF02C020E030E063E570E0D8
:1057900044E29ECF6F3F71051CF02FEF30E005C053
:1057A0009B0177FF02C020E030E063E570E043E258
:1057B0008FCF262F63E570E042E28ACF6F3F7105FD
:1057C0001CF02FEF30E005C09B0177FF02C020E006
:1057D00030E063E570E041E27BCFEF92FF920F9300
:1057E0001F938C01362FF42EE22E63E570E04EE11C
:1057F000232F6EDFC80163E570E04FE12F2D68DFD6
:10580000C80163E570E040E22E2D62DF1F910F9129
:10581000FF90EF9008956F3F71051CF02FEF30E07F
:1058200005C09B0177FF02C020E030E063E570E037
:105830004DE14ECFAF92BF92DF92EF92FF920F9366
:105840001F93CF93DF937B01D42E590184E099E01D
:105850006CDB84E099E06D2D6ADB84E099E066DB27
:1058600084E099E0B70161DB84E099E0B701A5012C
:1058700061DBE80104C084E099E05ADB899384E0AD
:1058800099E059DB8823B9F784E099E04FDBDF9199
:10589000CF911F910F91FF90EF90DF90BF90AF904D
:1058A00008959F92AF92BF92CF92DF92EF92FF92B4
:1058B0000F931F93DF93CF930F92CDB7DEB75C01A9
:1058C00084ED98E06BE574E084DEC50163E570E08B
:1058D00040E021E030E07E010894E11CF11C8701EA
:1058E000A9DF84ED98E0698142E0EBDD84ED98E08A
:1058F00062E674E06EDE8DE1C82ED12C9E2CEF2C7A
:1059000084ED98E065E674E064DE84ED98E0B6012D
:1059100040E1CBDE84ED98E068E674E05ADEC50134
:1059200063E570E04C2D21E030E0092D1E2D82DF73
:1059300084ED98E0698142E0C4DD84ED98E062E6A0
:1059400074E047DE0894C11CD11C8AE3C816D10458
:10595000B9F60F90CF91DF911F910F91FF90EF90CB
:10596000DF90CF90BF90AF909F900895FF920F93DC
:105970001F93DF93CF930F92CDB7DEB7262FF42E70
:1059800063E570E0422F21E030E08E010F5F1F4F92
:1059900051DF898190E002C095958795FA94E2F7EE
:1059A00081700F90CF91DF911F910F91FF9008951B
:1059B000462F6EE250E0DACF462F6FE250E0D6CFAE
:1059C000462F60E350E0D2CF6CE244E050E0CECF0F
:1059D0006BE243E050E0CACF6BE240E050E0C6CF5C
:1059E0006BE241E050E0C2CF6BE242E050E0BECF5C
:1059F0006BE244E050E0BACF6BE245E050E0B6CF56
:105A00006BE246E050E0B2CF6AE240E050E0AECF59
:105A10006AE241E050E0AACF6AE242E050E0A6CF5D
:105A20006AE243E050E0A2CF67E243E050E09ECF5D
:105A300067E247E050E09ACF67E240E050E096CF5F
:105A400067E241E050E092CF67E242E050E08ECF63
:105A500067E244E050E08ACF67E245E050E086CF5D
:105A600067E246E050E082CF61E342E050E07ECF63
:105A700061E343E050E07ACF61E345E050E076CF68
:105A800061E346E050E072CF61E347E050E06ECF63
:105A9000BF92CF92DF92EF92FF920F931F93DF930B
:105AA000CF930F92CDB7DEB76C01B62EE42EF22E57
:105AB00063E570E04B2D21E030E08E010F5F1F4F5A
:105AC000B9DE2981FF2049F081E090E002C0880F13
:105AD000991FEA94E2F7282B09C081E090E002C008
